:020000040020DA
:10000000C0AD0120D10220007B842000E5782000D3
:10001000798420004908200041C22000000000002F
:100020000000000000000000000000000D022000A1
:10003000591E20000000000069022000D189200024
:10004000EB022000EB022000EB022000EB0220007C
:10005000EB022000EB022000EB022000EB0220006C
:10006000EB022000EB022000EB022000EB0220005C
:10007000EB022000EB022000EB022000EB0220004C
:10008000EB022000EB02200079052000710820001F
:100090004D0820005908200065082000A11E2000FE
:1000A000EB0220002D8E2000EB022000EB0220004E
:1000B000EB022000EB022000EB022000EB0220000C
:1000C000EB022000EB022000EB022000EB022000FC
:1000D000EB022000319620003D962000EB0220002C
:1000E000991E2000EB022000EB022000EB02200012
:1000F000EB022000EB022000EB022000EB022000CC
:10010000EB02200085852000398E2000EB022000C4
:10011000EB022000EB022000458E2000518E2000D3
:10012000111E2000EB0220001D1E2000291E2000B1
:10013000EB022000EB022000EB022000EB0220008B
:10014000EB022000EB022000EB022000EB0220007B
:10015000351E2000411E20004D1E2000EB02200015
:10016000EB022000EB022000898420007D84200027
:10017000EB02200095842000EB022000000000002C
:10018000EB022000EB022000EB022000EB0220003B
:10019000EB022000EB022000EB022000EB0220002B
:1001A000EB022000EB022000EB022000EB0220001B
:1001B000EB022000EB022000EB022000EB0220000B
:1001C000EB022000EB02200000000000EB02200008
:1001D000EB022000EB022000EB022000EB022000EB
:1001E000EB022000EB022000EB022000EB022000DB
:1001F000EB022000EB022000DFF80CD000F00CF93D
:1002000000480047A1EA2000C0AD01202D4B19682D
:100210000868B0E8F04F80F30988BFF36F8F4FF0A4
:10022000000080F311887047000000000848006853
:10023000006880F308884FF0000080F3148862B6ED
:1002400061B6BFF34F8FBFF36F8F00DF00BF00BFFA
:1002500008ED00E0DFF80C00016841F47001016076
:10026000704700BF88ED00E0EFF30980BFF36F8FA8
:10027000144B1A681EF0100F08BF20ED108A20E9F9
:10028000F04F106009B44FF0500072B680F311883F
:10029000BFF34F8FBFF36F8F62B60FF0DFFC4FF0ED
:1002A000000080F3118809BC19680868B0E8F04FB5
:1002B0001EF0100F08BFB0EC108A80F30988BFF35E
:1002C0006F8F7047E8060020EFF30580704700004D
:1002D0000648804706480047FEE7FEE7FEE7FEE7E0
:1002E000FEE7FEE7FEE7FEE7FEE7FEE79D8B200068
:1002F000F90120002DE9F05F0546002092469B465B
:1003000088460646814640241BE02846414647462B
:10031000224600F070F853465A46C01A914110D355
:1003200011461846224600F057F82D1A67EB0108CF
:100330004F4622460120002100F04EF817EB00093D
:100340004E41201EA4F10104DFDC484631462A4616
:100350004346BDE8F09F40EA01039B0703D009E054
:1003600008C9121F08C0042AFAD203E011F8013BA1
:1003700000F8013B521EF9D27047D2B201E000F8FA
:10038000012B491EFBD270470022F6E710B5134639
:100390000A4604461946FFF7F0FF204610BD421CEE
:1003A00010F8011B0029FBD1801A704730B50B46AD
:1003B000014600202022012409E021FA02F59D4295
:1003C00005D303FA02F5491B04FA02F52844151E69
:1003D000A2F10102F1DC30BD202A04DB203A00FA50
:1003E00002F1002070479140C2F1200320FA03F38C
:1003F000194390407047202A04DB203A21FA02F08A
:100400000021704721FA02F3D040C2F1200291404E
:100410000843194670470000064C074D06E0E068A7
:1004200040F0010394E8070098471034AC42F6D33B
:10043000FFF7E6FEF41421001415210070B58C18A6
:1004400010F8015B15F0070301D110F8013B2A11E8
:1004500006D110F8012B03E010F8016B01F8016BD5
:100460005B1EF9D12B0705D40023521E0DD401F8D1
:10047000013BFAE710F8013BCB1A921C03E013F89A
:10048000015B01F8015B521EF9D5A142D8D30020CF
:1004900070BD0000DFF840C000209FED100A04236B
:1004A000ACF104020CF10801506081ED010A083141
:1004B00042F8080F5B1E81ED000AF5D10849CCF81F
:1004C000000081ED000ACCF8040081ED010ACCF8AF
:1004D000080081ED020A7047FC0E002000000000B9
:1004E000280F002010B50246806B016C11F0500FF0
:1004F000016C05D011F0100F28D002F00EFF10BDD6
:1005000041F40071016401688A6812F0405F04BF21
:100510008269002A17D1CA6A12F4700F1CBF8A6858
:1005200012F4806F0FD14A6822F020024A60016CF9
:1005300021F480710164016C11F4805F03D1016CBE
:1005400041F00101016402F0A5FE10BD806BC16C99
:100550001046BDE81040084710B5806B402101648B
:10056000416C41F00401416402F0D7FE10BD10B5AA
:10057000806B02F0D1FE10BD044810B502F0CEFE33
:10058000BDE81040024802F0C9BE0000340F002050
:100590007C0F002070B50B4803F0C0F90A4CA0682E
:1005A0000BF078FF04F12C0585ED000A60680BF074
:1005B00083FF85ED010A20680BF090FF85ED020AAC
:1005C00070BD00007C0F0020FC0E00202DE9F041E2
:1005D0006C4803F0A3F96C4D286801F0C9FB05F1E4
:1005E0002C0484ED000A686801F0A6FB00EE100AF6
:1005F000B8EE400A84ED010AA86801F081FB00EE24
:10060000100AB8EE400A84ED020AE86801F066FBC1
:1006100084ED030A286901F03DFB84ED040A686952
:1006200001F04AFB84ED050AA86901F0D5FB00EE54
:10063000100AB8EE400A84ED060AE86901F0BCFB36
:1006400084ED070A01F0C2F9312818BFBDE8F08136
:100650009FED4E0AD4ED030A4D4F40F247204D4D19
:10066000022260EE800A4C4EC7ED020AD4ED040A65
:1006700060EE800AC7ED030AD4ED050A20EE800A79
:1006800087ED040A297894ED000A11FB00F0BCEE16
:10069000C00A811901F2262110EE100A80B20EF074
:1006A00051F9297840F2472094ED010A042211FB08
:1006B00000F0BCEEC00A811901F2292110EE100AE7
:1006C00080B20EF03FF9297840F2472094ED020AFB
:1006D000032211FB00F0BCEEC00A811901F23221A5
:1006E00010EE100A80B20EF02DF9297840F2472062
:1006F00097ED020A022311FB00F0BCEEC00A81193B
:10070000012210EE100A01F50F7180B20CF01AF8F8
:10071000297840F2472097ED030A022311FB00F0ED
:10072000BCEEC00A81191A4601F2362110EE100AF9
:1007300080B20CF007F8297840F2472097ED040AC0
:10074000022311FB00F0BCEEC00A8119012210EE59
:10075000100A01F2412180B20BF0F4FF297840F237
:10076000472094ED060A11FB00F0BCEEC00A811987
:10077000BDE8F04110EE100A032201F22E2180B2F2
:100780000EF0E0B8340F0020DC0E00200000C8425C
:100790007400002001000020900700200249082278
:1007A00001F1580002F0F0BFDC0E002000EE100A4C
:1007B000DFED050A9FED051AB8EE400A70EEC00A9B
:1007C00080EE810A704700000020B2441F858B40F4
:1007D00000EE100ADFED030AB8EE400A20EE200A10
:1007E00070470000EF03903C00EE100A9FED092ACD
:1007F000F6EE001AB8EE400ADFED070AB2EE041A70
:1008000020EE020A30EE610A20EE200A20EE010AF4
:1008100070470000010AA03A00001642704700002D
:10082000034801214FF0FF3240680EF0B7BA0000D4
:10083000A4000020034802214FF0FF3240680EF070
:10084000ADBA0000A4000020FEE70000014803F05C
:1008500040BA0000E0120020014803F03ABA00005C
:10086000E0120020014803F034BA0000E01200203A
:10087000014803F02EBA0000E012002002484FF4B5
:10088000B671FFF781BD00007411002010484FF4CD
:10089000807108B504F0BEF8002818BF08BD00211B
:1008A0004FF0010C0B4840F207230222017680F83A
:1008B00019C0C16003606B46026100F118028160DB
:1008C0000175014600F5F67003F06AF808BD0000F6
:1008D00000000240F4100020F8B501F077F8464E11
:1008E00031284FF0020706BF012030703770434DAA
:1008F0000024434808234FF4467295ED000ABCEEED
:10090000C00A10EE101A4FEA112C80F818C0417678
:1009100095ED010ABCEEC00A10EE101A4FEA112C38
:1009200080F81AC0C17695ED060ABCEEC00A10EE3A
:10093000101A4FEA112C80F81CC0417795ED020A7D
:10094000BCEEC00A10EE101A4FEA112C80F81EC03F
:10095000C1770146C460846003616B46026000F1A8
:100960001802047500F5E67003F01AF895ED040A14
:100970002448062340F21932BCEEC00A10EE101AC9
:100980004FEA112C80F818C0417695ED030ABCEEB1
:10099000C00A10EE101A4FEA112C80F81AC0C17666
:1009A00095ED050ABCEEC00A10EE101A4FEA112CA4
:1009B00080F81CC041770146C460846003616B46C7
:1009C000026000F11802047500F5D67002F0E8FF2D
:1009D0000D4840F201416B4604763278427600F1D0
:1009E0001802C4600761846001600146047500F567
:1009F000C67002F0D5FFF8BD88000020080F002067
:100A00001411002034110020541100208AB0104C21
:100A100053206D468DF820004FF0FF32606F69461D
:100A20000FF036FCD4F8AC004FF0FF310FF042FD70
:100A3000084809AB05F11802694602F0B1FF002829
:100A4000EAD00023A06D08A91A460FF043FAE3E7A5
:100A5000B4000020E01200200A4810B508490068E0
:100A60000FF0BEFB08484068002808BF10BD4FF0DB
:100A7000805006490860BFF34F8FBFF36F8F10BDE2
:100A80008C000020500100208800002004ED00E0D0
:100A90002DE9F0411C4C012600254FF00E082027BF
:100AA000214601F517706561C4E906562560C4E961
:100AB0000157E5602561C4E9086802F0E5FFC4E973
:100AC0000565E6612146C4E90075A76001F5177068
:100AD000C4E90356C4E9086802F0D6FF012104F511
:100AE000177002F047FF022104F5177002F042FF71
:100AF000102104F5177002F03DFF04F51770BDE8F2
:100B0000F04103F04BBB00008410002010B582B010
:100B1000264945204FF0000C8DF80000CDF804C0A8
:100B20008B7923482349302B0068CA780AD0312BAF
:100B30001CBF02B010BD3AB3012A08BF81F800C043
:100B400002B010BD012A1CBF02B010BD40F2472305
:100B50004C78194A14FB03F31A4492F84630302BB0
:100B600001BF92F84720302A02B010BD4FF0380282
:100B700081F800C04FF0000369468DF8002001AAFB
:100B80000FF09AFA02B010BD0A78521CD2B20A7065
:100B90001E2A3CBF02B010BD4321002301AA8DF8DC
:100BA000001069460FF088FA02B010BD1E0C00203C
:100BB0001C01002000000020900700202DE9F041DA
:100BC000014645202DED028B82B08DF800000020FB
:100BD0000190888BFE4C40F2472640F2173740BA0E
:100BE000E080CA8B52BA22810B8C93FA93FCA4F852
:100BF0000AC04B8C5BBAA38123465D780B6815FB5A
:100C000006F1F44E9FEDF48AF44DBB42F2EE048AF5
:100C1000A3F21737294400F091867DDC40F20D37AE
:100C20004FF00102BB42A3F20D3700F06A8274DC80
:100C300040F206384345A3F2063700F0C18257DC84
:100C4000052B00F0F782B3F5417F00F02B82A3F56E
:100C5000407005381EBF02B0BDEC028BBDE8F081CC
:100C6000E270F068401CF060604608F05DF984EDC9
:100C7000060AA0890BF0E6FA84ED070A617840F2D3
:100C80004720012211FB00F0284400F14201E088D6
:100C90000DF058FE617840F24720052211FB00F06C
:100CA000284400F1440120890DF04CFE617840F2A7
:100CB000472094ED060A032211FB00F0BCEEC00AA7
:100CC00041194A3110EE100A80B20DF03BFE6178F6
:100CD00040F2472094ED070A052211FB00F0BCEE1C
:100CE000C00A41194E3110EE100A80B200F0E0BA8D
:100CF000012F00F0E082062F40F0EE80E270716874
:100D0000491C716001F0AAF884ED040A208901F001
:100D1000A5F884ED050A01E05CE04DE0608901F092
:100D20009DF884ED060AA08901F098F884ED070A81
:100D3000617840F2472094ED040A032211FB00F091
:100D4000BCEEC00A4119203110EE100A80B20DF03D
:100D5000F9FD617840F2472094ED050A032211FB6A
:100D600000F0BCEEC00A4119243110EE100A80B226
:100D70000DF0E8FD617840F2472094ED060A032269
:100D800011FB00F0BCEEC00A4119283110EE100A28
:100D900080B20DF0D7FD617840F2472094ED070A4C
:100DA000032211FB00F0BCEEC00A41192C3110EEF9
:100DB000100A80B200F07CBABB1E082B80F08C8039
:100DC000DFE813F0A4028A008A00470559056C0584
:100DD0007F05920540F23F3C6745A7F23F3300F0A4
:100DE00017847DDC40F23B339F42A7F23B3100F099
:100DF000518379DCE92F00F0D082A7F540713939B1
:100E000000F0E782012940F06780716A491C716235
:100E100006F082FD20EE080A84ED040A208900B263
:100E200006F08CFD84ED050A6089FFF7DDFC20EEFD
:100E3000080A84ED060AA08900B207F0EDFC20EE56
:100E4000280A40F24720022384ED070A61781A46F7
:100E500094ED040A11FB00F0BCEEC00A4119AE315A
:100E600010EE100A80B20BF06DFC617840F2472062
:100E700094ED050A042211FB00F0BDEEC00A2844DF
:100E800000F1B40110EE100A00B20DF095FC61788B
:100E900040F2472094ED060A022311FB00F0BCEE5D
:100EA000C00A41191A46BA3110EE100A80B20BF08E
:100EB00049FC617840F2472094ED070A012311FBB9
:100EC00000F0BCEEC00A284400F1C00110EE100A88
:100ED000032200B20BF0B4FB02B0BDEC028B01E0C8
:100EE00061E001E0BDE8F081022900F038830329C8
:100EF000F2D1316B491C316306F0F6FC84ED040A33
:100F0000208906F0F1FC84ED050A608906F0ECFC0E
:100F100084ED060AA08906F0E7FC84ED070A6178F3
:100F200040F2472094ED040A032211FB00F0BCEECE
:100F3000C00A4119EF3110EE100A80B20DF002FD27
:100F4000617840F2472094ED050A032211FB00F07E
:100F5000BCEEC00A4119F33110EE100A80B20DF058
:100F6000F1FC617840F2472094ED060A032211FB60
:100F700000F0BCEEC00A4119F73110EE100A80B241
:100F80000DF0E0FC617840F2472094ED070A03225F
:100F900011FB00F0BCEEC00A4119FB3110EE100A43
:100FA00080B200F085B9B52B00F0EE8343DC012B55
:100FB00000F08A83B42B8FD1F26B00B20223521C53
:100FC000F263032201F21F110BF03AFB08E000006C
:100FD00000000020741100200000C842900700208B
:100FE000617840F247200223032211FB00F02844DD
:100FF00000F22711208900B20BF022FB617840F249
:1010000047200123032211FB00F0284400F22F1196
:10101000608900B20BF014FB617840F24720012395
:10102000032211FB00F0284400F59B71A08900B257
:101030000BF006FB50E7B62B00F0D583B72B7FF4FF
:101040004BAFB26C00B20223521CB264032201F512
:10105000BB710BF0F5FA617840F2472002230322BE
:1010600011FB00F0284400F5BF71208900B20BF09D
:10107000E7FA617840F247200123032211FB00F0D8
:10108000284400F5C371608900B20BF0D9FA617889
:1010900040F2472011FB00F0284400F28D1103229A
:1010A00000F075BCE270012332680831521C3260D6
:1010B00003220BF047FB617840F247200123032213
:1010C00011FB00F0284400F10E0120890BF03AFBDF
:1010D000617840F247200123032211FB00F02844ED
:1010E00000F1140160890BF02DFB617840F247207C
:1010F0000123032211FB00F0284400F11A01A0890A
:101100005BE0E270B168491CB16000F0A7FE84EDBD
:10111000040A208900F0A2FE84ED050A608907F028
:101120000FFF84ED060AA089FFF752FB20EE080AA4
:1011300040F24720032284ED070A617894ED040A07
:1011400011FB00F0BCEEC00A4119303110EE100A5C
:1011500080B20DF0F7FB617840F2472094ED050A6C
:10116000032211FB00F0BCEEC00A4119343110EE2D
:10117000100A80B20DF0E6FB617840F2472094ED52
:10118000060A032211FB00F0BCEEC00A41193831F7
:1011900010EE100A80B20DF0D5FB617840F24720C6
:1011A00094ED070A022311FB00F0BCEEC00A4119BE
:1011B0001A463C3110EE100A80B20BF0C3FA8BE6EF
:1011C0000FFA8CF0E27007F019FB20EE280A0123D9
:1011D000032284ED060A3069401C3061617840F2D8
:1011E000472011FB00F0284400F15401E0880BF087
:1011F000A9FA617840F247200123032211FB00F095
:10120000284400F15A0120890BF09CFA617840F2E1
:10121000472094ED060A012311FB00F0BDEEC00A41
:10122000284400F1600110EE100A042200B20BF015
:1012300007FA51E6E2707069401C7061604601F087
:101240002FFF84ED060A617840F24720012211FB4E
:1012500000F0284400F16801E0880DF073FB61782C
:1012600040F24720012211FB00F0284400F16A01FE
:1012700020890DF067FB617840F2472094ED060A63
:10128000032211FB00F0BCEEC00A41196C3110EED4
:10129000100A80B20DF056FB617840F2472001221F
:1012A00011FB00F0284400F1700100F070BB00BF9A
:1012B0000DF048FB10E6E2707231B269521CB26167
:1012C00005220DF03FFB617840F24720052211FB1B
:1012D00000F0284400F1780120890DF033FB61789B
:1012E00040F247200323012211FB00F0284400F1C3
:1012F0007E0160890BF026FA617840F2472011FBED
:1013000000F0284400F1840100F016BBE270F1699E
:10131000491CF16100F02AFE20EE080A84ED040A5F
:10132000208900F0ADFD84ED050A608900F0A8FD7C
:1013300084ED060A617840F2472094ED040A022306
:1013400011FB00F0BCEEC00A41191A468A3110EEBA
:10135000100A80B20BF0F6F9617840F2472094ED64
:10136000050A032211FB00F0BCEEC00A41199031BE
:1013700010EE100A80B20DF0E5FA617840F24720D5
:1013800094ED060A032211FB00F0BCEEC00A4119DD
:10139000943110EE100A80B28AE701287FF49CADE8
:1013A000F848012A00680BD0022A7FF495AD42214B
:1013B0008DF800100023694601AA0EF07DFE8BE532
:1013C00037218DF800100023694601AA0EF074FE43
:1013D00082E5316A491C316206F09EFA20EE080A65
:1013E00084ED040A208900B206F0A8FA84ED050A0B
:1013F0006089FFF7F9F920EE080A84ED060AA08952
:10140000FFF7D4F984ED070A617840F2472094EDA4
:10141000040A022311FB00F0BCEEC00A41191A466F
:10142000983110EE100A80B20BF08CF9617840F21E
:10143000472094ED050A042211FB00F0BDEEC00A1E
:10144000284400F19E0110EE100A00B20DF0B4F92C
:10145000617840F2472094ED060A022311FB00F068
:10146000BCEEC00A41191A46A43110EE100A80B22F
:101470000BF068F9617840F2472094ED070A0322E7
:1014800011FB00F0BCEEC00A4119AA3110EE100A9F
:1014900080B20DE7B16A491CB16206F03DFA20EE58
:1014A000080A84ED040A208900B206F047FA84EDA8
:1014B000050A608906F030FA20EE080A84ED060A73
:1014C000A08900B206F03AFA84ED070A617840F28A
:1014D000472094ED040A022311FB00F0BCEEC00A81
:1014E00041191A46C73110EE100A80B20BF02AF9E2
:1014F000617840F2472094ED050A042211FB00F0C8
:10150000BDEEC00A284400F1CD0110EE100A00B271
:101510000DF052F9617840F2472094ED060A02235B
:1015200011FB00F0BCEEC00A41191A46D33110EE8F
:10153000100A80B20BF006F9617840F2472094ED72
:10154000070A042211FB00F0BDEEC00A284400F196
:10155000D90110EE100A00B20DF02EF9BCE4F16AC8
:10156000491CF16206F0C0F984ED040A208906F0F6
:10157000BBF984ED050A608906F0B6F984ED060A28
:10158000A08906F0B1F984ED070A617840F247209E
:1015900094ED040A032211FB00F0BCEEC00A4119CD
:1015A000DF3110EE100A80B20DF0CCF9617840F214
:1015B000472094ED050A032211FB00F0BCEEC00A9F
:1015C0004119E33110EE100A80B20DF0BBF96178D9
:1015D00040F2472094ED060A032211FB00F0BCEE16
:1015E000C00A4119E73110EE100A80B20DF0AAF9D5
:1015F000617840F2472094ED070A032211FB00F0C6
:10160000BCEEC00A4119EB3110EE100A80B24FE671
:10161000716B491C716306F067F984ED040A208937
:1016200006F062F984ED050A608906F05DF984ED43
:10163000060AA08906F058F984ED070A617840F29D
:10164000472094ED040A032211FB00F0BCEEC00A0F
:101650004119FF3110EE100A80B20DF073F9617874
:1016600040F2472094ED050A032211FB00F0BCEE86
:10167000C00A411901F2031110EE100A80B20DF0F8
:1016800061F9617840F2472094ED060A032211FBCC
:1016900000F0BCEEC00A411901F2071110EE100A69
:1016A00080B20DF04FF9617840F2472094ED070ABF
:1016B00011FB00F0BCEEC00A4119032210EE100A23
:1016C00001F20B1180B2F3E5B16B491CB16306F076
:1016D0000BF984ED040A208906F006F984ED050A69
:1016E000608906F001F984ED060AA08906F0FCF88D
:1016F00084ED070A617840F2472094ED040A032242
:1017000011FB00F0BCEEC00A411901F20F1110EEFE
:10171000100A80B20DF016F9617840F2472094ED7E
:10172000050A032211FB00F0BCEEC00A411901F2C8
:10173000131110EE100A80B20DF004F9617840F236
:10174000472094ED060A032211FB00F0BCEEC00A0C
:10175000411901F2171110EE100A80B20DF0F2F8E3
:10176000617840F2472094ED070A11FB00F0BCEECF
:10177000C00A4119032210EE100A01F21B1180B2B7
:1017800096E500001C010020326C00B20223521CBE
:101790003264032201F23D110AF052FF617840F2F7
:1017A00047200223032211FB00F0284400F24511D8
:1017B000208900B20AF044FF617840F247200123FB
:1017C000032211FB00F0284400F24D11608900B2A1
:1017D0000AF036FF617840F2472011FB00F0284400
:1017E00000F5AA715BE4726C00B20223521C7264B1
:1017F000032201F5AC710AF023FF617840F2472023
:101800000223032211FB00F0284400F5B071208967
:1018100000B20AF015FF617840F24720012303224D
:1018200011FB00F0284400F5B471608900B20AF0A1
:1018300007FF617840F247200123032211FB00F0EB
:10184000284400F26F11A08900B20AF0F9FEFFF7F8
:1018500043BBF26C01F5EF71521CF26402220DF0F1
:1018600071F8617840F24720032211FB00F0284410
:1018700000F2E11136E0326D01F2E511521C3265E1
:1018800002220DF05FF8617840F24720032211FB3D
:1018900000F0284400F5F471208909E5726D01F526
:1018A000F671521C726502220DF04CF8617840F21C
:1018B0004720032211FB00F0284400F2EF11208999
:1018C000F6E4B26D01F2F311521CB26502220DF082
:1018D00039F8617840F24720042211FB00F02844D7
:1018E00000F5FB712089E3E4F26D01F2FB11521C5B
:1018F000F26502220DF026F8617840F247200322BB
:1019000011FB00F0284400F5FF7120890DF01AF852
:10191000617840F24720052211FB00F0284400F2D4
:10192000022160890DF00EF8617840F2472011FB2A
:1019300000F0284400F50271052228E0326E01F221
:101940000E21521C326605220CF0FCFF617840F239
:101950004720052211FB00F0284400F5057120897D
:101960000CF0F0FF617840F24720052211FB00F0F7
:10197000284400F21A2160890CF0E4FF617840F2FB
:101980004720052211FB00F0284400F50871A089CA
:101990008EE400000A4810B5084900680EF020FCEB
:1019A0000848006A002808BF10BD4FF08050064963
:1019B0000860BFF34F8FBFF36F8F10BD2000002072
:1019C000540100200000002004ED00E0014880796F
:1019D000704700001E0C00200148007A704700008C
:1019E0001E0C002001480078704700001E0C0020EB
:1019F0007849002010B530224870887040F28E413E
:101A00007548FEF7BAFCDFF8D0C100223B200A235C
:101A100040F2472102FB01F1521C6144D2B2C8716D
:101A20004873C8744876C87781F8230081F8270086
:101A300081F82B0081F82F0081F8330081F83700FE
:101A400081F83B0081F8410081F8430081F84900AA
:101A500081F84D0081F8530081F8590081F85F004A
:101A600081F8670081F8690081F86B0081F86F00E8
:101A700081F8710081F8770081F87D0081F883009A
:101A800081F8890081F88F0081F8930081F8970030
:101A900081F89D0081F8A30081F8A90081F8AD00CC
:101AA00081F8B30081F8B90081F8BF0081F8C60061
:101AB00081F8CC0081F8D20081F8D80081F8DE00EE
:101AC00081F8E20081F8E60081F8EA0081F8EE0092
:101AD00081F8F20081F8F60081F8FA0081F8FE0042
:101AE00081F8020181F8060181F80A0181F80E01EE
:101AF00081F8120181F8160181F81A0181F81E019E
:101B000081F8260181F82E0181F8350181F83C0128
:101B100081F8440181F84C0181F8530181F85701A3
:101B200081F85F0181F8670181F86E01022A81F86E
:101B3000750181F87D0181F8850181F88C0181F8BA
:101B4000900181F8980181F8A00181F8A70181F83E
:101B5000AF0181F8B70181F8BE0181F8C50181F8B4
:101B6000C90181F8CF0181F8D50181F8DD0181F843
:101B7000E00181F8E40181F8E70181F8EB0181F8E7
:101B8000EE0181F8F20181F8F50181F8FA0181F89E
:101B9000FD0181F8010281F8070281F80D0281F848
:101BA000130281F8190281F81F0281F8250281F8D9
:101BB000280281F82D0281F8310281F8350281F87E
:101BC0003B0281F8400281F8450281F84632FFF479
:101BD0001FAF10BD000000209007002001493020F9
:101BE000887170471E0C0020014931200871704730
:101BF0000000002001490020C8707047000000204C
:101C0000064830213B22017042708170C270017120
:101C100042718171C2710172704700001E0C002078
:101C200001493020087270471E0C00200149302005
:101C3000087070471E0C00200149312088717047E0
:101C40001E0C002001493120087270471E0C002034
:101C500001493120087070471E0C002010B50B4C54
:101C600040F247220A48637894F802C013FB02F35B
:101C70001CFB02F21918104440F24722FEF76BFBDE
:101C8000A17860786170A07010BD00000000002095
:101C90009007002000EE100ADFED050A9FED051AFF
:101CA000B8EE400A60EE200A80EE810A704700001C
:101CB0006740533A3867043E00EE100ADFED050A2C
:101CC0009FED051AB8EE400A60EE200A80EE810A08
:101CD000704700006740533A4703083F00EE100A80
:101CE000DFED050A9FED051AB8EE400A60EE200A06
:101CF00080EE810A704700006740533A02BCA53E5F
:101D000000EE100ADFED090ADFED091AB8EE400A0D
:101D10009FED081A20EE200AC0EE210A20EE810A6B
:101D2000BCEEC00A10EE100A80B270476740533A0A
:101D3000CDCC0C4000007A4400EE100ADFED090A19
:101D4000DFED091AB8EE400A9FED081A20EE200ACE
:101D5000C0EE210A20EE810ABCEEC00A10EE100A85
:101D600080B270476740533ACDCC0C4000007A44B3
:101D700000EE100A9FED0B2ADFED0B2AB8EE400AA9
:101D8000DFED0A1A9FED0A1ADFED0A0A20EE020AB9
:101D900020EE220A30EE610A20EE010A30EE600ADF
:101DA000704700006740533A00007A440000C84280
:101DB000CDCCCC3D0000204200EE100ADFED050A3C
:101DC000B1EE001AB8EE400A20EE200A20EE010A19
:101DD000704700006740533A00EE100ADFED090A31
:101DE000DFED091AB8EE400A9FED081A20EE200A2E
:101DF000C0EE210A20EE810ABCEEC00A10EE100AE5
:101E000080B270476740533A6666C64000007A4425
:101E1000014802F0B5BA0000C40F0020014802F0EA
:101E2000AFBA000024100020014802F0A9BA000057
:101E3000D41A0020014802F0A3BA0000F41C0020CC
:101E4000014802F09DBA0000741A0020014802F017
:101E500097BA0000541D00207047000000EE100AE1
:101E60009FED051ADFED050AB8EE400A20EE010AE3
:101E700030EE200A70470000EF20B6BE33F33E4339
:101E800000EE100ADFED030AB8EE400A20EE200A49
:101E90007047000038679C3F4FF4806002F082BCBE
:101EA0004FF4807002F07EBC0B4C002202212046D1
:101EB00002F0BCFD00222046102102F0B7FD0022F6
:101EC0002046082102F0B2FD0821204602F0A7FDBD
:101ED0000A2002F04BFCF7E7000C0240134A4DF8D1
:101EE000044D92F80EC00123BCF1020F19D2947B6D
:101EF00002F10C034FF0000C02F804C0947B02EBDB
:101F000084046060907B00F803C0907B431C937353
:101F10003A2463462F22303008704C708A7081F862
:101F200003C018465DF8044B70470000AC27012041
:101F30000D4902468B7B0120002B08BF70471278A9
:101F4000303AD2B201EB8203D3F804C0BCF1000FE7
:101F500008BF7047002058600A441073887B421EF7
:101F60008A73002070470000AC27012000EE100AA1
:101F7000DFED0B0A9FED0B2AF8EE402AB8EE400A7F
:101F8000DFED091A9FED091A62EEA00A20EE020A9F
:101F900070EEE10A30EE011A80EE810A704700000F
:101FA000FBCDE43D4EB7EC3B45C7954166B144419E
:101FB00010484FF4807110B502F02CFD002818BFB6
:101FC00010BD0D480068002808BF10BD0B490C4823
:101FD00000680EF005F90B484068002808BF10BDE6
:101FE0004FF0805008490860BFF34F8FBFF36F8FE9
:101FF00010BD0000000002403801002060000020F9
:10200000340100205C00002004ED00E07047000077
:102010000F484FF4806110B502F0FCFC002818BF97
:1020200010BD0C480068002808BF10BD0A490EF01A
:10203000D7F80A488068002808BF10BD4FF08050CC
:1020400007490860BFF34F8FBFF36F8F10BD0000CB
:102050000000024038010020640000205C000020E5
:1020600004ED00E000F036FD07490122074805F0C5
:10207000E3FA074C4FF0FF31D4F8A4000EF01AFA3F
:10208000044800F009F8F5E727000020741C002040
:10209000B4000020280C00202DE9F04F51202DED38
:1020A000068B81B08DF80000FE4800794D2808BFEE
:1020B000052112D008DC472808BF01210DD04C288B
:1020C00008BF022109D007E0532808BF032104D02C
:1020D000542808BF062100D0FF21DFF8CC93F14F30
:1020E0009FEDF29A9FEDF28ADFEDF29AB2EE04AA2A
:1020F000DFEDF1AADFEDF18A384689F801100529F4
:102100004FF02A0BC07900F0028309DC01290FD0BF
:10211000022900F06D81032900F0A28200F0C5BC05
:10212000062900F0A884FF2900F0B88400F0BDBCA7
:10213000DC4D2A284FF007044FF0000700F05281D1
:10214000285D2C2804BF781CC7B200F043810A2FF9
:1021500080F03E81DFE807F0052A7E82D5DAE0F7DD
:10216000EFEE2E19295D0020727800F081FDDFF876
:102170005083801C88F800000020F278B17800F0CD
:1021800077FD88F8010000207279317900F070FD48
:1021900088F802000020327AF17900F069FD04F13C
:1021A000080188F80300CCB200F014B92E19295D9B
:1021B0000020727800F05CFDDFF8048388F80800E6
:1021C0000020F278B17800F053FD88F809007179A9
:1021D00096F806C03039F079C9B2327A737AACF128
:1021E000300600EE101AA0F1300CF0B200EE900AAA
:1021F000B8EE401A0CF0FF01F8EE601A00EE101A6B
:10220000C1EE0A0A303AD0B2303BD9B281EEAA1AF6
:10221000F8EE401A00EE100A04F10900C4B2F8EE1C
:10222000402A00EE101A81EEA82A70EE810AC2EE52
:10223000891AF8EE402A70EE820A82EE880A71EE60
:10224000A00A30EE800A20EE290AB7EEC00A88ED17
:10225000040BBFE09A49285D0876BBE02E19285D83
:10226000B278717800F004FDDFF85482A8F82000FD
:1022700000203279F17800F0FBFC88F82200B17977
:10228000F079303996F808C0C9B2737A00EE101AA6
:102290003038B27AC0B200EE900AB8EE401AACF113
:1022A000300CF8EE601A0CF0FF01C1EE0A0A00EEE5
:1022B000101A303BD8B2B8EE402A00EE100A303A7D
:1022C000D1B2F8EE402A00EE101A04F10A00C4B2AE
:1022D000B8EE400A81EEAA1AC2EE281A82EE892AC6
:1022E000C0EE082A30EE810A30EE210A32EE000AF2
:1022F00030EE220A20EE290AB7EEC00A88ED0A0B5A
:1023000068E06F49285D81F8300063E06C49285D22
:10231000303881F831005DE0281942782C2A0CD041
:10232000295D002000F0A4FC6549621CD4B281F84C
:1023300032004FE047E029E005E06149285D303890
:1023400081F8320046E029198878C9783038303968
:10235000C0B200EE900AC9B2285D00EE101AB8EEC5
:10236000601AE11CF8EE400A3038CCB241EE0A0A9D
:1023700080EEAA0A00EE900A5148F8EEE00A30EE2C
:10238000200AB7EEC00A80ED0E0B23E028198278F0
:102390002E2A03D0C1782E290BD01BE042780020D2
:1023A000295D00F065FCE11CCCB2454981F8400094
:1023B00010E04178285D00F05BFC211DCCB2404963
:1023C00081F8400006E03E49285D81F8410001E0C7
:1023D00005F804B0601CC4B2285D2A2818BF532C2D
:1023E000FFF4AEAE36494822A1F5847000F040BB40
:1023F0002C4D2A284FF007044FF0000618BFDFF8D5
:10240000C4807BD0285D2C2804BF701CC6B274D059
:10241000072E74D2DFE806F0047477D4D7FDFC00F1
:1024200005EB04090146002099F8012000F020FC8A
:1024300088F80000002099F8032099F8021000F0B5
:1024400017FC88F8010099F8050099F806C03038A3
:1024500099F80710C0B299F8082000EE900A99F890
:102460000930ACF13009A1F1300CB8EE601A09F076
:10247000FF0100EE101A0CF0FF00C1EE0A0AF8EEA0
:10248000401A00EE100A303AD1B2B8EE402A00EEFF
:10249000101A303BD8B2F8EE402A81EEAA1AC2EEEA
:1024A000281A11E0280C00202500002000401C46BE
:1024B0000050C347000070420000C84200007A4448
:1024C000880D0020D00D002082EE892A00EE100A2F
:1024D00004F10900C4B2B8EE400AC0EE082A30EE9A
:1024E000810A30EE210A32EE000A30EE220A20EE96
:1024F000290AB7EEC00A88ED020B99E0A0E095E04A
:1025000088F8100094E005EB040999F8022099F886
:10251000011000F0ADFBA8F81800002099F8042085
:1025200099F8031000F0A4FB88F81A0099F8060047
:1025300099F807C0303899F80810C0B299F8092006
:1025400099F80A30ACF1300900EE100AA1F1300C14
:1025500009F0FF0100EE901AB8EE401AA2F1300027
:10256000F8EE601A0CF0FF02C1EE0A0A00EE102A23
:10257000C0B2A3F13001C9B281EEAA1AF8EE401A36
:1025800000EE100A04F10A00C4B2F8EE402A00EE90
:10259000101AB8EE400A81EEA82AC2EE891AC0EEDF
:1025A000082A30EE810A30EE020A31EE800A30EE5F
:1025B000220A20EE290AB7EEC00A88ED080B37E0A0
:1025C00088F8280034E005EB04090146002099F85A
:1025D000012000F04DFB801C88F8290099F80320A9
:1025E000002099F8021000F043FB88F82A00002030
:1025F00099F8052099F8041000F03AFB88F82B00B0
:10260000002099F8082099F8071000F031FB01E04C
:1026100009E005E004F1080188F82C00CCB207E0DD
:1026200088F82D0004E088F82E0001E005F804B0D9
:10263000601CC4B2285D2A2818BF532CFFF4E2AEF8
:1026400007F5D47007F1A00890E87F1088E87F10A4
:1026500007F5E470C0370FC887E80F0000F025BA0F
:10266000F84D2A284FF007044FF0000618BFDFF896
:10267000D8831FD0295D2C2904BF701CC6B212D08C
:10268000002E08BF88F800100DD0012E04BFA1F164
:10269000300088F8010006D0022E15D0032E18BF96
:1026A00005F804B021D0601CC4B2285D2A2818BFE8
:1026B000532CDFD3D9F80300C7F85801D9F8070025
:1026C000C7F85C0100F0F1B9281982782C2A1CBFE8
:1026D000A1F1300088F80200E5D14278002000F036
:1026E000C7FA611C88F802000FE0281982782C2AAA
:1026F0001CBFA1F1300088F80300D4D1427800203B
:1027000000F0B6FA611C88F80300CCB2CBE7CD4EDE
:102710002A284FF007044FF0000700F0A581DFF8EA
:102720002C9306F5EC78DFF828A3305D2C2804BF45
:10273000781CC7B200F09081092F80F08B81DFE810
:1027400007F005272B9497FCFB93FA0035190146F7
:1027500000206A7800F08CFA801C88F80000EA7883
:102760000020A97800F084FA88F8010000206A7936
:10277000297900F07DFA88F8020000202A7AE979A8
:1027800000F076FA04F1080188F8030000F057B968
:1027900088F8040000F060B93519014600206A7815
:1027A00000F066FA88F808000020EA78A97800F0BE
:1027B0005FFA88F809006879A979303895F807C078
:1027C00030392A7AC0B26B7AC9B200EE100A00EE34
:1027D000901AA2F13000B8EE401AB8EE602AACF1BF
:1027E000300C0CF0FF02C1EE0A1A00EE102AC0B243
:1027F000A3F13001C9B2C2EE2A0AB8EE402A00EEB7
:10280000100A40F2472082EE281AB8EE402A00EE65
:10281000101A04F10901CCB2B8EE400AC2EE092A3E
:1028200080EE082A31EEA00A30EE010A32EE800A6C
:1028300030EE020A20EE290AB7EEC00A88ED040B3A
:1028400099F80020697912FB00F0504480F8CA1111
:10285000A97980F8CB11E97980F8CC11297A80F830
:10286000CD11697A80F8CE11F6E088F81800F3E00F
:102870003519AA78697800F0FBF9A8F82000002043
:102880002A79E97800F0F4F988F82200A879E97942
:10289000303895F808C0C0B26A7A00EE900A303934
:1028A000AB7AC9B2B8EE601A00EE101AA2F130008D
:1028B000ACF1300CC1EE0A0AF8EE401A0CF0FF023F
:1028C00000EE102AC0B2A3F13001C9B281EEAA1AFB
:1028D000F8EE401A00EE100A40F24720F8EE402AC7
:1028E00000EE101A04F10A01CCB2B8EE400A81EEF3
:1028F000A82AC2EE891AC0EE082A30EE810A30EE0C
:10290000020A31EE800A30EE220A20EE290AB7EEE2
:10291000C00A88ED0A0B99F80020A97912FB00F093
:10292000504480F8D011E97980F8D111297A80F8E3
:10293000D211697A02E06BE009E005E080F8D3117A
:10294000A97A80F8D41187E088F8300084E035193E
:1029500069782E292FD0AA78002000F089F988F80C
:10296000380028796A793038A979C0B200EE100AA7
:10297000A2F13003A1F13002D9B200EE901AB8EE04
:10298000401AD0B2F8EE601A00EE100AC1EE0A0A40
:10299000A01DC4B281EEAA1AF8EE401A81EEA80A70
:1029A00070EE810A30EE800A20EE280AB7EEC00AE7
:1029B00088ED100B50E0303888F83800AA78E978B4
:1029C000303A2879A1F13003D1B200EE901AA0F18B
:1029D0003002D8B2B8EE601A00EE100AD1B2201D53
:1029E000C1EE0A0AF8EE401A00EE101AC4B281EEE7
:1029F000AA1AF8EE401A81EEA80A70EE810A30EEAB
:102A0000800A20EE280AB7EEC00A88ED100B23E0FA
:102A10003519014600206A7800F02AF988F8490043
:102A20000020EA78A97800F023F988F84A0000200D
:102A30006A79297900F01CF9611D88F84B00CCB245
:102A40000AE00000280C00202800002001000020DF
:102A50009007002006F804B0601CC4B2305D2A283C
:102A600018BF532CFFF461AE15495022A1F1D000DC
:102A7000FDF771FC19E0134800F014F907F50A702E
:102A800007F1D00890E87F1088E87F1007F51270F2
:102A9000F03790E81F1087E81F1006E00A4800236F
:102AA0001A46694600680DF015FA084901220848DF
:102AB00004F0C2FD01B0BDEC068BBDE8F08F000054
:102AC000000E0020280C00200C0100202700002010
:102AD000741C00201C4864231D2213A110B504F0AF
:102AE00023FE194864231D2218A104F01DFE164878
:102AF00064231D221DA104F017FE134864231D2228
:102B000022A104F011FE10486423212227A104F021
:102B10000BFE06F099FD64232D49BDE810400A48DC
:102B20000E2204F001BE000024505542582C3430CF
:102B30002C474C4C2C302C302C302C302C302C3062
:102B40002A35430D0A000000741C00202450554211
:102B5000582C34302C4753562C302C302C302C3001
:102B60002C302C302A35390D0A00000024505542F3
:102B7000582C34302C4747412C302C302C302C3002
:102B80002C302C302A35410D0A00000024505542CB
:102B9000582C34302C4753412C302C302C302C30D6
:102BA0002C302C302A34450D0A00000024505542A8
:102BB000582C34312C312C303030372C30303033ED
:102BC0002C33383430302C302A32300D0A000000DB
:102BD000300000201D4870B51D4E00781D4D1E4C64
:102BE000242809D128782278411C32541B4801221C
:102BF0002970214604F020FD20780A2806D0BDE87F
:102C0000704012490122154804F016BD95F800C025
:102C10000A2313482421002206F80C3021702A7060
:102C20000068002808BF70BD0E490DF0D9FA0E48A3
:102C3000C068002808BF70BD4FF080500B49086085
:102C4000BFF34F8FBFF36F8F70BD000027000020D0
:102C5000280C00202500002024000020741C0020E7
:102C600058010020740100206801002004ED00E0FC
:102C7000A1F13001A2F1300268B164233038C0B252
:102C8000C9B210FB03F301EB8101D0B203EB4101A8
:102C9000084480B27047C8B2D1B200EB800001EBAB
:102CA000400070472DE9F04F05462DED048BF2EE04
:102CB000048A83B09FEDF49A9FEDF48A00F1050B2E
:102CC000F34E07244FF00008401C0290AF1CA81DD3
:102CD000019005F1030A05F1040900F0C9B92C2897
:102CE00004BF08F1010000F0FF0800F0BE81B8F158
:102CF000090F80F0B781DFE808F0052AFCFC2D9071
:102D000093FBFA0029198A784978FFF7B1FF29194E
:102D100030800879497930383039C0B200EE900AF5
:102D2000C9B200EE101AB8EE601A611DF8EE400A42
:102D3000CCB241EE280A80EE890ABCEEC00A10EE41
:102D4000100AC0EB00108000B07000F08EB9307136
:102D500000F08BB929194B782E2B31D08A780020BE
:102D60001946FFF785FF3072281901794279303909
:102D70008079C9B200EE101AA2F13003A0F130023E
:102D8000B8EE401AD8B200EE900AD1B2C1EE281ABD
:102D9000F8EE600A00EE101AA01DC4B280EE891A87
:102DA000F8EE400A80EE880A71EE810A30EE800A61
:102DB00020EE080AB7EEC00A86ED040B00F055B904
:102DC000303830728878CA7830380979C0B200EE6D
:102DD000100AA2F13003A1F13002D9B200EE901A2C
:102DE000B8EE401AD0B2F8EE601A00EE100AC1EE4A
:102DF000280A201DC4B281EE891AF8EE401A81EE2D
:102E0000880A70EE810A30EE800A20EE080AB7EEDA
:102E1000C00A86ED040B00F028B9307600F025B921
:102E20002A1900921346517892782E2967D02E2ABB
:102E300031D098480278A85C9A78FFF719FF86F895
:102E400020000098009900794A7930388979C0B219
:102E500000EE100AA2F13003A1F13002D9B200EE67
:102E6000901AB8EE401AD0B2F8EE601A00EE100ACE
:102E7000C1EE280A81EE891AF8EE401A81EE880A1E
:102E800070EE810A30EE800A20EE080AB7EEC00A22
:102E900086ED0A0B63E00A4601460020FFF7E8FED4
:102EA00086F820000098C178027930394079C9B29B
:102EB00000EE901AA2F13003A0F13002F8EE600AA1
:102EC000D8B200EE100AD1B280EEA81AF8EE401A7D
:102ED00000EE101AC1EE890AF8EE401A81EE880A57
:102EE00071EE200A30EE800A20EE080A02E0B6E019
:102EF000B2E0BAE0B7EEC00A86ED0A0B2FE02E2A48
:102F000018BF2E2995D1A0F1300086F820009878BE
:102F1000DA78A0F130001979C0B200EE900AA2F17F
:102F20003003A1F13002B8EE601AD9B200EE101AE7
:102F3000D0B2C1EE280AF8EE401A00EE100A81EE77
:102F4000891AF8EE401A81EE880A70EE810A30EE96
:102F5000800A20EE080AB7EEC00A86ED0A0B029935
:102F60002046625C2E2A4DD0C25D2E2A24D04A4AC9
:102F700040F2472315F800C0127812FB03F3474ACA
:102F80001A44831DDCB282F8D6C1415C82F8D711A5
:102F9000C15D82F8D81110F80A1082F8D91110F822
:102FA000091082F8DA1110F80B1082F8DB11019980
:102FB000405C82F8DC0158E0374A40F2472C374B3E
:102FC000127812FB0CF24FF0300C02EB030E431D93
:102FD000DCB28EF8D6C115F800C08EF8D7C1415CBE
:102FE0008EF8D811C15D8EF8D91110F80A108EF83C
:102FF000DA1110F809108EF8DB1110F80B008EF8BA
:10300000DC0132E0C35D2E2B18BF2E2AAFD1224B3C
:1030100040F247244FF0300293F800C01F4B1CFBD6
:1030200004FC634400F1040C0CF0FF0483F8D62187
:1030300083F8D7212A5C83F8D821415C83F8D91121
:10304000C15D83F8DA1110F80A1083F8DB1110F86B
:10305000090083F8DC0108E086F8300005E086F816
:10306000310002E04FF02A00285504F10100C4B2FB
:10307000285D2A2818BF532CFFF431AE03B0BDECF5
:10308000048BBDE8F08F00000000C84200007A44C5
:10309000500E002025000020010000209007002095
:1030A00000EE100A9FED051ADFED050AF8EE401A52
:1030B00081EE810A20EE200A7047000000007F4365
:1030C0000000C8427047000070B482B04FF0000C9E
:1030D000CDF800C090F83C20012A01BF022002B0C8
:1030E00070BC7047012280F83C200A680724654BB9
:1030F0000568092A1DD90A3AEE6802EB420204FA71
:1031000002F226EA0202EA600A689A4206D10268DE
:103110000C7AD56845EA0464D4601CE004680A3A75
:103120008D6802EB4202E66805FA02F23243E26081
:1031300011E02E6902EB420204FA02F226EA0202D0
:103140002A6102680C788D68166904EB440405FA5C
:1031500004F4344314614A681F24072A15D2056811
:10316000521E02EB82026E6B04FA02F226EA02029F
:103170006A6302680D790C886D1E566BA4B205EB6C
:103180008505AC40344354632CE005680D2A14D205
:10319000D21F2E6B02EB820204FA02F226EA02022E
:1031A0002A630C7902680D88E61FACB206EB86052F
:1031B000166BAC403443146314E00D3AEE6A02EB34
:1031C000820204FA02F226EA0202EA6202680C793A
:1031D0000D880D3CD66AADB204EB840405FA04F404
:1031E0003443D462284A0468944204BF0C68122C09
:1031F00005D1D2F8044344F48004C2F804430468BF
:10320000944233D10C689C4218BF112C2ED1D2F8B5
:10321000044344F40004C2F804430968994225D1E8
:103220001A491B4A0968B1FBF2F101EB810149001F
:10323000009101911AD0B1F1004F1DD20029D8BFE1
:10324000002105DD11F0010102D0009A521E00920A
:10325000019A491C521C9142B8BF009B06DA5B1EC2
:10326000891C9142A3F101030093F8DB80F83CC074
:1032700002B0002070BC70470099491E0091FCD13B
:10328000F4E7000012000010002001408407002035
:1032900040420F002DE9F04104460068184D4FF000
:1032A0008057184EA0F18041B1F590310ED12046E3
:1032B00000F034FB1448294600680CF091FF2868A0
:1032C00020B13760BFF34F8FBFF36F8F0F49206876
:1032D000884218BFBDE8F081204600F01FFB0D4872
:1032E0000B4900680CF07CFF6868002808BFBDE847
:1032F000F0813760BFF34F8FBFF36F8FBDE8F08170
:103300007400002004ED00E02C01002000210140A9
:1033100078000020300100207047704770B50446E7
:10332000006802684168C2F34002002AC1F34011FC
:1033300018BF00292DD0216C11F0100F03D1216C82
:1033400041F400712164816811F0405F04BFA169FC
:10335000002917D1C16A11F4700F1CBF816811F4E4
:10336000806F0FD1416821F020014160206C20F472
:1033700080702064206C10F4805F03D1206C40F0DA
:10338000010020642046FFF785FF21686FF01200DE
:103390000860206801684368C1F38002002AC3F313
:1033A000C01118BF002934D0216C11F0100F03D1C7
:1033B000216C41F400512164816811F4401F21D136
:1033C000816B11F4401F1CBF816811F4806F19D10B
:1033D000416811F4806F01BF816811F0405FA169FD
:1033E00000290FD1416821F080014160206C20F458
:1033F00080502064206C10F4807F03D1206C40F05A
:10340000010020642046FFF75DFE21686FF00C008C
:10341000086020680168436811F0010FC3F3801150
:103420001EBF0029006810F0010F0AD0206C40F484
:1034300080302064204600F0DDF821686FF0010044
:103440000860206801684368C1F34012002AC3F392
:10345000806114BF002970BD616C6FF0200541F0E0
:103460000201616405602046FFF757FF2068056090
:1034700070BD000070B504004FF0000604BF0120CD
:1034800070BD206C002528B9204600F0B5F86564B1
:1034900084F83C50206C10F0100F18BF012603D0A8
:1034A000304684F83C5070BD206C20F4885040F0C9
:1034B000020020644C486FF07061D0F8042322F4BD
:1034C0004032C0F80423D0F8042363681A43C0F8DC
:1034D00004232068426822F48072426020682269D6
:1034E000436843EA022242602068426822F0407248
:1034F00042602068A26843681A434260206882687C
:1035000022F4006282602068E26883681A43826065
:10351000A06AC8422068816821F0706181602068DB
:1035200004BF816821F040510CD0A16A8268114328
:1035300081602068816821F0405181602068E16AE3
:103540008268114381602068816821F002018160F6
:103550002068A169826842EA4101816094F82000F4
:103560000028206804BF416821F400610FD01F4982
:10357000426842F4006242602068426822F460427D
:1035800042602068636A426801EB43311143416045
:1035900020681749C26A22F47002C2622068A28BB6
:1035A000C36A01EB02511943C1622068816821F4AA
:1035B00000718160206894F83010826842EA4121ED
:1035C00081602068816821F4806181602068616980
:1035D000826842EA812181606564206C20F00200EB
:1035E00040F0010020645BE70020014000E0FFFFA5
:1035F0000000F0FF704700002DE9F04F87B006464D
:10360000002458485649032500944FF480580194EB
:10361000071502944FF4804903944FF4807A049480
:103620003268DFF844B1A2F18043B3F5903342D061
:103630004E4B9A421CBF07B0BDE8F08F0A6842F4B7
:1036400000720A60096801F400710591016841F097
:1036500001010160016801F001010591016841F07B
:10366000020101600068694600F0020005906020D8
:10367000CDE90005584601F0A1F801206946CDE9E1
:1036800000053B48029401F099F83A4D4FF0007064
:1036900039492960C5E90104C5E90347C5E907A41B
:1036A0006C622846C5E9058900F058FF00284AD019
:1036B000FEF7FAFB47E00A6842F480720A60096884
:1036C00001F480710591016841F004010160016815
:1036D00001F004010591016841F0010101600168F8
:1036E00001F001010591016841F0020101600068EB
:1036F000694600F0020005900D20CDE900051F4845
:1037000001F05CF819206946CDE90005584602949D
:1037100001F054F802206946CDE9000514480294EE
:1037200001F04CF8164D1748C5E90004AC60284676
:10373000C5E90347C5E907A46C62C5E9058900F03E
:103740000DFF0028B4D1B56300220D21AE63122015
:1037500002F018F8122002F005F807B0BDE8F08F6B
:10376000443802403038024000000240002101404D
:10377000000402402410002040640240000802407F
:10378000C40F00201064024030B583B00446002509
:103790001346009590F83C00012802BF022003B0B8
:1037A00030BD012084F83C002068826812F0010FCF
:1037B0002DD1D0F808C0534A4CF0010CC0F808C015
:1037C00051480068B0FBF2F010EB4000009001900F
:1037D0001DD0B0F1004F70D20028D8BF002005DD09
:1037E00010F0010002D0009A521E0092019A401C73
:1037F000521C9042B8BFDDF800C008DA801CACF162
:10380000010C9042ACF1010CCDF800C0F6DB206851
:10381000826812F0010F6DD0226C22F0010222F4B6
:10382000C06242F480722264406810F4806F05D058
:10383000206C20F4005040F480502064206C10F480
:10384000805F08BF656403D0606C20F00600606490
:1038500084F83C506FF02200D4F838C02B4ACCF8E2
:103860003C20D4F838C02A4ACCF84020D4F838C0DC
:10387000284ACCF84C20226810602068426842F048
:10388000806242602068826842F4807282602268AE
:10389000A06B02F14C0C0A46614600F019FF1E496C
:1038A000D1F8040310F01F0F206807D0884204BF2E
:1038B000826812F0405F06D009E01EE0816811F0D6
:1038C000405F17D112E0826842F080428260D1F8F6
:1038D000040310F0100F01BF2068A0F18041B1F582
:1038E0009131816808BF11F0405F03D1816841F0D8
:1038F0008041816003B0002030BD0098401E0090E0
:10390000FCD184E740420F0084070020E50420003A
:103910006F052000590520000020014010B590F8E7
:103920003C1004460020012904BF022010BD0121E3
:1039300084F83C1021688A6822F001028A602168BC
:103940008A6812F0010F11D1886820F480708860B5
:10395000A06B00F0B0FC21684A6822F080624A60E7
:10396000216C21F4885141F001012164002184F887
:103970003C1010BD90F82020012A18BF022A06D062
:10398000416A41F4802141624FF0010070470068B4
:10399000426942EA010141614FF0000070470000B6
:1039A000F0B490F82040D0F800C0DCF808C0012C3A
:1039B00018BF022C07D0416A41F480214162F0BC5B
:1039C0004FF0010070471CF0E05F55D0CCF3016C64
:1039D000BCF1020F06D9416A41F400014162F0BC1A
:1039E0000120704701254FF4C07405FA0CF51D60E5
:1039F0008B68A3B1CD684E6807682B4304EB0C15A8
:103A000043EAC60347F8053005684FF4C27303EB79
:103A10000C130E69EE50097D01290ED108E00D88C6
:103A2000CB68066843EA455304EB0C157351EBE78A
:103A30000168CD5845F48075CD50D2F805504FF44B
:103A4000C6761379371F016806EB0C1643EA052585
:103A500007EB0C138D51157804EB0C11D2F80120F3
:103A6000066845EA0222F2500068425842F001021C
:103A70004250F0BC00207047416A41F4001141629D
:103A8000F0BC0120704700004DF8044D90F8203044
:103A90000268012B18BF022B08D0416A41F4802133
:103AA00041625DF8044B4FF0010070474148A2F1BC
:103AB000804CBCF5505C18BF0246D2F800328242FE
:103AC00043F00103C2F800320CD1D2F8000220F416
:103AD0007C50C2F80002D2F800024B6A40EA032090
:103AE000C2F8000291F814C00120D2F81C320CF088
:103AF0001F0C00FA0CF08343C2F81C32CB69C3B927
:103B0000D2F80C328343C2F80C32B1F80CC04B68C7
:103B10004C696CF31F4302EBC40CCCF84032B1F893
:103B200008C00B684C696CF31F4302EBC40CCCF863
:103B30004432CB69012B18D1D2F80C320343C2F8BE
:103B40000C32B1F800C04B684C696CF31F4302EBB8
:103B5000C40CCCF84032B1F808C0CB684C696CF3A7
:103B60001F4302EBC40CCCF844328B69002BD2F813
:103B700004320CBF83430343C2F804320B69002BA9
:103B8000D2F814320CBF83430343C2F81432096ADB
:103B9000012904D1D2F81C120843C2F81C02D2F841
:103BA000000220F00100C2F800025DF8044B002082
:103BB00070470000006400407047F0B490F820C0E7
:103BC000BCF1010F18BFBCF1020F07D0416A41F4EC
:103BD00080214162F0BC4FF001007047D0F800C076
:103BE00029B1DCF810C01CF0030F6BD004E0DCF846
:103BF0000CC01CF0030F65D004684FF4D87C0CEBAC
:103C0000011C54F80C4014F004049460046854F847
:103C10000C4007BF640D1460E40854604FF4DA747C
:103C20000768261D351D57F80CC0002904EB011448
:103C3000CCF34007D76006EB011C05EB01110568CA
:103C40002D5905F00F05156105682D59C5F3072598
:103C5000956105682C594FEA14445461026852F882
:103C60000C201A70026852F80C204FEA12225A7087
:103C7000026852F80C204FEA12429A70026852F819
:103C80000C204FEA1262DA70026852581A71026808
:103C900052584FEA12225A71026852584FEA1242A1
:103CA0009A71026851584FEA1161D97100680CBFCE
:103CB000C168016941F020010CBFC16001610020B1
:103CC000F0BC7047416A41F400114162F0BC012030
:103CD00070472DE9F05F0546006800244669D0F87A
:103CE00004908768D0F80CB0D0F810A016F0010F3F
:103CF000D0F8188025D017F0010F07D0012181607E
:103D000017F0020F7CD0284600F07CFA17F4807F71
:103D100009D0286817F4007F4FF48071816070D05B
:103D2000284600F08DFA17F4803F0AD0286817F46F
:103D3000003F4FF48031816000F0B980284600F0E8
:103D40009DFA16F0080F18BF1BF0100F04D0296859
:103D5000102044F40074C86016F0040F4FF00807F8
:103D600018BF1BF0080F04D02868C760284600F071
:103D7000BBF916F0020F07D02868C06810F0030FD7
:103D80001CBF284600F0B2F916F0400F18BF1AF019
:103D9000100F04D02968102044F48064086116F0E4
:103DA000200F18BF1AF0080F04D0286807612846B2
:103DB00000F0C6F916F0100F07D02868006910F05F
:103DC000030F1CBF284600F0BDF916F4003F18BFD2
:103DD00019F0100F05D0296810204860284600F01F
:103DE000DBF916F4803F18BF19F0080F04D02868DB
:103DF0004760284600F05EFA16F4004F78D001E0E4
:103E000035E044E019F0040F6FD016F4807F1CBF3A
:103E100018F0010F44F0010416F4007F1CBF18F0E5
:103E2000020F44F0020416F4806F1CBF18F0040F58
:103E300044F0040416F4006F18BF18F0700F54D04B
:103E400008F07000402808BF44F0400448D03EDC31
:103E5000102808BF44F0080442D0202808BF44F0CE
:103E600010043DD0302808BF44F0200438E017F09B
:103E7000040F18BF4FF400647FF448AF17F0080F29
:103E80000ABF28464FF4805400F0BAF93EE717F411
:103E9000806F18BF44F400547FF445AF17F4006FEF
:103EA0000ABF284644F4804400F0C8F93BE717F401
:103EB000802F18BF44F400447FF443AF17F4002F61
:103EC0000ABF284644F4803400F0D6F939E7502878
:103ED00008BF44F0800403D0602808BF44F4807415
:103EE0002868816921F07001816129680420486097
:103EF000002C08BFBDE8F09F686A2043686228462E
:103F0000FFF75AFEBDE8F09F002804BF012070476C
:103F100070B5044690F82000002804BF204600F049
:103F200089F82068016821F00201016000F084FD39
:103F3000054620680526406810F0020F0AD000BF31
:103F400000F07AFD401B0A2817D82068406810F05E
:103F5000020FF5D12068016841F00101016000F015
:103F60006BFD05462068406810F0010F12D100BFBC
:103F700000F062FD401B0A2807D9606A40F4003057
:103F8000606284F82060012070BD2068406810F0F5
:103F9000010FEDD0207E0128206801680CBF41F0A0
:103FA000800121F080010160607E012820680168A5
:103FB0000CBF41F0400121F040010160A07E0128CA
:103FC000206801680CBF41F0200121F02001016050
:103FD000E07E0128206801680CBF21F0100141F04B
:103FE00010010160207F0128206801680CBF41F0AA
:103FF000080121F008010160607F01282068016844
:104000000CBF41F0040121F00401016004F108003B
:104010000FC8084342EA0301D4E9002C0143002001
:10402000ACF101030B43D3610121606284F82010DD
:1040300070BD00004DF804ED87B0002100910191A2
:104040000291039104910068A0F18042B2F5C84248
:104050001CBF07B05DF804FB2048016841F0007107
:104060000160006800F0007005901D48016841F093
:104070000201016000680221092300F0020005909E
:104080004FF44070CDE9000103221648CDE9032327
:10409000694600F093FB00220521132001F072FB1A
:1040A000132001F05FFB00220621142001F06AFBBF
:1040B000142001F057FB00220621152001F062FBBD
:1040C000152001F04FFB00220621162001F05AFBBB
:1040D000162001F047FB07B05DF804FB40380240B2
:1040E0003038024000040240704700000E4B0021AF
:1040F00010B5A3F11C0202F50D70FFF75EFD0D482F
:1041000000230A4A0A4900680BF0D6FF0A48806873
:10411000002808BF10BD4FF0805008490860BFF369
:104120004F8FBFF36F8F10BDC8100020900000208C
:10413000AC100020200100208800002004ED00E0E9
:10414000704700000E4B012110B5A3F11C0202F5CF
:104150000470FFF732FD0D4800230A4A0A4900683F
:104160000BF0AAFF0A48C068002808BF10BD4FF036
:10417000805008490860BFF34F8FBFF36F8F10BDA9
:10418000EC10002094000020D0100020240100201A
:104190008800002004ED00E07047000070B5044680
:1041A00090F82000012804D0606A40F4002060628A
:1041B0001CE0022084F820002068016821F0010141
:1041C000016000F039FC05462068406810F0010FDE
:1041D00013D000BF00F030FC401B0A2808D9616AE8
:1041E000052041F40031616284F82000012070BD97
:1041F0002068406810F0010FECD10020606270BDB3
:10420000704700000A4810B5084900680BF0E8FF45
:1042100008480069002808BF10BD4FF080500649CB
:104220000860BFF34F8FBFF36F8F10BD9800002061
:10423000600100208800002004ED00E070470000CD
:104240000A4810B5084900680BF0CAFF08484069E1
:10425000002808BF10BD4FF0805006490860BFF32A
:104260004F8FBFF36F8F10BD9C00002060010020B6
:104270008800002004ED00E0704700000A4810B5F7
:10428000084900680BF0ACFF08488069002808BFA7
:1042900010BD4FF0805006490860BFF34F8FBFF349
:1042A0006F8F10BDA000002060010020880000205A
:1042B00004ED00E070472DE9F041876D044600F001
:1042C000BBFB054694F835000026022806D0802066
:1042D0006065012084F83460BDE8F08120680168E1
:1042E00021F0160101602068416921F080014161DF
:1042F000206C002804BFA06C002804D0206801684E
:1043000021F0080101602068016821F001010160CD
:104310002068006810F0010F12D000F08DFB401BE8
:10432000052808D920216165032084F8346084F8C9
:104330003500BDE8F0812068006810F0010FECD175
:1043400094F85C103F22012002FA01F1B96084F870
:10435000346084F835000020BDE8F08190F8351015
:10436000022903D08021416501207047052180F892
:1043700035100068016821F00101016000207047DC
:104380002DE9F84304464FF00009734A0821CDF89F
:1043900000904FF41650A56D94F85C3012682E68AA
:1043A000B2FBF0F801FA03F3334211D0206802683F
:1043B00012F0040F0CD0026822F00402026094F89C
:1043C0005C0001FA00F0A860606D40F001006065DB
:1043D00094F85C00012707FA00F0304209D0216808
:1043E000496911F0800F04D0A860606D40F00200B0
:1043F000606594F85C1004208840304209D0216840
:10440000096811F0020F04D0A860606D40F004004C
:10441000606594F85C1010208840304220D02168FC
:10442000096811F0080F1BD0A8602068016811F41A
:10443000802F09D0006810F4002F02D0A16C79B150
:104440000CE0216C51B90BE0016811F4807F03D1BD
:10445000016821F008010160216C09B120468847FC
:1044600094F85C102020884030424AD021680968C6
:1044700011F0100F45D0A86094F835000528206889
:10448000016809D011F4802F2BD0006810F4002FA0
:1044900024D0E16B21B332E021F0160101602068E5
:1044A000416921F080014161206C002804BFA06CAB
:1044B000002804D02068016821F00801016094F808
:1044C0005C004FF03F0101FA00F0A86084F83490DE
:1044D00084F83570216DD1BBBDE8F883616C71B98A
:1044E0000FE0016811F4807F07D1016821F010010D
:1044F000016084F8349084F83570E16B09B120468E
:104500008847606D002808BFBDE8F883606D10F033
:10451000010F17D04FF0050084F8350020680168BE
:1045200021F001010160009800F101000090404578
:1045300004D82068006810F0010FF4D184F834909A
:1045400084F83570E16C002908BFBDE8F883204687
:1045500001B0BDE8F0430847840700202DE9F0478B
:10456000044600F069FA002C054604BF0120BDE8AE
:10457000F0870026022084F8346084F83500206833
:10458000016821F0010101602068006810F0010F4E
:1045900011D000BF00F050FA401B052806D9202199
:1045A0006165032084F83500BDE8F0872068006865
:1045B00010F0010FEED1D4E9023CD4E90010D4E9A7
:1045C000047218434CEA0708D4E90653D4E908C733
:1045D00040EA0809086849EA0202DFF8E8802A434D
:1045E00042EA030200EA080042EA0C02042F42EA0F
:1045F000000003D1D4E90B231A4310430860D4F818
:1046000000C00123606ADCF81410042821F00701BF
:1046100040EA010238D1D4E90A100A4318B3A56967
:1046200055B1B5F5005F14D000291CBF012902293E
:1046300021D003291CD027E019B1012905D0022976
:1046400022D110F0807F1FD015E0B0F1C07F1BD1C8
:1046500011E081B1012907D002290CD0032908BF3C
:10466000B0F1C07F07D00FE010F0807F03D10BE0E6
:1046700010F0807F08D04FF04000606584F835303E
:104680004FF00100BDE8F087CCF8142020680E49F7
:10469000C2B2A2F110026FF30900A1FB02210B4A82
:1046A0004FEA11110329525CE26588BF001D3F21CA
:1046B000A06591408160666584F835300020BDE8D2
:1046C000F08700003F8010E0ABAAAAAA5C1321008B
:1046D000F0B490F834404FF0000C012C846D02BF10
:1046E0000220F0BC704790F83570012680F83460E5
:1046F0000025012F1CBF4FF0020C80F8345002D06F
:10470000F0BC60467047022680F835604565056854
:104710002E6826F480262E6005686B608368402B27
:10472000036803BF9A600268D16099601CBF01688A
:10473000CA6090F85C103F2202FA01F1A1600168A2
:104740000A6842F016020A6001684A6942F0800273
:104750004A61016C21B101680A6842F008020A60EE
:104760000068016841F001010160C9E770B50446C5
:1047700000F062F9B4F1FF3F054602D0044800782A
:10478000044400F059F9401BA042FAD370BD000068
:104790007807002010B5FDF73BFCBDE81040FDF7A1
:1047A00007BC000004490A68024208BF704710B500
:1047B0000860FFF7EFFF10BD143C01402DE9F84FF2
:1047C0008F4E002201274FF003094FF00F0800BF62
:1047D0000B6807FA02FC03EA0C03634540F00A8108
:1047E0004C68022C18BF122C13D14FEAD204D1F816
:1047F00010B04FEA427A00EB8404256A4FEADA6A85
:1048000008FA0AFE0BFA0AFA25EA0E054AEA050535
:10481000256291F804B04FEA4204D0F800A00BF0F2
:10482000030B09FA04F50BFA04FB2AEA050A4BEA22
:104830000A0AC0F800A0D1F804A0BAF1010F18BF0D
:10484000BAF1020F05D0BAF1110F18BFBAF1120F69
:1048500019D1D0F808A0D1F80CB02AEA050A0BFA51
:1048600004FB4BEA0A0AC0F808A0D0F804A091F8AB
:1048700004B02AEA0C0CCBF3001B0BFA02FA4AEA4A
:104880000C0CC0F804C0D0F80CC0D1F808A02CEA79
:10489000050C0AFA04F444EA0C0CC0F80CC0D1F878
:1048A00004C01CF0805F7DD0356822F0030C4FEA15
:1048B000827445F4804535604FEA147435680CF114
:1048C000804C0CF5983C05F48045009508FA04FAF4
:1048D000DCF80858A0F1804BBBF5003B25EA0A053F
:1048E00008BF4FF0000A48D0A0F1804ABAF5013A5B
:1048F00008BF4FF0010A40D0A0F1804ABAF5023A51
:1049000008BF4FF0020A38D0A0F1804ABAF5033A46
:1049100008BF4FF0030A30D0A0F1804ABAF5043A3C
:1049200008BF4FF0040A28D0A0F1804ABAF5053A32
:1049300008BF4FF0050A20D0A0F1804ABAF5063A28
:1049400008BF4FF0060A18D0A0F1804ABAF5073A1E
:1049500008BF4FF0070A10D0A0F1804ABAF5083A14
:1049600008BF4FF0080A08D0A0F1804ABAF5093A0A
:104970000CBF4FF0090A4FF00A0A0AFA04FA214C58
:104980004AEA0505CCF808584D68D4F800C015F47B
:10499000803F2CEA030C18BF4CEA030C1A4DC4F8F4
:1049A00000C000E026E04C68D5F800C014F4003FD9
:1049B0002CEA030C18BF4CEA030CDFF850A0C5F832
:1049C00000C04C68DAF800C014F4801F2CEA030C15
:1049D00018BF4CEA030C0E4CCAF800C04D68D4F85E
:1049E00000C015F4001F2CEA030C18BF4CEA030C9E
:1049F000C4F800C0521C102AFFF4EAAEBDE8F88FDC
:104A000044380240003C0140043C0140083C014065
:104A10000C3C01400069084018BF01207047426902
:104A200031EA020208BF090481617047002A08BF09
:104A300009048161704700000148806870470000E8
:104A400078070020D0F8C00205F0D0B9D0F8C00235
:104A500005F0EAB9006806F013BF006806F014BF5D
:104A600001EB810100EBC10090F85C00704701EBA5
:104A7000810100EBC100C06C704710B5044690F88E
:104A8000B802012804BF022010BD012084F8B8023A
:104A9000206806F005FF002084F8B80210BD2DE95B
:104AA000F04784B0044694F8B8C2DDE90D600C9F6D
:104AB000BCF1010F02BF022004B0BDE8F0874FF047
:104AC000010801EB810C002504EBCC0C84F8B882C2
:104AD00012F0800F02F07F098CF83D508CF83830CE
:104AE000ACF840008CF839108CF83F608CF83A90A4
:104AF00014BF8CF83B808CF83B508CF83C700097CE
:104B0000CDE90160206806F02DFF84F8B85204B0AA
:104B1000BDE8F087D0F8C00205F01CBA2DE9F0031B
:104B200001EB810C4FF0020500EBCC0C069FDDE998
:104B30000786002F8CF83B208CF83F3006BF0324FB
:104B40008CF842408CF842504FF0000433B1012BF6
:104B500037D0022B10D0032B17D020E0012F08BF35
:104B6000002A1CD1002E04BF01228CF8512014D041
:104B70009CF851202AB310E01AB19CF8502002B3DF
:104B80000BE09CF8512042B91BE01AB19CF8502070
:104B9000BAB102E09CF851209AB18CF84250CCE9AD
:104BA00011868CF85C40CCF84C408CF839100CF134
:104BB00038018CF85D40027C0068BDE8F00306F027
:104BC00059BF8CF84240EAE72DE9F04F04460068EF
:104BD00083B0804606F060FE01281CBF03B0BDE82C
:104BE000F08F206807F0D4F9002804BF03B0BDE8B7
:104BF000F08F206807F0CCF910F4001F03D0206874
:104C00004FF400114161206807F0C2F910F4801FD1
:104C100003D020684FF480114161206807F0B8F993
:104C200010F0806F03D020684FF0806141612068F0
:104C300007F0AEF910F0020F4FF002051CBF20681C
:104C40004561206807F0A4F910F0005F10D0D8F893
:104C5000400420F02E00C8F840042046FFF7F6FE7E
:104C60002068012107F078F820684FF00051416179
:104C7000206807F08DF910F0807F5CD02668D6F8A8
:104C800040040190D6F8400420F02E0000900198D6
:104C900010F0020F0ED0019810F0010F06D0B0698D
:104CA00020F00051B1612046FFF7CCFE009840F0A3
:104CB00002000090019810F0080F32D0009840F0E8
:104CC00008000090019810F0040F1CD0A069022881
:104CD0000DD0E068032804BF4EF66020C6F8040437
:104CE000204600F09BFB2046FFF7ACFE19E0019840
:104CF00000F4C020B0F5802F206814BF01210221EC
:104D000007F02AF8ECE7204600F084FBD6F84004D0
:104D100020F02E00C6F840042068816941F000515F
:104D20008161019810F0200F00981CBF40F0200016
:104D30000090C6F84004206807F02AF910F0080F28
:104D40004FF0080604D0204600F06FFB2068466153
:104D5000206807F01DF910F0007F00F077822068CE
:104D600006F084FE8146A0680027002884BF012643
:104D70004FF0040B40F2668207F00F0006FA00F0D5
:104D800010EA090F00F0588208EB4710D0F8000530
:104D900007F0FF0A10F4004F206800EB4A15D5F821
:104DA000080500F0040000F0308140B1C5F808B5F6
:104DB000D5F80C0540F00200C5F80C0541E0D5F827
:104DC000080510F0200F1CBF2020C5F8080538D1B9
:104DD000D5F8080510F0080F17D0D5F80C250AEB08
:104DE0008A03052004EBC30C102142F00203C5F82E
:104DF0000C3508228CF85D00C5F80815C5F80825A3
:104E00005146206806F04CFD1BE0D5F8080510F46B
:104E1000806F16D0D5F80C0540F00200C5F80C05DF
:104E20002068514606F03CFD1020C5F808050AEB45
:104E30008A030821820104EBC30383F85D10C5F8DF
:104E40000825D5F8080510F4007F0CD0D5F80C051E
:104E500040F00200C5F80C052068514606F020FD20
:104E60004FF40070CEE0D5F8080510F0010F46D0E1
:104E7000206950B1D5F810150AEB8A0204EBC20084
:104E8000C1F31201826C511AC1640AEB8A013246E5
:104E900004EBC1000090002180F85D608165C5F8D9
:104EA000086590F83F00002818BF022802D00328A8
:104EB0000ED01AE0D5F80C0540F00200C5F80C053C
:104EC0002068514606F0ECFC1020C5F808050CE0FF
:104ED000D5F8000540F00050C5F80005009851468F
:104EE00080F85C202046FFF715FE0098009990F8A6
:104EF000500080F0010081F8500000F09DB9D5F815
:104F0000080510F0020F2FD0D5F80C050AEB8A0225
:104F100020F00201C5F80C1504EBC20090F85D10FA
:104F2000012908BF80F85C6000F07C81052900F051
:104F3000A781062918BF082904D0032900F0AC81F5
:104F400000F070B9816D491C8165032900F29F81D1
:104F500000F0A2B9D5F8001521F0804141F00041E0
:104F6000C5F8001500F05EB9D5F8080510F0800FFF
:104F700015D0D5F80C250AEB8A03062104EBC300F3
:104F800042F00202C5F80C25826D521C826580F841
:104F90005D105146206806F083FC802032E0D5F891
:104FA000080510F0100F00F047810AEB8A0104EBAE
:104FB000C10090F83F10032904D0002918BF02292E
:104FC0000ED01EE04FF000018165D5F80C0540F0D1
:104FD0000200C5F80C052068514606F061FC10E09F
:104FE00000218165216961B9032180F85D10D5F840
:104FF0000C0540F00200C5F80C052068514606F08B
:105000004FFC1020C5F8080516E140B1C5F808B5F9
:10501000D5F80C0540F00200C5F80C050CE1D5F8F8
:10502000080510F0200F1CD00AEB8A024FF0200177
:10503000C5F8081504EBC20090F83D1001294CD1C9
:10504000002180F83D10022280F85C20D5F80C0584
:1050500040F00200C5F80C052068514606F020FC1F
:10506000EAE0D5F8080510F0400F15D00AEB8A01E8
:1050700004EBC100002180F85DB080F83D608165DF
:10508000D5F80C0540F00200C5F80C052068514623
:1050900006F006FC4020B5E7D5F8080510F4007FBF
:1050A0007FF4D4AED5F8080510F0010F16D00AEB46
:1050B0008A02002104EBC20000908165D5F80C053E
:1050C00040F00200C5F80C052068514606F0E8FBE8
:1050D000C5F80865009880F85D60ADE0D5F8080572
:1050E00010F0080F14D00820C5F80805D5F80C05F5
:1050F00040F00200C5F80C052068514606F0D0FBD0
:105100000AEB8A02052004EBC20181F85D0093E0FE
:10511000D5F8080510F0100F1DD00AEB8A02002107
:1051200004EBC200032290F83D308165002B80F82B
:105130005D2002BF90F83C10002980F83D60D5F852
:105140000C0540F00200C5F80C052068514606F039
:10515000A7FB102056E7D5F8080510F0800F14D0F3
:10516000D5F80C0540F00200C5F80C052068514642
:1051700006F096FB0AEB8A03062104EBC3008022AB
:1051800080F85D10C5F8082556E0D5F8080510F43C
:10519000806F17D0D5F80C0540F00200C5F80C055B
:1051A0002068514606F07CFB1021C5F808150AEB73
:1051B0008A038801082204EBC303C5F8080583F8B5
:1051C0005D2039E0D5F8080510F0020F34D0D5F88D
:1051D0000C050AEB8A0220F00201C5F80C1504EB5D
:1051E000C20090F85D1001290BD0032914BF0429D7
:1051F000022115D0052943D0062918BF082941D01E
:1052000010E090F83F1080F85C60022918BF032975
:1052100008D190F8511081F0010180F8511001E09F
:1052200080F85C104FF00201C5F80815514690F85F
:105230005C202046FFF76EFCA0687F1CB8423FF65A
:105240009BAD00BF21684FF000704861206806F0F8
:105250009FFE10F0100F04BF03B0BDE8F08F206870
:10526000816921F01001816127683846396A01F0AF
:105270000F08C1F34342022AC1F30A1510D034E0EB
:105280000521CDE7816D491C8165032904D90021E1
:10529000816580F85CB05DE6022180F85C1059E61B
:1052A0001DB308EB880204EBC206716CE9B12A4613
:1052B00006F072FE716C07EB4810104A29447164C5
:1052C000F16C2944F164D0F8101511420DD0D0F8DA
:1052D000001521F0804141F00041C0F8001596F81A
:1052E000500080F0010086F850002068816941F08C
:1052F0001001816103B0BDE8F08F00000000F81FCD
:10530000002804BF012070472DE9F041044690F8C1
:10531000B9028AB028B9002084F8B802204600F00B
:105320002DF8032084F8B902206806F057FA04F13A
:105330001000251D90E8CF118DE8CF11D4E90C01A4
:10534000CDE9080194E80F0006F0E0F9206801219A
:1053500006F008FF0C3595E8CF118DE8CF11D5E99F
:105360000801CDE9080194E80F0006F067FC012070
:1053700084F8B9020AB00020BDE8F08110B586B00B
:105380000021009101910291039104910068A0F124
:105390008042B2F580221CBF06B010BD1B4C2068B5
:1053A00040F002002060206802210C2300F002007F
:1053B00005904FF44040CDE9000103221448CDE9A7
:1053C00003236946FFF7FAF9206840F00050206097
:1053D00020680022082100F0005005904A2000F0CB
:1053E000D1F94A2000F0BEF9002208214B2000F03C
:1053F000C9F94B2000F0B6F9002208214D2000F039
:10540000C1F94D2000F0AEF906B010BD30380240B1
:1054100000040240D0F8C00204F0C5BDD0F8C002BC
:1054200004F0C5BD006806F0D7BDD0F8C00204F096
:1054300053BD10B5044690F8B802012804BF0220FD
:1054400010BD012084F8B802206806F0E8F9206851
:10545000012106F0C9F9002084F8B80210BD10B58A
:10546000044690F8B802012804BF022010BD0120B4
:1054700084F8B802206806F08DFE002084F8B80297
:1054800010BD4DF8044D90F84120202A27D190F806
:105490004020012A23D0012380F8403024224FF0FD
:1054A000000C202380F841200268146824F00104D5
:1054B00014600268146824F480541460026814684C
:1054C0002143116001680A6842F001020A6080F815
:1054D000413080F840C000205DF8044B70475DF813
:1054E000044B022070474DF8044D90F84120202ACB
:1054F00025D190F84020012A21D0012380F84030A6
:1055000024224FF0200C002480F841200268136808
:1055100023F0010313600268136823F4706343EA05
:105520000121116001680A6842F001020A6080F8F6
:1055300041C080F8404000205DF8044B70475DF8A2
:10554000044B02207047002804BF0120704770B54B
:10555000044690F84100002520B9204684F84050C8
:1055600000F04CF8242084F841002068016821F004
:1055700001010160D4E9001020F07060086120682A
:10558000816821F400418160E06821680128A068F9
:105590000CBF40F4004040F404408860E0680228FA
:1055A00002D121688002486020212068426842F4CC
:1055B000004242F0007242602068C26822F4004259
:1055C000C260D4F800C0D4E90402A369104340EAE1
:1055D0000320CCF80C002368D4E9070210431860BC
:1055E0002068026842F001020260656484F841109C
:1055F000256384F84250002070BD00004DF804ED92
:1056000087B00022009201920292039204920068F5
:10561000A0F18041B1F5C0411CBF07B05DF804FBAB
:105620001048016841F00801016000681221012260
:105630004FF0040C00F00800059003234FF4405095
:105640008DE80F1008486946FFF7B8F80748016869
:1056500041F080710160006800F08070059007B033
:105660005DF804FB30380240000C02404038024034
:1056700002488168027811448160704778070020F1
:10568000094810B5016841F400710160016841F4F6
:1056900080710160032000F0A5F8002000F006F8FA
:1056A00000F042F8002010BD003C02404DF804ED2F
:1056B00000220146192087B000F064F8192000F09C
:1056C00051F81548016841F001010160006805A921
:1056D00000F001000690684600F0A8FC00F0DAFC3B
:1056E0000E4A40000021DFF838C0B0FBF2F20D484E
:1056F00040F2E733C0F800C0C0E90331521EC0E9F0
:10570000012101F096FA00280ABF0648012001F0A5
:10571000F7FA07B05DF804FB4438024040420F003E
:10572000000001406C2500200C4882B0016841F067
:1057300080510160006800F08050009008480168C6
:1057400041F480410160006800220F2100F4804094
:105750000090901E02B000F015B8000040380240E2
:10576000443802400028B8BF7047410900F01F00CC
:105770008A00012102F1E02201FA00F0C2F80001E2
:1057800070470000164B30B41B68C3F30223C3F10B
:10579000070CBCF1040F88BF4FF0040C1C1D072C34
:1057A00034BF0023DB1E012404FA0CFC04FA03F5C9
:1057B000ACF101042140A5F1010C99400CEA020270
:1057C000114300284FEA0111B8BF00F00F0000F1AB
:1057D000E020ACBF80F8001480F8141D30BC704786
:1057E0000CED00E0074900F007004FF6FF030A68E0
:1057F0001A4042EA002040F0FD7040F080600860EE
:10580000704700000CED00E01C4838B5016841F01D
:105810008051016000681A4D00F0805000902868A7
:1058200040F480302860FFF707F90446686810F4F8
:10583000803F09D1FFF700F9001BB0F57A7F15D83A
:10584000686810F4803FF5D0286840F40030286084
:10585000FFF7F2F80446686810F4003F0CD100BF6F
:10586000FFF7EAF8001BB0F57A7F01D9032038BDB5
:10587000686810F4003FF3D0002038BD4038024083
:10588000007000402DE9F84F04460078DFF824A4AA
:105890004FF0000710F0010F3E460FD0DAF800007D
:1058A00020F40000CAF80000DAF80000616B084339
:1058B000CAF80000606B002808BF0127FE4D206871
:1058C00010F4002F0ED0E06B296821F4401108433A
:1058D0002860E06BB0F5801F08BF012702D00028C8
:1058E00008BF0126206810F4801F0ED0206C2968A4
:1058F00021F4400108432860206CB0F5800F08BFF8
:10590000012702D0002808BF0126206810F0807F00
:1059100018BF012710F0200F74D0E848016841F04B
:10592000805101600068DFF8989300F0805000908B
:10593000D9F8000040F48070C9F80000FFF77CF847
:105940008046D9F8000010F4807F0BD1FFF774F87F
:10595000A0EB0800642800F27882D9F8000010F467
:10596000807FF3D0DFF85C93D9F8000010F440702A
:1059700032D0218E01F4407181422DD0D9F800003F
:10598000D9F8001020F4407041F48031C9F80010BB
:10599000D9F8001021F48031C9F80010C9F80000CE
:1059A000D9F8000010F0010F16D0FFF745F8804637
:1059B000D9F8000010F0020F08BF41F2883B0BD16C
:1059C000FFF73AF8A0EB0800584500F23E82D9F8FC
:1059D000000010F0020FF3D0206B4FF440718143B0
:1059E0001CBFDAF8000020F4F81000F0ED8000BFD2
:1059F000CAF80000208ED9F80010C0F30B0008434D
:105A0000C9F80000207810F0100F07D0286820F0A7
:105A1000807028602868A16B084328602188AA4804
:105A200011F4804F05D0616E026822F440321143B8
:105A30000160218811F4004F05D0A16E026822F4A4
:105A4000402211430160216811F4803F05D0E16ECE
:105A5000026822F4401211430160216811F4003FF2
:105A600005D0216F026822F44002114301602178C1
:105A700011F0400F05D0616C026822F0030211435F
:105A80000160217811F0800F05D0A16C026822F02E
:105A90000C0211430160218811F4807F05D0E16C74
:105AA000026822F0300211430160218811F4007F66
:105AB00005D0216D026822F0C002114301602188E7
:105AC00011F4806F05D0616D026822F440721143B9
:105AD0000160218811F4006F05D0A16D026822F4E5
