:020000040020DA
:10000000B06E0120D1022000138A2000C57C2000A0
:10001000118A200039082000F9C7200000000000E4
:100020000000000000000000000000000D022000A1
:100030008924200000000000690220003D8F20007C
:10004000EB022000EB022000EB022000EB0220007C
:10005000EB022000EB022000EB022000EB0220006C
:10006000EB022000EB022000EB022000EB0220005C
:10007000EB022000EB022000EB022000EB0220004C
:10008000EB022000EB02200079052000610820002F
:100090003D0820004908200055082000D1242000F8
:1000A000EB0220007D932000EB022000EB022000F9
:1000B000EB022000EB022000EB022000EB0220000C
:1000C000EB022000EB022000EB022000EB022000FC
:1000D000EB022000C99B2000D59B2000EB022000F2
:1000E000C9242000EB022000EB022000EB022000DC
:1000F000EB022000EB022000EB022000EB022000CC
:10010000EB022000FD8A200089932000EB022000F2
:10011000EB022000EB02200095932000A193200029
:1001200041242000EB0220004D242000592420000F
:10013000EB022000EB022000EB022000EB0220008B
:10014000EB022000EB022000EB022000EB0220007B
:1001500065242000712420007D242000EB02200073
:10016000EB022000EB022000218A2000158A2000EB
:10017000EB0220002D8A2000EB022000000000008E
:10018000EB022000EB022000EB022000EB0220003B
:10019000EB022000EB022000EB022000EB0220002B
:1001A000EB022000EB022000EB022000EB0220001B
:1001B000EB022000EB022000EB022000EB0220000B
:1001C000EB022000EB02200000000000EB02200008
:1001D000EB022000EB022000EB022000EB022000EB
:1001E000EB022000EB022000EB022000EB022000DB
:1001F000EB022000EB022000DFF80CD000F00CF93D
:1002000000480047BDF12000B06E01202D4B196859
:100210000868B0E8F04F80F30988BFF36F8F4FF0A4
:10022000000080F311887047000000000848006853
:10023000006880F308884FF0000080F3148862B6ED
:1002400061B6BFF34F8FBFF36F8F00DF00BF00BFFA
:1002500008ED00E0DFF80C00016841F47001016076
:10026000704700BF88ED00E0EFF30980BFF36F8FA8
:10027000144B1A681EF0100F08BF20ED108A20E9F9
:10028000F04F106009B44FF0500072B680F311883F
:10029000BFF34F8FBFF36F8F62B610F073F84FF05C
:1002A000000080F3118809BC19680868B0E8F04FB5
:1002B0001EF0100F08BFB0EC108A80F30988BFF35E
:1002C0006F8F704780070020EFF3058070470000B4
:1002D0000648804706480047FEE7FEE7FEE7FEE7E0
:1002E000FEE7FEE7FEE7FEE7FEE7FEE709912000F6
:1002F000F90120002DE9F05F0546002092469B465B
:1003000088460646814640241BE02846414647462B
:10031000224600F070F853465A46C01A914110D355
:1003200011461846224600F057F82D1A67EB0108CF
:100330004F4622460120002100F04EF817EB00093D
:100340004E41201EA4F10104DFDC484631462A4616
:100350004346BDE8F09F40EA01039B0703D009E054
:1003600008C9121F08C0042AFAD203E011F8013BA1
:1003700000F8013B521EF9D27047D2B201E000F8FA
:10038000012B491EFBD270470022F6E710B5134639
:100390000A4604461946FFF7F0FF204610BD421CEE
:1003A00010F8011B0029FBD1801A704730B50B46AD
:1003B000014600202022012409E021FA02F59D4295
:1003C00005D303FA02F5491B04FA02F52844151E69
:1003D000A2F10102F1DC30BD202A04DB203A00FA50
:1003E00002F1002070479140C2F1200320FA03F38C
:1003F000194390407047202A04DB203A21FA02F08A
:100400000021704721FA02F3D040C2F1200291404E
:100410000843194670470000064C074D06E0E068A7
:1004200040F0010394E8070098471034AC42F6D33B
:10043000FFF7E6FE1C1C21003C1C210070B58C1847
:1004400010F8015B15F0070301D110F8013B2A11E8
:1004500006D110F8012B03E010F8016B01F8016BD5
:100460005B1EF9D12B0705D40023521E0DD401F8D1
:10047000013BFAE710F8013BCB1A921C03E013F89A
:10048000015B01F8015B521EF9D5A142D8D30020CF
:1004900070BD0000DFF840C000209FED100A04236B
:1004A000ACF104020CF10801506081ED010A083141
:1004B00042F8080F5B1E81ED000AF5D10849CCF81F
:1004C000000081ED000ACCF8040081ED010ACCF8AF
:1004D000080081ED020A7047F00F002000000000C4
:1004E0001C10002010B50246806B016C11F0500FFB
:1004F000016C05D011F0100F28D003F0FEF910BDEB
:1005000041F40071016401688A6812F0405F04BF21
:100510008269002A17D1CA6A12F4700F1CBF8A6858
:1005200012F4806F0FD14A6822F020024A60016CF9
:1005300021F480710164016C11F4805F03D1016CBE
:1005400041F00101016403F095F910BD806BC16CAD
:100550001046BDE81040084710B5806B402101648B
:10056000416C41F00401416403F0C7F910BD10B5BE
:10057000806B03F0C1F910BD044810B503F0BEF95B
:10058000BDE81040024803F0B9B90000281000206F
:100590007010002070B50B4803F0B0FC0A4CA06846
:1005A0000CF054FA04F12C0585ED000A60680CF09B
:1005B0005FFA85ED010A20680CF06CFA85ED020AFD
:1005C00070BD000070100020F00F00202DE9F041F8
:1005D000694803F093FC694D286801F0E1FE05F1DC
:1005E0002C0484ED000A686801F0BEFE00EE100ADB
:1005F000B8EE400A84ED010AA86801F099FE00EE09
:10060000100AB8EE400A84ED020AE86801F07EFEA6
:1006100084ED030A286901F055FE84ED040A686937
:1006200001F062FE84ED050AA86901F0EDFE00EE1E
:10063000100AB8EE400A84ED060AE86901F0D4FE1B
:1006400084ED070A9FED4E0AD4ED030A4D4F0222B6
:100650004D4D60EE800A4D4EC7ED020AD4ED040AFE
:1006600060EE800AC7ED030AD4ED050A20EE800A89
:1006700087ED040A287894ED000A00EBC010BCEE68
:10068000C00A00EB8001314410EE100A01F5107130
:1006900080B20EF0E5FC2878042294ED010A00EB0C
:1006A000C010BCEEC00A00EB8001314410EE100A0D
:1006B00001F2432180B20EF0D3FC2878032294ED9E
:1006C000020A00EBC010BCEEC00A00EB800131440E
:1006D00010EE100A01F5137180B20EF0C1FC2878FB
:1006E000022397ED020A012200EBC010BCEEC00A03
:1006F00000EB8001314410EE100A01F2562180B265
:100700000CF0FEFA2878022397ED030A1A4600EB54
:10071000C010BCEEC00A00EB8001314410EE100A9C
:1007200001F5147180B20CF0EBFA2878022397EDF2
:10073000040A012200EBC010BCEEC00A00EB8001ED
:10074000314410EE100A01F25B2180B20CF0D8FAAD
:100750002878032294ED060A00EBC010BCEEC00A14
:1007600000EB8001314410EE100ABDE8F04180B288
:1007700001F512710EF074BC28100020D00F00207B
:100780000000C84298000020000000202808002037
:100790000249082201F1580003F0E6BAD00F002008
:1007A00009499FED0A1A4A8A098A401A511A00EE2D
:1007B000100A00EE901AB8EEC00AF8EEE01AC0EE89
:1007C000210A20EE810A7047300000200000C84254
:1007D00000EE100ADFED030AB8EE400A20EE200A10
:1007E00070470000EF03903C00EE100A9FED051AE1
:1007F000DFED050AB8EE400A20EE010A30EE600A8D
:1008000070470000B98B3B3D0000964170470000E7
:10081000034801214FF0FF3240680EF053BE000044
:10082000C4000020034802214FF0FF3240680EF060
:1008300049BE0000C4000020FEE70000014803F0AC
:1008400051BD0000D4130020014803F04BBD00004F
:10085000D4130020014803F045BD0000D41300204C
:10086000014803F03FBD0000D413002002484FF4BC
:10087000B671FFF789BD000078110020F0B50C4C6F
:10088000022189B06176E076204690E8EF108DE88D
:10089000EF10084803F00DFD0028FAD0064B06AA19
:1008A0000448694603F06CFB0120607609B0F0BD96
:1008B000B4130020D4130020C000002070470000B3
:1008C0002DE9F04389B001F057FB574C312804BFA4
:1008D0000120207006D001F061FB31280CBF0320FD
:1008E000022020705148524990ED000A10EE100A83
:1008F00088420FDD4F48D0ED000A10EE900A884282
:1009000008DD70EE201A9FED4C1AC0EE210A20EE91
:10091000810A01E09FED490A494E84ED010A4948E8
:1009200096ED000AA0F5FE75BCEEC00A10EE101A96
:100930000A0A0276417696ED010ABCEEC00A10EE74
:10094000101A0A0A8276C17696ED060ABCEEC00A33
:1009500010EE101A0A0A0277417796ED020ABCEEF1
:10096000C00A10EE101A0A0A8277C17705F5FE70E8
:1009700090E88F138DE88F13334803F09AFC00281A
:10098000FAD0324B06AA3048694603F0F9FA96EDE0
:10099000040A2F48BCEEC00A10EE101A0A0A0276AA
:1009A000417696ED030ABCEEC00A10EE101A0A0A50
:1009B0008276C17696ED050ABCEEC00A10EE101ADA
:1009C0000A0A0277417794ED010ABCEEC00A10EEE4
:1009D000101A0A0A8277C17705F5077090E8CF11DF
:1009E0008DE8CF11184803F064FC0028FAD0174BAB
:1009F00006AA1548694603F0C3FA164905F50F75AE
:100A00002078C87695E87F108DE87F100E4803F0B7
:100A100050FC0028FAD00D4B06AA0B48694603F09B
:100A2000AFFA09B0BDE8F083AC000020240000203C
:100A300000409C45280000200000C8420000000043
:100A4000FC0F002074130020D4130020C0000020ED
:100A500094130020B41300208AB0104C53206D462C
:100A60008DF820004FF0FF32606F69460FF0A4FF51
:100A7000D4F8AC004FF0FF3110F0B0F8084809ABE3
:100A800005F11802694603F07BFA0028EAD000233A
:100A9000A06D08A91A460FF0B1FDE3E7D4000020CD
:100AA000D41300200A4810B5084900680FF02CFF45
:100AB00008488068002808BF10BD4FF080500649E4
:100AC0000860BFF34F8FBFF36F8F10BDB4000020DD
:100AD00070010020AC00002004ED00E032494FF42A
:100AE00046702DE9F0410024CC60431C8C60086006
:100AF00001F1200008220A610C7500F12001036059
:100B000040F20143C460012684602027026140F264
:100B1000072204750420CC604FF00E088C600B6037
:100B20000861A1F160000C75A0F170050C764E769D
:100B30008C76022104764676C4608460026001618E
:100B4000A0F17001047580306C61C5E906462C6027
:100B5000C5E90147EC602C61C5E9086803F084FA37
:100B6000C5E90564EE612946C5E90074AF6001F18D
:100B7000F000C5E90346C5E9086803F075FA0121EC
:100B800005F1F00003F0E6F9022105F1F00003F0B1
:100B9000E1F9102105F1F00003F0DCF905F1F000B6
:100BA000BDE8F04103F004BE741300204DF804EDDD
:100BB00083B02A4945204FF0000C8DF80000CDF895
:100BC00004C08B7926482749302B0068CA780CD09E
:100BD000312B1CBF03B05DF804FB5AB3012A08BFD8
:100BE00081F802C003B05DF804FB012A1CBF03B00A
:100BF0005DF804FB1C4A0B7803EBC31303EB830380
:100C00001A4492F84630302B01BF92F84720302A20
:100C100003B05DF804FB4FF0380281F802C04FF0DA
:100C2000000369468DF8002001AA0FF0D9FD03B03A
:100C30005DF804FB8A78521CD2B28A701E2A3CBF2F
:100C400003B05DF804FB4321002301AA8DF80010D6
:100C500069460FF0C5FD03B05DF804FB320D0020BE
:100C60003C01002000000020280800202DE9F05F52
:100C700035480C2105F0C8FE344CA0F50071344D08
:100C80009A39344E344FDFF8D480DFF8D490DFF84F
:100C9000D4A0DFF8D4B017D040F2FF7020802880B5
:100CA0000021308001223880304BA8F80010A9F8CC
:100CB0000010AAF80010ABF8001019802C490A8027
:100CC0002C490880BDE8F09F1F48012105F09CFEDB
:100CD000208002211C4805F097FE288003211A4835
:100CE00005F092FE30800421174805F08DFE388013
:100CF0000521154805F088FEA8F8000006211248D5
:100D000005F082FEA9F8000007210F4805F07CFEDF
:100D1000AAF8000008210C4805F076FEABF80000A8
:100D20000921094805F070FE104908800A2106488B
:100D300005F06AFE0E4908800B21034805F064FEA9
:100D40000C490880BDE8F09FC41A00203000002044
:100D5000320000203400002036000020380000203F
:100D60003A0000203C0000203E000020400000200F
:100D700042000020440000201048114A01881180E0
:100D8000104A1180104A41881180104AC188118090
:100D90000F4A818811800F4A018911800E4A4189CA
:100DA00011800E4AC18911800D4A818911800D4A36
:100DB000018A11800C49408A088070473C0D002050
:100DC00040000020420000204400002038000020A5
:100DD0003A0000203C0000203E00002030000020AF
:100DE0003200002034000020360000202DE9F043BE
:100DF00001462DED028B83B0808BFE4C40F21738FC
:100E0000FD4DFE4E9FEDFE8A40BA2081CA8B2746DB
:100E1000F2EE048A53BA63810A8C92FA92FCA4F827
:100E20000CC04A8C52BAE2813F78D1F8009007EBAF
:100E3000C711C14501EB8101A9F21737294400F020
:100E4000F4871DDCA9F54172132A22BF03B0BDEC63
:100E5000028BBDE8F083DFE812F09D01A302F102EE
:100E600080032504250425042504DE013F023C03FC
:100E7000B303EF06200751076A0783079C07B507EE
:100E8000B7F5507F00F0EC8500F3FC80DD4940F2BF
:100E90003B394F45A7F23B3800F0B2847EDCE92FA6
:100EA00000F0DC83A7F5407CBCF1390C00F03884FD
:100EB000BCF1010F40F0F683D6F824C00CF1010C10
:100EC000C6F824C088808B814A8006F0BDFF20EEE2
:100ED000080A84ED050A608900B206F0F5FF84ED8A
:100EE000060AA089FFF780FC84ED0A0A20EE080AB2
:100EF00084ED070AE08900B207F04AFF20EE280AD5
:100F000002231A4684ED080A207894ED050A00EBC6
:100F1000C010BDEEC00A00EB8000284400F1B5010E
:100F200010EE100A00B20BF069FE2078042294ED56
:100F3000060A00EBC010BDEEC00A00EB800028449A
:100F400000F1BC0110EE100A00B20DF0C3FF2078D2
:100F5000022394ED070A1A4600EBC010BCEEC00A4B
:100F600000EB8001294410EE100AC23180B20BF070
:100F7000C7FE2078012394ED080A03B000EBC010EF
:100F8000BDEEC00A00EB8000284400F1C80110EE5D
:100F9000100ABDEC028B032200B200E003E0BDE8C2
:100FA000F0430BF02BBEB8F1020F00F09984B8F1BA
:100FB000030F00F0F484B8F1040F40F07383716BF9
:100FC000491C716306F010FF84ED050A608906F084
:100FD0000BFF84ED060AA08906F006FF84ED070AE0
:100FE000E08906F0A1FE84ED080A2078032294ED42
:100FF000050A00EBC010BCEEC00A00EB80012944DA
:1010000010EE100A01F2091180B20EF029F82078D2
:10101000032294ED060A00EBC010BCEEC00A00EB00
:101020008001294410EE100A01F20D1180B20EF079
:1010300017F82078032294ED070A00EBC010BCEEED
:10104000C00A00EB8001294410EE100A01F21111D0
:1010500080B20EF005F894ED080A207803B0032260
:10106000BCEEC00A00EBC010BDEC028B00EB8001AF
:101070002944BDE8F04310EE100A01F2151180B2C8
:101080000DF0EEBFB7F57D7F00F0668543DCA7F578
:101090004073423B00F0FE86012B00F00887B12B25
:1010A00040F00083F26B00B20223521CF263032271
:1010B00001F229110BF0A2FD20780223032200EB9C
:1010C000C01000EB8000284400F23111608900B2AA
:1010D0000BF094FD20780123032200EBC01000EBFD
:1010E0008000284400F23911A08900B20BF086FD7F
:1010F00020780123032200EBC01000EB800028447D
:1011000000F5A071E08903B000B2BDEC028BBDE830
:10111000F0430BF073BDA7F54072F53A00F053852C
:10112000012A40F0BF82B26C00B20223521CB264AA
:10113000032201F5C0710BF061FD20780223032228
:1011400000EBC01000EB8000284400F5C4716089FA
:1011500000B20BF053FD20780123032200EBC010F6
:1011600000EB8000284400F5C871A08900B20BF0A4
:1011700045FD2078032200EBC01000EB80002844DE
:1011800000F29711E08903B0BDEC028BBDE8F0439B
:101190000DF066BF0122E270326801230831521C53
:1011A000326003220BF0ACFD20780123032200EB18
:1011B000C01000EB8000284400F10E0160890BF0A4
:1011C0009FFD20780123032200EBC01000EB80007C
:1011D000284400F11401A0890BF092FD207801232E
:1011E000032200EBC01000EB8000284400F11A013C
:1011F000E08909E000000020280800207811002084
:101200000000C8423C0D002003B0BDEC028BBDE8DD
:10121000F0430BF075BD0121E1707168491C7160EC
:1012200001F034F984ED050A608901F02FF984EDAD
:10123000060AA08901F02AF984ED070AE08901F085
:1012400025F984ED080A2078032294ED050A00EBC5
:10125000C010BCEEC00A00EB8001294410EE100A59
:10126000203180B20DF0FCFE2078032294ED060AB6
:1012700000EBC010BCEEC00A00EB8001294410EE68
:10128000100A243180B20DF0EBFE2078032294ED99
:10129000070A00EBC010BCEEC00A00EB8001294435
:1012A00010EE100A283180B20DF0DAFE94ED080A33
:1012B000207803B00322BCEEC00A00EBC010BDECE6
:1012C000028B00EB80012944BDE8F04310EE100AC8
:1012D0002C3180B20DF0C4BE0121E170B168491C0F
:1012E000B16001F0D3F884ED050A608901F0CEF811
:1012F00084ED060AA08908F0CBF884ED070AE0899E
:10130000FFF766FA20EE080A032284ED080A207827
:1013100094ED050A00EBC010BCEEC00A00EB8001A2
:10132000294410EE100A303180B20DF099FE207879
:10133000032294ED060A00EBC010BCEEC00A00EBDD
:101340008001294410EE100A343180B20DF088FE7D
:101350002078032294ED070A00EBC010BCEEC00A0F
:1013600000EB8001294410EE100A383180B20DF0F4
:1013700077FE94ED080A207803B00223BCEEC00A81
:1013800000EBC0101A46BDEC028B00EB8001294433
:10139000BDE8F04310EE100A3C3180B20BF0B0BC57
:1013A0000120E070F068401CF060604608F064F8CE
:1013B00084ED070AE0890BF021FA84ED080A207811
:1013C000012200EBC01000EB8000284400F1420134
:1013D00020890DF045FE2078052200EBC01000EBBF
:1013E0008000284400F1440160890DF039FE207826
:1013F000032294ED070A00EBC010BCEEC00A00EB1C
:101400008001294410EE100A4A3180B20DF028FE06
:1014100094ED080A207803B00522BCEEC00A00EB68
:10142000C010BDEC028B00EB80012944BDE8F04305
:1014300010EE100A4E3180B20DF012BE0FFA8CF091
:101440000121E17007F096FC20EE280A0123032217
:1014500084ED070A3069401C3061207800EBC01031
:1014600000EB8000284400F1540120890BF048FC77
:1014700020780123032200EBC01000EB80002844F9
:1014800000F15A0160890BF03BFC2078012394EDB8
:10149000070A042200EBC010BDEEC00A00EB80007A
:1014A000284400F1600110EE100A00B20BF0A6FB18
:1014B0002078052200EBC01000EB8000284400F1EA
:1014C0006801E08903B0BDEC028BBDE8F0430DF08C
:1014D000C7BD0120E0707069401C7061604602F079
:1014E000CFF884ED070A2078012200EBC01000EB52
:1014F0008000284400F16E0120890DF0B1FD2078B4
:10150000012200EBC01000EB8000284400F17001C4
:1015100060890DF0A5FD2078032294ED070A00EB09
:10152000C010BCEEC00A00EB8001294410EE100A86
:10153000723180B20DF094FD2078012200EBC010D2
:1015400000EB8000284400F17601E08903B0BDEC97
:10155000028BBDE8F0430DF083BD0122E270B26959
:101560007831521CB26105220DF07AFD20780522F7
:1015700000EBC01000EB8000284400F17E01608980
:101580000DF06EFD20780323012200EBC01000EB6C
:101590008000284400F18401A0890BF0B1FB207881
:1015A000052200EBC01000EB8000284400F18A0106
:1015B000E08903B0BDEC028BBDE8F0430DF050BDF7
:1015C0000121E170F169491CF16100F0E7FF20EEB3
:1015D000080A84ED050A608900F06AFF84ED060AB6
:1015E000A08900F065FF84ED070A2078022394EDBE
:1015F000050A1A4600EBC010BCEEC00A00EB8001E1
:10160000294410EE100A903180B20BF079FB20785B
:10161000032294ED060A00EBC010BCEEC00A00EBFA
:101620008001294410EE100A963180B20DF018FDA9
:1016300094ED070A207803B00322BCEEC00A00EB49
:10164000C010BDEC028B00EB80012944BDE8F043E3
:1016500010EE100A9A3180B20DF002BDDAB24523C5
:101660008DF80030C0B24FF00003012801930AD07A
:10167000022840F01780062A80F01480DFE802F08C
:101680001221282D3442FF48012A10D0022A40F0AE
:10169000098041218DF800100068002301AA6946E5
:1016A0000FF09EF803B0BDEC028BBDE8F08336214D
:1016B0008DF800100068002301AA69460FF090F829
:1016C000F0E70888F04908800120FFF7D7F8E9E73C
:1016D0000888EE490880022003E04888EC49088029
:1016E0000320FFF7CBF8DDE7EA4AC8881080EA4A12
:1016F00088881080E94A088910804889E84908806C
:101700000420EEE7E74AC8891080E74A88891080FC
:10171000E64A088A1080488AE54908800520E0E703
:10172000D6F820C00CF1010CC6F820C0C880CB81CF
:101730000A8006F099FB20EE080A84ED050A60890C
:1017400000B206F0D9FB84ED060AA089FFF74CF839
:1017500084ED090A20EE080A84ED070AE089FFF704
:101760001FF884ED080A2078022394ED050A1A4632
:1017700000EBC010BDEEC00A00EB8000284400F171
:101780009E0110EE100A00B20BF038FA2078042205
:1017900094ED060A00EBC010BDEEC00A00EB80001D
:1017A000284400F1A50110EE100A00B20DF092FBE2
:1017B0002078022394ED070A1A4600EBC010BCEE15
:1017C000C00A00EB8001294410EE100AAB3180B250
:1017D0000BF096FA94ED080A207803B00322BCEED1
:1017E000C00A00EBC010BDEC028B00EB8001294465
:1017F000BDE8F04310EE100AB13180B20DF030BCFC
:10180000B76A7F1CB76248814B82A1F808C00A8280
:1018100006F03AFB20EE080A84ED050A608900B262
:1018200006F082FB84ED060AA08906F03DFB20EE5F
:10183000080A84ED070AE08900B206F08DFB84ED0A
:10184000080A2078022394ED050A1A4600EBC0101E
:10185000BDEEC00A00EB8000284400F1CF0110EE7D
:10186000100A00B20BF0CAF92078042294ED060A9F
:1018700000EBC010BDEEC00A00EB8000284400F170
:10188000D60110EE100A00B20DF024FB20780223DE
:1018900094ED070A1A4600EBC010BDEEC00A00EB3B
:1018A0008000284400F1DC0110EE100A00B20BF0B9
:1018B000A5F994ED080A207803B00422BDEEC00A11
:1018C00000EBC010BDEC028B00EB8000284400F15F
:1018D000E301BDE8F04310EE100A00B20DF0FABAD1
:1018E000F16A491CF16206F04FFA84ED050A60893D
:1018F00006F04AFA84ED060AA08906F045FA84ED5E
:10190000070AE08906F0E0F984ED080A207803224E
:1019100094ED050A00EBC010BCEEC00A00EB80019C
:10192000294410EE100AE93180B20DF099FB2078BD
:10193000032294ED060A00EBC010BCEEC00A00EBD7
:101940008001294410EE100AED3180B20DF088FBC1
:101950002078032294ED070A00EBC010BCEEC00A09
:1019600000EB8001294410EE100AF13180B20DF035
:1019700077FB94ED080A207803B00322BCEEC00A7E
:1019800000EBC010BDEC028B00EB80012944BDE8E8
:10199000F04310EE100AF53180B20DF061BB316BEF
:1019A000491C316306F008FA84ED050A608906F0E7
:1019B00003FA84ED060AA08906F0FEF984ED070A11
:1019C000E08906F099F984ED080A2078032294ED65
:1019D000050A00EBC010BCEEC00A00EB80012944F0
:1019E00010EE100AF93180B20DF03AFB2078032294
:1019F00094ED060A00EBC010BCEEC00A00EB8001BB
:101A0000294410EE100AFD3180B20DF029FB207838
:101A1000032294ED070A00EBC010BCEEC00A00EBF5
:101A20008001294410EE100A01F2011180B20DF07C
:101A300017FB94ED080A207803B00322BCEEC00A1D
:101A400000EBC010BDEC028B00EB80012944BDE827
:101A5000F04310EE100A01F2051180B20DF000BB48
:101A6000B16B491CB16306F0D7F984ED050A6089B2
:101A700006F0D2F984ED060AA08906F0CDF984EDCE
:101A8000070A17E03C01002040000020420000202F
:101A900044000020380000203A0000203C000020D4
:101AA0003E000020300000203200002034000020E2
:101AB00036000020E08906F04FF984ED080A20780E
:101AC000032294ED050A00EBC010BCEEC00A00EB47
:101AD0008001294410EE100A01F2191180B20DF0B4
:101AE000BFFA2078032294ED060A00EBC010BCEE8A
:101AF000C00A00EB8001294410EE100A01F21D110A
:101B000080B20DF0ADFA2078032294ED070A00EBC5
:101B1000C010BCEEC00A00EB8001294410EE100A90
:101B200001F2211180B20DF09BFA94ED080A2078A1
:101B300003B00322BCEEC00A00EBC010BDEC028B68
:101B400000EB80012944BDE8F04310EE100A01F2D9
:101B5000251180B20DF084BA326C00B20223521CFF
:101B60003264032201F247110BF048F82078022377
:101B7000032200EBC01000EB8000284400F24F115C
:101B8000608900B20BF03AF820780123032200EBC1
:101B9000C01000EB8000284400F25711A08900B269
:101BA0000BF02CF82078032200EBC01000EB800033
:101BB000284400F5AF71E08903B0BDEC028BBDE8AD
:101BC000F0430DF04DBA726C00B20223521C7264E5
:101BD000032201F5B1710BF011F8207802230322E2
:101BE00000EBC01000EB8000284400F5B57160895F
:101BF00000B20BF003F820780123032200EBC010A1
:101C000000EB8000284400F5B971A08900B20AF009
:101C1000F5FF20780123032200EBC01000EB8000C9
:101C2000284400F27911E08903B000B2BDEC028BC8
:101C3000BDE8F0430AF0E2BFF26C01F5F471521C0A
:101C4000F26403220DF00CFA2078012200EBC010A0
:101C500000EB8000284400F5F67160890DF000FA71
:101C60002078012200EBC01000EB8000284400F532
:101C7000F771A0890DF0F4F92078012200EBC01073
:101C800000EB8000284400F5F871E08903B0BDEC5A
:101C9000028BBDE8F0430DF0E3B9326D01F5F97147
:101CA000521C326501220DF0DBF92078032200EB93
:101CB000C01000EB8000284400F5FA7160890DF037
:101CC000CFF92078012200EBC01000EB80002844FF
:101CD00000F5FC71A0890DF0C3F92078012200EB1A
:101CE000C01000EB8000284400F5FD71E08903B0CE
:101CF000BDEC028BBDE8F0430DF0B2B9726D01F599
:101D0000FF71521C726502220DF0AAF9207803229D
:101D100000EBC01000EB8000284400F20121608934
:101D200003B0BDEC028BBDE8F0430DF099B9B26D84
:101D300001F20521521CB26502220DF091F92078C2
:101D4000032200EBC01000EB8000284400F5027174
:101D5000608903B0BDEC028BBDE8F0430DF080B9A3
:101D6000F26D01F50371521CF26502220DF078F953
:101D70002078032200EBC01000EB8000284400F222
:101D80000F21608903B0BDEC028BBDE8F0430DF07C
:101D900067B9326E01F21321521C326602220DF035
:101DA0005FF92078042200EBC01000EB800028448B
:101DB00000F21621608903B0BDEC028BBDE8F04350
:101DC0000DF04EB9726E01F21B21521C7266022296
:101DD0000DF046F92078032200EBC01000EB8000E4
:101DE000284400F21E2160890DF03AF92078012381
:101DF000022200EBC01000EB8000284400F22221F8
:101E0000A0890AF07DFF20780123022200EBC01098
:101E100000EB8000284400F22721E08903B0BDECEC
:101E2000028BBDE8F0430AF06BBFB26E012301F5EF
:101E30000B71521CB26602220AF062FF2078012365
:101E4000022200EBC01000EB8000284400F2312198
:101E500060890AF055FF20780123022200EBC010B0
:101E600000EB8000284400F23621A0890AF048FFE8
:101E700020780123022200EBC01000EB80002844F0
:101E800000F23B21E08903B0BDEC028BBDE8F043DA
:101E90000AF036BF42EA0C40206103B00A22BDECD2
:101EA000028B01F51871BDE8F0430CF063BF00B27E
:101EB00000F0F6F920EE080A84ED050A608900B208
:101EC00000F0EEF920EE080A0223032284ED060A50
:101ED000207894ED050A00EBC010BDEEC00A00EBBF
:101EE0008000284400F51B7110EE100A00B20AF0C1
:101EF00085FE2078022394ED060A032200EBC01031
:101F0000BDEEC00A00EB8000284400F51D7110EE04
:101F1000100A00B20AF072FE20780223032200EBBE
:101F2000C01000EB8000284400F51F71A08903B0A9
:101F300000B2BDEC028BBDE8F0430AF05FBE0000CA
:101F40000A4810B5084900680EF0DEFC0848C06A6F
:101F5000002808BF10BD4FF0805006490860BFF34D
:101F60004F8FBFF36F8F10BD2C0000207401002035
:101F70000000002004ED00E0014880797047000077
:101F8000320D00200148C08870470000000000208A
:101F90000148007A70470000320D002001480078A7
:101FA00070470000320D00208748002110B5302214
:101FB00001704170C18040F20A518448FEF7DDF99A
:101FC000824B00223B204FF00A0C00BF02EBC211F3
:101FD000521C01EB81011944D2B2C8714873C87414
:101FE0004876C87781F8230081F8270081F82B0014
:101FF00081F82F0081F8330081F8370081F83B0029
:1020000081F8410081F8430081F8490081F84D00D2
:1020100081F8530081F8590081F85F0081F867006A
:1020200081F86D0081F86F0081F8710081F875000A
:1020300081F8770081F87D0081F8830081F88900BC
:1020400081F88F0081F8950081F8990081F89D0052
:1020500081F8A40081F8AA0081F8B00081F8B400EA
:1020600081F8BB0081F8C10081F8C70081F8CE007B
:1020700081F8D50081F8DB0081F8E20081F8E80002
:1020800081F8EC0081F8F00081F8F40081F8F800A4
:1020900081F8FC0081F8000181F8040181F8080151
:1020A00081F80C0181F8100181F8140181F8180100
:1020B00081F81C0181F8200181F8240181F82801B0
:1020C00081F8300181F8380181F83F0181F846013B
:1020D00081F84E0181F8560181F85D0181F86101B6
:1020E00081F8690181F87101022A81F8780181F88B
:1020F0007F0181F8870181F88F0181F8960181F8CD
:102100009A0181F8A20181F8AA0181F8B10181F850
:10211000B90181F8C10181F8C80181F8CF0181F8C6
:10212000D30181F8D90181F8DF0181F8E70181F855
:10213000EB0181F8ED0181F8EF0181F8F10181F8FF
:10214000F30181F8F70181F8F90181F8FB0181F8C9
:10215000FD0181F8000281F8040281F8070281F88C
:102160000B0281F80E0281F8120281F8150281F843
:102170001A0281F81D0281F8210281F8260281F8F5
:102180002B0281F8300281F8350281F83A0281F899
:102190003F0281F8420281F8470281F84B0281F840
:1021A0004F0281F8550281F85A0281F8830281F8C2
:1021B0005F0281F86B0281F8730281F87B0281F87B
:1021C00084C2FFF403AF10BD0000002028080020E7
:1021D0000149302088717047320D002001493120BB
:1021E000087170470000002001490020C870704746
:1021F0000000002001490020C88070470000002036
:10220000064830213B22017042708170C27001711A
:1022100042718171C271017270470000320D00205D
:102220000149302008727047320D002001493020EA
:1022300008707047320D00200149312088717047C5
:10224000320D002001490120C880704700000020A5
:102250000149312008727047320D002001493120B8
:1022600008707047320D002010B50B4C2078627852
:1022700000EBC011094802EBC21201EB810102EB35
:1022800082020144104440F28522FEF764F861782E
:1022900020782170607010BD000000202808002008
:1022A00000EE100A9FED051ADFED050AF8EEC01AE0
:1022B00081EE810A20EE200A704700000000C8422B
:1022C0006666664000EE100ADFED050A9FED051A0E
:1022D000B8EE400A60EE200A80EE810A70470000E6
:1022E0006740533AAC1C5A3E00EE100ADFED050A77
:1022F0009FED051AB8EE400A60EE200A80EE810AD2
:10230000704700006740533A7D3F553F00EE100A8A
:10231000DFED050A9FED051AB8EE400A60EE200ACF
:1023200080EE810A704700006740533AEC51183F35
:1023300000EE100ADFED090ADFED091AB8EE400AD7
:102340009FED081A20EE200AC0EE210A20EE810A35
:10235000BCEEC00A10EE100A80B270476740533AD4
:10236000CDCC0C4000007A4400EE100ADFED090AE3
:10237000DFED091AB8EE400A9FED081A20EE200A98
:10238000C0EE210A20EE810ABCEEC00A10EE100A4F
:1023900080B270476740533ACDCC0C4000007A447D
:1023A00000EE100A9FED0B2ADFED0B2AB8EE400A73
:1023B000DFED0A1A9FED0A1ADFED0A0A20EE020A83
:1023C00020EE220A30EE610A20EE010A30EE600AA9
:1023D000704700006740533A00007A440000C8424A
:1023E000CDCCCC3D0000204200EE100ADFED050A06
:1023F000B1EE001AB8EE400A20EE200A20EE010AE3
:10240000704700006740533A00EE100ADFED090AFA
:10241000DFED091AB8EE400A9FED081A20EE200AF7
:10242000C0EE210A20EE810ABCEEC00A10EE100AAE
:1024300080B270476740533A6666C64000007A44EF
:10244000014802F053BA0000B8100020014802F021
:102450004DBA000018110020014802F047BA0000F0
:10246000C81B0020014802F041BA0000E81D00200E
:10247000014802F03BBA0000681B0020014802F04E
:1024800035BA0000481E00207047000000EE100A18
:102490009FED051ADFED050AB8EE400A20EE010AAD
:1024A00030EE200A70470000EF20B6BE33F33E4303
:1024B00000EE100ADFED030AB8EE400A20EE200A13
:1024C0007047000038679C3F4FF4806002F01ABCF0
:1024D0004FF4807002F016BC0B4C00220221204603
:1024E00002F054FD00222046102102F04FFD002290
:1024F0002046082102F04AFD0821204602F03FFD57
:102500000A2002F0E9FBF7E7000C0240134A4DF8FD
:10251000044D92F80EC00123BCF1020F19D2947B36
:1025200002F10C034FF0000C02F804C0947B02EBA4
:1025300084046060907B00F803C0907B431C93731D
:102540003A2463462F22303008704C708A7081F82C
:1025500003C018465DF8044B70470000A028012016
:102560000D4902468B7B0120002B08BF7047127873
:10257000303AD2B201EB8203D3F804C0BCF1000FB1
:1025800008BF7047002058600A441073887B421EC1
:102590008A73002070470000A028012000EE100A76
:1025A000DFED0B0A9FED0B2AF8EE402AB8EE400A49
:1025B000DFED091A9FED091A62EEA00A20EE020A69
:1025C00070EEE10A30EE011A80EE810A70470000D9
:1025D0006342EC3D68E89FBBB40E1941097EDD41C2
:1025E000704700000F484FF4806110B502F0C2FC44
:1025F000002818BF10BD0C480068002808BF10BD97
:102600000A490EF081F90A488068002808BF10BD09
:102610004FF0805007490860BFF34F8FBFF36F8FB3
:1026200010BD00000000024058010020880000207A
:102630008000002004ED00E000F03CFD074901228D
:10264000074805F0E9F9074C4FF0FF31D4F8A40032
:102650000EF0C4FA044800F009F8F5E7490000203C
:10266000681D0020D4000020500D00202DE9F04FFF
:1026700051202DED068B81B08DF80000FE480079C9
:102680004D2808BF052112D008DC472808BF0121CA
:102690000DD04C2808BF022109D007E0532808BFFD
:1026A000032104D0542808BF062100D0FF21DFF801
:1026B000CC93F14FDFEDF29A9FEDF2AADFEDF2AA93
:1026C000F2EE048A9FEDF18A9FEDF19A384689F87F
:1026D000011005294FF02A0BC07900F0088309DCAE
:1026E00001290FD0022900F07381032900F0A8828C
:1026F00000F0CBBC062900F0AE84FF2900F0BE84B8
:1027000000F0C3BCDC4D2A284FF007044FF0000650
:1027100000F05881285D2C2804BF701CC6B200F060
:1027200049810A2E80F04481DFE806F0052A808482
:10273000D9DEE4FBF3F22F19295D00207A7800F04E
:1027400087FDDFF85083801C88F800000020FA78AD
:10275000B97800F07DFD88F8010000207A79397998
:1027600000F076FD88F8020000203A7AF97900F04E
:102770006FFD04F1080188F80300CCB200F01AB92B
:102780002F19295D00207A7800F062FDDFF80483BC
:1027900088F808000020FA78B97800F059FD88F828
:1027A000090097F805C0B979ACF1300CF8793A7A9C
:1027B0007B7AA1F130070CF0FF01A0F1300CF8B2E8
:1027C00000EE901A00EE100A0CF0FF01F8EE600A1D
:1027D000B8EE402A00EE101A303A80EEA81AF8EE51
:1027E000400AD0B200EE100A303BD9B204F1090021
:1027F000C4B2C2EE081AC0EE892AF8EE400A00EE12
:10280000101AB8EE400A80EEA92AC0EE0A0A31EE8C
:10281000210A30EE220A32EE000A30EE200A20EEC3
:102820002A0AB7EEC00A88ED040BC3E09949285D77
:102830000876BFE02F19285DBA78797800F008FD96
:10284000DFF85082A8F8200000203A79F97800F0EB
:10285000FFFC88F82200B879F97997F808C07A7AED
:10286000BB7AA0F13007A1F13000F9B200EE101AE6
:10287000C0B200EE900AB8EE401AACF1300CF8EE9F
:10288000601A0CF0FF01C1EE280A00EE101A303A6F
:10289000D0B2B8EE402A00EE100A303BD9B2F8EEC2
:1028A000402A00EE101A04F10A00C4B2B8EE400A41
:1028B00081EE881AC2EE091A82EEA92AC0EE0A2A0F
:1028C00030EE810A30EE210A32EE000A30EE220AA2
:1028D00020EE2A0AB7EEC00A88ED0A0B6AE06D49BD
:1028E000285D81F8300065E06A49285D303881F85C
:1028F00031005FE0281942782C2A0CD0295D002095
:1029000000F0A6FC6349621CD4B281F8320051E0A9
:1029100048E02AE005E05F49285D303881F8320060
:1029200048E028198178C0783039A0F13002C8B267
:10293000D1B200EE900A00EE101A285DE11CF8EE0C
:10294000600AB8EE400A3038CCB200EEA80AC0EEF9
:10295000080A00EE100A4F48B8EEC00A30EE800AAE
:10296000B7EEC00A80ED0E0B24E0281982782E2ADB
:1029700003D0C1782E290BD01CE042780020295DBD
:1029800000F066FCE11CCCB2424981F8400011E045
:102990004178285D00F05CFC211DCCB23D4981F8F6
:1029A000400007E03B49285D81F8410002E000BF9C
:1029B00005F804B0601CC4B2285D2A2818BF532C47
:1029C000FFF4A8AE33494822A1F5847000F040BB63
:1029D000294D2A284FF007044FF0000618BFDFF8F2
:1029E000B8807DD0285D2C2804BF701CC6B276D07C
:1029F000072E76D2DFE806F0047679D4D7FDFC0006
:102A000005EB04090146002099F8012000F020FCA4
:102A100088F80000002099F8032099F8021000F0CF
:102A200017FC88F8010099F8051099F806C03039AC
:102A300099F80700C9B299F8082099F80930ACF163
:102A4000300900EE101AA0F1300C09F0FF0000EE82
:102A5000900AB8EE401A303AF8EE601A0CF0FF0116
:102A6000C1EE280AA3F1300000EE101AD2B2C0B2B3
:102A700081EE881A12E00000500D0020470000206F
:102A800000401C460050C347000070420000C8428E
:102A900000007A44B00E0020F80E0020F8EE401A34
:102AA00000EE102A81EE892AF8EE402A00EE100A84
:102AB00004F10900C4B2B8EE400AC2EEA91AC0EE91
:102AC0000A2A30EE810A30EE020A31EE800A30EE38
:102AD000220A20EE2A0AB7EEC00A88ED020B97E020
:102AE0009EE093E088F8100092E005EB040999F865
:102AF000022099F8011000F0ABFBA8F818000020A4
:102B000099F8042099F8031000F0A2FB88F81A0045
:102B100099F8060099F807C099F80810303899F824
:102B20000920C0B299F80A30ACF13009A1F1300C9B
:102B300009F0FF0100EE100A00EE901A0CF0FF0001
:102B4000B8EE401AF8EE600A00EE100A303A81EE54
:102B5000282AB8EE401AD1B200EE101A303BD8B293
:102B6000F8EE401A00EE100A04F10A00C4B2B8EE02
:102B7000400AC0EE882AC1EE090A81EEA91AC0EE09
:102B80000A1A32EE220A30EE200A31EE000A30EE46
:102B9000210A20EE2A0AB7EEC00A88ED080B37E0BA
:102BA00088F8280034E005EB04090146002099F874
:102BB000012000F04DFB801C88F8290099F80320C3
:102BC000002099F8021000F043FB88F82A0000204A
:102BD00099F8052099F8041000F03AFB88F82B00CA
:102BE000002099F8082099F8071000F031FB01E067
:102BF00009E005E004F1080188F82C00CCB207E0F8
:102C000088F82D0004E088F82E0001E005F804B0F3
:102C1000601CC4B2285D2A2818BF532CFFF4E2AE12
:102C200007F5D47007F1A00890E87F1088E87F10BE
:102C300007F5E470C0370FC887E80F0000F025BA29
:102C4000F84D2A284FF007044FF0000618BFDFF8B0
:102C5000D8831FD0295D2C2904BF701CC6B212D0A6
:102C6000002E08BF88F800100DD0012E04BFA1F17E
:102C7000300088F8010006D0022E15D0032E18BFB0
:102C800005F804B021D0601CC4B2285D2A2818BF02
:102C9000532CDFD3D9F80300C7F85801D9F807003F
:102CA000C7F85C0100F0F1B92A1990782C281CBFF4
:102CB000A1F1300088F80200E5D15278002000F040
:102CC000C7FA611C88F802000FE0281982782C2AC4
:102CD0001CBFA1F1300088F80300D4D14278002055
:102CE00000F0B6FA611C88F80300CCB2CBE7CD4EF9
:102CF0002A284FF007044FF0000700F0A581DFF805
:102D00002C9306F5EC78DFF828A3305D2C2804BF5F
:102D1000781CC7B200F09081092F80F08B81DFE82A
:102D200007F005272B9497FCFB93FA003519014611
:102D300000206A7800F08CFA801C88F80000EA789D
:102D40000020A97800F084FA88F8010000206A7950
:102D5000297900F07DFA88F8020000202A7AE979C2
:102D600000F076FA04F1080188F8030000F057B982
:102D700088F8040000F060B93519014600206A782F
:102D800000F066FA88F808000020EA78A97800F0D8
:102D90005FFA88F809006879A979303895F807C092
:102DA000C0B22A7A00EE100A30396B7AC9B200EE4E
:102DB000901AB8EE401AA2F13000F8EE601AACF1A9
:102DC000300CC1EE280A0CF0FF0200EE102AC0B24F
:102DD000A3F13001B8EE402A00EE100AC9B204F1A6
:102DE0000900F8EE402A00EE101AC4B281EE881AEB
:102DF000B8EE400AC2EE091A82EEA92AC0EE0A2AEB
:102E000030EE810A30EE210A32EE000A30EE220A5C
:102E100020EE2A0AB7EEC00A88ED040B99F80000EC
:102E2000697900EBC01000EB8000504480F8D411A9
:102E3000A97980F8D511E97980F8D611297A80F836
:102E4000D711697A80F8D811F6E088F81800F3E015
:102E50003519AA78697800F0FBF9A8F8200000205D
:102E60002A79E97800F0F4F988F82200A879E9795C
:102E7000303895F808C0C0B26A7A00EE900A30394E
:102E8000AB7AC9B2B8EE601A00EE101AA2F13000A7
:102E9000ACF1300CC1EE280AF8EE401A0CF0FF023B
:102EA00000EE102AC0B2A3F13001B8EE402A00EEC5
:102EB000100AC9B204F10A00F8EE402A00EE101A16
:102EC000C4B281EE881AB8EE400AC2EE091A82EE48
:102ED000A92AC0EE0A2A30EE810A30EE210A32EE2B
:102EE000000A30EE220A20EE2A0AB7EEC00A88ED68
:102EF0000A0B99F80000A97900EBC01000EB8000E4
:102F0000504480F8DA11E97980F8DB11297A80F8E9
:102F1000DC11697A02E06BE009E005E080F8DD1180
:102F2000A97A80F8DE1187E088F8300084E035194E
:102F300069782E292FD0AA78002000F089F988F826
:102F4000380029796A793039A879C9B200EE101AA7
:102F5000A2F13003A0F13002B8EE401AD8B200EE70
:102F6000900AD1B2C1EE281AF8EE600A00EE101AEB
:102F7000A01DC4B280EE881AF8EE400A80EE890ADD
:102F800071EE810A30EE800A20EE090AB7EEC00A1F
:102F900088ED100B50E0303888F83800A978EA78CE
:102FA00030392879C9B200EE101AA2F13003A0F12D
:102FB0003002F8EE400AD8B201EE100AD1B280EE2B
:102FC000A80AB8EE411A01EE901A201DC4B2F8EE1C
:102FD000611AC1EE080A81EE891A30EE200A30EE3D
:102FE000010A20EE090AB7EEC00A88ED100B23E0B3
:102FF0003519014600206A7800F02AF988F849005E
:103000000020EA78A97800F023F988F84A00002027
:103010006A79297900F01CF9611D88F84B00CCB25F
:103020000AE00000500D00204A00002000000020AF
:103030002808002006F804B0601CC4B2305D2A28BD
:1030400018BF532CFFF461AE15495022A1F1D000F6
:10305000FDF781F919E0134800F014F907F50A703B
:1030600007F1D00890E87F1088E87F1007F512700C
:10307000F03790E81F1087E81F1006E00A48002389
:103080001A46694600680DF0B9FA08490122084855
:1030900004F0C2FC01B0BDEC068BBDE8F08F00006F
:1030A000280F0020500D00202C0100204900002096
:1030B000681D00201C4864231D2213A110B504F0D4
:1030C00023FD194864231D2218A104F01DFD164894
:1030D00064231D221DA104F017FD134864231D2243
:1030E00022A104F011FD294964230F480E2204F0A7
:1030F0000BFD0D486423212225A104F005FDBDE848
:10310000104006F06DBD000024505542582C34305C
:103110002C474C4C2C302C302C302C302C302C307C
:103120002A35430D0A000000681D00202450554236
:10313000582C34302C4753562C302C302C302C301B
:103140002C302C302A35390D0A000000245055420D
:10315000582C34302C4747412C302C302C302C301C
:103160002C302C302A35410D0A00000024505542E5
:10317000582C34302C4753412C302C302C302C30F0
:103180002C302C302A34450D0A000000520000205B
:1031900024505542582C34312C312C303030372CBF
:1031A000303030332C33383430302C302A32300D3C
:1031B0000A0000001D4870B51D4E00781D4D1E4CC4
:1031C000242809D128782278411C32541B48012236
:1031D0002970214604F020FC20780A2806D0BDE89A
:1031E000704012490122154804F016BC95F800C041
:1031F0000A2313482421002206F80C3021702A707B
:103200000068002808BF70BD0E490DF07DFB0E4818
:10321000C068002808BF70BD4FF080500B4908609F
:10322000BFF34F8FBFF36F8F70BD000049000020C8
:10323000500D00204700002046000020681D00209F
:1032400078010020940100208801002004ED00E0B6
:10325000A1F13001A2F1300268B164233038C0B26C
:10326000C9B210FB03F301EB8101D0B203EB4101C2
:10327000084480B27047C8B2D1B200EB800001EBC5
:10328000400070472DE9F04F05462DED048BB2EE5E
:10329000049A83B0DFEDF48A9FEDF48A00F1050B08
:1032A000F34E07244FF00008401C0290AF1CA81DED
:1032B000019005F1030A05F1040900F0C9B92C28B1
:1032C00004BF08F1010000F0FF0800F0BE81B8F172
:1032D000090F80F0B781DFE808F0052AFDFD2D9188
:1032E00094FCFB0029198A784978FFF7B1FF291966
:1032F00030800879497930383039C0B200EE900A10
:10330000C9B200EE101AB8EE601A611DF8EE400A5C
:10331000CCB241EE090A80EEA80ABCEEC00A10EE5B
:10332000100AC0EB00108000B07000F08EB9307150
:1033300000F08BB929194A782E2A02D08B782E2BCF
:103340002BD0303830728B78C8780A79A3F13001ED
:10335000C9B200EE901A3038C0B2B8EE601A00EE72
:10336000100A303AD1B2C1EE090AF8EE401A00EE66
:10337000101A201DC4B281EEA81AF8EE401A81EE90
:10338000880A70EE810A30EE800A20EE080AB7EE55
:10339000C00A86ED040B00F058B901460020FFF783
:1033A00057FF30722819C178027930394079C9B293
:1033B00000EE101AA2F13003A0F13002B8EE401A6C
:1033C000D8B200EE900AD1B2C1EE091AF8EE600A46
:1033D00000EE101A601DC4B280EEA81AF8EE400A82
:1033E00080EE880A71EE810A30EE800A20EE080A2B
:1033F000B7EEC00A86ED040B00F027B9307600F076
:1034000024B9291900914B788A782E2B68D02E2A5E
:1034100032D098480278A85C8A781946FFF718FFDE
:1034200086F820000098009902794079303A89792D
:10343000A0F13003D0B200EE900AA1F13002D9B26F
:10344000B8EE601A00EE101AD0B2C1EE090AF8EE1A
:10345000401A00EE100A81EEA81AF8EE401A81EE2A
:10346000880A70EE810A30EE800A20EE080AB7EE74
:10347000C00A86ED0A0B65E01A4601460020FFF7F8
:10348000E7FE86F820000098C2780179303A40794A
:10349000A1F13003D1B200EE901AA0F13002D8B2FF
:1034A000B8EE601A00EE100AD1B2C1EE090AF8EEC9
:1034B000401A00EE101A81EEA81AF8EE401A81EEBA
:1034C000880A70EE810A30EE800A20EE080A02E0D7
:1034D000B5E0B1E0B9E0B7EEC00A86ED0A0B31E025
:1034E0002E2A1CBF1A462E2B93D1A0F1300086F84D
:1034F000200000988978A1F13001C278C9B2007922
:1035000000EE101AA2F13003A0F13002D8B200EEA2
:10351000900AB8EE401AD1B2F8EE601A00EE101A16
:10352000C1EE090A81EEA81AF8EE401A81EE880A67
:1035300070EE810A30EE800A20EE080AB7EEC00A6B
:1035400086ED0A0B029A2046A15C2E294CD0C15D63
:103550002E2924D04849494B15F800C0097801EBC1
:10356000C11101EB81011944831DDCB281F8E0C176
:10357000825C81F8E121C25D81F8E22110F80A2025
:1035800081F8E32110F8092081F8E42110F80B20DC
:1035900081F8E521019A805C81F8E60155E0DFF8C9
:1035A000D8C0302335499CF800C00CEBCC1C0CEB88
:1035B0008C0C614400F1050C0CF0FF0481F8E03143
:1035C0002B5C81F8E131825C81F8E221C25D81F8F7
:1035D000E32110F80A2081F8E42110F8092081F88D
:1035E000E52110F80B00D7E7C35D2E2B18BF2E295D
:1035F000B0D121494FF03003097801EBC11C1F49BC
:103600000CEB8C0C614481F8E03181F8E1312B5CEA
:1036100081F8E231825C81F8E321C25D81F8E42126
:1036200010F80A2081F8E52100F1040214F80900DD
:10363000D4B281F8E60108E086F8300005E086F8AB
:10364000310002E04FF02A00285504F10100C4B215
:10365000285D2A2818BF532CFFF431AE03B0BDEC0F
:10366000048BBDE8F08F00000000C84200007A44DF
:10367000780F0020470000200000002028080020CC
:1036800000EE100A9FED051ADFED050AF8EE401A6C
:1036900081EE810A20EE200A7047000000007F437F
:1036A0000000C8427047000070B482B04FF0000CB8
:1036B000CDF800C090F83C20012A01BF022002B0E2
:1036C00070BC7047012280F83C200A680724654BD3
:1036D0000568092A1DD90A3AEE6802EB420204FA8B
:1036E00002F226EA0202EA600A689A4206D10268F9
:1036F0000C7AD56845EA0464D4601CE004680A3A90
:103700008D6802EB4202E66805FA02F23243E2609B
:1037100011E02E6902EB420204FA02F226EA0202EA
:103720002A6102680C788D68166904EB440405FA76
:1037300004F4344314614A681F24072A15D205682B
:10374000521E02EB82026E6B04FA02F226EA0202B9
:103750006A6302680D790C886D1E566BA4B205EB86
:103760008505AC40344354632CE005680D2A14D21F
:10377000D21F2E6B02EB820204FA02F226EA020248
:103780002A630C7902680D88E61FACB206EB860549
:10379000166BAC403443146314E00D3AEE6A02EB4E
:1037A000820204FA02F226EA0202EA6202680C7954
:1037B0000D880D3CD66AADB204EB840405FA04F41E
:1037C0003443D462284A0468944204BF0C68122C23
:1037D00005D1D2F8044344F48004C2F804430468D9
:1037E000944233D10C689C4218BF112C2ED1D2F8D0
:1037F000044344F40004C2F804430968994225D103
:103800001A491B4A0968B1FBF2F101EB8101490039
:10381000009101911AD0B1F1004F1DD20029D8BFFB
:10382000002105DD11F0010102D0009A521E009224
:10383000019A491C521C9142B8BF009B06DA5B1EDC
:10384000891C9142A3F101030093F8DB80F83CC08E
:1038500002B0002070BC70470099491E0091FCD155
:10386000F4E7000012000010002001401C080020B6
:1038700040420F002DE9F04104460068184D4FF01A
:103880008057184EA0F18041B1F590310ED12046FD
:1038900000F034FB1448294600680DF035F828681C
:1038A00020B13760BFF34F8FBFF36F8F0F49206890
:1038B000884218BFBDE8F081204600F01FFB0D488C
:1038C0000B4900680DF020F86868002808BFBDE8C3
:1038D000F0813760BFF34F8FBFF36F8FBDE8F0818A
:1038E0009800002004ED00E04C0100200021014080
:1038F0009C000020500100207047704770B50446BE
:10390000006802684168C2F34002002AC1F3401116
:1039100018BF00292DD0216C11F0100F03D1216C9C
:1039200041F400712164816811F0405F04BFA16916
:10393000002917D1C16A11F4700F1CBF816811F4FE
:10394000806F0FD1416821F020014160206C20F48C
:1039500080702064206C10F4805F03D1206C40F0F4
:10396000010020642046FFF785FF21686FF01200F8
:103970000860206801684368C1F38002002AC3F32D
:10398000C01118BF002934D0216C11F0100F03D1E1
:10399000216C41F400512164816811F4401F21D150
:1039A000816B11F4401F1CBF816811F4806F19D125
:1039B000416811F4806F01BF816811F0405FA16917
:1039C00000290FD1416821F080014160206C20F472
:1039D00080502064206C10F4807F03D1206C40F074
:1039E000010020642046FFF75DFE21686FF00C00A7
:1039F000086020680168436811F0010FC3F380116B
:103A00001EBF0029006810F0010F0AD0206C40F49E
:103A100080302064204600F0DDF821686FF001005E
:103A20000860206801684368C1F34012002AC3F3AC
:103A3000806114BF002970BD616C6FF0200541F0FA
:103A40000201616405602046FFF757FF20680560AA
:103A500070BD000070B504004FF0000604BF0120E7
:103A600070BD206C002528B9204600F0B5F86564CB
:103A700084F83C50206C10F0100F18BF012603D0C2
:103A8000304684F83C5070BD206C20F4885040F0E3
:103A9000020020644C486FF07061D0F8042322F4D7
:103AA0004032C0F80423D0F8042363681A43C0F8F6
:103AB00004232068426822F48072426020682269F0
:103AC000436843EA022242602068426822F0407262
:103AD00042602068A26843681A4342602068826896
:103AE00022F4006282602068E26883681A43826080
:103AF000A06AC8422068816821F0706181602068F6
:103B000004BF816821F040510CD0A16A8268114342
:103B100081602068816821F0405181602068E16AFD
:103B20008268114381602068816821F00201816010
:103B30002068A169826842EA4101816094F820000E
:103B40000028206804BF416821F400610FD01F499C
:103B5000426842F4006242602068426822F4604297
:103B600042602068636A426801EB4331114341605F
:103B700020681749C26A22F47002C2622068A28BD0
:103B8000C36A01EB02511943C1622068816821F4C4
:103B900000718160206894F83010826842EA412107
:103BA00081602068816821F480618160206861699A
:103BB000826842EA812181606564206C20F0020005
:103BC00040F0010020645BE70020014000E0FFFFBF
:103BD0000000F0FF704700002DE9F04F87B0064667
:103BE000002458485649032500944FF48058019406
:103BF000071502944FF4804903944FF4807A04949B
:103C00003268DFF844B1A2F18043B3F5903342D07B
:103C10004E4B9A421CBF07B0BDE8F08F0A6842F4D1
:103C200000720A60096801F400710591016841F0B1
:103C300001010160016801F001010591016841F095
:103C4000020101600068694600F0020005906020F2
:103C5000CDE90005584601F061F801206946CDE93B
:103C600000053B48029401F059F83A4D4FF00070BE
:103C700039492960C5E90104C5E90347C5E907A435
:103C80006C622846C5E9058900F01EFF00284AD06D
:103C9000FEF722FC47E00A6842F480720A60096875
:103CA00001F480710591016841F00401016001682F
:103CB00001F004010591016841F001010160016812
:103CC00001F001010591016841F002010160006805
:103CD000694600F0020005900D20CDE900051F485F
:103CE00001F01CF819206946CDE9000558460294F8
:103CF00001F014F802206946CDE900051448029449
:103D000001F00CF8164D1748C5E90004AC602846D0
:103D1000C5E90347C5E907A46C62C5E9058900F058
:103D2000D3FE0028B4D1B56300220D21AE6312206A
:103D300001F0D8FF122001F0C5FF07B0BDE8F08FF9
:103D40004438024030380240000002400021014067
:103D500000040240181100204064024000080240A4
:103D6000B81000201064024030B583B0044600252E
:103D70001346009590F83C00012802BF022003B0D2
:103D800030BD012084F83C002068826812F0010FE9
:103D90002DD1D0F808C0534A4CF0010CC0F808C02F
:103DA00051480068B0FBF2F010EB40000090019029
:103DB0001DD0B0F1004F70D20028D8BF002005DD23
:103DC00010F0010002D0009A521E0092019A401C8D
:103DD000521C9042B8BFDDF800C008DA801CACF17C
:103DE000010C9042ACF1010CCDF800C0F6DB20686C
:103DF000826812F0010F6DD0226C22F0010222F4D1
:103E0000C06242F480722264406810F4806F05D072
:103E1000206C20F4005040F480502064206C10F49A
:103E2000805F08BF656403D0606C20F006006064AA
:103E300084F83C506FF02200D4F838C02B4ACCF8FC
:103E40003C20D4F838C02A4ACCF84020D4F838C0F6
:103E5000284ACCF84C20226810602068426842F062
:103E6000806242602068826842F4807282602268C8
:103E7000A06B02F14C0C0A46614600F0DFFE1E49C1
:103E8000D1F8040310F01F0F206807D0884204BF48
:103E9000826812F0405F06D009E01EE0816811F0F0
:103EA000405F17D112E0826842F080428260D1F810
:103EB000040310F0100F01BF2068A0F18041B1F59C
:103EC0009131816808BF11F0405F03D1816841F0F2
:103ED0008041816003B0002030BD0098401E0090FA
:103EE000FCD184E740420F001C080020E5042000BC
:103EF0006F052000590520000020014010B590F802
:103F00003C1004460020012904BF022010BD0121FD
:103F100084F83C1021688A6822F001028A602168D6
:103F20008A6812F0010F11D1886820F480708860CF
:103F3000A06B00F076FC21684A6822F080624A603B
:103F4000216C21F4885141F001012164002184F8A1
:103F50003C1010BD90F82020012A18BF022A06D07C
:103F6000416A41F4802141624FF0010070470068CE
:103F7000426942EA010141614FF0000070470000D0
:103F8000F0B490F82040D0F800C0DCF808C0012C54
:103F900018BF022C07D0416A41F480214162F0BC75
:103FA0004FF0010070471CF0E05F55D0CCF3016C7E
:103FB000BCF1020F06D9416A41F400014162F0BC34
:103FC0000120704701254FF4C07405FA0CF51D60FF
:103FD0008B68A3B1CD684E6807682B4304EB0C15C2
:103FE00043EAC60347F8053005684FF4C27303EB94
:103FF0000C130E69EE50097D01290ED108E00D88E1
:10400000CB68066843EA455304EB0C157351EBE7A4
:104010000168CD5845F48075CD50D2F805504FF465
:10402000C6761379371F016806EB0C1643EA05259F
:1040300007EB0C138D51157804EB0C11D2F801200D
:10404000066845EA0222F2500068425842F0010236
:104050004250F0BC00207047416A41F400114162B7
:10406000F0BC0120704700004DF8044D90F820305E
:104070000268012B18BF022B08D0416A41F480214D
:1040800041625DF8044B4FF0010070474148A2F1D6
:10409000804CBCF5505C18BF0246D2F80032824218
:1040A00043F00103C2F800320CD1D2F8000220F430
:1040B0007C50C2F80002D2F800024B6A40EA0320AA
:1040C000C2F8000291F814C00120D2F81C320CF0A2
:1040D0001F0C00FA0CF08343C2F81C32CB69C3B941
:1040E000D2F80C328343C2F80C32B1F80CC04B68E2
:1040F0004C696CF31F4302EBC40CCCF84032B1F8AE
:1041000008C00B684C696CF31F4302EBC40CCCF87D
:104110004432CB69012B18D1D2F80C320343C2F8D8
:104120000C32B1F800C04B684C696CF31F4302EBD2
:10413000C40CCCF84032B1F808C0CB684C696CF3C1
:104140001F4302EBC40CCCF844328B69002BD2F82D
:1041500004320CBF83430343C2F804320B69002BC3
:10416000D2F814320CBF83430343C2F81432096AF5
:10417000012904D1D2F81C120843C2F81C02D2F85B
:10418000000220F00100C2F800025DF8044B00209C
:1041900070470000006400407047F0B490F820C001
:1041A000BCF1010F18BFBCF1020F07D0416A41F406
:1041B00080214162F0BC4FF001007047D0F800C090
:1041C00029B1DCF810C01CF0030F6BD004E0DCF860
:1041D0000CC01CF0030F65D004684FF4D87C0CEBC6
:1041E000011C54F80C4014F004049460046854F862
:1041F0000C4007BF640D1460E40854604FF4DA7497
:104200000768261D351D57F80CC0002904EB011462
:10421000CCF34007D76006EB011C05EB01110568E4
:104220002D5905F00F05156105682D59C5F30725B2
:10423000956105682C594FEA14445461026852F89C
:104240000C201A70026852F80C204FEA12225A70A1
:10425000026852F80C204FEA12429A70026852F833
:104260000C204FEA1262DA70026852581A71026822
:1042700052584FEA12225A71026852584FEA1242BB
:104280009A71026851584FEA1161D97100680CBFE8
:10429000C168016941F020010CBFC16001610020CB
:1042A000F0BC7047416A41F400114162F0BC01204A
:1042B000704790F820100246002001291CBF0229F7
:1042C000704711688A6812F0806F18BF01208A68F1
:1042D00012F0006F18BF401C896811F0805F18BF92
:1042E000401C70472DE9F05F0546006800244669D0
:1042F000D0F804908768D0F80CB0D0F810A016F071
:10430000010FD0F8188025D017F0010F07D0012138
:10431000816017F0020F7CD0284600F07CFA17F479
:10432000807F09D0286817F4007F4FF48071816086
:1043300070D0284600F071FA17F4803F0AD0286840
:1043400017F4003F4FF48031816000F0B9802846B7
:1043500000F065FA16F0080F18BF1BF0100F04D01C
:104360002968102044F40074C86016F0040F4FF060
:10437000080718BF1BF0080F04D02868C76028463C
:1043800000F0BCF916F0020F07D02868C06810F0E2
:10439000030F1CBF284600F0B3F916F0400F18BFFA
:1043A0001AF0100F04D02968102044F480640861CA
:1043B00016F0200F18BF1AF0080F04D02868076104
:1043C000284600F0C7F916F0100F07D028680069DA
:1043D00010F0030F1CBF284600F0BEF916F4003F92
:1043E00018BF19F0100F05D0296810204860284622
:1043F00000F0DCF916F4803F18BF19F0080F04D064
:1044000028684760284600F00BFA16F4004F78D071
:1044100001E035E044E019F0040F6FD016F4807F1E
:104420001CBF18F0010F44F0010416F4007F1CBFFC
:1044300018F0020F44F0020416F4806F1CBF18F04D
:10444000040F44F0040416F4006F18BF18F0700F46
:1044500054D008F07000402808BF44F0400448D011
:104460003EDC102808BF44F0080442D0202808BFD2
:1044700044F010043DD0302808BF44F0200438E058
:1044800017F0040F18BF4FF400647FF448AF17F023
:10449000080F0ABF28464FF4805400F0BBF93EE7EE
:1044A00017F4806F18BF44F400547FF445AF17F43D
:1044B000006F0ABF284644F4804400F0ADF93BE7A2
:1044C00017F4802F18BF44F400447FF443AF17F46F
:1044D000002F0ABF284644F4803400F09FF939E7E2
:1044E000502808BF44F0800403D0602808BF44F47B
:1044F00080742868816921F0700181612968042035
:104500004860002C08BFBDE8F09F686A20436862DD
:104510002846FFF741FEBDE8F09F0000002804BFD9
:104520000120704770B5044690F82000002804BFB1
:10453000204600F089F82068016821F0020101603E
:1045400000F02AFD054620680526406810F0020F9D
:104550000AD000BF00F020FD401B0A2817D82068B1
:10456000406810F0020FF5D12068016841F00101A8
:10457000016000F011FD05462068406810F0010F51
:1045800012D100BF00F008FD401B0A2807D9606A5D
:1045900040F40030606284F82060012070BD206823
:1045A000406810F0010FEDD0207E012820680168DE
:1045B0000CBF41F0800121F080010160607E012884
:1045C000206801680CBF41F0400121F0400101600A
:1045D000A07E0128206801680CBF41F0200121F075
:1045E00020010160E07E0128206801680CBF21F0F5
:1045F000100141F010010160207F0128206801684E
:104600000CBF41F0080121F008010160607F012822
:10461000206801680CBF41F0040121F00401016031
:1046200004F108000FC8084342EA0301D4E9002C52
:1046300001430020ACF101030B43D361012160620F
:1046400084F8201070BD00004DF804ED87B0002103
:10465000009101910291039104910068A0F18042C0
:10466000B2F5C8421CBF07B05DF804FB20480168E2
:1046700041F000710160006800F0007005901D4875
:10468000016841F00201016000680221092300F085
:10469000020005904FF44070CDE900010322164856
:1046A000CDE90323694600F039FB002205211320E0
:1046B00001F018FB132001F005FB00220621142055
:1046C00001F010FB142001F0FDFA00220621152054
:1046D00001F008FB152001F0F5FA00220621162052
:1046E00001F000FB162001F0EDFA07B05DF804FBC5
:1046F0004038024030380240000402407047000059
:104700000E4B002110B5A3F11C0202F1C800FFF707
:1047100044FD0D4800230A4A0A4900680CF060F87D
:104720000A48C068002808BF10BD4FF080500849F3
:104730000860BFF34F8FBFF36F8F10BD28130020A9
:10474000B80000200C13002040010020AC00002025
:1047500004ED00E0704700000E4B012110B5A3F1FD
:104760001C0202F1A400FFF718FD0D4800230A4ABD
:104770000A4900680CF034F80A480069002808BFAC
:1047800010BD4FF0805008490860BFF34F8FBFF352
:104790006F8F10BD4C130020BC0000203013002090
:1047A00044010020AC00002004ED00E07047000050
:1047B00070B5044690F82000012804D0606A40F4E7
:1047C000002060621CE0022084F82000206801685C
:1047D00021F00101016000F0DFFB05462068406820
:1047E00010F0010F13D000BF00F0D6FB401B0A28C9
:1047F00008D9616A052041F40031616284F8200023
:10480000012070BD2068406810F0010FECD100203D
:10481000606270BD7047704770477047704770475F
:1048200070472DE9F041876D044600F0B5FB054661
:1048300094F835000026022806D08020606501200B
:1048400084F83460BDE8F0812068016821F0160129
:1048500001602068416921F080014161206C0028DD
:1048600004BFA06C002804D02068016821F0080172
:1048700001602068016821F0010101602068006882
:1048800010F0010F12D000F087FB401B052808D95B
:1048900020216165032084F8346084F83500BDE888
:1048A000F0812068006810F0010FECD194F85C10E2
:1048B0003F22012002FA01F1B96084F8346084F8E3
:1048C00035000020BDE8F08190F83510022903D0B2
:1048D0008021416501207047052180F8351000686E
:1048E000016821F001010160002070472DE9F843C3
:1048F00004464FF00009734A0821CDF800904FF4A8
:104900001650A56D94F85C3012682E68B2FBF0F872
:1049100001FA03F3334211D02068026812F0040F49
:104920000CD0026822F00402026094F85C0001FAE4
:1049300000F0A860606D40F00100606594F85C00D4
:10494000012707FA00F0304209D02168496911F0C7
:10495000800F04D0A860606D40F00200606594F89C
:104960005C1004208840304209D02168096811F0A9
:10497000020F04D0A860606D40F00400606594F8F8
:104980005C1010208840304220D02168096811F066
:10499000080F1BD0A8602068016811F4802F09D08F
:1049A000006810F4002F02D0A16C79B10CE0216CEA
:1049B00051B90BE0016811F4807F03D1016821F047
:1049C00008010160216C09B12046884794F85C1009
:1049D0002020884030424AD02168096811F0100F29
:1049E00045D0A86094F8350005282068016809D0F2
:1049F00011F4802F2BD0006810F4002F24D0E16B2D
:104A000021B332E021F0160101602068416921F0F4
:104A100080014161206C002804BFA06C002804D0F4
:104A20002068016821F00801016094F85C004FF0F3
:104A30003F0101FA00F0A86084F8349084F83570E2
:104A4000216DD1BBBDE8F883616C71B90FE00168DD
:104A500011F4807F07D1016821F01001016084F812
:104A6000349084F83570E16B09B120468847606D59
:104A7000002808BFBDE8F883606D10F0010F17D063
:104A80004FF0050084F835002068016821F001012D
:104A90000160009800F101000090404504D82068B2
:104AA000006810F0010FF4D184F8349084F8357068
:104AB000E16C002908BFBDE8F883204601B0BDE8DD
:104AC000F04308471C0800202DE9F047044600F099
:104AD00063FA002C054604BF0120BDE8F0870026DC
:104AE000022084F8346084F835002068016821F0E1
:104AF000010101602068006810F0010F11D000BFB3
:104B000000F04AFA401B052806D9202161650320E0
:104B100084F83500BDE8F0872068006810F0010FC8
:104B2000EED1D4E9023CD4E90010D4E90472184370
:104B30004CEA0708D4E90653D4E908C740EA080953
:104B4000086849EA0202DFF8E8802A4342EA0302E1
:104B500000EA080042EA0C02042F42EA000003D1F6
:104B6000D4E90B231A4310430860D4F800C0012392
:104B7000606ADCF81410042821F0070140EA010201
:104B800038D1D4E90A100A4318B3A56955B1B5F56F
:104B9000005F14D000291CBF0129022921D003295C
:104BA0001CD027E019B1012905D0022922D110F02B
:104BB000807F1FD015E0B0F1C07F1BD111E081B123
:104BC000012907D002290CD0032908BFB0F1C07F0A
:104BD00007D00FE010F0807F03D10BE010F0807F52
:104BE00008D04FF04000606584F835304FF0010088
:104BF000BDE8F087CCF8142020680E49C2B2A2F1BB
:104C000010026FF30900A1FB02210B4A4FEA1111B8
:104C10000329525CE26588BF001D3F21A0659140D9
:104C20008160666584F835300020BDE8F0870000BB
:104C30003F8010E0ABAAAAAA841A2100F0B490F831
:104C400034404FF0000C012C846D02BF0220F0BCF8
:104C5000704790F83570012680F834600025012FE8
:104C60001CBF4FF0020C80F8345002D0F0BC6046FC
:104C70007047022680F83560456505682E6826F481
:104C800080262E6005686B608368402B036803BF35
:104C90009A600268D16099601CBF0168CA6090F890
:104CA0005C103F2202FA01F1A16001680A6842F03B
:104CB00016020A6001684A6942F080024A61016C8A
:104CC00021B101680A6842F008020A6000680168C0
:104CD00041F001010160C9E770B5044600F05CF9DC
:104CE000B4F1FF3F054602D004480078044400F0C8
:104CF00053F9401BA042FAD370BD000010080020F9
:104D0000FDF770BC04490A68024208BF704710B53D
:104D10000860FFF7F5FF10BD143C01402DE9F84F86
:104D20008F4E002201274FF003094FF00F0800BFFC
:104D30000B6807FA02FC03EA0C03634540F00A81A2
:104D40004C68022C18BF122C13D14FEAD204D1F8B0
:104D500010B04FEA427A00EB8404256A4FEADA6A1F
:104D600008FA0AFE0BFA0AFA25EA0E054AEA0505D0
:104D7000256291F804B04FEA4204D0F800A00BF08D
:104D8000030B09FA04F50BFA04FB2AEA050A4BEABD
:104D90000A0AC0F800A0D1F804A0BAF1010F18BFA8
:104DA000BAF1020F05D0BAF1110F18BFBAF1120F04
:104DB00019D1D0F808A0D1F80CB02AEA050A0BFAEC
:104DC00004FB4BEA0A0AC0F808A0D0F804A091F846
:104DD00004B02AEA0C0CCBF3001B0BFA02FA4AEAE5
:104DE0000C0CC0F804C0D0F80CC0D1F808A02CEA14
:104DF000050C0AFA04F444EA0C0CC0F80CC0D1F813
:104E000004C01CF0805F7DD0356822F0030C4FEAAF
:104E1000827445F4804535604FEA147435680CF1AE
:104E2000804C0CF5983C05F48045009508FA04FA8E
:104E3000DCF80858A0F1804BBBF5003B25EA0A05D9
:104E400008BF4FF0000A48D0A0F1804ABAF5013AF5
:104E500008BF4FF0010A40D0A0F1804ABAF5023AEB
:104E600008BF4FF0020A38D0A0F1804ABAF5033AE1
:104E700008BF4FF0030A30D0A0F1804ABAF5043AD7
:104E800008BF4FF0040A28D0A0F1804ABAF5053ACD
:104E900008BF4FF0050A20D0A0F1804ABAF5063AC3
:104EA00008BF4FF0060A18D0A0F1804ABAF5073AB9
:104EB00008BF4FF0070A10D0A0F1804ABAF5083AAF
:104EC00008BF4FF0080A08D0A0F1804ABAF5093AA5
:104ED0000CBF4FF0090A4FF00A0A0AFA04FA214CF3
:104EE0004AEA0505CCF808584D68D4F800C015F416
:104EF000803F2CEA030C18BF4CEA030C1A4DC4F88F
:104F000000C000E026E04C68D5F800C014F4003F73
:104F10002CEA030C18BF4CEA030CDFF850A0C5F8CC
:104F200000C04C68DAF800C014F4801F2CEA030CAF
:104F300018BF4CEA030C0E4CCAF800C04D68D4F8F8
:104F400000C015F4001F2CEA030C18BF4CEA030C38
:104F5000C4F800C0521C102AFFF4EAAEBDE8F88F76
:104F600044380240003C0140043C0140083C014000
:104F70000C3C01400069084018BF0120704742699D
:104F800031EA020208BF090481617047002A08BFA4
:104F90000904816170470000014880687047000083
:104FA00010080020D0F8C00205F0ECB9D0F8C0021B
:104FB00005F006BA006806F03BBF006806F03CBF8B
:104FC00001EB810100EBC10090F85C00704701EB40
:104FD000810100EBC100C06C704710B5044690F829
:104FE000B802012804BF022010BD012084F8B802D5
:104FF000206806F02DFF002084F8B80210BD2DE9CE
:10500000F04784B0044694F8B8C2DDE90D600C9F07
:10501000BCF1010F02BF022004B0BDE8F0874FF0E1
:10502000010801EB810C002504EBCC0C84F8B8825C
:1050300012F0800F02F07F098CF83D508CF8383068
:10504000ACF840008CF839108CF83F608CF83A903E
:1050500014BF8CF83B808CF83B508CF83C70009768
:10506000CDE90160206806F055FF84F8B85204B01D
:10507000BDE8F087D0F8C00205F038BA2DE9F0039A
:1050800001EB810C4FF0020500EBCC0C069FDDE933
:105090000786002F8CF83B208CF83F3006BF032496
:1050A0008CF842408CF842504FF0000433B1012B91
:1050B00037D0022B10D0032B17D020E0012F08BFD0
:1050C000002A1CD1002E04BF01228CF8512014D0DC
:1050D0009CF851202AB310E01AB19CF8502002B37A
:1050E0000BE09CF8512042B91BE01AB19CF850200B
:1050F000BAB102E09CF851209AB18CF84250CCE948
:1051000011868CF85C40CCF84C408CF839100CF1CE
:1051100038018CF85D40027C0068BDE8F00306F0C1
:1051200081BF8CF84240EAE72DE9F04F0446006861
:1051300083B0804606F088FE01281CBF03B0BDE89E
:10514000F08F206807F0F0F9002804BF03B0BDE835
:10515000F08F206807F0E8F910F4001F03D02068F2
:105160004FF400114161206807F0DEF910F4801F50
:1051700003D020684FF480114161206807F0D4F912
:1051800010F0806F03D020684FF08061416120688B
:1051900007F0CAF910F0020F4FF002051CBF20689B
:1051A0004561206807F0C0F910F0005F10D0D8F812
:1051B000400420F02E00C8F840042046FFF7F6FE19
:1051C0002068012107F0A0F820684FF000514161EC
:1051D000206807F0A9F910F0807F5CD02668D6F827
:1051E00040040190D6F8400420F02E000090019871
:1051F00010F0020F0ED0019810F0010F06D0B06928
:1052000020F00051B1612046FFF7CCFE009840F03D
:1052100002000090019810F0080F32D0009840F082
:1052200008000090019810F0040F1CD0A06902281B
:105230000DD0E068032804BF4EF66020C6F80404D1
:10524000204600F09BFB2046FFF7ACFE19E00198DA
:1052500000F4C020B0F5802F206814BF0121022186
:1052600007F052F8ECE7204600F084FBD6F8400443
:1052700020F02E00C6F840042068816941F00051FA
:105280008161019810F0200F00981CBF40F02000B1
:105290000090C6F84004206807F046F910F0080FA7
:1052A0004FF0080604D0204600F06FFB20684661EE
:1052B000206807F039F910F0007F00F0778220684D
:1052C00006F0ACFE8146A0680027002884BF0126B6
:1052D0004FF0040B40F2668207F00F0006FA00F070
:1052E00010EA090F00F0588208EB4710D0F80005CB
:1052F00007F0FF0A10F4004F206800EB4A15D5F8BC
:10530000080500F0040000F0308140B1C5F808B590
:10531000D5F80C0540F00200C5F80C0541E0D5F8C1
:10532000080510F0200F1CBF2020C5F8080538D153
:10533000D5F8080510F0080F17D0D5F80C250AEBA2
:105340008A03052004EBC30C102142F00203C5F8C8
:105350000C3508228CF85D00C5F80815C5F808253D
:105360005146206806F074FD1BE0D5F8080510F4DE
:10537000806F16D0D5F80C0540F00200C5F80C057A
:105380002068514606F064FD1020C5F808050AEBB8
:105390008A030821820104EBC30383F85D10C5F87A
:1053A0000825D5F8080510F4007F0CD0D5F80C05B9
:1053B00040F00200C5F80C052068514606F048FD93
:1053C0004FF40070CEE0D5F8080510F0010F46D07C
:1053D000206950B1D5F810150AEB8A0204EBC2001F
:1053E000C1F31201826C511AC1640AEB8A01324680
:1053F00004EBC1000090002180F85D608165C5F874
:10540000086590F83F00002818BF022802D0032842
:105410000ED01AE0D5F80C0540F00200C5F80C05D6
:105420002068514606F014FD1020C5F808050CE070
:10543000D5F8000540F00050C5F800050098514629
:1054400080F85C202046FFF715FE0098009990F840
:10545000500080F0010081F8500000F09DB9D5F8AF
:10546000080510F0020F2FD0D5F80C050AEB8A02C0
:1054700020F00201C5F80C1504EBC20090F85D1095
:10548000012908BF80F85C6000F07C81052900F0EC
:10549000A781062918BF082904D0032900F0AC8190
:1054A00000F070B9816D491C8165032900F29F816C
:1054B00000F0A2B9D5F8001521F0804141F000417B
:1054C000C5F8001500F05EB9D5F8080510F0800F9A
:1054D00015D0D5F80C250AEB8A03062104EBC3008E
:1054E00042F00202C5F80C25826D521C826580F8DC
:1054F0005D105146206806F0ABFC802032E0D5F804
:10550000080510F0100F00F047810AEB8A0104EB48
:10551000C10090F83F10032904D0002918BF0229C8
:105520000ED01EE04FF000018165D5F80C0540F06B
:105530000200C5F80C052068514606F089FC10E011
:1055400000218165216961B9032180F85D10D5F8DA
:105550000C0540F00200C5F80C052068514606F025
:1055600077FC1020C5F8080516E140B1C5F808B56C
:10557000D5F80C0540F00200C5F80C050CE1D5F893
:10558000080510F0200F1CD00AEB8A024FF0200112
:10559000C5F8081504EBC20090F83D1001294CD164
:1055A000002180F83D10022280F85C20D5F80C051F
:1055B00040F00200C5F80C052068514606F048FC92
:1055C000EAE0D5F8080510F0400F15D00AEB8A0183
:1055D00004EBC100002180F85DB080F83D6081657A
:1055E000D5F80C0540F00200C5F80C0520685146BE
:1055F00006F02EFC4020B5E7D5F8080510F4007F32
:105600007FF4D4AED5F8080510F0010F16D00AEBE0
:105610008A02002104EBC20000908165D5F80C05D8
:1056200040F00200C5F80C052068514606F010FC59
:10563000C5F80865009880F85D60ADE0D5F808050C
:1056400010F0080F14D00820C5F80805D5F80C058F
:1056500040F00200C5F80C052068514606F0F8FB42
:105660000AEB8A02052004EBC20181F85D0093E099
:10567000D5F8080510F0100F1DD00AEB8A020021A2
:1056800004EBC200032290F83D308165002B80F8C6
:105690005D2002BF90F83C10002980F83D60D5F8ED
:1056A0000C0540F00200C5F80C052068514606F0D4
:1056B000CFFB102056E7D5F8080510F0800F14D066
:1056C000D5F80C0540F00200C5F80C0520685146DD
:1056D00006F0BEFB0AEB8A03062104EBC30080221E
:1056E00080F85D10C5F8082556E0D5F8080510F4D7
:1056F000806F17D0D5F80C0540F00200C5F80C05F6
:105700002068514606F0A4FB1021C5F808150AEBE5
:105710008A038801082204EBC303C5F8080583F84F
:105720005D2039E0D5F8080510F0020F34D0D5F827
:105730000C050AEB8A0220F00201C5F80C1504EBF7
:10574000C20090F85D1001290BD0032914BF042971
:10575000022115D0052943D0062918BF082941D0B8
:1057600010E090F83F1080F85C60022918BF032910
:1057700008D190F8511081F0010180F8511001E03A
:1057800080F85C104FF00201C5F80815514690F8FA
:105790005C202046FFF76EFCA0687F1CB8423FF6F5
:1057A0009BAD00BF21684FF000704861206806F093
:1057B000BBFE10F0100F04BF03B0BDE8F08F2068EF
:1057C000816921F01001816127683846396A01F04A
:1057D0000F08C1F34342022AC1F30A1510D034E086
:1057E0000521CDE7816D491C8165032904D900217C
:1057F000816580F85CB05DE6022180F85C1059E6B6
:105800001DB308EB880204EBC206716CE9B12A46AD
:1058100006F08EFE716C07EB4810104A2944716443
:10582000F16C2944F164D0F8101511420DD0D0F874
:10583000001521F0804141F00041C0F8001596F8B4
:10584000500080F0010086F850002068816941F026
:105850001001816103B0BDE8F08F00000000F81F67
:10586000002804BF012070472DE9F041044690F85C
:10587000B9028AB028B9002084F8B802204600F0A6
:105880002DF8032084F8B902206806F07FFA04F1AD
:105890001000251D90E8CF118DE8CF11D4E90C013F
:1058A000CDE9080194E80F0006F008FA206801210C
:1058B00006F034FF0C3595E8CF118DE8CF11D5E90E
:1058C0000801CDE9080194E80F0006F08FFC0120E3
:1058D00084F8B9020AB00020BDE8F08110B586B0A6
:1058E0000021009101910291039104910068A0F1BF
:1058F0008042B2F580221CBF06B010BD1B4C206850
:1059000040F002002060206802210C2300F0020019
:1059100005904FF44040CDE9000103221448CDE941
:1059200003236946FFF7FAF9206840F00050206031
:1059300020680022082100F0005005904A2000F065
:10594000D1F94A2000F0BEF9002208214B2000F0D6
:10595000C9F94B2000F0B6F9002208214D2000F0D3
:10596000C1F94D2000F0AEF906B010BD303802404C
:1059700000040240D0F8C00204F0E1BDD0F8C0023B
:1059800004F0E1BD006806F0F3BDD0F8C00204F0F9
:105990006FBD10B5044690F8B802012804BF02207C
:1059A00010BD012084F8B802206806F010FA2068C3
:1059B000012106F0F1F9002084F8B80210BD10B5FD
:1059C000044690F8B802012804BF022010BD01204F
:1059D00084F8B802206806F0B9FE002084F8B80206
:1059E00010BD4DF8044D90F84120202A27D190F8A1
:1059F0004020012A23D0012380F8403024224FF098
:105A0000000C202380F841200268146824F001046F
:105A100014600268146824F48054146002681468E6
:105A20002143116001680A6842F001020A6080F8AF
:105A3000413080F840C000205DF8044B70475DF8AD
:105A4000044B022070474DF8044D90F84120202A65
:105A500025D190F84020012A21D0012380F8403040
:105A600024224FF0200C002480F8412002681368A3
:105A700023F0010313600268136823F4706343EAA0
:105A80000121116001680A6842F001020A6080F891
:105A900041C080F8404000205DF8044B70475DF83D
:105AA000044B02207047002804BF0120704770B5E6
:105AB000044690F84100002520B9204684F8405063
:105AC00000F04CF8242084F841002068016821F09F
:105AD00001010160D4E9001020F0706008612068C5
