:020000040020DA
:1000000000760020D102200063572000BF4A200064
:10001000615720000D052000C19020000000000065
:100020000000000000000000000000000D022000A1
:100030008905200000000000690220007162200094
:10004000EB022000EB022000EB022000EB0220007C
:10005000EB022000EB022000EB022000EB0220006C
:10006000EB022000EB022000EB022000EB0220005C
:10007000EB022000EB022000EB022000EB0220004C
:10008000EB022000EB0220000104200035052000D7
:10009000110520001D0520002905200093052000E2
:1000A000EB022000CD632000EB022000EB022000D9
:1000B000EB022000EB022000EB022000EB0220000C
:1000C000EB022000EB022000EB022000EB022000FC
:1000D000EB0220002969200035692000EB02200096
:1000E0008B052000EB022000EB022000EB02200039
:1000F000EB022000EB022000EB022000EB022000CC
:10010000EB022000BD572000D9632000EB02200045
:10011000EB022000EB022000E5632000F1632000E9
:1001200041052000EB0220004D052000590520006C
:10013000EB022000EB022000EB022000EB0220008B
:10014000EB022000EB022000EB022000EB0220007B
:1001500065052000710520007D052000EB022000D0
:10016000EB022000EB0220007157200065572000B1
:10017000EB0220007D572000EB0220000000000071
:10018000EB022000EB022000EB022000EB0220003B
:10019000EB022000EB022000EB022000EB0220002B
:1001A000EB022000EB022000EB022000EB0220001B
:1001B000EB022000EB022000EB022000CD4A2000E1
:1001C000C14A2000EB02200000000000EB022000EA
:1001D000EB022000EB022000EB022000EB022000EB
:1001E000EB022000EB022000EB022000EB022000DB
:1001F000EB022000EB022000DFF80CD000F0EEF85C
:1002000000480047A1912000007600202D4B19687E
:100210000868B0E8F04F80F30988BFF36F8F4FF0A4
:10022000000080F311887047000000000848006853
:10023000006880F308884FF0000080F3148862B6ED
:1002400061B6BFF34F8FBFF36F8F00DF00BF00BFFA
:1002500008ED00E0DFF80C00016841F47001016076
:10026000704700BF88ED00E0EFF30980BFF36F8FA8
:10027000144B1A681EF0100F08BF20ED108A20E9F9
:10028000F04F106009B44FF0500072B680F311883F
:10029000BFF34F8FBFF36F8F62B609F067FD4FF06A
:1002A000000080F3118809BC19680868B0E8F04FB5
:1002B0001EF0100F08BFB0EC108A80F30988BFF35E
:1002C0006F8F70472C000020EFF30580704700000F
:1002D0000648804706480047FEE7FEE7FEE7FEE7E0
:1002E000FEE7FEE7FEE7FEE7FEE7FEE76D632000C0
:1002F000F90120002DE9F05F0546002092469B465B
:1003000088460646814640241BE02846414647462B
:10031000224600F053F853465A46C01A914110D372
:1003200011461846224600F03AF82D1A67EB0108EC
:100330004F4622460120002100F031F817EB00095A
:100340004E41201EA4F10104DFDC484631462A4616
:100350004346BDE8F09F40EA01039B0703D009E054
:1003600008C9121F08C0042AFAD203E011F8013BA1
:1003700000F8013B521EF9D27047D2B201E000F8FA
:10038000012B491EFBD270470022F6E710B5134639
:100390000A4604461946FFF7F0FF204610BD202A02
:1003A00004DB203A00FA02F1002070479140C2F1CC
:1003B000200320FA03F3194390407047202A04DBFE
:1003C000203A21FA02F00021704721FA02F3D040CE
:1003D000C2F120029140084319467047064C074D70
:1003E00006E0E06840F0010394E807009847103405
:1003F000AC42F6D3FFF704FF60AE200080AE2000D1
:10040000044810B500F0DEF9BDE81040024800F0E5
:10041000D9B90000DC0000202401002010B501241F
:100420000448E10301F074F9002818BF00242046B5
:1004300010BD000000000240704700000146014866
:1004400003F0E3BAC0060020044810B503F0EFFA49
:10045000042814BF0120002010BD0000C0060020A9
:1004600038B501208DF80000FFF7D8FF002804BF41
:1004700000208DF800009DF8000001281CBF02201C
:1004800038BD074803F010FC040007D104484FF4BE
:10049000006103F029F9002818BF0124204638BD67
:1004A000C006002013460A4610B500240146044841
:1004B00003F0B4FD002818BF0124204610BD000041
:1004C000C0060020034801214FF0FF32406808F0C9
:1004D0008DBF00000800002013460A4610B5002416
:1004E0000146044803F026FE002818BF01242046D8
:1004F00010BD0000C0060020034802214FF0FF326B
:10050000406808F073BF000008000020FEE700000C
:10051000014800F08EBB00002C020020014800F0D2
:1005200088BB00002C020020014800F082BB0000C4
:100530002C020020014800F07CBB00002C020020AF
:10054000014800F0A1BD00006C010020014800F04E
:100550009BBD0000CC010020014800F095BD0000CB
:10056000A4070020014800F08FBD0000C40900204E
:10057000014800F089BD000044070020014800F058
:1005800083BD0000240A002070474FF4806000F013
:1005900087BF4FF4807000F083BF7047134A4DF857
:1005A000044D92F80EC00123BCF1020F19D2947BC6
:1005B00002F10C034FF0000C02F804C0947B02EB34
:1005C00084046060907B00F803C0907B431C9373AD
:1005D0003A2463462F22303008704C708A7081F8BC
:1005E00003C018465DF8044B70470000F04F002030
:1005F0007047000070B482B04FF0000CCDF800C01E
:1006000090F83C20012A01BF022002B070BC704764
:10061000012280F83C200A680724654B0568092AF6
:100620001DD90A3AEE6802EB420204FA02F226EA07
:100630000202EA600A689A4206D102680C7AD5681A
:1006400045EA0464D4601CE004680A3A8D6802EB51
:100650004202E66805FA02F23243E26011E02E69D6
:1006600002EB420204FA02F226EA02022A6102685E
:100670000C788D68166904EB440405FA04F43443DD
:1006800014614A681F24072A15D20568521E02EB1E
:1006900082026E6B04FA02F226EA02026A630268C0
:1006A0000D790C886D1E566BA4B205EB8505AC4028
:1006B000344354632CE005680D2A14D2D21F2E6BEC
:1006C00002EB820204FA02F226EA02022A630C79A1
:1006D00002680D88E61FACB206EB8605166BAC40CF
:1006E0003443146314E00D3AEE6A02EB820204FA1A
:1006F00002F226EA0202EA6202680C790D880D3CD9
:10070000D66AADB204EB840405FA04F43443D4622F
:10071000284A0468944204BF0C68122C05D1D2F810
:10072000044344F48004C2F804430468944233D17F
:100730000C689C4218BF112C2ED1D2F8044344F40B
:100740000004C2F804430968994225D11A491B4A9A
:100750000968B1FBF2F101EB8101490000910191BF
:100760001AD0B1F1004F1DD20029D8BF002105DDFC
:1007700011F0010102D0009A521E0092019A491C08
:10078000521C9142B8BF009B06DA5B1E891C914245
:10079000A3F101030093F8DB80F83CC002B0002015
:1007A00070BC70470099491E0091FCD1F4E700002D
:1007B0001200001000200140BC00002040420F0049
:1007C0007047704770B50446006802684168C2F31C
:1007D0004002002AC1F3401118BF00292DD0216C1E
:1007E00011F0100F03D1216C41F400712164816874
:1007F00011F0405F04BFA169002917D1C16A11F44B
:10080000700F1CBF816811F4806F0FD1416821F017
:1008100020014160206C20F480702064206C10F472
:10082000805F03D1206C40F0010020642046FFF778
:10083000C7FF21686FF012000860206801684368F4
:10084000C1F38002002AC3F3C01118BF002934D0BD
:10085000216C11F0100F03D1216C41F4005121647F
:10086000816811F4401F21D1816B11F4401F1CBF1E
:10087000816811F4806F19D1416811F4806F01BF54
:10088000816811F0405FA16900290FD1416821F012
:1008900080014160206C20F480502064206C10F4B2
:1008A000807F03D1206C40F0010020642046FFF7D8
:1008B0009FFE21686FF00C000860206801684368A3
:1008C00011F0010FC3F380111EBF0029006810F062
:1008D000010F0AD0206C40F480302064204600F0E4
:1008E000DDF821686FF00100086020680168436846
:1008F000C1F34012002AC3F3806114BF002970BD08
:10090000616C6FF0200541F00201616405602046D2
:10091000FFF757FF2068056070BD000070B5040048
:100920004FF0000604BF012070BD206C002528B9DF
:10093000204600F0B5F8656484F83C50206C10F057
:10094000100F18BF012603D0304684F83C5070BD0C
:10095000206C20F4885040F0020020644C486FF076
:100960007061D0F8042322F44032C0F80423D0F898
:10097000042363681A43C0F804232068426822F401
:100980008072426020682269436843EA0222426022
:100990002068426822F0407242602068A268436882
:1009A0001A4342602068826822F4006282602068F4
:1009B000E26883681A438260A06AC842206881683E
:1009C00021F070618160206804BF816821F040518E
:1009D0000CD0A16A8268114381602068816821F08F
:1009E000405181602068E16A82681143816020681B
:1009F000816821F0020181602068A169826842EA71
:100A00004101816094F820000028206804BF4168FB
:100A100021F400610FD01F49426842F40062426035
:100A20002068426822F4604242602068636A42683B
:100A300001EB43311143416020681749C26A22F437
:100A40007002C2622068A28BC36A01EB0251194393
:100A5000C1622068816821F400718160206894F887
:100A60003010826842EA412181602068816821F467
:100A70008061816020686169826842EA81218160C9
:100A80006564206C20F0020040F0010020645BE708
:100A90000020014000E0FFFF0000F0FF7047000071
:100AA0002DE9F04F87B006460024584856490325E3
:100AB00000944FF480580194071502944FF4804934
:100AC00003944FF4807A04943268DFF844B1A2F1C1
:100AD0008043B3F5903342D04E4B9A421CBF07B0CF
:100AE000BDE8F08F0A6842F400720A60096801F4F8
:100AF00000710591016841F001010160016801F098
:100B000001010591016841F0020101600068694638
:100B100000F0020005906020CDE90005584600F085
:100B2000CBFC01206946CDE900053B48029400F06A
:100B3000C3FC3A4D4FF0007039492960C5E9010402
:100B4000C5E90347C5E907A46C622846C5E90589DC
:100B500000F088FB00284AD0FFF71FFD47E00A6835
:100B600042F480720A60096801F48071059101689D
:100B700041F004010160016801F004010591016880
:100B800041F001010160016801F001010591016876
:100B900041F0020101600068694600F00200059022
:100BA0000D20CDE900051F4800F086FC192069469C
:100BB000CDE900055846029400F07EFC022069460B
:100BC000CDE900051448029400F076FC164D174854
:100BD000C5E90004AC602846C5E90347C5E907A498
:100BE0006C62C5E9058900F03DFB0028B4D1B5630E
:100BF00000220B21AE63122001F09AFC122001F0BA
:100C000087FC07B0BDE8F08F44380240303802401E
:100C1000000002400021014000040240CC010020FD
:100C200040640240000802406C0100201064024051
:100C300070472DE9F05F0546006800244669D0F84A
:100C400004908768D0F80CB0D0F810A016F0010F0F
:100C5000D0F8188025D017F0010F07D0012181604E
:100C600017F0020F7CD0284600F0F4F917F4807FCB
:100C700009D0286817F4007F4FF48071816070D02C
:100C8000284600F0E9F917F4803F0AD0286817F4E5
:100C9000003F4FF48031816000F0B980284600F0B9
:100CA000DDF916F0080F18BF1BF0100F04D02968EB
:100CB000102044F40074C86016F0040F4FF00807C9
:100CC00018BF1BF0080F04D02868C760284600F042
:100CD000BBF916F0020F07D02868C06810F0030FA8
:100CE0001CBF284600F0B1F916F0400F18BF1AF0EB
:100CF000100F04D02968102044F48064086116F0B5
:100D0000200F18BF1AF0080F04D028680761284682
:100D100000F09CF916F0100F07D02868006910F059
:100D2000030F1CBF284600F092F916F4003F18BFCD
:100D300019F0100F05D0296810204860284600F0EF
:100D400087F916F4803F18BF19F0080F04D02868FF
:100D50004760284600F083F916F4004F78D001E090
:100D600035E044E019F0040F6FD016F4807F1CBF0B
:100D700018F0010F44F0010416F4007F1CBF18F0B6
:100D8000020F44F0020416F4806F1CBF18F0040F29
:100D900044F0040416F4006F18BF18F0700F54D01C
:100DA00008F07000402808BF44F0400448D03EDC02
:100DB000102808BF44F0080442D0202808BF44F09F
:100DC00010043DD0302808BF44F0200438E017F06C
:100DD000040F18BF4FF400647FF448AF17F0080FFA
:100DE0000ABF28464FF4805400F033F93EE717F469
:100DF000806F18BF44F400547FF445AF17F4006FC0
:100E00000ABF284644F4804400F025F93BE717F474
:100E1000802F18BF44F400447FF443AF17F4002F31
:100E20000ABF284644F4803400F017F939E7502807
:100E300008BF44F0800403D0602808BF44F48074E5
:100E40002868816921F07001816129680420486067
:100E5000002C08BFBDE8F09F686A204368622846FE
:100E6000FFF7E6FEBDE8F09F002804BF01207047B1
:100E700070B5044690F82000002804BF204600F01A
:100E800089F82068016821F00201016000F052FC3D
:100E9000054620680526406810F0020F0AD000BF02
:100EA00000F048FC401B0A2817D82068406810F062
:100EB000020FF5D12068016841F00101016000F0E6
:100EC00039FC05462068406810F0010F12D100BFC0
:100ED00000F030FC401B0A2807D9606A40F400305B
:100EE000606284F82060012070BD2068406810F0C6
:100EF000010FEDD0207E0128206801680CBF41F071
:100F0000800121F080010160607E01282068016875
:100F10000CBF41F0400121F040010160A07E01289A
:100F2000206801680CBF41F0200121F02001016020
:100F3000E07E0128206801680CBF21F0100141F01B
:100F400010010160207F0128206801680CBF41F07A
:100F5000080121F008010160607F01282068016814
:100F60000CBF41F0040121F00401016004F108000C
:100F70000FC8084342EA0301D4E9002C01430020D2
:100F8000ACF101030B43D3610121606284F82010AE
:100F900070BD00004DF804ED87B000210091019173
:100FA0000291039104910068A0F18042B2F5C84219
:100FB0001CBF07B05DF804FB2048016841F00071D8
:100FC0000160006800F0007005901D48016841F064
:100FD0000201016000680221092300F0020005906F
:100FE0004FF44070CDE9000103221648CDE90323F8
:100FF000694600F061FA00220521132001F098FAF9
:10100000132001F085FA00220521142001F090FA46
:10101000142001F07DFA00220521152001F088FA44
:10102000152001F075FA00220521162001F080FA42
:10103000162001F06DFA07B05DF804FB403802405D
:1010400030380240000402407047704770477047D4
:1010500070477047704770477047704770477047D8
:1010600090F83510022903D0802141650120704796
:10107000052180F835100068016821F00101016048
:1010800000207047406D70472DE9F84304464FF04B
:101090000009734A0821CDF800904FF41650A56D51
:1010A00094F85C3012682E68B2FBF0F801FA03F392
:1010B000334211D02068026812F0040F0CD002688D
:1010C00022F00402026094F85C0001FA00F0A860CB
:1010D000606D40F00100606594F85C00012707FA3C
:1010E00000F0304209D02168496911F0800F04D026
:1010F000A860606D40F00200606594F85C10042008
:101100008840304209D02168096811F0020F04D0EC
:10111000A860606D40F00400606594F85C101020D9
:101120008840304220D02168096811F0080F1BD098
:10113000A8602068016811F4802F09D0006810F4BD
:10114000002F02D0A16C79B10CE0216C51B90BE0F9
:10115000016811F4807F03D1016821F0080101606A
:10116000216C09B12046884794F85C102020884003
:1011700030424AD02168096811F0100F45D0A860AC
:1011800094F8350005282068016809D011F4802FF3
:101190002BD0006810F4002F24D0E16B21B332E093
:1011A00021F0160101602068416921F08001416150
:1011B000206C002804BFA06C002804D020680168BF
:1011C00021F00801016094F85C004FF03F0101FA42
:1011D00000F0A86084F8349084F83570216DD1BB9C
:1011E000BDE8F883616C71B90FE0016811F4807F8C
:1011F00007D1016821F01001016084F8349084F86F
:101200003570E16B09B120468847606D002808BF42
:10121000BDE8F883606D10F0010F17D04FF00500A6
:1012200084F835002068016821F001010160009810
:1012300000F101000090404504D82068006810F0DB
:10124000010FF4D184F8349084F83570E16C0029F2
:1012500008BFBDE8F883204601B0BDE8F043084769
:10126000BC0000202DE9F047044600F063FA002C92
:10127000054604BF0120BDE8F0870026022084F85F
:10128000346084F835002068016821F001010160B4
:101290002068006810F0010F11D000BF00F04AFA7A
:1012A000401B052806D920216165032084F83500FC
:1012B000BDE8F0872068006810F0010FEED1D4E996
:1012C000023CD4E90010D4E9047218434CEA070840
:1012D000D4E90653D4E908C740EA0809086849EA8E
:1012E0000202DFF8E8802A4342EA030200EA08002B
:1012F00042EA0C02042F42EA000003D1D4E90B2396
:101300001A4310430860D4F800C00123606ADCF877
:101310001410042821F0070140EA010238D1D4E971
:101320000A100A4318B3A56955B1B5F5005F14D08A
:1013300000291CBF0129022921D003291CD027E044
:1013400019B1012905D0022922D110F0807F1FD0C8
:1013500015E0B0F1C07F1BD111E081B1012907D0A8
:1013600002290CD0032908BFB0F1C07F07D00FE0DD
:1013700010F0807F03D10BE010F0807F08D04FF099
:101380004000606584F835304FF00100BDE8F0871B
:10139000CCF8142020680E49C2B2A2F110026FF3FB
:1013A0000900A1FB02210B4A4FEA11110329525CEB
:1013B000E26588BF001D3F21A065914081606665A0
:1013C00084F835300020BDE8F08700003F8010E051
:1013D000ABAAAAAA10AE2000F0B490F834404FF0A7
:1013E000000C012C846D02BF0220F0BC704790F805
:1013F0003570012680F834600025012F1CBF4FF0A6
:10140000020C80F8345002D0F0BC604670470226CF
:1014100080F83560456505682E6826F480262E60C4
:1014200005686B608368402B036803BF9A6002689D
:10143000D16099601CBF0168CA6090F85C103F22BF
:1014400002FA01F1A16001680A6842F016020A601E
:1014500001684A6942F080024A61016C21B1016869
:101460000A6842F008020A600068016841F0010160
:101470000160C9E770B5044600F05CF9B4F1FF3FC4
:10148000054602D004480078044400F053F9401B9C
:10149000A042FAD370BD0000B000002070470000E9
:1014A00004490A68024208BF704710B50860FFF798
:1014B000F5FF10BD143C01402DE9F84F8F4E00227E
:1014C00001274FF003094FF00F0800BF0B6807FA20
:1014D00002FC03EA0C03634540F00A814C68022CCD
:1014E00018BF122C13D14FEAD204D1F810B04FEA32
:1014F000427A00EB8404256A4FEADA6A08FA0AFEA7
:101500000BFA0AFA25EA0E054AEA0505256291F862
:1015100004B04FEA4204D0F800A00BF0030B09FA24
:1015200004F50BFA04FB2AEA050A4BEA0A0AC0F89A
:1015300000A0D1F804A0BAF1010F18BFBAF1020F50
:1015400005D0BAF1110F18BFBAF1120F19D1D0F8A6
:1015500008A0D1F80CB02AEA050A0BFA04FB4BEA02
:101560000A0AC0F808A0D0F804A091F804B02AEA4A
:101570000C0CCBF3001B0BFA02FA4AEA0C0CC0F875
:1015800004C0D0F80CC0D1F808A02CEA050C0AFA67
:1015900004F444EA0C0CC0F80CC0D1F804C01CF0F0
:1015A000805F7DD0356822F0030C4FEA827445F4E9
:1015B000804535604FEA147435680CF1804C0CF5A9
:1015C000983C05F48045009508FA04FADCF80858C0
:1015D000A0F1804BBBF5003B25EA0A0508BF4FF0A0
:1015E000000A48D0A0F1804ABAF5013A08BF4FF08E
:1015F000010A40D0A0F1804ABAF5023A08BF4FF084
:10160000020A38D0A0F1804ABAF5033A08BF4FF079
:10161000030A30D0A0F1804ABAF5043A08BF4FF06F
:10162000040A28D0A0F1804ABAF5053A08BF4FF065
:10163000050A20D0A0F1804ABAF5063A08BF4FF05B
:10164000060A18D0A0F1804ABAF5073A08BF4FF051
:10165000070A10D0A0F1804ABAF5083A08BF4FF047
:10166000080A08D0A0F1804ABAF5093A0CBF4FF039
:10167000090A4FF00A0A0AFA04FA214C4AEA050557
:10168000CCF808584D68D4F800C015F4803F2CEA17
:10169000030C18BF4CEA030C1A4DC4F800C000E05C
:1016A00026E04C68D5F800C014F4003F2CEA030C87
:1016B00018BF4CEA030CDFF850A0C5F800C04C6816
:1016C000DAF800C014F4801F2CEA030C18BF4CEAAF
:1016D000030C0E4CCAF800C04D68D4F800C015F4D5
:1016E000001F2CEA030C18BF4CEA030CC4F800C01E
:1016F000521C102AFFF4EAAEBDE8F88F44380240CD
:10170000003C0140043C0140083C01400C3C0140CD
:101710000069084018BF01207047426931EA02029F
:1017200008BF090481617047002A08BF090481616C
:10173000704700000148806870470000B00000203A
:10174000D0F8C00205F0AEBCD0F8C00205F0C8BCAD
:10175000006807F084B9006807F085B901EB8101E2
:1017600000EBC10090F85C00704701EB810100EBD9
:10177000C100C06C704710B5044690F8B80201284B
:1017800004BF022010BD012084F8B802206807F0D1
:1017900076F9002084F8B80210BD2DE9F04784B036
:1017A000044694F8B8C2DDE90D600C9FBCF1010F4E
:1017B00002BF022004B0BDE8F0874FF0010801EB42
:1017C000810C002504EBCC0C84F8B88212F0800F59
:1017D00002F07F098CF83D508CF83830ACF84000AE
:1017E0008CF839108CF83F608CF83A9014BF8CF864
:1017F0003B808CF83B508CF83C700097CDE9016041
:10180000206807F09DF984F8B85204B0BDE8F0876D
:10181000D0F8C00205F0FABC2DE9F00301EB810C11
:101820004FF0020500EBCC0C069FDDE90786002F88
:101830008CF83B208CF83F3006BF03248CF84240E4
:101840008CF842504FF0000433B1012B37D0022BFB
:1018500010D0032B17D020E0012F08BF002A1CD185
:10186000002E04BF01228CF8512014D09CF8512086
:101870002AB310E01AB19CF8502002B30BE09CF898
:10188000512042B91BE01AB19CF85020BAB102E0D5
:101890009CF851209AB18CF84250CCE911868CF812
:1018A0005C40CCF84C408CF839100CF138018CF8C5
:1018B0005D40027C0068BDE8F00307F0C9B98CF810
:1018C0004240EAE72DE9F04F0446006883B08046C5
:1018D00007F0D1F801281CBF03B0BDE8F08F2068E5
:1018E00007F044FB002804BF03B0BDE8F08F206878
:1018F00007F03CFB10F4001F03D020684FF40011E8
:101900004161206807F032FB10F4801F03D020688B
:101910004FF480114161206807F028FB10F0806FC0
:1019200003D020684FF080614161206807F01EFB02
:1019300010F0020F4FF002051CBF206845612068BF
:1019400007F014FB10F0005F10D0D8F8400420F02E
:101950002E00C8F840042046FFF7F6FE206801215B
:1019600007F0E8FA20684FF000514161206807F065
:10197000FDFA10F0807F5CD02668D6F84004019014
:10198000D6F8400420F02E000090019810F0020FCD
:101990000ED0019810F0010F06D0B06920F0005170
:1019A000B1612046FFF7CCFE009840F002000090A5
:1019B000019810F0080F32D0009840F00800009015
:1019C000019810F0040F1CD0A06902280DD0E06827
:1019D000032804BF4EF66020C6F80404204600F039
:1019E0009BFB2046FFF7ACFE19E0019800F4C020F5
:1019F000B0F5802F206814BF0121022107F09AFA68
:101A0000ECE7204600F084FBD6F8400420F02E00DE
:101A1000C6F840042068816941F000518161019855
:101A200010F0200F00981CBF40F020000090C6F876
:101A30004004206807F09AFA10F0080F4FF00806EB
:101A400004D0204600F06FFB20684661206807F054
:101A50008DFA10F0007F00F07782206807F0F4F82C
:101A60008146A0680027002884BF01264FF0040BA0
:101A700040F2668207F00F0006FA00F010EA090F44
:101A800000F0588208EB4710D0F8000507F0FF0A75
:101A900010F4004F206800EB4A15D5F8080500F057
:101AA000040000F0308140B1C5F808B5D5F80C0548
:101AB00040F00200C5F80C0541E0D5F8080510F02B
:101AC000200F1CBF2020C5F8080538D1D5F808051F
:101AD00010F0080F17D0D5F80C250AEB8A03052063
:101AE00004EBC30C102142F00203C5F80C350822A8
:101AF0008CF85D00C5F80815C5F808255146206822
:101B000006F0BDFF1BE0D5F8080510F4806F16D075
:101B1000D5F80C0540F00200C5F80C0520685146C8
:101B200006F0ADFF1020C5F808050AEB8A0308216E
:101B3000820104EBC30383F85D10C5F80825D5F8CE
:101B4000080510F4007F0CD0D5F80C0540F0020019
:101B5000C5F80C052068514606F091FF4FF400705F
:101B6000CEE0D5F8080510F0010F46D0206950B13D
:101B7000D5F810150AEB8A0204EBC200C1F312017A
:101B8000826C511AC1640AEB8A01324604EBC1002F
:101B90000090002180F85D608165C5F8086590F8C7
:101BA0003F00002818BF022802D003280ED01AE0F8
:101BB000D5F80C0540F00200C5F80C052068514628
:101BC00006F05DFF1020C5F808050CE0D5F800050B
:101BD00040F00050C5F800050098514680F85C20A0
:101BE0002046FFF715FE0098009990F8500080F00D
:101BF000010081F8500000F09DB9D5F8080510F0FB
:101C0000020F2FD0D5F80C050AEB8A0220F0020152
:101C1000C5F80C1504EBC20090F85D10012908BF4F
:101C200080F85C6000F07C81052900F0A78106291E
:101C300018BF082904D0032900F0AC8100F070B966
:101C4000816D491C8165032900F29F8100F0A2B9D2
:101C5000D5F8001521F0804141F00041C5F800158C
:101C600000F05EB9D5F8080510F0800F15D0D5F852
:101C70000C250AEB8A03062104EBC30042F00202A2
:101C8000C5F80C25826D521C826580F85D105146A6
:101C9000206806F0F4FE802032E0D5F8080510F048
:101CA000100F00F047810AEB8A0104EBC10090F8A5
:101CB0003F10032904D0002918BF02290ED01EE0CE
:101CC0004FF000018165D5F80C0540F00200C5F821
:101CD0000C052068514606F0D2FE10E00021816517
:101CE000216961B9032180F85D10D5F80C0540F039
:101CF0000200C5F80C052068514606F0C0FE102011
:101D0000C5F8080516E140B1C5F808B5D5F80C05C9
:101D100040F00200C5F80C050CE1D5F8080510F0FC
:101D2000200F1CD00AEB8A024FF02001C5F80815DD
:101D300004EBC20090F83D1001294CD1002180F83D
:101D40003D10022280F85C20D5F80C0540F002001E
:101D5000C5F80C052068514606F091FEEAE0D5F87A
:101D6000080510F0400F15D00AEB8A0104EBC10002
:101D7000002180F85DB080F83D608165D5F80C05E4
:101D800040F00200C5F80C052068514606F077FEC9
:101D90004020B5E7D5F8080510F4007F7FF4D4AEF5
:101DA000D5F8080510F0010F16D00AEB8A020021C1
:101DB00004EBC20000908165D5F80C0540F00200EC
:101DC000C5F80C052068514606F059FEC5F80865AF
:101DD000009880F85D60ADE0D5F8080510F0080FB8
:101DE00014D00820C5F80805D5F80C0540F002000D
:101DF000C5F80C052068514606F041FE0AEB8A0240
:101E0000052004EBC20181F85D0093E0D5F80805D8
:101E100010F0100F1DD00AEB8A02002104EBC20063
:101E2000032290F83D308165002B80F85D2002BFD1
:101E300090F83C10002980F83D60D5F80C0540F082
:101E40000200C5F80C052068514606F018FE102067
:101E500056E7D5F8080510F0800F14D0D5F80C051A
:101E600040F00200C5F80C052068514606F007FE58
:101E70000AEB8A03062104EBC300802280F85D1080
:101E8000C5F8082556E0D5F8080510F4806F17D07E
:101E9000D5F80C0540F00200C5F80C052068514645
:101EA00006F0EDFD1021C5F808150AEB8A0388013C
:101EB000082204EBC303C5F8080583F85D2039E068
:101EC000D5F8080510F0020F34D0D5F80C050AEB50
:101ED0008A0220F00201C5F80C1504EBC20090F84C
:101EE0005D1001290BD0032914BF0429022115D04C
:101EF000052943D0062918BF082941D010E090F8E1
:101F00003F1080F85C60022918BF032908D190F8BF
:101F1000511081F0010180F8511001E080F85C104F
:101F20004FF00201C5F80815514690F85C20204694
:101F3000FFF76EFCA0687F1CB8423FF69BAD00BF68
:101F400021684FF000704861206807F00FF810F02A
:101F5000100F04BF03B0BDE8F08F2068816921F045
:101F60001001816127683846396A01F00F08C1F312
:101F70004342022AC1F30A1510D034E00521CDE70F
:101F8000816D491C8165032904D90021816580F890
:101F90005CB05DE6022180F85C1059E61DB308EBE9
:101FA000880204EBC206716CE9B12A4606F0E2FF32
:101FB000716C07EB4810104A29447164F16C294494
:101FC000F164D0F8101511420DD0D0F8001521F0B1
:101FD000804141F00041C0F8001596F8500080F0B3
:101FE000010086F850002068816941F0100181618C
:101FF00003B0BDE8F08F00000000F81F002804BF08
:10200000012070472DE9F041044690F8B9028AB0EA
:1020100028B9002084F8B802204600F02DF80320EB
:1020200084F8B902206806F0F3FC04F11000251DC5
:1020300090E8CF118DE8CF11D4E90C01CDE908016A
:1020400094E80F0006F07CFC2068012106F0CAFF2E
:102050000C3595E8CF118DE8CF11D5E90801CDE910
:10206000080194E80F0006F0D7FE012084F8B902B9
:102070000AB00020BDE8F08110B586B000210091C3
:1020800001910291039104910068A0F18042B2F5A0
:1020900080221CBF06B010BD1B4C206840F002001F
:1020A0002060206802210C2300F0020005904FF40C
:1020B0004040CDE9000103221448CDE903236946DD
:1020C000FFF7FAF9206840F00050206020680022F5
:1020D000062100F0005005904A2000F029FA4A201D
:1020E00000F016FA002206214B2000F021FA4B20C6
:1020F00000F00EFA002206214D2000F019FA4D20C2
:1021000000F006FA06B010BD30380240000402406C
:10211000D0F8C00205F0A3B8D0F8C00205F0A3B80B
:10212000006806F047BFD0F8C00205F031B810B51E
:10213000044690F8B802012804BF022010BD012017
:1021400084F8B802206806F084FC2068012106F0BB
:1021500065FC002084F8B80210BD10B5044690F864
:10216000B802012804BF022010BD012084F8B80283
:10217000206806F04FFF002084F8B80210BD4DF82B
:10218000044D90F84120202A27D190F84020012AC0
:1021900023D0012380F8403024224FF0000C20236C
:1021A00080F841200268146824F001041460026879
:1021B000146824F480541460026814682143116088
:1021C00001680A6842F001020A6080F8413080F834
:1021D00040C000205DF8044B70475DF8044B0220BE
:1021E00070474DF8044D90F84120202A25D190F8F1
:1021F0004020012A21D0012380F8403024224FF0D2
:10220000200C002480F841200268136823F00103A9
:1022100013600268136823F4706343EA01211160BC
:1022200001680A6842F001020A6080F841C080F843
:10223000404000205DF8044B70475DF8044B0220DD
:1022400070477047704730B403689A69196812F490
:10225000807F18BF11F0800F07D0446C4FF4807C52
:1022600044F001044464C3F81CC012F4806F18BF2A
:1022700011F0800F0BD0D0F844C04FF480634CF0C5
:10228000080CC0F844C0D0F800C0CCF81C3012F4E0
:10229000007F18BF11F0800F07D0426C4FF400711F
:1022A00042F0020242640268D161416C11F00B0FEE
:1022B00004BF30BC704730BC02F054BC0268436BB2
:1022C00091691268002B08BF7047184770470028B3
:1022D00004BF0120704770B5044690F84100002506
:1022E00020B9204684F8405000F04CF8242084F8AF
:1022F00041002068016821F001010160D4E900106B
:1023000020F0706008612068816821F400418160DC
:10231000E06821680128A0680CBF40F4004040F448
:1023200004408860E068022802D121688002486089
:1023300020212068426842F4004242F0007242606C
:102340002068C26822F40042C260D4F800C0D4E918
:102350000402A369104340EA0320CCF80C00236870
:10236000D4E90702104318602068026842F00102B5
:102370000260656484F84110256384F842500020AF
:1023800070BD70474DF804ED87B0002200920192B5
:102390000292039204920068A0F18041B1F5C0411D
:1023A0001CBF07B05DF804FB1848016841F0080144
:1023B00001600068122101224FF0040C00F00800B7
:1023C000059003234FF440508DE80F1010486946E4
:1023D000FFF772F80F48016841F0807101600068F2
:1023E00000220A2100F0807005905F2000F0A0F824
:1023F0005F2000F08DF800220A21602000F098F89C
:10240000602000F085F807B05DF804FB303802402A
:10241000000C024040380240704770470248816813
:102420000278114481607047B0000020094810B55F
:10243000016841F400710160016841F4807101603C
:10244000032000F0A5F8002000F006F800F042F8A4
:10245000002010BD003C02404DF804ED0022014672
:10246000192087B000F064F8192000F051F81548E1
:10247000016841F001010160006805A900F0010058
:102480000690684600F0A8FC00F0DAFC0E4A400016
:102490000021DFF838C0B0FBF2F20D4840F2E7331C
:1024A000C0F800C0C0E90331521EC0E9012101F0AB
:1024B000FAFE00280ABF0648012001F05BFF07B0C2
:1024C0005DF804FB4438024040420F000000014028
:1024D000201200200C4882B0016841F08051016058
:1024E000006800F0805000900848016841F4804185
:1024F0000160006800220F2100F480400090901ECF
:1025000002B000F015B800004038024044380240E4
:102510000028B8BF7047410900F01F008A00012160
:1025200002F1E02201FA00F0C2F800017047000059
:10253000164B30B41B68C3F30223C3F1070CBCF184
:10254000040F88BF4FF0040C1C1D072C34BF002360
:10255000DB1E012404FA0CFC04FA03F5ACF10104BF
:102560002140A5F1010C99400CEA02021143002818
:102570004FEA0111B8BF00F00F0000F1E020ACBF3E
:1025800080F8001480F8141D30BC70470CED00E09A
:10259000074900F007004FF6FF030A681A4042EAB5
:1025A000002040F0FD7040F080600860704700003F
:1025B0000CED00E01C4838B5016841F08051016025
:1025C00000681A4D00F080500090286840F4803078
:1025D0002860FFF7AFF80446686810F4803F09D11F
:1025E000FFF7A8F8001BB0F57A7F15D8686810F4DB
:1025F000803FF5D0286840F400302860FFF79AF853
:102600000446686810F4003F0CD100BFFFF792F851
:10261000001BB0F57A7F01D9032038BD686810F43B
:10262000003FF3D0002038BD403802400070004029
:102630002DE9F84F04460078DFF824A44FF0000796
:1026400010F0010F3E460FD0DAF8000020F4000031
:10265000CAF80000DAF80000616B0843CAF800000D
:10266000606B002808BF0127FE4D206810F4002F82
:102670000ED0E06B296821F4401108432860E06B1C
:10268000B0F5801F08BF012702D0002808BF01262F
:10269000206810F4801F0ED0206C296821F44001BE
:1026A00008432860206CB0F5800F08BF012702D0D6
:1026B000002808BF0126206810F0807F18BF01277E
:1026C00010F0200F74D0E848016841F0805101609B
:1026D0000068DFF8989300F080500090D9F800006F
:1026E00040F48070C9F80000FFF724F88046D9F85C
:1026F000000010F4807F0BD1FFF71CF8A0EB08005E
:10270000642800F27882D9F8000010F4807FF3D0BA
:10271000DFF85C93D9F8000010F4407032D0218EBD
:1027200001F4407181422DD0D9F80000D9F8001091
:1027300020F4407041F48031C9F80010D9F800103D
:1027400021F48031C9F80010C9F80000D9F8000060
:1027500010F0010F16D0FEF7EDFF8046D9F800000B
:1027600010F0020F08BF41F2883B0BD1FEF7E2FFE9
:10277000A0EB0800584500F23E82D9F8000010F0A6
:10278000020FF3D0206B4FF4407181431CBFDAF885
:10279000000020F4F81000F0ED8000BFCAF800003F
:1027A000208ED9F80010C0F30B000843C9F80000D0
:1027B000207810F0100F07D0286820F08070286073
:1027C0002868A16B084328602188AA4811F4804F2B
:1027D00005D0616E026822F4403211430160218805
:1027E00011F4004F05D0A16E026822F4402211437B
:1027F0000160216811F4803F05D0E16E026822F487
:10280000401211430160216811F4003F05D0216F8F
:10281000026822F4400211430160217811F0400F58
:1028200005D0616C026822F0030211430160217837
:1028300011F0800F05D0A16C026822F00C02114348
:102840000160218811F4807F05D0E16C026822F0DC
:10285000300211430160218811F4007F05D0216D01
:10286000026822F0C00211430160218811F4806FD8
:1028700005D0616D026822F4407211430160218825
:1028800011F4006F05D0A16D026822F4406211437B
:102890000160218811F4805F05D0E16D026822F4A7
:1028A000405211430160218811F4005F05D0216E70
:1028B000026822F4404211430160216811F4800F44
:1028C00005D0A16F026822F0806211430160216887
:1028D00011F4001F0AD0E16F026822F00062114378
:1028E0000160E16FB1F1006F08BF0126216811F0AE
:1028F000080F18BF012611F4802F05D0616F026800
:1029000022F0407211430160216811F4000F06D0DB
:10291000D4F88010026822F08052114301602168CF
:1029200011F0806F06D0D4F88410026822F00052B3
:1029300011430160206810F0006F06D0D4F88800C1
:10294000296821F0007108432860206810F0805F3A
:1029500006D0D4F88C00296821F0806108432860F3
:10296000DFF81481012F1CBF2068B0F1007F0CD06C
:10297000B4E000BF20F44071DAF8000021F07041AB
:1029800020F4F81040EA010008E7D8F8000020F031
:102990008060C8F80000FEF7CDFE0746D8F80000BA
:1029A00010F0006F0AD000BFFEF7C4FEC01B642801
:1029B00055D8D8F8000010F0006FF5D121782F48D5
:1029C00011F0010F12D0616B81B9227A636801683E
:1029D000D0F800C09B01C1F3014143EA0143CCF3AD
:1029E000036143EA016141EA02710160216811F467
:1029F000002F03D0E26BB2F5801F06D011F4801FC8
:102A00001CD0216CB1F5800F18D1D4F804C0016836
:102A1000227B03684FEA8C1CC1F301414CEA014C54
:102A2000C3F302714CEA026242EA01710160296853
:102A3000626A21F01F01521E11432960216811F0C2
:102A4000807F22D0218A636802684FEA831C036872
:102A50004CEA014CC2F303614CEA016210E0B6E0BB
:102A6000083802408C380240403802400070004074
:102A700070380240903802400038024084380240EA
:102A8000C3F3027142EA01710160216811F0007F15
:102A90000CD06368228A94F80CC0217A9B0143EA27
:102AA000024242EA0C6242EA01710160D8F8000079
:102AB00040F08060C8F80000FEF73CFE0746D8F8FA
:102AC000000010F0006F09D1FEF734FEC01B64282F
:102AD0007DD8D8F8000010F0006FF5D0EEB3D8F82C
:102AE000000020F08050C8F80000FEF723FE0646E4
:102AF000D8F8000010F0005F0AD000BFFEF71AFE01
:102B0000801B642877D8D8F8000010F0005FF5D15A
:102B100021683E4811F4002F01D0E26B22B111F47C
:102B2000801F1FD0216CE9B9D4F814C00168227E3F
:102B300003684FEA8C1CC1F301414CEA014CC3F31A
:102B400002714CEA026242EA0171016029686FF089
:102B5000FF03A26A21F4F85100E054E003EB0222E3
:102B600011432960216811F4001F14D0E16FB1F105
:102B7000006F10D1238C626901684FEA821C0268E1
:102B8000C1F303614CEA034343EA0163C2F30271F8
:102B900043EA01710160217811F0080F16D06169D4
:102BA000026806684FEA811C237FC2F30362C6F302
:102BB00001414CEA014141EA026141EA03710160CD
:102BC0002868E16A20F440300843286000E012E001
:102BD000D8F8000040F08050C8F80000FEF7AAFDC9
:102BE0000446D8F8000010F0005F0CD1FEF7A2FDFB
:102BF000001B642802D90320BDE8F88FD8F8000034
:102C000010F0005FF2D00020BDE8F88F8838024055
:102C1000002804BF012070472DE9F047DFF89C81B0
:102C200004460E46D8F8000000F00F00B0420CD267
:102C3000D8F8000020F00F003043C8F80000D8F8A2
:102C4000000000F00F00B04265D120685C4D10F02C
:102C5000020F14D010F0040F03D0286840F4E050A5
:102C60002860207810F0080F03D0286840F46040F6
:102C70002860A068296821F0F001084328602078C6
:102C800010F0010F34D060684E49012820D0096847
:102C9000022822D011F0020F3DD0296821F0030153
:102CA00008432860FEF746FD29680746606801F082
:102CB0000C01B1EB800F18BF41F2883918D000BF6A
:102CC000FEF738FDC01B48450BD90320BDE8F0874F
:102CD000096811F4003FE0D11DE011F0007FDCD164
:102CE00019E06168286800F00C00B0EB810FE7D1B3
:102CF000D8F8000000F00F00B0420FD9D8F800005B
:102D000020F00F003043C8F80000D8F8000000F0B1
:102D10000F00B04202D00120BDE8F087207810F00B
:102D2000040F05D0E068296821F4E05108432860C9
:102D3000207810F0080F06D02069296821F460413E
:102D400041EAC00028602048296811F00C0226D012
:102D50004110042A08BF084621D0082A1FD11B4C65
:102D60002268236802F03F0213F4800F08D0206825
:102D70000023C0F38810A0FB0101FDF7BBFA07E0B8
:102D800021680023C1F38811A1FB0001FDF7B2FA0D
:102D90002168C1F30141491C4900B0FBF1F02968E9
:102DA0000B4AC1F30311515CC8400A490860002076
:102DB000FFF752FB0020BDE8F0870000003C024016
:102DC00008380240003802400024F4000438024071
:102DD00018AE2000BC0000200F4A0F234DF8044D10
:102DE00003604FF4E05C0D4B146804F0030444608E
:102DF000146804F0F0048460146804F4E054C460BF
:102E000012680CEAD2020261186800F00F00086034
:102E10005DF8044B7047000008380240003C024057
:102E20000449054809680068044AC1F38221515CDD
:102E3000C840704708380240BC00002028AE20007F
:102E40000449054809680068044AC1F34231515CED
:102E5000C840704708380240BC00002028AE20005F
:102E600018491948096811F00C0208BF7047174942
:102E7000042A04BF08467047082A18BF704710B5D7
:102E8000134C2268236802F03F0213F4800F08D02D
:102E900020680023C0F38810A0FB0101FDF72AFA87
:102EA00007E021680023C1F38811A1FB0001FDF7B1
:102EB00021FA2168C1F30141491C4900B0FBF1F03E
:102EC00010BD0000083802400024F40000127A000F
:102ED000043802402DE9F84F04004FF0000B00F0D9
:102EE000C8812078DFF89093E44D10F0010F5DD099
:102EF000D9F8000000F00C0004280BD0D9F800002D
:102F000000F00C0008280ED105F10400006810F450
:102F1000800F08D0286810F4003F47D06068002870
:102F200000F0A78142E06068B0F5803F04BF2868E8
:102F300040F480300AD010B1B0F5A02F11D028682D
:102F400020F480302860286820F4802028606068A1
:102F5000D0B1FEF7EFFB0646286810F4003F08D01A
:102F600024E0286840F480202860286840F48030FD
:102F7000ECE7FEF7DFFB801B642800F23281286853
:102F800010F4003FF5D011E0FEF7D4FB06462868A8
:102F900010F4003F0AD000BFFEF7CCFB801B642872
:102FA00000F21F81286810F4003FF5D1207810F05E
:102FB000020F4CD0D9F8000010F00C0F19D0D9F83E
:102FC000000000F00C00082804D1AD48006810F49F
:102FD000800F0ED0E0680028286824D040F001005F
:102FE0002860FEF7A7FB0646286810F0020F09D0FC
:102FF00011E0286810F0020F1CBFE06801280AD019
:1030000000F037B9FEF796FB801B02287ED82868AF
:1030100010F0020FF6D02069296821F0F80141EA8A
:10302000C000286013E020F001002860FEF782FB5A
:103030000646286810F0020F09D000BFFEF77AFBA1
:10304000801B022862D8286810F0020FF6D1207881
:1030500010F0080F2BD08B4F60690028386813D010
:1030600040F001003860FEF765FB0646386810F056
:10307000020F1CD1FEF75EFB801B022846D8386881
:1030800010F0020FF6D012E020F001003860FEF7D9
:1030900051FB0646386810F0020F08D0FEF74AFBD5
:1030A000801B022832D8386810F0020FF6D1207841
:1030B00010F0040F7AD0DFF8D081D8F8000010F0BB
:1030C000805F0CD1D8F8000040F08050C8F80000B4
:1030D000D8F800004FF0010B00F0805000906B4FCB
:1030E000386810F4807F16D1386840F480703860FA
:1030F000FEF720FB0646386810F4807F0BD100BF36
:10310000FEF718FB801B64286BD800E069E0386884
:1031100010F4807FF4D0A0685D4E012804BF3068B1
:1031200040F0010009D008B1052813D0306820F024
:1031300001003060306820F004003060A06841F287
:10314000883AC8B1FEF7F6FA0746306810F0020F69
:1031500008D022E0306840F004003060306840F071
:103160000100EAE7FEF7E6FAC01B504539D830689F
:1031700010F0020FF6D010E0FEF7DCFA07463068D8
:1031800010F0020F09D000BFFEF7D4FAC01B504563
:1031900027D8306810F0020FF6D1BBF1000F05D030
:1031A000D8F8000020F08050C8F80000A069E8B30B
:1031B000D9F8001001F00C0108295AD0022828681B
:1031C00020F0807028600FD0FEF7B4FA044628681B
:1031D00010F0007F4AD000BFFEF7ACFA001B0228B7
:1031E00040D90320BDE8F88FFEF7A4FA0646286808
:1031F00010F0007F09D000BFFEF79CFA801B022868
:10320000EFD8286810F0007FF6D1D4E909C3D4E9DB
:103210000701204A5E0894F82C30084394F83040A7
:1032200002EB064242EA8C11014300E01EE0144822
:1032300041EA036141EA04710160286840F080704E
:103240002860FEF777FA0446286810F0007F0DD159
:10325000FEF770FA001B0228C3D8286810F0007F20
:10326000F6D003E0286810F0007FB5D10020BDE85B
:10327000F88F0120BDE8F88F08380240003802407E
:103280000438024074380240403802400070004068
:10329000703802400000FFFF4DF8044D0068002A1E
:1032A000406820F0C00C2CF07F4C0CF03F004FEA3F
:1032B0001C43CB70CCF304224A708870CCF3423CA0
:1032C00081F800C018D11C0903F00F0C04EB840333
:1032D0000CEB4303CB704FEA121C02F00F030CEB14
:1032E0008C0203EB42024A70030900F00F0203EB69
:1032F000830002EB400088705DF8044B00207047AB
:103300004DF8044D0468002A1C4B4FF0400CA26A93
:103310004A6002681269C2F30E028A60006800689F
:1033200000EA0303C3F305420A700CEA134CC3F32B
:103330000620487003F07F038B7081F80CC018D111
:10334000140902F00F0C04EB84020CEB42020A7029
:103350004FEA101C00F00F020CEB8C0002EB400057
:103360004870180903F00F0200EB800002EB4000E8
:1033700088705DF8044B0020704700007F7F7F005D
:10338000002804BF0120704770B5417F044600202B
:1033900019B92077204600F059F802216177CA2038
:1033A00022685321506220684162FF262068C1686C
:1033B00011F0400F1AD14FF0FF31C160FEF7BAF99A
:1033C00005462068C06810F0400F0FD1FEF7B2F933
:1033D000401BB0F57A7F206804D9042146626177EA
:1033E000012070BDC06810F0400FEFD020680121AF
:1033F000826822F0400222F4E0028260D4E90002F6
:10340000D4E9043C856843EA0C032A431A438260EA
:103410002268E068106120682289036943EA024259
:1034200002612068C26822F08002C2602068C26C1B
:1034300022F00802C2642068A269C36C1A43C26405
:10344000206846626177002070BD00000068A0F12E
:103450008041B1F5205118BF70470348016841F41D
:103460000041016070470000703802402DE9F047CC
:103470000446007F0D46012804BF0220BDE8F08706
:103480004FF00109022084F81C9060776878D2B16F
:10349000EA7800022B78A97841EA024140EA4330F9
:1034A00041EA00072268CA2153205162216848621C
:1034B000002620684FF0FF084FF0040AC16811F0A1
:1034C000400F2ED117E010F0100F03D000F0EF00E6
:1034D0000A306870E87802F057F90604687802F05C
:1034E00053F946EA0026A87802F04EF929783043CD
:1034F00040EA4137D6E74FF0FF31C160FEF71AF9D5
:1035000005462068C06810F0400F0AD1FEF712F996
:10351000401BB0F57A7F25D82068C06810F0400FB6
:10352000F4D0206827F0C00141602068C16821F014
:103530008001C1602068816811F0200F20D1C1682E
:1035400021F0A001C160FEF7F5F805462068C068CB
:1035500010F0200F14D100BFFEF7ECF8401BB0F5BF
:103560007A7F08D92068C0F8248084F81DA0012043
:103570002677BDE8F0872068C06810F0200FEBD0F8
:103580002068C0F8248084F81D9000202677BDE8CC
:10359000F08700002DE9F05F0446007F0D4601280A
:1035A00004BF0220BDE8F09F4FF0010A022084F81A
:1035B0001CA060774FF000062068806800F0400093
:1035C00072B1002808BF2E7368782A782B7BA978FF
:1035D000000241EA024140EA034041EA000812E0E9
:1035E000002808BF2E73287802F0CEF80704687808
:1035F00002F0CAF847EA0027A87802F0C5F8297B4C
:10360000384340EA01482268CA21532051622168A8
:1036100048624FF0FF0920684FF0040BC16811F0B9
:10362000400F16D14FF0FF31C160FEF783F8074617
:103630002068C06810F0400F0BD100BFFEF77AF889
:10364000C01BB0F57A7F31D82068C06810F0400FF9
:10365000F4D02168214808EA0000086020688168E9
:1036600021F4802181602068D5E904128368114328
:10367000194381602068C16821F08001C160206821
:10368000816811F0200F1FD1C16821F0A001C16035
:10369000FEF750F805462068C06810F0200F13D1DF
:1036A000FEF748F8401BB0F57A7F08D92068C0F8CB
:1036B000249084F81DB001202677BDE8F09F206893
:1036C000C06810F0200FEBD02068C0F8249084F878
:1036D0001DA000202677BDE8F09F00007F7F7F00BF
:1036E00010B5FCF7A9FE10BD2DE9F04104460D46CA
:1036F000416C032084B084F8340003295ED0B5F512
:10370000805F04BFA06B40F0805033D0B5F5006FF0
:103710004FF000064FF400684FF0806706D0002D90
:103720001CBFA06B40F0006026D023E00096002173
:103730000196206802F0F6FA10F0007F01D04046B2
:1037400039E06946204602F0B7FBA0BB019810F4AF
:10375000802F0DD0B4F850102068090402F034F81E
:1037600048BB2068022102F077F820BB304622E0F7
:10377000384620E0A06325E00096002101962068ED
:1037800002F0D0FA10F0007FD9D16946204602F04D
:1037900093FB80B9019810F4803FE9D0B4F8501041
:1037A0002068090402F010F828B92068002102F00E
:1037B00053F80028DAD0A16B0843DBE7A06B40F098
:1037C0008050A063A06B012648B1216840F2FF50F1
:1037D000886384F8346004B00120BDE8F081D4E946
:1037E000050CE368D4E90112CDF808C0CDE900501A
:1037F000206802F09EFA84F8346004B00020BDE82E
:10380000F0817047F0B4426E120E93090B70C2F350
:10381000830C02F0030281F801C08A70426E120C20
:10382000CA70B0F86420120A0A7190F864204A71D4
:103830004FF6FF73826E120E03EA0212CA80CB8823
:10384000826EC2F307424FEA121C02F00F0243EAF3
:103850000C03CB800A724FF0000CB0F86820C2F362
:103860000722D3094B72C2F38014C2F34015C2F38E
:1038700000168C72CD720E7381F80DC00123456C59
:103880004FF4007475B1012D45D0026840F2FF512C
:103890009163816B41F08051816380F83430012065
:1038A000F0BC70479207120D0A610D6990F868200C
:1038B00045EA82020A610D69C26E120E9709C2F3CF
:1038C000C2063D430D6102F007020E754A75C26ED5
:1038D000C2F30742960755098D75760FC2F382022F
:1038E000CA750E760D7EB0F86C20C2F3072245EA49
:1038F000D2150D760D696D1C45650E7EB61CB54062
:1039000045650E7A03FA06F68665770A05FB07F524
:10391000C0E917541CE090F868209206920A0A61E8
:103920000D69C26E120E45EA02220A610D69C26E6D
:10393000C2F307422A430A610A69B0F86C60551C59
:103940004FEA85254565C6F30722C0E9164504669A
:10395000C2F380144FEA82624C764FEA52628A7652
:1039600090F86C208C7E4FEAD21502F07F0244EA78
:1039700005048C76CA76026F4FEA12624FEAD214BF
:103980000C77C2F34115C2F382064FEA82724D777B
:103990008E774FEA1272CA77CC7F026FC2F307426A
:1039A00044EA9214CC77C2F3401502F0010281F888
:1039B000205081F821C081F82220B0F87020C2F395
:1039C00007224FEAD21C81F823C0C2F38014C2F34D
:1039D0004015C2F30016C2F3810702F0030281F81A
:1039E000244081F8255081F8266081F8277081F8FD
:1039F000282090F870004FEA500081F8290081F8E3
:103A00002A304FF00000F0BC7047426C0A60826CB4
:103A10004A60C26C8A60026DCA60426D0A61826D42
:103A20004A61C26D8A61006EC8610020704770B53E
:103A3000B0F85010002504460068090402F00EF8A2
:103A400018B1A16B0843A06304E02068002102F0D4
:103A500069F90546C5F3432070BD000070B5044602
:103A60000068012540F2FF56416B11F4807F54D06D
:103A7000290281632068C16B21F49D71C163206BB1
:103A800010F0080F206B23D010F0020F04BF206B42
:103A900010F0200F09D0206802F044F828B1A16B83
:103AA0000843A0632046FFF7ACFE2068866384F8D5
:103AB0003450206B10F0010F04BF206B10F0020F88
:103AC000204602D000F02EFB70BD00F02FFB70BD31
:103AD00010F0800F08BF70BD206B10F0200F09D0D0
:103AE000206802F01FF828B1A16B0843A0632046AC
:103AF000FFF787FE206B10F0010F06BF206B10F060
:103B0000020F70BD2068C16A21F00801C16284F80B
:103B10003450204600F00AFB70BD416B11F4804F19
:103B200010D04FF480418163266A0025206806EB9F
:103B3000850102F01AF96D1C082DF7D3206A203098
:103B4000206270BD416B11F4004F10D04FF4004162
:103B50008163A66A0025206802F004F946F8250072
:103B60006D1C082DF7D3A06A2030A06270BD416B98
:103B700011F03A0F08BF70BD416B11F0020F03D076
:103B8000A16B41F00201A163416B11F0080F03D05A
:103B9000A16B41F00801A163416B11F0200F03D02C
:103BA000A16B41F02001A163416B11F0100F03D014
:103BB000A16B41F01001A16386632068C16B21F401
:103BC0009D71C163206B10F0800F5DD0206C0026CA
:103BD00058B333490165206CFDF742FA002808BF4D
:103BE00070BD206C846B206C002818BF2664E06BCD
:103BF000002818BF70BD2046FFF719FFA6630628EE
:103C000084F834501CBF052870BD206801F08AFF7D
:103C1000A16B0843A063A06B18B12046FFF760FDBD
:103C200070BD2046FFF7EDFD70BDE06B28B31D4968
:103C30000165E06BFDF714FA002808BF70BDE06B6A
:103C4000846BE06B002818BFE663206C002818BF67
:103C500070BD2046FFF7EBFEA663062884F83450BB
:103C60001CBF052870BD206801F05CFFA16B0843F4
:103C7000A063A06B0028D4D0CFE7A66384F83450AB
:103C80002046FFF72DFD70BD206B10F0080F08BF18
:103C900070BD84F834502046FFF7B3FD70BD0000BE
:103CA0006D5E2000135E2000002804BF01207047D5
:103CB00070B5044690F83400002518B920462577E1
:103CC00000F0F6F8032084F83400204600F007F8EE
:103CD0000120A563256384F83400002070BD2DE920
:103CE000F0438FB004467620002500952B46CDE9A1
:103CF000015020682A46294602F01BF820684168D6
:103D000021F480714160206802F028F82068416841
:103D100041F4807141600220FDF7ACFB0095206802
:103D200001F0A8FD00284FF001067ED1206801F0C7
:103D3000C3FD00284FF6FF774FF080781ABF4FF091
:103D40008059A564A66418D00098B84200F101001B
:103D5000009018D02068002101F036FD20B92068BD
:103D6000002101F03FFD08B1484689E020680021AC
:103D700001F0D8FFC00FE7D01FE00098B84200F173
:103D80000100009001D140467AE02068002101F056
:103D90001BFD002874D120684FF0804101F022FD06
:103DA00000286DD12068002101F0BCFFC10FE4D0D4
:103DB00010F0804F18BF666400D16564ADF83860BC
:103DC000206801F0ABFF002808BF4FF0806057D09B
:103DD000606C032842D0206801F0CCFD00284FD150
:103DE0002068002101F09EFF60670421206801F037
:103DF00099FFA0670821206801F094FFE0670C217B
:103E0000206801F08FFF626CC4F88000032A25D07F
:103E100020680EA901F030FE38B9606C03281DD06F
:103E2000BDF838102165090400E029E0206801F0A0
:103E3000D5FD28BB2068002101F074FF60660421D5
:103E4000206801F06FFFA0660821206801F06AFF7A
:103E5000E0660C21206801F065FF206704212068DE
:103E600001F060FF010D2046E16403A9FFF7CAFCE1
:103E7000B4F8500000230204206801F06DFD40B149
:103E800084F83460A16B0843A0630FB00120BDE843
:103E9000F083D4E90401A2690292CDE9000194E81B
:103EA0000F0001F046FF0FB00020BDE8F0830000D6
:103EB0002DE9F04F87B04FF000090646CDF800908D
:103EC000CDF80490CDF80890CDF80C90CDF8109076
:103ED0000168A1F18040B0F596301CBF07B0BDE885
:103EE000F08F46480068454940F400600860086863
:103EF00000F4006005904248016841F0040101604F
:103F0000006800F0040005903D4800683C4940F01E
:103F100008000860086802210C2400F008000590E1
:103F20004FF4F850CDE9000103273648CDE903747A
:103F30006946FDF7C1FA00214FF004080220CDF8D0
:103F40000080CDE9010130486946CDE90374FDF7F1
:103F5000B3FA2E4D4FF0006B2D4C4FF480504FF4C0
:103F6000001C05F1140EC5E9004B0024AC60EC60A8
:103F70008100C5F830C02022C5F8248084104FF499
:103F8000403A2C618EE80704C3022846C5E90A734B
:103F9000FDF768F9002818BFFCF7FFFA1D4C4FF039
:103FA000400C1D4BF563AE6320251815C4E9003B9A
:103FB0008100C4E902C94FF4001CC4F830C00201FA
:103FC0004303C4E90401C4E90625C4E90A73C4E94A
:103FD00008A82046FDF746F9002818BFFCF7DDFACF
:103FE000346400220A21A6633120FEF7A1FA3120B1
:103FF000FEF78EFA07B0BDE8F08F000044380240AB
:104000003038024000080240000C02404407002003
:10401000A0640240A4070020586402402DE9F04348
:1040200087B01F461646044691B194F83400012823
:104030001EBF022007B0BDE8F0830025F219E06D35
:10404000A56382420CD9A06B40F00070A06361E0D0
:10405000A06B40F00060A06307B00120BDE8F083D2
:10406000032084F834002068C5622068C26B42F4E3
:104070009572C263E26B4FEA472928484FEA9903D9
:10408000D063E26B2648D064E06B05652268E06B84
:1040900002F1800C0A466146FDF79EF92068C16A6C
:1040A00041F00801C162606C012818BF76024FF030
:1040B000010802214FF0FF329020CDE90029CDE91F
:1040C0000201CDE904582068694601F054FD2068DA
:1040D0004FF4007101F0B4FB40F2FF5598B9012F85
:1040E00006D9822020632068314601F01BFC05E0E0
:1040F000812020632068314601F021FC002804BFA4
:1041000007B0BDE8F08321688D63A16B0843A0630D
:1041100084F8348007B00120BDE8F083D55D20002D
:10412000755D200010B5FCF7CDF910BD10B5FCF79A
:10413000E3F910BD2DE9F04F5FEA010B1F4687B090
:104140000446164612D094F8340001281EBF0220FF
:1041500007B0BDE8F08F0025F119E06DA56381423D
:104160000CD9A06B40F00070A06341E0A06B40F060
:104170000060A06307B00120BDE8F08F032084F841
:1041800034002068C5622068C16B41F01A01C16328
:10419000216C2848C863216C2748C864206C0565D9
:1041A000606C012818BF56024FF40071206801F0BE
:1041B00047FB4FF0010840F2FF5988B9012F4FF03B
:1041C000900A06D9A02020632068314601F0BAFC8D
:1041D00005E0C4F830A03146206801F0C0FC58B1B9
:1041E0002168C1F83890A16B0843A06384F834803B
:1041F00007B00120BDE8F08F2068C16A41F00801D6
:10420000C16221687E02206C01F180025946B30828
:10421000FDF7E2F84FF0FF306946CDE90006CDE941
:1042200002A5CDE90458206801F0A5FC07B00020E4
:10423000BDE8F08F5F5E2000755D2000704770471D
:10424000704790F83C20012A04BF0220704770B4E8
:104250004FF0010C80F83CC0022280F83D2002683B
:104260005368A2F18044B4F5803494681CBFA2F175
:104270008045B5F5823503D14D6823F470032B4397
:104280000E6823F070038D683343536024F080017F
:10429000002402682943916080F83DC080F83C40CA
:1042A000204670BC7047002804BF0120704710B53D
:1042B000044690F83D0028B9002084F83C002046D0
:1042C00000F00CF8022084F83D002068211D02F067
:1042D00095F8012084F83D00002010BD08B5016864
:1042E0002348A1F18042B2F540621CD0A1F1804286
:1042F000B2F5805229D0A1F18042B2F5A05218BF88
:1043000008BD016841F0200101600068002207211A
:1043100000F0200000903720FEF70AF9BDE80840C1
:104320003720FEF7F5B8016841F008010160006828
:104330000022072100F0080000903220FEF7F8F874
:10434000BDE808403220FEF7E3B8016841F01001F3
:10435000016000680022072100F010000090362064
:10436000FEF7E6F8BDE808403620FEF7D1B80000B9
:104370004038024001680A4ACB6843F00103CB6031
:10438000016888681040062818BFB0F5803F03D048
:10439000086840F0010008604FF00000704700001E
:1043A0000700010090F83C20012A0DBF02200123E4
:1043B00080F83C30704770B4022280F83D200268DB
:1043C000D2F808C02CF0770C2CF4803C2CF47F4CF5
:1043D000C2F808C00A68502A41D00CDC202A78D0E4
:1043E00004DC002A18BF102A55D191E0302A70D081
:1043F000402A70D096E0602A4ED0702A06D0B2F5DE
:10440000805F48D0B2F5005F14D08BE00268D1F82D
:1044100004C08C68C96895684CEA012141EA040C23
:1044200025F47F414CEA0101916001688A6842F0FD
:10443000770212E00268D1F804C08C68C9689568F8
:104440004CEA012141EA040C25F47F414CEA0101C8
:10445000916001688A6842F480428A6062E0026882
:10446000D1F804C0CC68116A156A25F001061662FD
:1044700021F00A05916945EA0C0C21F0F00141EAAE
:1044800004119161C2F820C001688A6822F07002AC
:1044900042F057028A6045E00268D1F804C0C9685A
:1044A000146A24F0100414629569146A25F47045A6
:1044B00024F0A00445EA0131916144EA0C1CC2F8E1
:1044C00020C001688A6822F0700242F067028A60A8
:1044D00028E01DE0FFE70268D1F804C0C968146A4B
:1044E000156A24F00A0425F001051562956944EA6D
:1044F0000C0C25F0F00444EA01119161C2F820C0CF
:1045000001688A6822F0700242F047028A6009E07E
:104510000168D1F808C02CF0700C4CEA020242F09D
:1045200007028A60002180F83D3080F83C10084680
:1045300070BC7047704770B504460068002501697B
:1045400011F0020F1CBFC16811F0020F13D001213E
:104550006FF00202026121772068806910F0030F7A
:10456000204602D0FFF7E6FF04E000F0A8F820465E
:1045700000F0A6F825772068016911F0040F1CBF30
:10458000C16811F0040F13D002216FF00402026120
:1045900021772068806910F4407F204602D0FFF721
:1045A000C9FF04E000F08BF8204600F089F8257779
:1045B0002068016911F0080F1CBFC16811F0080FD5
:1045C00013D004216FF00802026121772068C069CE
:1045D00010F0030F204602D0FFF7ACFF04E000F01C
:1045E0006EF8204600F06CF825772068016911F01C
:1045F000100F1CBFC16811F0100F13D008216FF00D
:104600001002026121772068C06910F4407F2046C3
:1046100002D0FFF78FFF04E000F051F8204600F0D1
:104620004FF825772068016911F0010F1CBFC168A0
:1046300011F0010F05D06FF001010161204600F07B
:1046400041F82068016911F0800F1CBFC16811F0AA
:10465000800F05D06FF0800101612046FFF7EFFD6C
:104660002068016911F4807F1CBFC16811F0800FC0
:1046700005D06FF4807101612046FFF7DFFD2068EF
:10468000016911F0400F1CBFC16811F0400F05D047
:104690006FF040010161204600F058F82068016980
:1046A00011F0200F1ABFC16811F0200F70BD6FF01C
:1046B000200101612046BDE87040FFF7C1BD704791
:1046C0007047000038B504460068A0F18041B1F59C
:1046D000803108BFFDF7A2FE2068A0F18041B1F54E
:1046E000406110D114480091006860B1694605F03E
:1046F000B5FD009838B111494FF080500860BFF304
:104700004F8FBFF36F8F2068A0F18041B1F58051CA
:1047100018BF38BD10210A48FCF7FFFF094804F014
:1047200035FD094804F01EFD064804F025FDBDE8EE
:104730003840054804F00CBD2400002004ED00E0E2
:10474000000C02400000002003000020704770476A
:104750002DE9F0410268002504462026D069116841
:10476000936810F00F0F7AD003F0010C01F49077EA
:104770005CEA070772D010F0010F18BF11F4807FB8
:1047800005D001271762E26F42F00102E26710F0E4
:10479000020F18BF13F0010F06D0276802223A62F9
:1047A000E26F42F00402E26710F0040F18BF13F04A
:1047B000010F06D0236804221A62E26F42F002025F
:1047C000E26710F0080F1CBF01F0200252EA0C0251
:1047D00006D0236808221A62E26F42F00802E267FC
:1047E000E26F002A08BFBDE8F08110F0200F18BF6B
:1047F00011F0200F04D0216E00291CBF20468847ED
:10480000E16F2068826812F0400F08BF11F0080FB6
:1048100036D0016821F4907101602068816821F030
:1048200001018160A66725662068816811F0400F4C
:1048300021D0816821F040018160E06ED8B1244927
:104840000165E06EFCF70CFC002808BFBDE8F081B4
:10485000E06E016DBDE8F041084700E016E010F0A1
:10486000200F18BF11F0200F10D0216E002908BFB3
:10487000BDE8F08115E02046FFF769FFBDE8F08153
:104880002046FFF764FFE567BDE8F08110F0800F78
:1048900018BF11F0800F08D0616E002908BFBDE875
:1048A000F0812046BDE8F041084710F0400F14BFEA
:1048B00011F0400FBDE8F0811168204621F0400161
:1048C00011606667656600F0F9F8BDE8F0810000E8
:1048D000E3652000002804BF0120704710B504469E
:1048E000406F28B9002084F87000204600F028F8B6
:1048F000242060672068016821F0010101602046E2
:1049000001F07AFE012808BF10BD606A00281CBFB4
:10491000204601F0D9FD2068416821F490414160B2
:104920002068816821F02A0181602068016841F0D7
:10493000010101602046BDE8104001F032BE0000D8
:104940002DE9F04786B007460026524902244FF071
:1049500007080096032501960296039604960068C0
:10496000A0F18042B2F588322DD0A0F18042B2F59C
:1049700088421CBF06B0BDE8F0874748026842F491
:1049800000320260006800F400300590086840F0D2
:10499000080008600868694600F00800059060207B
:1049A000CDE900043D48CDE90358FCF785FD002220
:1049B00009212620FDF7BCFD5FF02600FDF7A8FDCC
:1049C00006B0BDE8F0873648026842F01002026087
:1049D000006800F010000590086840F001000860D1
:1049E000086800F001000590086840F002000860C7
:1049F0000868694600F0020005904FF4C050CDE908
:104A000000042848CDE90358FCF756FDC02069464C
:104A1000CDE900042448CDE90265CDF81080FCF70B
:104A20004BFD224C4FF4806921484FF000684FF451
:104A3000003A20602046C4E90186C4E90369666142
:104A4000A661C4E9076A6662FCF70CFC002818BF7F
:104A5000FBF7A3FD174D4021FC66A7631648C5E987
:104A60000216C5E90496AE61C5E9076A6E62C5E93A
:104A700000082846FCF7F6FB002818BFFBF78DFD61
:104A8000BD6600220821AF632520FDF751FD2520DA
:104A900094E700003038024040380240000C0240E9
:104AA000443802400000024000040240C4090020D3
:104AB00088640240240A0020B86402407047FEE780
:104AC0000148FDF7C0BB0000540600200148FDF777
:104AD000F5BB00005406002010B5806B0021826BEE
:104AE0001165C26B116590F84110602902D0FDF785
:104AF000EDFB10BD202180F84110FDF7A2FB10BD99
:104B000011F0010F4FF028034FF0000206D090F88B
:104B100041C0422233EA0C0C18BFF22211F0020FFE
:104B200008D090F841C042F0440233EA0C0318BFA9
:104B300042F0B00211F0040F18BF42F0B802112386
:104B40008B4308BF42F09002122333EA010104BFF5
:104B500042F0200141F04002006801689143016089
:104B60007047000070B5394A0025044690F84100AE
:104B7000202684F84250E2626585626C282842EA69
:104B8000010161641CBF29282A2828D04FF00701A1
:104B90002046FFF7B5FF94F84100602818BF84F85D
:104BA00041602563656320682949026812F4804FDB
:104BB00002681FD022F480420260A06B002808BF68
:104BC00070BD016584F84050A06BFCF749FA0028DD
:104BD00008BF70BDA06B016DBDE8704008470321A0
:104BE0002046FFF78DFF1B492820616384F84100B0
:104BF0002563D8E712F4004F15D0026822F4004272
:104C00000260E06B002808BF70BD016584F8405069
:104C1000E06BFCF725FA002808BF70BDE06B016D62
:104C2000BDE87040084794F84100602805D0204650
:104C300084F84050FDF74AFB70BD84F8416020467F
:104C400084F84050FDF7FDFA70BD00000000FFFF42
:104C5000D94A2000194E20002DE9F0410446006891
:104C600020270E46D0F80080C76107212046FFF7B5
:104C700047FF20685049426842F400424260206881
:104C800042681140416020680025816911F0020FDF
:104C900018BF85622068816911F0010F03D1816915
:104CA00041F00101816118F4804F5BD0A06B10B11D
:104CB00000684068608516F0040F0FD0206826F069
:104CC0000406616A406A0870606A401C6062208D58
:104CD00020B1618D401E2085491E6185608D18B10F
:104CE000606C40F004006064DFF8D080256384F8D5
:104CF0004250606C656300283BD0616C2046FFF732
:104D000031FF94F84100282818BFBDE8F08116F063
:104D1000040FC4F82C80256384F8417084F8425055
:104D2000656311D02068616A406A0870606A401C3F
:104D30006062208D40B1618D401E2085491E6185D5
:104D4000606C40F00400606407212046FFF7D8FE45
:104D500021681020C861204684F84050FDF711FBFF
:104D6000BDE8F08118F4004F1CBFE06B00289FD114
:104D7000A1E7E06A10F5803F0DD0204600F020F852
:104D8000C4F82C8084F84170204684F84050FDF728
:104D9000F8FABDE8F08194F8410084F841702228C7
:104DA000204684F8405003D0FDF737FBBDE8F08182
:104DB000FDF732FBBDE8F08100E800FE0000FFFFD8
:104DC00070B504460025282084F8425094F841101C
:104DD000292912D094F841102A2918BF70BD222128
:104DE00084F84100216302212046FFF789FE204616
:104DF00084F84050FDF710FB70BD212184F841007C
:104E0000216301212046FFF77BFE204684F84050B5
:104E1000FDF703FB70BD00002DE9F047174690F841
:104E200040200446C06A0E46012A04BF0220BDE8A5
:104E3000F08716F0100F4FF001014FF0000584F8D5
:104E4000401018BF17F0100F6CD0618D4FF0100894
:104E500069B121680028C1F81C80616C41F004012F
:104E6000616418BFB0F1807F57D000F0F5B894F8B6
:104E70004110282908BFB0F1007F04D094F84110F8
:104E8000292930D045E07C4816F0040F4FF020016E
:104E9000E062256384F8411084F84250656314D0C1
:104EA0002268616A506A0870606A00F101016162FB
:104EB000208D50B1618DA0F101002085A1F101018B
:104EC0006185606C40F0040161644FF00701204689
:104ED000FFF716FE2068C0F81C80204684F840507A
:104EE000FDF74FFAB8E010F5803F12D02068C0F807
:104EF0001C802068816911F0020F18BF856220684C
:104F0000816911F0010F79D1816941F0010181615D
:104F10009FE02068C0F81C809EE0616C2046FFF78F
:104F200021FE99E016F0040F18BF17F0040F1AD0F5
:104F3000618D89B1216826F00406626A496A1170A0
:104F4000616A01F101016162218DA1F101012185F7
:104F5000618DA1F101016185618D00297CD110F580
:104F6000803F76D178E016F0080F18BF17F0080FD1
:104F700051D094F841004FF028024FF0080132EA76
:104F8000000020681CBFC16184F8405064D1D4F88F
:104F90000C80D0F81890836982684FF0FE0CC068CE
:104FA000B8F1020FC9F3004A0CEA134800F0FE09F9
:104FB000C2F309020BD004212046FFF7A1FD2046D1
:104FC0004246514684F84050FDF73CF944E0062043
:104FD00008F0060300EAD210834210D1A06C431CF3
:104FE000A364A06C022837D1A5642068C161204663
:104FF000514684F84050FDF725F92DE029E00421C1
:105000002046FFF77DFD20464A46514684F8405031
:10501000FDF718F920E016F0020F18BF17F0020F85
:105020001AD0618D81B1606A216800788862606AF7
:1050300000F101006062608DA0F101006085208DAB
:10504000A0F10100208507E0B0F1807F18BF0028A3
:1050500002D12046FFF7B4FE16F0200F18BF17F05C
:10506000200F03D031462046FFF7F6FD002084F8DC
:105070004050BDE8F08700000000FFFFF0B585B0AC
:105080003F4801253D4900242A0400940194082644
:1050900002940394C0E90012846005618461394977
:1050A00080F82040C0E90A14C661C46080F830501E
:1050B0004461FBF733FC002818BFFBF76EFA0727A3
:1050C0002F48CDE9004569460297FBF793FA00287F
:1050D00018BFFBF762FA032469460220CDE90040BD
:1050E0002748FBF787FA002818BFFBF756FA042574
:1050F0002348CDE900546946FBF77CFA002818BF25
:10510000FBF74BFA09206946CDE900051C48FBF77F
:1051100071FA002818BFFBF740FA0A200521CDE9F3
:10512000000117486946FBF765FA002818BFFBF72E
:1051300034FA0C200621CDE9000111486946FBF73D
:1051400059FA002818BFFBF728FA0D206946CDE967
:1051500000070B48FBF74EFA002818BFFBF71DFAB3
:1051600012206946CDE900060548FBF743FA0028FE
:1051700018BFFBF712FA05B0F0BD00000020014097
:10518000DC0000200100000F30B585B02348012469
:10519000214A0021230400910191032502910391EA
:1051A000C0E900238160046181611D4A80F82010FC
:1051B000C0E90A21C561C16080F830404161FBF758
:1051C000ADFB002818BFFBF7E8F905200090072188
:1051D0001248CDE901416946FBF70CFA002818BFD7
:1051E000FBF7DBF906200221CDE900010B486946F7
:1051F000FBF700FA002818BFFBF7CFF90820694633
:10520000CDE900050548FBF7F5F9002818BFFBF7C5
:10521000C4F905B030BD0000002101402401002088
:105220000100000F70B51048032400210D4DA204A9
:105230004FF0807C9300C0F80CC00560C0E90141CC
:10524000C0E90423017641768176C1760177417702
:10525000FBF70AFE002808BF70BDBDE87040FBF7F1
:105260009CB90000006400402C0200201D4808B5D5
:10527000016841F480010160006800220B2100F404
:10528000800000903820FDF753F93820FDF740F9F1
:1052900000220B213A20FDF74BF93A20FDF738F9AF
:1052A00000220A213B20FDF743F93B20FDF730F9AE
:1052B000002208214420FDF73BF94420FDF728F99E
:1052C00000220A214520FDF733F94520FDF720F99A
:1052D000002208214620FDF72BF9BDE808404620B2
:1052E000FDF716B93038024000280CBF0122002219
:1052F0004FF400710148FCF717BA000000000240AB
:105300000649074810B5FBF749F9064CA11D207066
:105310000548FBF743F9607010BD00001200002043
:105320009CAD200010000020B8AD200030B58BB03F
:10533000002001210A900AA804F084F80E4C4FF0D6
:10534000FF31A06005F0F4F80C4D95E80F108DE8E2
:105350000F100021684604F088F81435206095E8A5
:105360000F1005AD85E80F10002105A804F07DF8A9
:1053700060600BB030BD00001C000020CCAD2000F0
:105380002DE9F04387B0534800240094019402941F
:1053900003940494016841F004010160016801F084
:1053A00004010591016841F080010160016801F08C
:1053B00080010591016841F001010160016801F07F
:1053C00001010591016841F002010160016801F0ED
:1053D00002010591016841F010010160016801F0CE
:1053E00010010591016841F0080101600068002288
:1053F000394E4FF4005100F0080005903046FCF79C
:1054000093F9364F002248F21A013846FCF78CF91E
:10541000DFF8CC80002240214046FCF785F9DFF818
:10542000C490002271154846FCF77EF901256946B3
:1054300068030090CDE9015430460394FCF73CF832
:105440004FF440406946CDE9000430460294FCF731
:1054500033F848F21A000090CDE901546946384605
:105460000394FCF729F840200090CDE901546946E7
:1054700040460394FCF720F81B494FF4A0600294C7
:10548000CDE9000169464846FCF716F8680200902D
:10549000CDE90154694648460394FCF70DF8E8034A
:1054A0006946CDE9000448460294FCF705F800225D
:1054B00006211720FDF73CF81720FDF729F80022F8
:1054C00006212820FDF734F82820FDF721F807B041
:1054D000BDE8F0833038024000100240000C02406A
:1054E0000008024000000240000011101548002191
:1054F00010B5134C0122DC23DFF84CC00460C0E976
:10550000032141618161C1610162C0E901C3FCF70E
:10551000DEFE002818BFFBF740F800210948FCF721
:105520002EFE002818BFFBF738F800210548FCF7CD
:1055300058FE002808BF10BDBDE81040FBF72DB88D
:105540000060004054060020C53AA0100748002122
:10555000054B4FF48042C0E900318160C160C0E971
:105560000412816170470000002C0140C006002039
:1055700010B588B01948002442F62F2142F20F726C
:10558000154B00940194029403940494059406949A
:10559000C0E9024104618461C0E90032FEF783FE84
:1055A000002818BFFAF7F9FF4FF4805000900B481D
:1055B0006946FEF7F7FE002818BFFAF7EEFF0494DD
:1055C00004A906480694FEF73CFE002818BFFAF727
:1055D000E4FF08B010BD0000000C004004080020EB
:1055E00010B584B01148002440F2374142F20F72E6
:1055F0000D4B009401940294C0E902418461C0E91A
:105600000032FEF750FE002818BFFAF7C6FF0094DC
:10561000694606480294FEF714FE002818BFFAF700
:10562000BCFF04B010BD0000001000404408002082
:1056300010B584B01148002440F2374140F2E732FF
:105640000D4B009401940294C0E902418461C0E9C9
:105650000032FEF728FE002818BFFAF79EFF0094DC
:10566000694606480294FEF7ECFD002818BFFAF7D9
:1056700094FF04B010BD0000001400408408002016
:1056800012480C2270B5DFF840C04FF4E134C0F886
:1056900000C0002144604FF4805481604FF0300C12
:1056A000C16093016500C0E90412C0E90631C0E998
:1056B000081CC0E90E45FFF70DF9002808BF70BDB2
:1056C000BDE87040FAF769BF00100140C40800202F
:1056D00011480C220F4B4FF4165C10B500210360EB
:1056E0003023C0F804C04FF4005481604FF4805C54
:1056F000C160C0E904128161C161C0E90813C0E959
:105700000EC4FFF7E7F8002808BF10BDBDE8104041
:10571000FAF743BF00440040440900200D4900222D
:105720000D4810B501F05EFC002818BFFAF735FFF0
:105730000A49094802F0C0FF002818BFFAF72DFFF8
:10574000054802F0FCFF002808BF10BDBDE810406E
:10575000FAF723BF55872000840A00208C00002020
:10576000FEE770470148FCF7ADB800005C0F002071
:105770000148FCF7A7B800005C0F00200148FCF7C7
:10578000A1B800005C0F002009284FF0000210D9DA
:105790004142CD2311FB03F1CB12A3EBE17149424E
:1057A000002906DD4B420A4603EB830100EB410072
:1057B000C0B2110740EA1160704700000148FEF7CF
:1057C0004DB90000C0060020816040F27741C268F8
:1057D0006FF30B021143C160372141F2883200F0B0
:1057E000E1B9000041F48011002241F000418160E4
:1057F000C16840F269436FF30B011943C1600F495F
:105800004FF4FA5341F2883C0968B1FBF3F101FB14
:105810000CF1491E03D24FF0004210467047436B13
:1058200013F0450FF5D0416B11F0040F07BF40F2A4
:10583000FF51816304228263EFE70000BC00002077
:105840008160C1686FF30B0141F48A61C16010216E
:1058500041F2883200F0A6B9816040F24641C26848
:105860006FF30B021143C160062141F2883200F050
:1058700099B9000000228260C1686FF30B0141F406
:105880008061C1600B494FF4FA5341F2883C0968CA
:10589000B1FBF3F101FB0CF1491E02D24FF00042C3
:1058A00006E0436B13F0800FF6D040F2FF518163A6
:1058B00010467047BC0000204DF8044D00224FF404
:1058C000D5714FF0400C8160C1686FF30B0141F45A
:1058D0008961C160124B4FF4FA5141F288341B6860
:1058E000B3FBF1F101FB04F1491E02D24FF000427B
:1058F00011E0436B13F0450FF6D0416B11F0040F2C
:105900001CBF0422C0F838C005D1416B11F0400F14
:1059100018BFC0F838C010465DF8044B704700004F
:10592000BC000020816040F25241C2686FF30B025C
:105930001143C160122141F2883200F033B9816015
:1059400040F25141C2686FF30B021143C160112153
:1059500041F2883200F026B940F247418260C268C5
:105960006FF30B021143C160072141F2883200F04E
:1059700019B90000002140F2C2428160C3686FF390
:105980000B031A43C260DFF850C04FF4FA5241F2E1
:105990008833DCF800C0BCFBF2F202FB03F2521EBB
:1059A00002D24FF000410AE0436B13F0450FF6D0EE
:1059B000426B12F0040F18BF042102D08163084625
:1059C0007047426B12F0010F12BF012140F2FF52EB
:1059D0008263F3D1F3E70000BC0000200022816065
:1059E000C36840F2C9416FF30B031943C160134B05
:1059F0004FF4FA51D3F800C041F28833BCFBF1F107
:105A000001FB03F1491E02D24FF000420AE0436B52
:105A100013F0450FF6D0416B11F0040F18BF0422AC
:105A200002D0826310467047416B11F0010F12BF24
:105A3000012240F2FF518163F3D1F3E7BC00002063
:105A4000002140F273428160C1686FF30B01114382
:105A5000C160332141F2883200F0A4B8816040F285
:105A60004D41C2686FF30B021143C1600D2141F239
:105A7000883200F097B8000038B4002240F2434C5E
:105A80008260C3686FF30B0343EA0C03C360244BCB
:105A90004FF4FA5C41F2883503241B68B3FBFCF336
:105AA00003FB05F35B1E04D24FF0004238BC1046E6
:105AB0007047D0F834C01CF0450FF3D0436B13F09F
:105AC000040F1CBF04228263F0D1D0F834C001233C
:105AD0001CF0010F1CBF1A468363E7D1D0F810C039
