:020000040020DA
:1000000088E60020D1022000E76E2000915E2000EB
:10001000E56E20004107200079A8200000000000C4
:100020000000000000000000000000000D022000A1
:100030002116200000000000690220001D7320002E
:10004000EB022000EB022000EB022000EB0220007C
:10005000EB022000EB022000EB022000EB0220006C
:10006000EB022000EB022000EB022000EB0220005C
:10007000EB022000EB022000EB022000EB0220004C
:10008000EB022000EB0220004D0520006907200054
:1000900045072000510720005D0720006916200059
:1000A000EB02200075772000EB022000EB0220001D
:1000B000EB022000EB022000EB022000EB0220000C
:1000C000EB022000EB022000EB022000EB022000FC
:1000D000EB022000C17E2000CD7E2000EB0220003C
:1000E00061162000EB022000EB022000EB02200052
:1000F000EB022000EB022000EB022000EB022000CC
:10010000EB0220007D6F200081772000EB022000B1
:10011000EB022000EB0220008D7720009977200071
:10012000D9152000EB022000E5152000F115200074
:10013000EB022000EB022000EB022000EB0220008B
:10014000EB022000EB022000EB022000EB0220007B
:10015000FD1520000916200015162000EB022000D6
:10016000EB022000EB022000F56E2000E96E20007B
:10017000EB022000016F2000EB02200000000000D5
:10018000EB022000EB022000EB022000EB0220003B
:10019000EB022000EB022000EB022000EB0220002B
:1001A000EB022000EB022000EB022000EB0220001B
:1001B000EB022000EB022000EB022000A15E2000F9
:1001C000955E2000EB02200000000000EB02200002
:1001D000EB022000EB022000EB022000EB022000EB
:1001E000EB022000EB022000EB022000EB022000DB
:1001F000EB022000EB022000DFF80CD000F0F6F854
:100200000048004711CB200088E600202D4B1968DC
:100210000868B0E8F04F80F30988BFF36F8F4FF0A4
:10022000000080F311887047000000000848006853
:10023000006880F308884FF0000080F3148862B6ED
:1002400061B6BFF34F8FBFF36F8F00DF00BF00BFFA
:1002500008ED00E0DFF80C00016841F47001016076
:10026000704700BF88ED00E0EFF30980BFF36F8FA8
:10027000144B1A681EF0100F08BF20ED108A20E9F9
:10028000F04F106009B44FF0500072B680F311883F
:10029000BFF34F8FBFF36F8F62B60DF043FC4FF08B
:1002A000000080F3118809BC19680868B0E8F04FB5
:1002B0001EF0100F08BFB0EC108A80F30988BFF35E
:1002C0006F8F70476C0B0020EFF3058070470000C4
:1002D0000648804706480047FEE7FEE7FEE7FEE7E0
:1002E000FEE7FEE7FEE7FEE7FEE7FEE7E974200033
:1002F000F90120002DE9F05F0546002092469B465B
:1003000088460646814640241BE02846414647462B
:10031000224600F05AF853465A46C01A914110D36B
:1003200011461846224600F041F82D1A67EB0108E5
:100330004F4622460120002100F038F817EB000953
:100340004E41201EA4F10104DFDC484631462A4616
:100350004346BDE8F09F40EA01039B0703D009E054
:1003600008C9121F08C0042AFAD203E011F8013BA1
:1003700000F8013B521EF9D27047D2B201E000F8FA
:10038000012B491EFBD270470022F6E710B5134639
:100390000A4604461946FFF7F0FF204610BD421CEE
:1003A00010F8011B0029FBD1801A7047202A04DBBA
:1003B000203A00FA02F1002070479140C2F1200378
:1003C00020FA03F3194390407047202A04DB203AB7
:1003D00021FA02F00021704721FA02F3D040C2F165
:1003E000200291400843194670470000064C074D13
:1003F00006E0E06840F0010394E8070098471034F5
:10040000AC42F6D3FFF7FCFE8CF32000ACF32000E7
:1004100070B58C1810F8015B15F0070301D110F8C6
:10042000013B2A1106D110F8012B03E010F8016BF3
:1004300001F8016B5B1EF9D12B0705D40023521E76
:100440000DD401F8013BFAE710F8013BCB1A921CDE
:1004500003E013F8015B01F8015B521EF9D5A142DC
:10046000D8D3002070BD0000DFF840C000209FED11
:10047000100A0423ACF104020CF10801506081ED74
:10048000010A083142F8080F5B1E81ED000AF5D120
:100490000849CCF8000081ED000ACCF8040081ED99
:1004A000010ACCF8080081ED020A70475C100020B8
:1004B000000000008810002010B50246806B016C1F
:1004C00011F0500F016C05D011F0100F28D001F081
:1004D00036FB10BD41F40071016401688A6812F0B6
:1004E000405F04BF8269002A17D1CA6A12F4700FF4
:1004F0001CBF8A6812F4806F0FD14A6822F0200274
:100500004A60016C21F480710164016C11F4805F18
:1005100003D1016C41F00101016401F0BFFA10BD8B
:10052000806BC16C1046BDE81040084710B5806B69
:1005300040210164416C41F00401416401F0FFFA83
:1005400010BD10B5806B01F0F9FA10BD044810B56C
:1005500001F0F6FABDE81040024801F0F1BA0000DF
:1005600094100020DC10002070B50B4801F0E8FD6D
:100570000A4CA0680AF0D6F904F12C0585ED000AB2
:1005800060680AF0E1F985ED010A20680AF0EEF9E9
:1005900085ED020A70BD0000DC1000205C10002018
:1005A00070B5494801F0CCFD484D286800F0C4FF03
:1005B00005F12C0484ED000A686800F0A1FF00EE4C
:1005C000100AB8EE400A84ED010AA86800F07CFF2A
:1005D00000EE100AB8EE400A84ED020AE86800F066
:1005E00061FF84ED030A286900F038FF84ED040AF6
:1005F000686900F045FF84ED050AA86900F0D0FFA6
:1006000000EE100AB8EE400A84ED060AE86900F030
:10061000B7FF84ED070A00F019FE312818BF70BD3E
:1006200094ED000A2A4D0222BCEEC00A691D10EEAC
:10063000100A80B20CF0BEF994ED010A0422691D83
:10064000BCEEC00A10EE100A80B20CF0B3F994EDC3
:10065000020A0322691DBCEEC00A10EE100A80B225
:100660000CF0A8F994ED030A02230122BCEEC00AA3
:10067000691D10EE100A80B20AF0A6FA94ED040A81
:100680000223691D1A46BCEEC00A10EE100A80B2A1
:100690000AF09AFA94ED050A02230122BCEEC00A80
:1006A000691D10EE100A80B20AF08EFA94ED060A67
:1006B0000322691DBCEEC00ABDE8704010EE100AAE
:1006C00080B20CF077B90000941000203C1000209C
:1006D000F40B00200749082210B501F1580001F081
:1006E00065FC05490322BDE8104001F1800001F0DE
:1006F0005DBC00003C1000205C10002000EE100AE1
:10070000DFED030AB8EE400A20EE200A7047000031
:10071000EF03903C70470000034801214FF0FF3287
:1007200040680CF095BB00008400002003480221C3
:100730004FF0FF3240680CF08BBB000084000020BB
:10074000FEE70000014801F0D6BE0000E0130020E3
:10075000014801F0D0BE0000E0130020014801F084
:10076000CABE0000E0130020014801F0C4BE000032
:10077000E013002002484FF4B671FFF705BE0000F9
:100780007412002010484FF4807110B502F040FD43
:10079000002818BF10BD00214FF0010C0B4840F29B
:1007A00007230222017680F819C0C16003600B465E
:1007B00002610A4681600175014605480068BDE88E
:1007C00010400DF0EBBA000000000240541200206F
:1007D0000001002070B5434D98B0434E00244FF403
:1007E000467195ED000A0822BCEEC00A10EE100A10
:1007F000030A8DF818308DF8190095ED010ABCEE4A
:10080000C00A10EE100A030A8DF81A308DF81B008A
:1008100095ED060ABCEEC00A10EE100A030A8DF828
:100820001C308DF81D0095ED020A00916946039475
:10083000BCEEC00A04928DF8144010EE100A030AB0
:100840008DF81E308DF81F00002302941A46306880
:100850000DF0A4FA95ED040A40F219310622BCEE1F
:10086000C00A10EE100A030A8DF838308DF83900EE
:1008700095ED030ABCEEC00A10EE100A030A8DF8CB
:100880003A308DF83B0095ED050A089108A90B94C4
:10089000BCEEC00A0C928DF8344010EE100A030A28
:1008A0008DF83C308DF83D0000230A941A463068DC
:1008B0000DF074FA8DF8584000F0C8FC40F2014188
:1008C00010910222139430388DF8590000231294AD
:1008D000149210A98DF854401A4630680DF05EFA53
:1008E00018B070BD68100020000100200B4C8AB0C9
:1008F0006D4600BFD4F89C004FF0FF310DF03EFD77
:10090000E06E4FF0FF3269460DF026FC044808AB5C
:1009100005F11802694601F055FCEBE79400002050
:10092000E01300200B480068002808BF704710B58E
:1009300009490DF0B9FB08480068002808BF10BD40
:100940004FF0805005490860BFF34F8FBFF36F8FA2
:1009500010BD0000280100206C00002004ED00E024
:100960002DE9F0411C4C012600254FF00E082027F0
:10097000214601F5FE706561C4E906562560C4E9AB
:100980000157E5602561C4E9086801F08FFCC4E9FE
:100990000565E6612146C4E90075A76001F5FE70B2
:1009A000C4E90356C4E9086801F080FC012104F59C
:1009B000FE7001F0F1FB022104F5FE7001F0ECFB8A
:1009C000102104F5FE7001F0E7FB04F5FE70BDE8B0
:1009D000F04101F0E1BF0000E41100204DF804ED0A
:1009E00083B0274945204FF0000C8DF800002548C2
:1009F000CDF804C0CB7A20390068302B4A780CD06F
:100A0000312B1CBF03B05DF804FB2AB3012A08BFD9
:100A100081F800C003B05DF804FB012A1CBF03B0DD
:100A20005DF804FB184A92F84630302B01BF92F86B
:100A30004720302A03B05DF804FB4FF0380281F8FC
:100A400000C04FF0000369468DF8002001AA0DF0A8
:100A500097FA03B05DF804FB0A78521CD2B20A7010
:100A60001E2A3CBF03B05DF804FB4321002301AA0A
:100A70008DF8001069460DF083FA03B05DF804FBB1
:100A800020000020F4000020F40B00202DE9F041AC
:100A9000FE4C40F21636828BFD49FE4D92FA92FCD6
:100AA000A4F804C0C28B52BAE280028C52BA2281EE
:100AB000438C5BBA63810368B342A3F2163000F043
:100AC00068837CDC40F20D364FF00100B342A3F2A4
:100AD0000D3600F06A8173DC40F20637BB42A3F2A8
:100AE000063600F0B88140DC052B00F0D981B3F563
:100AF000417F00F03881A3F54073053B18BFBDE886
:100B0000F0816070C868401CC860104606F0B0FEF6
:100B100084ED050A608909F0B1FE84ED060AA0881B
:100B2000012205F142010BF045FFE088052205F1A5
:100B300044010BF03FFF94ED050A032205F14A0141
:100B4000BCEEC00A10EE100A80B20BF033FF94ED39
:100B5000060A05F14E01BDE8F041BCEEC00A0522CF
:100B600010EE100A80B20BF025BF012E00F0C181FB
:100B7000062E18BFBDE8F08160704868401C4860D0
:100B8000604600F04FFD84ED030AE08800F04AFD66
:100B900084ED040A208900F045FD84ED050A608992
:100BA00000F040FD84ED060A94ED030A032205F1EE
:100BB0002001BCEEC00A10EE100A80B201E033E062
:100BC00027E00BF0F7FE94ED040A032205F124015F
:100BD000BCEEC00A10EE100A80B20BF0EBFE94EDF2
:100BE000050A032205F12801BCEEC00A10EE100A26
:100BF00080B20BF0DFFE94ED060A05F12C01BDE892
:100C0000F041BCEEC00A032210EE100A80B20BF0D5
:100C1000D1BEB21E072A28BFBDE8F081DFE802F08E
:100C2000FDFCFCFBFAF9F800B0F5507F00F00B82F8
:100C30004DDCB0F54F7F00F0D28128DC012800F0B8
:100C4000C582A0F540703A3800F0AC81012818BF89
:100C5000BDE8F081486A0522401C486205F1AD01FB
:100C600060460BF0A7FEE088052205F1B3010BF00A
:100C7000A1FE2089052205F1B8010BF09BFE6089D9
:100C800005F1BE01BDE8F04105220BF093BEA0F5D1
:100C900040703E3800F0C081012818BFBDE8F081E7
:100CA000086B0522401C086305F1EA0160460BF061
:100CB00081FEE088052205F1EE010BF07BFE208924
:100CC00005F1F201BDE8F04105220BF073BE40F2E0
:100CD000F5339842A0F2F53200F0E38125DCA0F56F
:100CE0004070413800F0C681B32818BFBDE8F081DC
:100CF000C86B0522401CC86305F58D7160460BF07A
:100D000059FEE088052205F591710BF053FE20890C
:100D1000052205F595710BF04DFE608905F5997179
:100D2000BDE8F04105220BF045BE012A00F0D0815C
:100D3000022A18BFBDE8F081886C0522401C886437
:100D400005F2711160460BF035FEE088052205F5CD
:100D5000BC710BF02FFE208905F5C071BDE8F04194
:100D600005220BF027BE6070012308680322401C97
:100D7000086005F10801604609F026FFE0880123BC
:100D8000032205F10E0109F01FFF20890123032230
:100D900005F1140109F018FF608905F11A01BDE899
:100DA000F0410123032209F00FBF60708868401CE6
:100DB0008860604600F036FC84ED030AE08800F0AD
:100DC00031FC84ED040A208906F05EFD84ED050AFD
:100DD0006089FFF793FCDFED300A032205F1300153
:100DE00020EE200A84ED060A94ED030ABCEEC00A48
:100DF00010EE100A80B20BF0DDFD94ED040A032220
:100E000005F13401BCEEC00A10EE100A80B205E014
:100E1000AEE19CE18AE178E1F5E189E00BF0CAFD01
:100E200094ED050A032205F13801BCEEC00A10EE6C
:100E3000100A80B20BF0BEFD94ED060A05F13C01EC
:100E4000BDE8F041BCEEC00A02231A4610EE100ABB
:100E500080B209F0B9BE6070012308690322401C0A
:100E6000086105F15401604609F0AEFEE0880123F7
:100E7000032205F15A0109F0A7FE208905F160015E
:100E8000BDE8F041012300B2042207E00000002089
:100E900074120020F40B00200000C84209F012BEBA
:100EA00060704869401C4861104600F0FDFC84ED0C
:100EB000050AA088012205F168010BF07BFDE0889E
:100EC000012205F16A010BF075FD94ED050A03227C
:100ED00005F16C01BCEEC00A10EE100A80B20BF0F6
:100EE00069FD608905F17001BDE8F04101220BF058
:100EF00061BD607005228869401C886105F172013E
:100F000060460BF057FDE088052205F178010BF0F3
:100F100051FD20890323012205F17E0109F054FED1
:100F2000608905F18401BDE8F04105220BF042BD66
:100F30006070C869401CC861604600F0FBFB84ED2E
:100F4000030AE08800F080FB84ED040A208900F0A9
:100F50007BFB84ED050A94ED030A022305F18A0167
:100F60001A46BCEEC00A10EE100A80B209F02CFE40
:100F700094ED040A032205F19001BCEEC00A10EEC4
:100F8000100A80B20BF016FD94ED050A05F19401EC
:100F9000BDE8F041BCEEC00A032210EE100A80B298
:100FA0000BF008BD086A0522401C086205F1980193
:100FB00060460BF0FFFCE088052205F19E010BF076
:100FC000F9FC2089052205F1A3010BF0F3FC6089EF
:100FD00005F1A901BDE8F04105220BF0EBBC886AE0
:100FE0000522401C886205F1C40160460BF0E2FC5A
:100FF000E088052205F1CA010BF0DCFC20890522FE
:1010000005F1CF010BF0D6FC608905F1D501BDE8F3
:10101000F04105220BF0CEBCC86A0522401CC86214
:1010200005F1DA0160460BF0C5FCE088052205F108
:10103000DE010BF0BFFC208905F1E201BDE8F041C3
:1010400005220BF0B7BC486B0522401C486305F134
:10105000FA0160460BF0AEFCE088052205F1FE01C6
:101060000BF0A8FC208905F58171BDE8F04105224F
:101070000BF0A0BC886B0522401C886305F58571C8
:1010800060460BF097FCE088052205F587710BF0B0
:1010900091FC208905F58971BDE8F04105220BF02E
:1010A00089BC086C0522401C086405F59D716046EA
:1010B0000BF080FCE088052205F241110BF07AFC70
:1010C000208905F24911BDE8F04105220BF072BC00
:1010D000486C0522401C486405F2511160460BF033
:1010E00069FCE088052205F259110BF063FC2089A8
:1010F000052205F261110BF05DFC608905F26911B2
:10110000BDE8F04105220BF055BCC86C0522401C1F
:10111000C86405F2BF1160460BF04CFCE08805F591
:10112000E171BDE8F04105220BF044BC086D0522D9
:10113000401C086505F5E37160460BF03BFCE08858
:1011400005F2C911BDE8F04105220BF033BC486D32
:101150000522401C486505F2CD1160460BF02AFCC3
:10116000E08805F5E871BDE8F04105220BF022BCEE
:10117000886D0522401C886505F5EA7160460BF014
:1011800019FCE08805F2D711BDE8F04105220BF00B
:1011900011BCC86D0522401CC86505F5EE7160469E
:1011A0000BF008FCE088052205F2DF110BF002FCD1
:1011B000A088052205F2E3110BF0FCFBE08805F2A4
:1011C000E911BDE8F04105220BF0F4BB086E0522E1
:1011D000401C086605F2EF1160460BF0EBFBE0885F
:1011E000052205F2F5110BF0E5FBA088052205F2BA
:1011F000FB110BF0DFFBE08805F20121BDE8F041B7
:1012000005220BF0D7BBBDE8F08100000B48006859
:10121000002808BF704710B509490CF045FF094880
:10122000C069002808BF10BD4FF080500649086013
:10123000BFF34F8FBFF36F8F10BD00002C01002054
:101240001C0000200000002004ED00E00148C07AEE
:1012500070470000200000200148407970470000DE
:1012600020000020674830224FF4806110B5FFF75E
:1012700084F864483B210A22C1714173C1744176EC
:10128000C17780F8231080F8271080F82B1080F8A1
:101290002F1080F8331080F8371080F83B1080F85A
:1012A000411080F8431080F8491080F84D1080F804
:1012B000531080F8591080F85F1080F8671080F89C
:1012C000691080F86B1080F86F1080F8711080F84A
:1012D000771080F87D1080F8831080F8891080F8EE
:1012E0008F1080F8931080F8971080F89D1080F888
:1012F000A21080F8A81080F8AC1080F8B21080F826
:10130000B71080F8BD1080F8C31080F8C91080F8BD
:10131000CE1080F8D41080F8D91080F8DD1080F855
:10132000E11080F8E91080F8ED1080F8F11080F8F5
:10133000F91080F8FD1080F8011180F8091180F88B
:101340000D1180F8111180F8191180F8211180F821
:10135000291180F8311180F8391180F8401180F896
:10136000481180F8501180F8581180F8601180F809
:10137000681180F8701180F8771180F87F1180F87B
:10138000871180F88E1180F8961180F89E1180F8F0
:10139000A61180F8AE1180F8B61180F8BE1180F861
:1013A000C11180F8C51180F8C81180F8CC1180F8FF
:1013B000CF1180F8D31180F8D61180F8DB1180F8B6
:1013C000DE1180F8E21180F8E81180F8EE1180F863
:1013D000F41180F8FA1180F8001280F8061280F8F3
:1013E000091280F80E1280F8121280F8161280F896
:1013F0001C1280F8211280F8271280F8FE1380F862
:10140000FF2310BDF40B002001493020C872704743
:101410002000002001490120487070470000002092
:1014200001493020487370472000002001493020D6
:10143000C870704720000020014930204871704773
:101440002000002001493120C87270472000002090
:1014500001493120487170472000002000EE100A39
:10146000DFED050A9FED051AB8EE400A60EE200A8E
:1014700080EE810A704700006740533A3867043EA7
:1014800000EE100ADFED050A9FED051AB8EE400ADE
:1014900060EE200A80EE810A704700006740533AF0
:1014A0004703083F00EE100ADFED050A9FED051A1D
:1014B000B8EE400A60EE200A80EE810A7047000014
:1014C0006740533A02BCA53E00EE100ADFED090A60
:1014D000DFED091AB8EE400A9FED081A20EE200A47
:1014E000C0EE210A20EE810ABCEEC00A10EE100AFE
:1014F00080B270476740533ACDCC0C4000007A442C
:1015000000EE100ADFED090ADFED091AB8EE400A15
:101510009FED081A20EE200AC0EE210A20EE810A73
:10152000BCEEC00A10EE100A80B270476740533A12
:10153000CDCC0C4000007A4400EE100A9FED0B2A3F
:10154000DFED0B2AB8EE400ADFED0A1A9FED0A1A0A
:10155000DFED0A0A20EE020A20EE220A30EE610ACE
:1015600020EE010A30EE600A704700006740533AEF
:1015700000007A440000C842CDCCCC3D000020429F
:1015800000EE100ADFED050AB1EE001AB8EE400ACF
:1015900020EE200A20EE010A704700006740533A0F
:1015A00000EE100ADFED090ADFED091AB8EE400A75
:1015B0009FED081A20EE200AC0EE210A20EE810AD3
:1015C000BCEEC00A10EE100A80B270476740533A72
:1015D0006666C64000007A44014801F0CFBA0000B8
:1015E00024110020014801F0C9BA00008411002034
:1015F000014801F0C3BA0000BC1B0020014801F003
:10160000BDBA0000DC1D0020014801F0B7BA00009F
:101610005C1B0020014801F0B1BA00003C1E002014
:101620007047000000EE100A9FED051ADFED050A75
:10163000B8EE400A20EE010A30EE200A70470000A2
:10164000EF20B6BE33F33E4300EE100ADFED030A8F
:10165000B8EE400A20EE200A7047000038679C3F31
:101660004FF4806001F09CBC4FF4807001F098BC96
:101670000B4C00220221204601F0D6FD002220461C
:10168000102101F0D1FD00222046082101F0CCFDFF
:101690000821204601F0C1FD0A2001F065FCF7E7B2
:1016A000000C0240134A4DF8044D92F80EC001237D
:1016B000BCF1020F19D2947B02F10C034FF0000C25
:1016C00002F804C0947B02EB84046060907B00F815
:1016D00003C0907B431C93733A2463462F2230301F
:1016E00008704C708A7081F803C018465DF8044B8E
:1016F00070470000A82600200D4902468B7B012080
:10170000002B08BF70471278303AD2B201EB820347
:10171000D3F804C0BCF1000F08BF70470020586028
:101720000A441073887B421E8A73002070470000B1
:10173000A826002000EE100ADFED0B0A9FED0B2A11
:10174000F8EE402AB8EE400ADFED091A9FED091ABB
:1017500062EEA00A20EE020A70EEE10A30EE011AF3
:1017600080EE810A70470000FBCDE43D4EB7EC3BB4
:1017700045C7954166B144410F484FF4807110B59B
:1017800001F046FD002818BF10BD0C480068002875
:1017900008BF10BD0A490CF087FC0A4840680028C1
:1017A00008BF10BD4FF0805007490860BFF34F8F4E
:1017B000BFF36F8F10BD0000000002400C0100203D
:1017C000500000204C00002004ED00E070470000B5
:1017D00070B51B4E4FF40041304601F019FD194C15
:1017E0000128194D08D104F10C022070286800234B
:1017F000A2F10C010CF0C4FB4FF40051304601F093
:1018000007FD012808D1114A022020700023286812
:10181000A2F110010CF0B4FB4FF48041304601F00E
:10182000F7FC012818BF70BD0320094A002320706F
:10183000A2F114012868BDE870400CF0A1BB0000C3
:10184000001002404C000020E00000205C0000205E
:10185000600000200F484FF4806110B501F0D8FC03
:10186000002818BF10BD0C480068002808BF10BD34
:101870000A490CF019FC0A488068002808BF10BD0E
:101880004FF0805007490860BFF34F8FBFF36F8F51
:1018900010BD000000000240100100205400002094
:1018A0004C00002004ED00E000EE100A9FED051A48
:1018B000DFED050AF8EE401A81EE810A20EE200ADB
:1018C0007047000000007F430000C84270470000DE
:1018D00070B482B04FF0000CCDF800C090F83C20FE
:1018E000012A01BF022002B070BC7047012280F8BB
:1018F0003C200A680724654B0568092A1DD90A3A65
:10190000EE6802EB420204FA02F226EA0202EA6000
:101910000A689A4206D102680C7AD56845EA0464DE
:10192000D4601CE004680A3A8D6802EB4202E66863
:1019300005FA02F23243E26011E02E6902EB420244
:1019400004FA02F226EA02022A6102680C788D6823
:10195000166904EB440405FA04F4344314614A683C
:101960001F24072A15D20568521E02EB82026E6BF5
:1019700004FA02F226EA02026A6302680D790C8810
:101980006D1E566BA4B205EB8505AC403443546321
:101990002CE005680D2A14D2D21F2E6B02EB8202B6
:1019A00004FA02F226EA02022A630C7902680D8820
:1019B000E61FACB206EB8605166BAC4034431463ED
:1019C00014E00D3AEE6A02EB820204FA02F226EA11
:1019D0000202EA6202680C790D880D3CD66AADB24B
:1019E00004EB840405FA04F43443D462284A0468FE
:1019F000944204BF0C68122C05D1D2F8044344F47D
:101A00008004C2F804430468944233D10C689C42B9
:101A100018BF112C2ED1D2F8044344F40004C2F8AC
:101A200004430968994225D11A491B4A0968B1FB48
:101A3000F2F101EB81014900009101911AD0B1F15D
:101A4000004F1DD20029D8BF002105DD11F0010192
:101A500002D0009A521E0092019A491C521C9142D7
:101A6000B8BF009B06DA5B1E891C9142A3F10103FB
:101A70000093F8DB80F83CC002B0002070BC7047D7
:101A80000099491E0091FCD1F4E7000012000010FB
:101A9000002001405C0B002040420F002DE9F04186
:101AA000044600681F4D4FF080561F4FA0F1804143
:101AB000B1F5903113D1DFF87480D8F8000070B11F
:101AC000204600F03DFBD8F8000029460CF0ECFA67
:101AD000286820B13E60BFF34F8FBFF36F8F14496A
:101AE0002068884218BFBDE8F081DFF84880D8F848
:101AF0000000002808BFBDE8F081204600F020FB70
:101B00000D49D8F800000CF0CFFA6868002808BF2B
:101B1000BDE8F0813E60BFF34F8FBFF36F8FBDE82C
:101B2000F08100006400002004ED00E004010020CA
:101B30000021014008010020680000207047704724
:101B400070B50446006802684168C2F34002002A8A
:101B5000C1F3401118BF00292DD0216C11F0100FD6
:101B600003D1216C41F400712164816811F0405F60
:101B700004BFA169002917D1C16A11F4700F1CBFFD
:101B8000816811F4806F0FD1416821F0200141601C
:101B9000206C20F480702064206C10F4805F03D1EE
:101BA000206C40F0010020642046FFF777FF216899
:101BB0006FF012000860206801684368C1F380027A
:101BC000002AC3F3C01118BF002934D0216C11F0D2
:101BD000100F03D1216C41F400512164816811F48C
:101BE000401F21D1816B11F4401F1CBF816811F48B
:101BF000806F19D1416811F4806F01BF816811F0C5
:101C0000405FA16900290FD1416821F08001416046
:101C1000206C20F480502064206C10F4807F03D16D
:101C2000206C40F0010020642046FFF74FFE216841
:101C30006FF00C00086020680168436811F0010F24
:101C4000C3F380111EBF0029006810F0010F0AD0F5
:101C5000206C40F480302064204600F0DDF82168DC
:101C60006FF001000860206801684368C1F340120A
:101C7000002AC3F3806114BF002970BD616C6FF04E
:101C8000200541F00201616405602046FFF757FF1F
:101C90002068056070BD000070B504004FF00006BC
:101CA00004BF012070BD206C002528B9204600F03B
:101CB000B5F8656484F83C50206C10F0100F18BF24
:101CC000012603D0304684F83C5070BD206C20F4CF
:101CD000885040F0020020644C486FF07061D0F8EA
:101CE000042322F44032C0F80423D0F804236368AC
:101CF0001A43C0F804232068426822F480724260CC
:101D000020682269436843EA0222426020684268F0
:101D100022F0407242602068A26843681A43426021
:101D20002068826822F4006282602068E26883682A
:101D30001A438260A06AC8422068816821F07061FD
:101D40008160206804BF816821F040510CD0A16AF5
:101D50008268114381602068816821F04051816070
:101D60002068E16A8268114381602068816821F0FF
:101D7000020181602068A169826842EA41018160B4
:101D800094F820000028206804BF416821F4006115
:101D90000FD01F49426842F40062426020684268E6
:101DA00022F4604242602068636A426801EB43317A
:101DB0001143416020681749C26A22F47002C2626E
:101DC0002068A28BC36A01EB02511943C1622068EB
:101DD000816821F400718160206894F83010826875
:101DE00042EA412181602068816821F4806181603C
:101DF00020686169826842EA812181606564206CA3
:101E000020F0020040F0010020645BE70020014068
:101E100000E0FFFF0000F0FF704700002DE9F04FE9
:101E200087B00646002458485649032500944FF4CD
:101E300080580194071502944FF4804903944FF49D
:101E4000807A04943268DFF844B1A2F18043B3F59C
:101E5000903342D04E4B9A421CBF07B0BDE8F08F82
:101E60000A6842F400720A60096801F40071059181
:101E7000016841F001010160016801F00101059173
:101E8000016841F0020101600068694600F002004B
:101E900005906020CDE90005584601F08DF801203D
:101EA0006946CDE900053B48029401F085F83A4DBA
:101EB0004FF0007039492960C5E90104C5E90347BD
:101EC000C5E907A46C622846C5E9058900F044FF0E
:101ED00000284AD0FFF7CCFB47E00A6842F4807242
:101EE0000A60096801F480710591016841F00401FC
:101EF0000160016801F004010591016841F00101F0
:101F00000160016801F001010591016841F00201E1
:101F100001600068694600F0020005900D20CDE9DF
:101F200000051F4801F048F819206946CDE9000571
:101F30005846029401F040F802206946CDE90005B8
:101F40001448029401F038F8164D1748C5E900040A
:101F5000AC602846C5E90347C5E907A46C62C5E93A
:101F6000058900F0F9FE0028B4D1B56300220B21E9
:101F7000AE63122002F05CF8122002F049F807B0BC
:101F8000BDE8F08F44380240303802400000024083
:101F900000210140000402408411002040640240FE
:101FA00000080240241100201064024030B583B0C4
:101FB000044600251346009590F83C00012802BF16
:101FC000022003B030BD012084F83C002068826804
:101FD00012F0010F2DD1D0F808C0534A4CF0010C7B
:101FE000C0F808C051480068B0FBF2F010EB4000A8
:101FF000009001901DD0B0F1004F70D20028D8BFE2
:10200000002005DD10F0010002D0009A521E00925F
:10201000019A401C521C9042B8BFDDF800C008DA9B
:10202000801CACF1010C9042ACF1010CCDF800C069
:10203000F6DB2068826812F0010F6DD0226C22F06E
:10204000010222F4C06242F480722264406810F4FB
:10205000806F05D0206C20F4005040F48050206444
:10206000206C10F4805F08BF656403D0606C20F0C2
:102070000600606484F83C506FF02200D4F838C049
:102080002B4ACCF83C20D4F838C02A4ACCF840205F
:10209000D4F838C0284ACCF84C2022681060206858
:1020A000426842F0806242602068826842F4807236
:1020B00082602268A06B02F14C0C0A46614600F077
:1020C00005FF1E49D1F8040310F01F0F206807D048
:1020D000884204BF826812F0405F06D009E01EE02B
:1020E000816811F0405F17D112E0826842F08042AF
:1020F0008260D1F8040310F0100F01BF2068A0F136
:102100008041B1F59131816808BF11F0405F03D182
:10211000816841F08041816003B0002030BD0098AB
:10212000401E0090FCD184E740420F005C0B002071
:10213000B9042000430520002D05200000200140A7
:1021400010B590F83C1004460020012904BF02207D
:1021500010BD012184F83C1021688A6822F0010238
:102160008A6021688A6812F0010F11D1886820F412
:1021700080708860A06B00F09CFC21684A6822F0A7
:1021800080624A60216C21F4885141F00101216490
:10219000002184F83C1010BD90F82020012A18BFBF
:1021A000022A06D0416A41F4802141624FF00100C9
:1021B00070470068426942EA010141614FF0000046
:1021C00070470000F0B490F82040D0F800C0DCF870
:1021D00008C0012C18BF022C07D0416A41F48021AD
:1021E0004162F0BC4FF0010070471CF0E05F55D039
:1021F000CCF3016CBCF1020F06D9416A41F4000135
:102200004162F0BC0120704701254FF4C07405FA0B
:102210000CF51D608B68A3B1CD684E6807682B4331
:1022200004EB0C1543EAC60347F8053005684FF484
:10223000C27303EB0C130E69EE50097D01290ED118
:1022400008E00D88CB68066843EA455304EB0C159B
:102250007351EBE70168CD5845F48075CD50D2F845
:1022600005504FF4C6761379371F016806EB0C163C
:1022700043EA052507EB0C138D51157804EB0C117F
:10228000D2F80120066845EA0222F250006842585E
:1022900042F001024250F0BC00207047416A41F414
:1022A00000114162F0BC0120704700004DF8044D60
:1022B00090F820300268012B18BF022B08D0416A29
:1022C00041F4802141625DF8044B4FF001007047FA
:1022D0004148A2F1804CBCF5505C18BF0246D2F8D0
:1022E0000032824243F00103C2F800320CD1D2F82E
:1022F000000220F47C50C2F80002D2F800024B6ABF
:1023000040EA0320C2F8000291F814C00120D2F87C
:102310001C320CF01F0C00FA0CF08343C2F81C3284
:10232000CB69C3B9D2F80C328343C2F80C32B1F88E
:102330000CC04B684C696CF31F4302EBC40CCCF827
:102340004032B1F808C00B684C696CF31F4302EBD4
:10235000C40CCCF84432CB69012B18D1D2F80C3222
:102360000343C2F80C32B1F800C04B684C696CF3FF
:102370001F4302EBC40CCCF84032B1F808C0CB6864
:102380004C696CF31F4302EBC40CCCF844328B69EC
:10239000002BD2F804320CBF83430343C2F804324B
:1023A0000B69002BD2F814320CBF83430343C2F8ED
:1023B0001432096A012904D1D2F81C120843C2F868
:1023C0001C02D2F8000220F00100C2F800025DF801
:1023D000044B002070470000006400407047F0B4D8
:1023E00090F820C0BCF1010F18BFBCF1020F07D05C
:1023F000416A41F480214162F0BC4FF00100704716
:10240000D0F800C029B1DCF810C01CF0030F6BD06D
:1024100004E0DCF80CC01CF0030F65D004684FF436
:10242000D87C0CEB011C54F80C4014F004049460AC
:10243000046854F80C4007BF640D1460E40854604D
:102440004FF4DA740768261D351D57F80CC00029B3
:1024500004EB0114CCF34007D76006EB011C05EB3D
:10246000011105682D5905F00F05156105682D59F5
:10247000C5F30725956105682C594FEA144454614A
:10248000026852F80C201A70026852F80C204FEAC9
:1024900012225A70026852F80C204FEA12429A70C7
:1024A000026852F80C204FEA1262DA700268525841
:1024B0001A71026852584FEA12225A710268525831
:1024C0004FEA12429A71026851584FEA1161D9716C
:1024D00000680CBFC168016941F020010CBFC160F8
:1024E00001610020F0BC7047416A41F40011416273
:1024F000F0BC012070472DE9F05F0546006800241C
:102500004669D0F804908768D0F80CB0D0F810A0D5
:1025100016F0010FD0F8188025D017F0010F07D062
:102520000121816017F0020F7CD0284600F068FA84
:1025300017F4807F09D0286817F4007F4FF480716A
:10254000816070D0284600F079FA17F4803F0AD0F5
:10255000286817F4003F4FF48031816000F0B980A3
:10256000284600F089FA16F0080F18BF1BF0100F6C
:1025700004D02968102044F40074C86016F0040FD9
:102580004FF0080718BF1BF0080F04D02868C76079
:10259000284600F0BBF916F0020F07D02868C06883
:1025A00010F0030F1CBF284600F0B2F916F0400FE0
:1025B00018BF1AF0100F04D02968102044F480646A
:1025C000086116F0200F18BF1AF0080F04D0286811
:1025D0000761284600F0BCF916F0100F07D02868F4
:1025E000006910F0030F1CBF284600F0B3F916F481
:1025F000003F18BF19F0100F05D02968102048605F
:10260000284600F0C7F916F4803F18BF19F0080FEC
:1026100004D028684760284600F04AFA16F4004FB4
:1026200078D001E035E044E019F0040F6FD016F4E3
:10263000807F1CBF18F0010F44F0010416F4007FE6
:102640001CBF18F0020F44F0020416F4806F1CBF88
:1026500018F0040F44F0040416F4006F18BF18F0CB
:10266000700F54D008F07000402808BF44F04004B8
:1026700048D03EDC102808BF44F0080442D020288F
:1026800008BF44F010043DD0302808BF44F02004B7
:1026900038E017F0040F18BF4FF400647FF448AF20
:1026A00017F0080F0ABF28464FF4805400F0A6F92F
:1026B0003EE717F4806F18BF44F400547FF445AF31
:1026C00017F4006F0ABF284644F4804400F0B4F9C0
:1026D0003BE717F4802F18BF44F400447FF443AF66
:1026E00017F4002F0ABF284644F4803400F0C2F9E2
:1026F00039E7502808BF44F0800403D0602808BFA1
:1027000044F480742868816921F07001816129682E
:1027100004204860002C08BFBDE8F09F686A204391
:1027200068622846FFF75AFEBDE8F09F002804BF04
:102730000120704770B5044690F82000002804BFBF
:10274000204600F089F82068016821F0020101604C
:1027500000F070FD054620680526406810F0020F65
:102760000AD000BF00F066FD401B0A2817D8206879
:10277000406810F0020FF5D12068016841F00101B6
:10278000016000F057FD05462068406810F0010F19
:1027900012D100BF00F04EFD401B0A2807D9606A25
:1027A00040F40030606284F82060012070BD206831
:1027B000406810F0010FEDD0207E012820680168EC
:1027C0000CBF41F0800121F080010160607E012892
:1027D000206801680CBF41F0400121F04001016018
:1027E000A07E0128206801680CBF41F0200121F083
:1027F00020010160E07E0128206801680CBF21F003
:10280000100141F010010160207F0128206801685B
:102810000CBF41F0080121F008010160607F012830
:10282000206801680CBF41F0040121F0040101603F
:1028300004F108000FC8084342EA0301D4E9002C60
:1028400001430020ACF101030B43D361012160621D
:1028500084F8201070BD00004DF804ED87B0002111
:10286000009101910291039104910068A0F18042CE
:10287000B2F5C8421CBF07B05DF804FB20480168F0
:1028800041F000710160006800F0007005901D4883
:10289000016841F00201016000680221092300F093
:1028A000020005904FF44070CDE900010322164864
:1028B000CDE90323694600F07FFB002205211320A8
:1028C00001F0B6FB132001F0A3FB00220521142028
:1028D00001F0AEFB142001F09BFB00220521152026
:1028E00001F0A6FB152001F093FB00220521162024
:1028F00001F09EFB162001F08BFB07B05DF804FB96
:102900004038024030380240000402407047000066
:102910000B4B002110B5A3F11C0202F5EA70FFF782
:102920005EFDFEF793FC312818BF10BD0023074859
:10293000044A05490068BDE810400BF021BB0000C7
:1029400028120020700000200C120020F800002047
:10295000704700000B4B012110B5A3F11C0202F5DA
:10296000D870FFF73CFDFEF771FC312818BF10BD91
:1029700000230748044A05490068BDE810400BF0F1
:10298000FFBA00004C12002074000020301200201A
:10299000FC0000207047000070B5044690F820004D
:1029A000012804D0606A40F4002060621CE002202C
:1029B00084F820002068016821F00101016000F026
:1029C00039FC05462068406810F0010F13D000BFA5
:1029D00000F030FC401B0A2808D9616A052041F448
:1029E0000031616284F82000012070BD20684068D9
:1029F00010F0010FECD10020606270BD7047000044
:102A00000A4810B5084900680BF04EFB0848C0683A
:102A1000002808BF10BD4FF0805006490860BFF382
:102A20004F8FBFF36F8F10BD780000203001002062
:102A30006C00002004ED00E0704700000A4810B56B
:102A4000084900680BF030FB08480069002808BFFF
:102A500010BD4FF0805006490860BFF34F8FBFF3A1
:102A60006F8F10BD7C000020300100206C00002022
:102A700004ED00E0704700000A4810B508490068FE
:102A80000BF012FB08484069002808BF10BD4FF04A
:102A9000805006490860BFF34F8FBFF36F8F10BDA2
:102AA00080000020300100206C00002004ED00E0D8
:102AB00070472DE9F041876D044600F0BBFB0546E9
:102AC00094F835000026022806D080206065012099
:102AD00084F83460BDE8F0812068016821F01601B7
:102AE00001602068416921F080014161206C00286B
:102AF00004BFA06C002804D02068016821F0080100
:102B000001602068016821F001010160206800680F
:102B100010F0010F12D000F08DFB401B052808D9E2
:102B200020216165032084F8346084F83500BDE815
:102B3000F0812068006810F0010FECD194F85C106F
:102B40003F22012002FA01F1B96084F8346084F870
:102B500035000020BDE8F08190F83510022903D03F
:102B60008021416501207047052180F835100068FB
:102B7000016821F001010160002070472DE9F84350
:102B800004464FF00009734A0821CDF800904FF435
:102B90001650A56D94F85C3012682E68B2FBF0F800
:102BA00001FA03F3334211D02068026812F0040FD7
:102BB0000CD0026822F00402026094F85C0001FA72
:102BC00000F0A860606D40F00100606594F85C0062
:102BD000012707FA00F0304209D02168496911F055
:102BE000800F04D0A860606D40F00200606594F82A
:102BF0005C1004208840304209D02168096811F037
:102C0000020F04D0A860606D40F00400606594F885
:102C10005C1010208840304220D02168096811F0F3
:102C2000080F1BD0A8602068016811F4802F09D01C
:102C3000006810F4002F02D0A16C79B10CE0216C77
:102C400051B90BE0016811F4807F03D1016821F0D4
:102C500008010160216C09B12046884794F85C1096
:102C60002020884030424AD02168096811F0100FB6
:102C700045D0A86094F8350005282068016809D07F
:102C800011F4802F2BD0006810F4002F24D0E16BBA
:102C900021B332E021F0160101602068416921F082
:102CA00080014161206C002804BFA06C002804D082
:102CB0002068016821F00801016094F85C004FF081
:102CC0003F0101FA00F0A86084F8349084F8357070
:102CD000216DD1BBBDE8F883616C71B90FE001686B
:102CE00011F4807F07D1016821F01001016084F8A0
:102CF000349084F83570E16B09B120468847606DE7
:102D0000002808BFBDE8F883606D10F0010F17D0F0
:102D10004FF0050084F835002068016821F00101BA
:102D20000160009800F101000090404504D820683F
:102D3000006810F0010FF4D184F8349084F83570F5
:102D4000E16C002908BFBDE8F883204601B0BDE86A
:102D5000F04308475C0B00202DE9F047044600F0E3
:102D600069FA002C054604BF0120BDE8F087002663
:102D7000022084F8346084F835002068016821F06E
:102D8000010101602068006810F0010F11D000BF40
:102D900000F050FA401B052806D920216165032068
:102DA00084F83500BDE8F0872068006810F0010F56
:102DB000EED1D4E9023CD4E90010D4E904721843FE
:102DC0004CEA0708D4E90653D4E908C740EA0809E1
:102DD000086849EA0202DFF8E8802A4342EA03026F
:102DE00000EA080042EA0C02042F42EA000003D184
:102DF000D4E90B231A4310430860D4F800C0012320
:102E0000606ADCF81410042821F0070140EA01028E
:102E100038D1D4E90A100A4318B3A56955B1B5F5FC
:102E2000005F14D000291CBF0129022921D00329E9
:102E30001CD027E019B1012905D0022922D110F0B8
:102E4000807F1FD015E0B0F1C07F1BD111E081B1B0
:102E5000012907D002290CD0032908BFB0F1C07F97
:102E600007D00FE010F0807F03D10BE010F0807FDF
:102E700008D04FF04000606584F835304FF0010015
:102E8000BDE8F087CCF8142020680E49C2B2A2F148
:102E900010026FF30900A1FB02210B4A4FEA111146
:102EA0000329525CE26588BF001D3F21A065914067
:102EB0008160666584F835300020BDE8F087000049
:102EC0003F8010E0ABAAAAAAA4ED2000F0B490F8CD
:102ED00034404FF0000C012C846D02BF0220F0BC86
:102EE000704790F83570012680F834600025012F76
:102EF0001CBF4FF0020C80F8345002D0F0BC60468A
:102F00007047022680F83560456505682E6826F40E
:102F100080262E6005686B608368402B036803BFC2
:102F20009A600268D16099601CBF0168CA6090F81D
:102F30005C103F2202FA01F1A16001680A6842F0C8
:102F400016020A6001684A6942F080024A61016C17
:102F500021B101680A6842F008020A60006801684D
:102F600041F001010160C9E770B5044600F062F963
:102F7000B4F1FF3F054602D004480078044400F055
:102F800059F9401BA042FAD370BD0000500B00203D
:102F900010B5FEF75FFCBDE81040FEF7EDBB00008A
:102FA00004490A68024208BF704710B50860FFF77D
:102FB000EFFF10BD143C01402DE9F84F8F4E002269
:102FC00001274FF003094FF00F0800BF0B6807FA05
:102FD00002FC03EA0C03634540F00A814C68022CB2
:102FE00018BF122C13D14FEAD204D1F810B04FEA17
:102FF000427A00EB8404256A4FEADA6A08FA0AFE8C
:103000000BFA0AFA25EA0E054AEA0505256291F847
:1030100004B04FEA4204D0F800A00BF0030B09FA09
:1030200004F50BFA04FB2AEA050A4BEA0A0AC0F87F
:1030300000A0D1F804A0BAF1010F18BFBAF1020F35
:1030400005D0BAF1110F18BFBAF1120F19D1D0F88B
:1030500008A0D1F80CB02AEA050A0BFA04FB4BEAE7
:103060000A0AC0F808A0D0F804A091F804B02AEA2F
:103070000C0CCBF3001B0BFA02FA4AEA0C0CC0F85A
:1030800004C0D0F80CC0D1F808A02CEA050C0AFA4C
:1030900004F444EA0C0CC0F80CC0D1F804C01CF0D5
:1030A000805F7DD0356822F0030C4FEA827445F4CE
:1030B000804535604FEA147435680CF1804C0CF58E
:1030C000983C05F48045009508FA04FADCF80858A5
:1030D000A0F1804BBBF5003B25EA0A0508BF4FF085
:1030E000000A48D0A0F1804ABAF5013A08BF4FF073
:1030F000010A40D0A0F1804ABAF5023A08BF4FF069
:10310000020A38D0A0F1804ABAF5033A08BF4FF05E
:10311000030A30D0A0F1804ABAF5043A08BF4FF054
:10312000040A28D0A0F1804ABAF5053A08BF4FF04A
:10313000050A20D0A0F1804ABAF5063A08BF4FF040
:10314000060A18D0A0F1804ABAF5073A08BF4FF036
:10315000070A10D0A0F1804ABAF5083A08BF4FF02C
:10316000080A08D0A0F1804ABAF5093A0CBF4FF01E
:10317000090A4FF00A0A0AFA04FA214C4AEA05053C
:10318000CCF808584D68D4F800C015F4803F2CEAFC
:10319000030C18BF4CEA030C1A4DC4F800C000E041
:1031A00026E04C68D5F800C014F4003F2CEA030C6C
:1031B00018BF4CEA030CDFF850A0C5F800C04C68FB
:1031C000DAF800C014F4801F2CEA030C18BF4CEA94
:1031D000030C0E4CCAF800C04D68D4F800C015F4BA
:1031E000001F2CEA030C18BF4CEA030CC4F800C003
:1031F000521C102AFFF4EAAEBDE8F88F44380240B2
:10320000003C0140043C0140083C01400C3C0140B2
:103210000069084018BF01207047426931EA020284
:1032200008BF090481617047002A08BF0904816151
:10323000704700000148806870470000500B002074
:10324000D0F8C00205F0FAB9D0F8C00205F014BAFF
:10325000006806F031BF006806F032BF01EB810163
:1032600000EBC10090F85C00704701EB810100EBBE
:10327000C100C06C704710B5044690F8B802012830
:1032800004BF022010BD012084F8B802206806F0B7
:1032900023FF002084F8B80210BD2DE9F04784B068
:1032A000044694F8B8C2DDE90D600C9FBCF1010F33
:1032B00002BF022004B0BDE8F0874FF0010801EB27
:1032C000810C002504EBCC0C84F8B88212F0800F3E
:1032D00002F07F098CF83D508CF83830ACF8400093
:1032E0008CF839108CF83F608CF83A9014BF8CF849
:1032F0003B808CF83B508CF83C700097CDE9016026
:10330000206806F04BFF84F8B85204B0BDE8F0879F
:10331000D0F8C00205F046BA2DE9F00301EB810CAC
:103320004FF0020500EBCC0C069FDDE90786002F6D
:103330008CF83B208CF83F3006BF03248CF84240C9
:103340008CF842504FF0000433B1012B37D0022BE0
:1033500010D0032B17D020E0012F08BF002A1CD16A
:10336000002E04BF01228CF8512014D09CF851206B
:103370002AB310E01AB19CF8502002B30BE09CF87D
:10338000512042B91BE01AB19CF85020BAB102E0BA
:103390009CF851209AB18CF84250CCE911868CF8F7
:1033A0005C40CCF84C408CF839100CF138018CF8AA
:1033B0005D40027C0068BDE8F00306F077BF8CF842
:1033C0004240EAE72DE9F04F0446006883B08046AA
:1033D00006F07EFE01281CBF03B0BDE8F08F206818
:1033E00007F064F9002804BF03B0BDE8F08F20683F
:1033F00007F05CF910F4001F03D020684FF40011AF
:103400004161206807F052F910F4801F03D0206852
:103410004FF480114161206807F048F910F0806F87
:1034200003D020684FF080614161206807F03EF9C9
:1034300010F0020F4FF002051CBF206845612068A4
:1034400007F034F910F0005F10D0D8F8400420F0F5
:103450002E00C8F840042046FFF7F6FE2068012140
:1034600007F096F820684FF000514161206807F09E
:103470001DF910F0807F5CD02668D6F840040190DA
:10348000D6F8400420F02E000090019810F0020FB2
:103490000ED0019810F0010F06D0B06920F0005155
:1034A000B1612046FFF7CCFE009840F0020000908A
:1034B000019810F0080F32D0009840F008000090FA
:1034C000019810F0040F1CD0A06902280DD0E0680C
:1034D000032804BF4EF66020C6F80404204600F01E
:1034E0009BFB2046FFF7ACFE19E0019800F4C020DA
:1034F000B0F5802F206814BF0121022107F048F8A1
:10350000ECE7204600F084FBD6F8400420F02E00C3
:10351000C6F840042068816941F00051816101983A
:1035200010F0200F00981CBF40F020000090C6F85B
:103530004004206807F0BAF810F0080F4FF00806B2
:1035400004D0204600F06FFB20684661206807F039
:10355000ADF810F0007F00F07782206806F0A2FE40
:103560008146A0680027002884BF01264FF0040B85
:1035700040F2668207F00F0006FA00F010EA090F29
:1035800000F0588208EB4710D0F8000507F0FF0A5A
:1035900010F4004F206800EB4A15D5F8080500F03C
:1035A000040000F0308140B1C5F808B5D5F80C052D
:1035B00040F00200C5F80C0541E0D5F8080510F010
:1035C000200F1CBF2020C5F8080538D1D5F8080504
:1035D00010F0080F17D0D5F80C250AEB8A03052048
:1035E00004EBC30C102142F00203C5F80C3508228D
:1035F0008CF85D00C5F80815C5F808255146206807
:1036000006F06AFD1BE0D5F8080510F4806F16D0AF
:10361000D5F80C0540F00200C5F80C0520685146AD
:1036200006F05AFD1020C5F808050AEB8A030821A8
:10363000820104EBC30383F85D10C5F80825D5F8B3
:10364000080510F4007F0CD0D5F80C0540F00200FE
:10365000C5F80C052068514606F03EFD4FF4007099
:10366000CEE0D5F8080510F0010F46D0206950B122
:10367000D5F810150AEB8A0204EBC200C1F312015F
:10368000826C511AC1640AEB8A01324604EBC10014
:103690000090002180F85D608165C5F8086590F8AC
:1036A0003F00002818BF022802D003280ED01AE0DD
:1036B000D5F80C0540F00200C5F80C05206851460D
:1036C00006F00AFD1020C5F808050CE0D5F8000545
:1036D00040F00050C5F800050098514680F85C2085
:1036E0002046FFF715FE0098009990F8500080F0F2
:1036F000010081F8500000F09DB9D5F8080510F0E0
:10370000020F2FD0D5F80C050AEB8A0220F0020137
:10371000C5F80C1504EBC20090F85D10012908BF34
:1037200080F85C6000F07C81052900F0A781062903
:1037300018BF082904D0032900F0AC8100F070B94B
:10374000816D491C8165032900F29F8100F0A2B9B7
:10375000D5F8001521F0804141F00041C5F8001571
:1037600000F05EB9D5F8080510F0800F15D0D5F837
:103770000C250AEB8A03062104EBC30042F0020287
:10378000C5F80C25826D521C826580F85D1051468B
:10379000206806F0A1FC802032E0D5F8080510F082
:1037A000100F00F047810AEB8A0104EBC10090F88A
:1037B0003F10032904D0002918BF02290ED01EE0B3
:1037C0004FF000018165D5F80C0540F00200C5F806
:1037D0000C052068514606F07FFC10E00021816551
:1037E000216961B9032180F85D10D5F80C0540F01E
:1037F0000200C5F80C052068514606F06DFC10204B
:10380000C5F8080516E140B1C5F808B5D5F80C05AE
:1038100040F00200C5F80C050CE1D5F8080510F0E1
:10382000200F1CD00AEB8A024FF02001C5F80815C2
:1038300004EBC20090F83D1001294CD1002180F822
:103840003D10022280F85C20D5F80C0540F0020003
:10385000C5F80C052068514606F03EFCEAE0D5F8B4
:10386000080510F0400F15D00AEB8A0104EBC100E7
:10387000002180F85DB080F83D608165D5F80C05C9
:1038800040F00200C5F80C052068514606F024FC03
:103890004020B5E7D5F8080510F4007F7FF4D4AEDA
:1038A000D5F8080510F0010F16D00AEB8A020021A6
:1038B00004EBC20000908165D5F80C0540F00200D1
:1038C000C5F80C052068514606F006FCC5F80865E9
:1038D000009880F85D60ADE0D5F8080510F0080F9D
:1038E00014D00820C5F80805D5F80C0540F00200F2
:1038F000C5F80C052068514606F0EEFB0AEB8A027B
:10390000052004EBC20181F85D0093E0D5F80805BD
:1039100010F0100F1DD00AEB8A02002104EBC20048
:10392000032290F83D308165002B80F85D2002BFB6
:1039300090F83C10002980F83D60D5F80C0540F067
:103940000200C5F80C052068514606F0C5FB1020A2
:1039500056E7D5F8080510F0800F14D0D5F80C05FF
:1039600040F00200C5F80C052068514606F0B4FB93
:103970000AEB8A03062104EBC300802280F85D1065
:10398000C5F8082556E0D5F8080510F4806F17D063
:10399000D5F80C0540F00200C5F80C05206851462A
:1039A00006F09AFB1021C5F808150AEB8A03880176
:1039B000082204EBC303C5F8080583F85D2039E04D
:1039C000D5F8080510F0020F34D0D5F80C050AEB35
:1039D0008A0220F00201C5F80C1504EBC20090F831
:1039E0005D1001290BD0032914BF0429022115D031
:1039F000052943D0062918BF082941D010E090F8C6
:103A00003F1080F85C60022918BF032908D190F8A4
:103A1000511081F0010180F8511001E080F85C1034
:103A20004FF00201C5F80815514690F85C20204679
:103A3000FFF76EFCA0687F1CB8423FF69BAD00BF4D
:103A400021684FF000704861206806F02FFE10F0EA
:103A5000100F04BF03B0BDE8F08F2068816921F02A
:103A60001001816127683846396A01F00F08C1F3F7
:103A70004342022AC1F30A1510D034E00521CDE7F4
:103A8000816D491C8165032904D90021816580F875
:103A90005CB05DE6022180F85C1059E61DB308EBCE
:103AA000880204EBC206716CE9B12A4606F002FEF8
:103AB000716C07EB4810104A29447164F16C294479
:103AC000F164D0F8101511420DD0D0F8001521F096
:103AD000804141F00041C0F8001596F8500080F098
:103AE000010086F850002068816941F01001816171
:103AF00003B0BDE8F08F00000000F81F002804BFED
:103B0000012070472DE9F041044690F8B9028AB0CF
:103B100028B9002084F8B802204600F02DF80320D0
:103B200084F8B902206806F06DFA04F11000251D32
:103B300090E8CF118DE8CF11D4E90C01CDE908014F
:103B400094E80F0006F0F6F92068012106F026FE41
:103B50000C3595E8CF118DE8CF11D5E90801CDE9F5
:103B6000080194E80F0006F085FC012084F8B902F2
:103B70000AB00020BDE8F08110B586B000210091A8
:103B800001910291039104910068A0F18042B2F585
:103B900080221CBF06B010BD1B4C206840F0020004
:103BA0002060206802210C2300F0020005904FF4F1
:103BB0004040CDE9000103221448CDE903236946C2
:103BC000FFF7FAF9206840F00050206020680022DA
:103BD000062100F0005005904A2000F029FA4A2002
:103BE00000F016FA002206214B2000F021FA4B20AB
:103BF00000F00EFA002206214D2000F019FA4D20A7
:103C000000F006FA06B010BD303802400004024051
:103C1000D0F8C00204F0EFBDD0F8C00204F0EFBD50
:103C2000006806F067BDD0F8C00204F07DBD10B595
:103C3000044690F8B802012804BF022010BD0120FC
:103C400084F8B802206806F0FEF92068012106F029
:103C5000DFF9002084F8B80210BD10B5044690F8D2
:103C6000B802012804BF022010BD012084F8B80268
:103C7000206806F0ABFD002084F8B80210BD4DF8B6
:103C8000044D90F84120202A27D190F84020012AA5
:103C900023D0012380F8403024224FF0000C202351
:103CA00080F841200268146824F00104146002685E
:103CB000146824F48054146002681468214311606D
:103CC00001680A6842F001020A6080F8413080F819
:103CD00040C000205DF8044B70475DF8044B0220A3
:103CE00070474DF8044D90F84120202A25D190F8D6
:103CF0004020012A21D0012380F8403024224FF0B7
:103D0000200C002480F841200268136823F001038E
:103D100013600268136823F4706343EA01211160A1
:103D200001680A6842F001020A6080F841C080F828
:103D3000404000205DF8044B70475DF8044B0220C2
:103D400070477047704730B403689A69196812F475
:103D5000807F18BF11F0800F07D0446C4FF4807C37
:103D600044F001044464C3F81CC012F4806F18BF0F
:103D700011F0800F0BD0D0F844C04FF480634CF0AA
:103D8000080CC0F844C0D0F800C0CCF81C3012F4C5
:103D9000007F18BF11F0800F07D0426C4FF4007104
:103DA00042F0020242640268D161416C11F00B0FD3
:103DB00004BF30BC704730BC02F0BEB80268436B31
:103DC00091691268002B08BF704718477047002898
:103DD00004BF0120704770B5044690F841000025EB
:103DE00020B9204684F8405000F04CF8242084F894
:103DF00041002068016821F001010160D4E9001050
:103E000020F0706008612068816821F400418160C1
:103E1000E06821680128A0680CBF40F4004040F42D
:103E200004408860E068022802D12168800248606E
:103E300020212068426842F4004242F00072426051
:103E40002068C26822F40042C260D4F800C0D4E9FD
:103E50000402A369104340EA0320CCF80C00236855
:103E6000D4E90702104318602068026842F001029A
:103E70000260656484F84110256384F84250002094
:103E800070BD70474DF804ED87B00022009201929A
:103E90000292039204920068A0F18041B1F5C04102
:103EA0001CBF07B05DF804FB1848016841F0080129
:103EB00001600068122101224FF0040C00F008009C
:103EC000059003234FF440508DE80F1010486946C9
:103ED000FFF772F80F48016841F0807101600068D7
:103EE00000220A2100F0807005905F2000F0A0F809
:103EF0005F2000F08DF800220A21602000F098F881
:103F0000602000F085F807B05DF804FB303802400F
:103F1000000C0240403802407047704702488168F8
:103F20000278114481607047500B0020094810B599
:103F3000016841F400710160016841F48071016021
:103F4000032000F0A5F8002000F006F800F042F889
:103F5000002010BD003C02404DF804ED0022014657
:103F6000192087B000F064F8192000F051F81548C6
:103F7000016841F001010160006805A900F001003D
:103F80000690684600F0A8FC00F0DAFC0E4A4000FB
:103F90000021DFF838C0B0FBF2F20D4840F2E73301
:103FA000C0F800C0C0E90331521EC0E9012101F090
:103FB00022FA00280ABF0648012001F083FA07B060
:103FC0005DF804FB4438024040420F00000001400D
:103FD000382600200C4882B0016841F08051016011
:103FE000006800F0805000900848016841F480416A
:103FF0000160006800220F2100F480400090901EB4
:1040000002B000F015B800004038024044380240C9
:104010000028B8BF7047410900F01F008A00012145
:1040200002F1E02201FA00F0C2F80001704700003E
:10403000164B30B41B68C3F30223C3F1070CBCF169
:10404000040F88BF4FF0040C1C1D072C34BF002345
:10405000DB1E012404FA0CFC04FA03F5ACF10104A4
:104060002140A5F1010C99400CEA020211430028FD
:104070004FEA0111B8BF00F00F0000F1E020ACBF23
:1040800080F8001480F8141D30BC70470CED00E07F
:10409000074900F007004FF6FF030A681A4042EA9A
:1040A000002040F0FD7040F0806008607047000024
:1040B0000CED00E01C4838B5016841F0805101600A
:1040C00000681A4D00F080500090286840F480305D
:1040D0002860FFF7AFF80446686810F4803F09D104
:1040E000FFF7A8F8001BB0F57A7F15D8686810F4C0
:1040F000803FF5D0286840F400302860FFF79AF838
:104100000446686810F4003F0CD100BFFFF792F836
:10411000001BB0F57A7F01D9032038BD686810F420
:10412000003FF3D0002038BD40380240007000400E
:104130002DE9F84F04460078DFF824A44FF000077B
:1041400010F0010F3E460FD0DAF8000020F4000016
:10415000CAF80000DAF80000616B0843CAF80000F2
:10416000606B002808BF0127FE4D206810F4002F67
:104170000ED0E06B296821F4401108432860E06B01
:10418000B0F5801F08BF012702D0002808BF012614
:10419000206810F4801F0ED0206C296821F44001A3
:1041A00008432860206CB0F5800F08BF012702D0BB
:1041B000002808BF0126206810F0807F18BF012763
:1041C00010F0200F74D0E848016841F08051016080
:1041D0000068DFF8989300F080500090D9F8000054
:1041E00040F48070C9F80000FFF724F88046D9F841
:1041F000000010F4807F0BD1FFF71CF8A0EB080043
:10420000642800F27882D9F8000010F4807FF3D09F
:10421000DFF85C93D9F8000010F4407032D0218EA2
:1042200001F4407181422DD0D9F80000D9F8001076
:1042300020F4407041F48031C9F80010D9F8001022
:1042400021F48031C9F80010C9F80000D9F8000045
:1042500010F0010F16D0FEF7EDFF8046D9F80000F0
:1042600010F0020F08BF41F2883B0BD1FEF7E2FFCE
:10427000A0EB0800584500F23E82D9F8000010F08B
:10428000020FF3D0206B4FF4407181431CBFDAF86A
:10429000000020F4F81000F0ED8000BFCAF8000024
:1042A000208ED9F80010C0F30B000843C9F80000B5
:1042B000207810F0100F07D0286820F08070286058
:1042C0002868A16B084328602188AA4811F4804F10
:1042D00005D0616E026822F44032114301602188EA
:1042E00011F4004F05D0A16E026822F44022114360
:1042F0000160216811F4803F05D0E16E026822F46C
:10430000401211430160216811F4003F05D0216F74
:10431000026822F4400211430160217811F0400F3D
:1043200005D0616C026822F003021143016021781C
:1043300011F0800F05D0A16C026822F00C0211432D
:104340000160218811F4807F05D0E16C026822F0C1
:10435000300211430160218811F4007F05D0216DE6
:10436000026822F0C00211430160218811F4806FBD
:1043700005D0616D026822F440721143016021880A
:1043800011F4006F05D0A16D026822F44062114360
:104390000160218811F4805F05D0E16D026822F48C
:1043A000405211430160218811F4005F05D0216E55
:1043B000026822F4404211430160216811F4800F29
:1043C00005D0A16F026822F080621143016021686C
:1043D00011F4001F0AD0E16F026822F0006211435D
:1043E0000160E16FB1F1006F08BF0126216811F093
:1043F000080F18BF012611F4802F05D0616F0268E5
:1044000022F0407211430160216811F4000F06D0C0
:10441000D4F88010026822F08052114301602168B4
:1044200011F0806F06D0D4F88410026822F0005298
:1044300011430160206810F0006F06D0D4F88800A6
:10444000296821F0007108432860206810F0805F1F
:1044500006D0D4F88C00296821F0806108432860D8
:10446000DFF81481012F1CBF2068B0F1007F0CD051
:10447000B4E000BF20F44071DAF8000021F0704190
:1044800020F4F81040EA010008E7D8F8000020F016
:104490008060C8F80000FEF7CDFE0746D8F800009F
:1044A00010F0006F0AD000BFFEF7C4FEC01B6428E6
:1044B00055D8D8F8000010F0006FF5D121782F48BA
:1044C00011F0010F12D0616B81B9227A6368016823
:1044D000D0F800C09B01C1F3014143EA0143CCF392
:1044E000036143EA016141EA02710160216811F44C
:1044F000002F03D0E26BB2F5801F06D011F4801FAD
:104500001CD0216CB1F5800F18D1D4F804C001681B
:10451000227B03684FEA8C1CC1F301414CEA014C39
:10452000C3F302714CEA026242EA01710160296838
:10453000626A21F01F01521E11432960216811F0A7
:10454000807F22D0218A636802684FEA831C036857
:104550004CEA014CC2F303614CEA016210E0B6E0A0
:10456000083802408C380240403802400070004059
:1045700070380240903802400038024084380240CF
:10458000C3F3027142EA01710160216811F0007FFA
:104590000CD06368228A94F80CC0217A9B0143EA0C
:1045A000024242EA0C6242EA01710160D8F800005E
:1045B00040F08060C8F80000FEF73CFE0746D8F8DF
:1045C000000010F0006F09D1FEF734FEC01B642814
:1045D0007DD8D8F8000010F0006FF5D0EEB3D8F811
:1045E000000020F08050C8F80000FEF723FE0646C9
:1045F000D8F8000010F0005F0AD000BFFEF71AFEE6
:10460000801B642877D8D8F8000010F0005FF5D13F
:1046100021683E4811F4002F01D0E26B22B111F461
:10462000801F1FD0216CE9B9D4F814C00168227E24
:1046300003684FEA8C1CC1F301414CEA014CC3F3FF
:1046400002714CEA026242EA0171016029686FF06E
:10465000FF03A26A21F4F85100E054E003EB0222C8
:1046600011432960216811F4001F14D0E16FB1F1EA
:10467000006F10D1238C626901684FEA821C0268C6
:10468000C1F303614CEA034343EA0163C2F30271DD
:1046900043EA01710160217811F0080F16D06169B9
:1046A000026806684FEA811C237FC2F30362C6F3E7
:1046B00001414CEA014141EA026141EA03710160B2
:1046C0002868E16A20F440300843286000E012E0E6
:1046D000D8F8000040F08050C8F80000FEF7AAFDAE
:1046E0000446D8F8000010F0005F0CD1FEF7A2FDE0
:1046F000001B642802D90320BDE8F88FD8F8000019
:1047000010F0005FF2D00020BDE8F88F883802403A
:10471000002804BF012070472DE9F047DFF89C8195
:1047200004460E46D8F8000000F00F00B0420CD24C
:10473000D8F8000020F00F003043C8F80000D8F887
:10474000000000F00F00B04265D120685C4D10F011
:10475000020F14D010F0040F03D0286840F4E0508A
:104760002860207810F0080F03D0286840F46040DB
:104770002860A068296821F0F001084328602078AB
:1047800010F0010F34D060684E49012820D009682C
:10479000022822D011F0020F3DD0296821F0030138
:1047A00008432860FEF746FD29680746606801F067
:1047B0000C01B1EB800F18BF41F2883918D000BF4F
:1047C000FEF738FDC01B48450BD90320BDE8F08734
:1047D000096811F4003FE0D11DE011F0007FDCD149
:1047E00019E06168286800F00C00B0EB810FE7D198
:1047F000D8F8000000F00F00B0420FD9D8F8000040
:1048000020F00F003043C8F80000D8F8000000F096
:104810000F00B04202D00120BDE8F087207810F0F0
:10482000040F05D0E068296821F4E05108432860AE
:10483000207810F0080F06D02069296821F4604123
:1048400041EAC00028602048296811F00C0226D0F7
:104850004110042A08BF084621D0082A1FD11B4C4A
:104860002268236802F03F0213F4800F08D020680A
:104870000023C0F38810A0FB0101FBF73BFD07E01C
:1048800021680023C1F38811A1FB0001FBF732FD71
:104890002168C1F30141491C4900B0FBF1F02968CE
:1048A0000B4AC1F30311515CC8400A49086000205B
:1048B000FFF752FB0020BDE8F0870000003C0240FB
:1048C00008380240003802400024F4000438024056
:1048D000ACED20005C0B00200F4A0F234DF8044D77
:1048E00003604FF4E05C0D4B146804F00304446073
:1048F000146804F0F0048460146804F4E054C460A4
:1049000012680CEAD2020261186800F00F00086019
:104910005DF8044B7047000008380240003C02403C
:104920000449054809680068044AC1F38221515CC2
:10493000C8407047083802405C0B0020BCED2000E6
:104940000449054809680068044AC1F34231515CD2
:10495000C8407047083802405C0B0020BCED2000C6
:1049600018491948096811F00C0208BF7047174927
:10497000042A04BF08467047082A18BF704710B5BC
:10498000134C2268236802F03F0213F4800F08D012
:1049900020680023C0F38810A0FB0101FBF7AAFCEC
:1049A00007E021680023C1F38811A1FB0001FBF798
:1049B000A1FC2168C1F30141491C4900B0FBF1F0A1
:1049C00010BD0000083802400024F40000127A00F4
:1049D000043802402DE9F84F04004FF0000B00F0BE
:1049E000C8812078DFF89093E44D10F0010F5DD07E
:1049F000D9F8000000F00C0004280BD0D9F8000012
:104A000000F00C0008280ED105F10400006810F435
:104A1000800F08D0286810F4003F47D06068002855
:104A200000F0A78142E06068B0F5803F04BF2868CD
:104A300040F480300AD010B1B0F5A02F11D0286812
:104A400020F480302860286820F480202860606886
:104A5000D0B1FEF7EFFB0646286810F4003F08D0FF
:104A600024E0286840F480202860286840F48030E2
:104A7000ECE7FEF7DFFB801B642800F23281286838
:104A800010F4003FF5D011E0FEF7D4FB064628688D
:104A900010F4003F0AD000BFFEF7CCFB801B642857
:104AA00000F21F81286810F4003FF5D1207810F043
:104AB000020F4CD0D9F8000010F00C0F19D0D9F823
:104AC000000000F00C00082804D1AD48006810F484
:104AD000800F0ED0E0680028286824D040F0010044
:104AE0002860FEF7A7FB0646286810F0020F09D0E1
:104AF00011E0286810F0020F1CBFE06801280AD0FE
:104B000000F037B9FEF796FB801B02287ED8286894
:104B100010F0020FF6D02069296821F0F80141EA6F
:104B2000C000286013E020F001002860FEF782FB3F
:104B30000646286810F0020F09D000BFFEF77AFB86
:104B4000801B022862D8286810F0020FF6D1207866
:104B500010F0080F2BD08B4F60690028386813D0F5
:104B600040F001003860FEF765FB0646386810F03B
:104B7000020F1CD1FEF75EFB801B022846D8386866
:104B800010F0020FF6D012E020F001003860FEF7BE
:104B900051FB0646386810F0020F08D0FEF74AFBBA
:104BA000801B022832D8386810F0020FF6D1207826
:104BB00010F0040F7AD0DFF8D081D8F8000010F0A0
:104BC000805F0CD1D8F8000040F08050C8F8000099
:104BD000D8F800004FF0010B00F0805000906B4FB0
:104BE000386810F4807F16D1386840F480703860DF
:104BF000FEF720FB0646386810F4807F0BD100BF1B
:104C0000FEF718FB801B64286BD800E069E0386869
:104C100010F4807FF4D0A0685D4E012804BF306896
:104C200040F0010009D008B1052813D0306820F009
:104C300001003060306820F004003060A06841F26C
:104C4000883AC8B1FEF7F6FA0746306810F0020F4E
:104C500008D022E0306840F004003060306840F056
:104C60000100EAE7FEF7E6FAC01B504539D8306884
:104C700010F0020FF6D010E0FEF7DCFA07463068BD
:104C800010F0020F09D000BFFEF7D4FAC01B504548
:104C900027D8306810F0020FF6D1BBF1000F05D015
:104CA000D8F8000020F08050C8F80000A069E8B3F0
:104CB000D9F8001001F00C0108295AD00228286800
:104CC00020F0807028600FD0FEF7B4FA0446286800
:104CD00010F0007F4AD000BFFEF7ACFA001B02289C
:104CE00040D90320BDE8F88FFEF7A4FA06462868ED
:104CF00010F0007F09D000BFFEF79CFA801B02284D
:104D0000EFD8286810F0007FF6D1D4E909C3D4E9C0
:104D10000701204A5E0894F82C30084394F830408C
:104D200002EB064242EA8C11014300E01EE0144807
:104D300041EA036141EA04710160286840F0807033
:104D40002860FEF777FA0446286810F0007F0DD13E
:104D5000FEF770FA001B0228C3D8286810F0007F05
:104D6000F6D003E0286810F0007FB5D10020BDE840
:104D7000F88F0120BDE8F88F083802400038024063
:104D8000043802407438024040380240007000404D
:104D9000703802400000FFFF002804BF0120704768
:104DA00070B5417F0446002019B92077204600F0F5
:104DB00059F802216177CA20226853215062206885
:104DC0004162FF262068C16811F0400F1AD14FF0F0
:104DD000FF31C160FEF72EFA05462068C06810F06A
:104DE000400F0FD1FEF726FA401BB0F57A7F2068FE
:104DF00004D9042146626177012070BDC06810F0BB
:104E0000400FEFD020680121826822F0400222F496
:104E1000E0028260D4E90002D4E9043C856843EAF8
:104E20000C032A431A4382602268E06810612068FC
:104E30002289036943EA024202612068C26822F0C3
:104E40008002C2602068C26C22F00802C26420683E
:104E5000A269C36C1A43C26420684662617700206D
:104E600070BD00000068A0F18041B1F5205118BF6D
:104E700070470348016841F4004101607047000039
:104E8000703802402DE9F0470446007F0D460128A6
:104E900004BF0220BDE8F0874FF00109022084F82A
:104EA0001C9060776878D2B1EA7800022B78A978F4
:104EB00041EA024140EA433041EA00072268CA2140
:104EC0005320516221684862002620684FF0FF0895
:104ED0004FF0040AC16811F0400F2ED117E010F016
:104EE000100F03D000F0EF000A306870E87802F08D
:104EF0000DF80604687802F009F846EA0026A8785A
:104F000002F004F82978304340EA4137D6E74FF001
:104F1000FF31C160FEF78EF905462068C06810F0C9
:104F2000400F0AD1FEF786F9401BB0F57A7F25D8ED
:104F30002068C06810F0400FF4D0206827F0C0014E
:104F400041602068C16821F08001C16020688168EB
:104F500011F0200F20D1C16821F0A001C160FEF73F
:104F600069F905462068C06810F0200F14D100BF11
:104F7000FEF760F9401BB0F57A7F08D92068C0F8C9
:104F8000248084F81DA001202677BDE8F0872068E2
:104F9000C06810F0200FEBD02068C0F8248084F89F
:104FA0001D9000202677BDE8F08700002DE9F05F16
:104FB0000446007F0D46012804BF0220BDE8F09F93
:104FC0004FF0010A022084F81CA060774FF0000621
:104FD0002068806800F0400072B1002808BF2E737E
:104FE00068782A782B7BA978000241EA024140EADE
:104FF000034041EA000812E0002808BF2E73287819
:1050000001F084FF0704687801F080FF47EA002779
:10501000A87801F07BFF297B384340EA01482268E9
:10502000CA2153205162216848624FF0FF0920686D
:105030004FF0040BC16811F0400F16D14FF0FF3153
:10504000C160FEF7F7F807462068C06810F0400F0F
:105050000BD100BFFEF7EEF8C01BB0F57A7F31D858
:105060002068C06810F0400FF4D02168214808EA99
:10507000000008602068816821F480218160206838
:10508000D5E9041283681143194381602068C1681F
:1050900021F08001C1602068816811F0200F1FD1CC
:1050A000C16821F0A001C160FEF7C4F80546206880
:1050B000C06810F0200F13D1FEF7BCF8401BB0F50C
:1050C0007A7F08D92068C0F8249084F81DB00120A8
:1050D0002677BDE8F09F2068C06810F0200FEBD065
:1050E0002068C0F8249084F81DA000202677BDE831
:1050F000F09F00007F7F7F0010B5FBF70BFB10BD1A
:10510000704770B5B0F850100025044600680904D7
:1051100001F03AFF18B1A16B0843A06304E02068D6
:10512000002102F00BF80546C5F3432070BD0000D6
:1051300070B504460068012540F2FF56416B11F43A
:10514000807F54D0290281632068C16B21F49D7156
:10515000C163206B10F0080F206B23D010F0020FFA
:1051600004BF206B10F0200F09D0206801F01AFF57
:1051700028B1A16B0843A0632046FFF7C1FF206858
:10518000866384F83450206B10F0010F04BF206B4D
:1051900010F0020F204602D000F0F0F870BD00F0D1
:1051A000F1F870BD10F0800F08BF70BD206B10F0DB
:1051B000200F09D0206801F0F5FE28B1A16B08434B
:1051C000A0632046FFF79CFF206B10F0010F06BF85
:1051D000206B10F0020F70BD2068C16A21F0080139
:1051E000C16284F83450204600F0CCF870BD416BA9
:1051F00011F4804F10D04FF480418163266A00255E
:10520000206806EB850101F0A3FF6D1C082DF7D384
:10521000206A2030206270BD416B11F4004F10D025
:105220004FF400418163A66A0025206801F08DFFDC
:1052300046F825006D1C082DF7D3A06A2030A06227
:1052400070BD416B11F03A0F08BF70BD416B11F09A
:10525000020F03D0A16B41F00201A163416B11F079
:10526000080F03D0A16B41F00801A163416B11F05D
:10527000200F03D0A16B41F02001A163416B11F01D
:10528000100F03D0A16B41F01001A1638663206869
:10529000C16B21F49D71C163206B10F0800F5DD054
:1052A000206C002658B333490165206CFDF754FC8F
:1052B000002808BF70BD206C846B206C002818BFCC
:1052C0002664E06B002818BF70BD2046FFF719FF69
:1052D000A663062884F834501CBF052870BD2068DA
:1052E00001F060FEA16B0843A063A06B18B12046DB
:1052F000FFF702FF70BD2046FFF702FF70BDE06BB5
:1053000028B31D490165E06BFDF726FC002808BFA6
:1053100070BDE06B846BE06B002818BFE663206C07
:10532000002818BF70BD2046FFF7EBFEA6630628D5
:1053300084F834501CBF052870BD206801F032FE8F
:10534000A16B0843A063A06B0028D4D0CFE7A6636D
:1053500084F834502046FFF7CFFE70BD206B10F06C
:10536000080F08BF70BD84F834502046FFF7C8FE10
:1053700070BD0000A77120005B71200010B5FBF725
:10538000CBF910BD10B5FBF7D1F910BD70477047D0
:10539000704790F83C20012A04BF0220704770B487
:1053A0004FF0010C80F83CC0022280F83D200268DA
:1053B0005368A2F18044B4F5803494681CBFA2F114
:1053C0008045B5F5823503D14D6823F470032B4336
:1053D0000E6823F070038D683343536024F080011E
:1053E000002402682943916080F83DC080F83C4069
:1053F000204670BC7047002804BF0120704710B5DC
:10540000044690F83D0028B9002084F83C0020466E
:1054100000F00CF8022084F83D002068211D02F005
:10542000C1F9012084F83D00002010BD08B50168D5
:105430002348A1F18042B2F540621CD0A1F1804224
:10544000B2F5805229D0A1F18042B2F5A05218BF26
:1054500008BD016841F020010160006800220721B9
:1054600000F0200000903720FEF7E2FDBDE8084084
:105470003720FEF7CDBD016841F0080101600068EA
:105480000022072100F0080000903220FEF7D0FD36
:10549000BDE808403220FEF7BBBD016841F01001B5
:1054A000016000680022072100F010000090362003
:1054B000FEF7BEFDBDE808403620FEF7A9BD00009E
:1054C0004038024001680A4ACB6843F00103CB60D0
:1054D000016888681040062818BFB0F5803F03D0E7
:1054E000086840F0010008604FF0000070470000BD
:1054F0000700010090F83C20012A0DBF0220012383
:1055000080F83C30704770B4022280F83D20026879
:10551000D2F808C02CF0770C2CF4803C2CF47F4C93
:10552000C2F808C00A68502A41D00CDC202A78D082
:1055300004DC002A18BF102A55D191E0302A70D01F
:10554000402A70D096E0602A4ED0702A06D0B2F57C
:10555000805F48D0B2F5005F14D08BE00268D1F8CC
:1055600004C08C68C96895684CEA012141EA040CC2
:1055700025F47F414CEA0101916001688A6842F09C
:10558000770212E00268D1F804C08C68C968956897
:105590004CEA012141EA040C25F47F414CEA010167
:1055A000916001688A6842F480428A6062E0026821
:1055B000D1F804C0CC68116A156A25F0010616629C
:1055C00021F00A05916945EA0C0C21F0F00141EA4D
:1055D00004119161C2F820C001688A6822F070024B
:1055E00042F057028A6045E00268D1F804C0C968F9
:1055F000146A24F0100414629569146A25F4704545
:1056000024F0A00445EA0131916144EA0C1CC2F87F
:1056100020C001688A6822F0700242F067028A6046
:1056200028E01DE0FFE70268D1F804C0C968146AE9
:10563000156A24F00A0425F001051562956944EA0B
:105640000C0C25F0F00444EA01119161C2F820C06D
:1056500001688A6822F0700242F047028A6009E01D
:105660000168D1F808C02CF0700C4CEA020242F03C
:1056700007028A60002180F83D3080F83C1008461F
:1056800070BC7047704770B504460068002501691A
:1056900011F0020F1CBFC16811F0020F13D00121DD
:1056A0006FF00202026121772068806910F0030F19
:1056B000204602D0FFF7E6FF04E000F0A8F82046FD
:1056C00000F0A6F825772068016911F0040F1CBFCF
:1056D000C16811F0040F13D002216FF004020261BF
:1056E00021772068806910F4407F204602D0FFF7C0
:1056F000C9FF04E000F08BF8204600F089F8257718
:105700002068016911F0080F1CBFC16811F0080F73
:1057100013D004216FF00802026121772068C0696C
:1057200010F0030F204602D0FFF7ACFF04E000F0BA
:105730006EF8204600F06CF825772068016911F0BA
:10574000100F1CBFC16811F0100F13D008216FF0AB
:105750001002026121772068C06910F4407F204662
:1057600002D0FFF78FFF04E000F051F8204600F070
:105770004FF825772068016911F0010F1CBFC1683F
:1057800011F0010F05D06FF001010161204600F01A
:1057900040F82068016911F0800F1CBFC16811F04A
:1057A000800F05D06FF0800101612046FFF7EFFD0B
:1057B0002068016911F4807F1CBFC16811F0800F5F
:1057C00005D06FF4807101612046FFF7DFFD20688E
:1057D000016911F0400F1CBFC16811F0400F05D0E6
:1057E0006FF040010161204600F044F82068016933
:1057F00011F0200F1ABFC16811F0200F70BD6FF0BB
:10580000200101612046BDE87040FFF7C1BD70472F
:10581000704710B504460068A0F18041B1F58031B1
:1058200008BFFEF77BFB2068A0F18041B1F5406125
:1058300009D1FBF777F8FBF7EDFD01F07BFFFAF7F5
:1058400049FFFBF7C5FF2068A0F18041B1F5805109
:1058500003D1FBF7DBFC01F077FE2068A0F180416B
:10586000B1F5A05118BF10BD04F05CFFBDE81040B9
:1058700006F0D2BF704770472DE9F041026800255D
:1058800004462026D0691168936810F00F0F7AD073
:1058900003F0010C01F490775CEA070772D010F076
:1058A000010F18BF11F4807F05D001271762E26F46
:1058B00042F00102E26710F0020F18BF13F0010F6F
:1058C00006D0276802223A62E26F42F00402E267E1
:1058D00010F0040F18BF13F0010F06D02368042244
:1058E0001A62E26F42F00202E26710F0080F1CBF7A
:1058F00001F0200252EA0C0206D0236808221A6244
:10590000E26F42F00802E267E26F002A08BFBDE8DA
:10591000F08110F0200F18BF11F0200F04D0216E7D
:1059200000291CBF20468847E16F2068826812F07A
:10593000400F08BF11F0080F36D0016821F49071B4
:1059400001602068816821F001018160A6672566F9
:105950002068816811F0400F21D0816821F040015A
:105960008160E06ED8B124490165E06EFDF7F4F87E
:10597000002808BFBDE8F081E06E016DBDE8F04190
:10598000084700E016E010F0200F18BF11F0200FBC
:1059900010D0216E002908BFBDE8F08115E0204637
:1059A000FFF769FFBDE8F0812046FFF764FFE56778
:1059B000BDE8F08110F0800F18BF11F0800F08D003
:1059C000616E002908BFBDE8F0812046BDE8F041C6
:1059D000084710F0400F14BF11F0400FBDE8F081F0
:1059E0001168204621F0400111606667656600F08D
:1059F00045FABDE8F0810000937A2000002804BF3A
:105A00000120704710B50446406F28B9002084F883
:105A10007000204600F028F82420606720680168A4
:105A200021F001010160204602F0B2F8012808BF10
:105A300010BD606A00281CBF204601F09DFF206851
:105A4000416821F4904141602068816821F02A0179
:105A500081602068016841F0010101602046BDE8D5
:105A6000104001F0F6BF00002DE9F04786B0074670
:105A70000026524902244FF007080096032501969C
:105A80000296039604960068A0F18042B2F588322F
:105A90002DD0A0F18042B2F588421CBF06B0BDE80F
:105AA000F0874748026842F400320260006800F460
:105AB00000300590086840F00800086008686946F2
:105AC00000F0080005906020CDE900043D48CDE9D4
:105AD0000358FDF771FA002209212620FEF7A8FAE3
