:020000040020DA
:1000000070260120D1022000238120006170200091
:1000100021812000D9072000BDBB20000000000086
:100020000000000000000000000000000D022000A1
:100030003D1A20000000000069022000C185200058
:10004000EB022000EB022000EB022000EB0220007C
:10005000EB022000EB022000EB022000EB0220006C
:10006000EB022000EB022000EB022000EB0220005C
:10007000EB022000EB022000EB022000EB0220004C
:10008000E9192000EB0220004D05200001082000A6
:10009000DD072000E9072000F5072000851A200071
:1000A000EB022000418A2000EB022000EB0220003E
:1000B000EB022000EB022000EB022000EB0220000C
:1000C000EB022000EB022000EB022000EB022000FC
:1000D000EB0220008D91200099912000EB0220007E
:1000E0007D1A2000EB022000EB022000EB02200032
:1000F000EB022000EB022000EB022000EB022000CC
:10010000EB022000B98120004D8A2000EB02200084
:10011000EB022000EB022000598A2000658A2000B3
:10012000F5192000EB022000011A20000D1A200012
:10013000EB022000EB022000EB022000EB0220008B
:10014000EB022000EB022000EB022000EB0220007B
:10015000191A2000251A2000311A2000EB02200075
:10016000EB022000EB0220003181200025812000DD
:10017000EB0220003D812000EB0220000000000087
:10018000EB022000EB022000EB022000EB0220003B
:10019000EB022000EB022000EB022000EB0220002B
:1001A000EB022000EB022000EB022000EB0220001B
:1001B000EB022000EB022000EB0220007170200017
:1001C00065702000EB02200000000000EB02200020
:1001D000EB022000EB022000EB022000EB022000EB
:1001E000EB022000EB022000EB022000EB022000DB
:1001F000EB022000EB022000DFF80CD000F0F6F854
:100200000048004759E22000702601202D4B196854
:100210000868B0E8F04F80F30988BFF36F8F4FF0A4
:10022000000080F311887047000000000848006853
:10023000006880F308884FF0000080F3148862B6ED
:1002400061B6BFF34F8FBFF36F8F00DF00BF00BFFA
:1002500008ED00E0DFF80C00016841F47001016076
:10026000704700BF88ED00E0EFF30980BFF36F8FA8
:10027000144B1A681EF0100F08BF20ED108A20E9F9
:10028000F04F106009B44FF0500072B680F311883F
:10029000BFF34F8FBFF36F8F62B60FF003F84FF0CD
:1002A000000080F3118809BC19680868B0E8F04FB5
:1002B0001EF0100F08BFB0EC108A80F30988BFF35E
:1002C0006F8F7047DC0B0020EFF305807047000054
:1002D0000648804706480047FEE7FEE7FEE7FEE7E0
:1002E000FEE7FEE7FEE7FEE7FEE7FEE78D8720007C
:1002F000F90120002DE9F05F0546002092469B465B
:1003000088460646814640241BE02846414647462B
:10031000224600F05AF853465A46C01A914110D36B
:1003200011461846224600F041F82D1A67EB0108E5
:100330004F4622460120002100F038F817EB000953
:100340004E41201EA4F10104DFDC484631462A4616
:100350004346BDE8F09F40EA01039B0703D009E054
:1003600008C9121F08C0042AFAD203E011F8013BA1
:1003700000F8013B521EF9D27047D2B201E000F8FA
:10038000012B491EFBD270470022F6E710B5134639
:100390000A4604461946FFF7F0FF204610BD421CEE
:1003A00010F8011B0029FBD1801A7047202A04DBBA
:1003B000203A00FA02F1002070479140C2F1200378
:1003C00020FA03F3194390407047202A04DB203AB7
:1003D00021FA02F00021704721FA02F3D040C2F165
:1003E000200291400843194670470000064C074D13
:1003F00006E0E06840F0010394E8070098471034F5
:10040000AC42F6D3FFF7FCFE300B2100500B21006D
:1004100070B58C1810F8015B15F0070301D110F8C6
:10042000013B2A1106D110F8012B03E010F8016BF3
:1004300001F8016B5B1EF9D12B0705D40023521E76
:100440000DD401F8013BFAE710F8013BCB1A921CDE
:1004500003E013F8015B01F8015B521EF9D5A142DC
:10046000D8D3002070BD0000DFF840C000209FED11
:10047000100A0423ACF104020CF10801506081ED74
:10048000010A083142F8080F5B1E81ED000AF5D120
:100490000849CCF8000081ED000ACCF8040081ED99
:1004A000010ACCF8080081ED020A7047840C002094
:1004B00000000000B00C002010B50246806B016CFB
:1004C00011F0500F016C05D011F0100F28D002F080
:1004D0006EFB10BD41F40071016401688A6812F07E
:1004E000405F04BF8269002A17D1CA6A12F4700FF4
:1004F0001CBF8A6812F4806F0FD14A6822F0200274
:100500004A60016C21F480710164016C11F4805F18
:1005100003D1016C41F00101016402F0F7FA10BD52
:10052000806BC16C1046BDE81040084710B5806B69
:1005300040210164416C41F00401416402F037FB49
:1005400010BD10B5806B02F031FB10BD044810B532
:1005500002F02EFBBDE81040024802F029BB00006B
:10056000BC0C0020040D002070B50B4802F020FEEA
:100570000A4CA0680BF078FB04F12C0585ED000A0D
:1005800060680BF083FB85ED010A20680BF090FB9F
:1005900085ED020A70BD0000040D0020840C0020CF
:1005A00070B5574802F004FE564D286801F0CCF9AA
:1005B00005F12C0484ED000A686801F0A9F900EE49
:1005C000100AB8EE400A84ED010AA86801F084F927
:1005D00000EE100AB8EE400A84ED020AE86801F065
:1005E00069F984ED030A286901F040F984ED040AF1
:1005F000686901F04DF984ED050AA86901F0D8F9A0
:1006000000EE100AB8EE400A84ED060AE86901F02F
:10061000BFF984ED070A01F009F8312818BF70BD51
:100620009FED390AD4ED030A384E0222384D60EEB0
:10063000800A05F22521C6ED020AD4ED040A60EE17
:10064000800AC6ED030AD4ED050A20EE800A86ED85
:10065000040A94ED000ABCEEC00A10EE100A80B243
:100660000DF04CFD94ED010A042205F50A71BCEE73
:10067000C00A10EE100A80B20DF040FD94ED020A9F
:10068000032205F23121BCEEC00A10EE100A80B23E
:100690000DF034FD96ED020A02230122BCEEC00AE1
:1006A00005F23B2110EE100A80B20BF02FFC96ED04
:1006B000030A022305F235211A46BCEEC00A10EEE9
:1006C000100A80B20BF022FC96ED040A02230122EC
:1006D000BCEEC00A05F5107110EE100A80B20BF0E6
:1006E00015FC94ED060A05F22D21BDE87040BCEE24
:1006F000C00A032210EE100A80B20DF0FFBC000009
:10070000BC0C0020640C00200000C842180000202F
:10071000002300200749082210B501F1580002F01B
:100720007DFC05490322BDE8104001F1800002F084
:1007300075BC0000640C0020840C002000EE100A40
:10074000DFED050A9FED051AB8EE400A70EEC00A0B
:1007500080EE810A704700000020B2441F858B4064
:1007600000EE100ADFED030AB8EE400A20EE200A80
:1007700070470000EF03903C00EE100A9FED092A3D
:10078000F6EE001AB8EE400ADFED070AB2EE041AE0
:1007900020EE020A30EE610A20EE200A20EE010A65
:1007A00070470000010AA03A00001642704700009E
:1007B000034801214FF0FF3240680DF0F1BE000008
:1007C00044000020034802214FF0FF3240680DF042
:1007D000E7BE000044000020FEE70000014802F0F0
:1007E000C2BE000008100020014802F0BCBE00009C
:1007F00008100020014802F0B6BE000008100020DA
:10080000014802F0B0BE00000810002002484FF47A
:10081000B671FFF7B9BD00009C0E002010484FF4E0
:10082000807110B503F034FD002818BF10BD002101
:100830004FF0010C0B4840F207230222017680F8AA
:1008400019C0C16003600B4602610A4681600175F0
:10085000014605480068BDE810400EF05FBE00008C
:10086000000002407C0E0020C400002030B5434D43
:1008700099B00024082295ED000A4FF44671BCEEB1
:10088000C00A10EE100A030A8DF818308DF819000E
:1008900095ED010ABCEEC00A10EE100A030A8DF8AD
:1008A0001A308DF81B0095ED060ABCEEC00A10EE5A
:1008B000100A030A8DF81C308DF81D0095ED020A10
:1008C000009169460394BCEEC00A049206AA8DF812
:1008D000144010EE100A030A8DF81E308DF81F0028
:1008E00018AB2748029402F0A5FC95ED040A0622F5
:1008F00040F21931BCEEC00A10EE100A030A8DF85E
:1009000038308DF8390095ED030ABCEEC00A10EEC0
:10091000100A030A8DF83A308DF83B0095ED050A70
:10092000089108A90B94BCEEC00A0C920EAA8DF88F
:10093000344010EE100A030A8DF83C308DF83D006B
:1009400018AB0F480A9402F075FC8DF8584000F07F
:100950006DFE022240F2014130388DF859001091AD
:1009600018AB074810A913941294149216AA8DF884
:10097000544002F05FFC19B030BD0000900C002024
:10098000081000200B4C8AB06D4600BFD4F8A400BC
:100990004FF0FF310FF0B2F8206F4FF0FF32694691
:1009A0000EF09AFF044808AB05F11802694602F000
:1009B00041FCEBE754000020081000200B480068C1
:1009C000002808BF704710B509490EF02DFF0848F0
:1009D0000068002808BF10BD4FF08050054908602E
:1009E000BFF34F8FBFF36F8F10BD0000EC000020EE
:1009F0002C00002004ED00E02DE9F0411C4C012604
:100A000000254FF00E082027214601F5FE70656194
:100A1000C4E906562560C4E90157E5602561C4E9CB
:100A2000086802F07BFCC4E90565E6612146C4E97B
:100A30000075A76001F5FE70C4E90356C4E90868B3
:100A400002F06CFC012104F5FE7002F0DDFB0221D6
:100A500004F5FE7002F0D8FB102104F5FE7002F0E0
:100A6000D3FB04F5FE70BDE8F04102F0D5BF0000F5
:100A70000C0E00204DF804ED83B0274945204FF0BF
:100A8000000C8DF800002548CDF804C08B79203982
:100A90000068302B4A780CD0312B1CBF03B05DF8B6
:100AA00004FB2AB3012A08BF81F800C003B05DF837
:100AB00004FB012A1CBF03B05DF804FB184A92F83E
:100AC0004630302B01BF92F84720302A03B05DF842
:100AD00004FB4FF0380281F800C04FF00003694674
:100AE0008DF8002001AA0EF00BFE03B05DF804FBA8
:100AF0000A78521CD2B20A701E2A3CBF03B05DF8BD
:100B000004FB4321002301AA8DF8001069460EF072
:100B1000F7FD03B05DF804FB900B0020B800002047
:100B2000002300202DE9F041FF4C0246FF4940F22E
:100B30001636FF4D2DED028B808B9FEDFE8A40BA5D
:100B4000A080D38B5BBAE380138C5BBA2381B2F8AD
:100B500022C09CFA9CFCA4F80AC0D2F800C0B4459C
:100B6000ACF2163200F001857EDC40F20D364FF01B
:100B70000102B445ACF20D3600F0F58175DC40F2AF
:100B80000637BC45ACF2063600F03D8245DCBCF1D0
:100B9000050F00F05582BCF5417F00F0B881ACF53F
:100BA000407005381CBFBDEC028BBDE8F08162705F
:100BB000C868401CC860184607F0C0FF84ED050AED
:100BC00060890AF0FDFF84ED060AA088012205F184
:100BD00042010DF093FAE088052205F144010DF081
:100BE0008DFA94ED050A032205F14A01BCEEC00A14
:100BF00010EE100A80B20DF081FA94ED060A05F1AC
:100C00004E010522BCEEC00ABDEC028B10EE100AAC
:100C1000BDE8F04180B20DF071BA012E00F03B82C8
:100C2000062E7DD162704A68521C4A6000F008FFAF
:100C300084ED030AE08800F003FF84ED040A2089B4
:100C400000F0FEFE84ED050A608900F0F9FE84EDF7
:100C5000060A94ED030A032205F12001BCEEC00A46
:100C600010EE100A80B201E033E029E00DF046FA00
:100C700094ED040A032205F12401BCEEC00A10EE33
:100C8000100A80B20DF03AFA94ED050A032205F13C
:100C90002801BCEEC00A10EE100A80B20DF02EFA48
:100CA00094ED060A05F12C010322BCEEC00ABDEC4E
:100CB000028B10EE100ABDE8F04180B20DF01EBAB2
:100CC000B31E072B2CD2DFE803F0FB2B2BFAF9F82D
:100CD000F700B2F5507F00F028837CDCB2F54F7F3F
:100CE00000F0878262DC012A00F05D84A2F5407288
:100CF0003A3A00F02D82012A12D14A6A521C4A6205
:100D000006F0A6FC20EE080A84ED030AE08800B293
:100D100006F0B0FC84ED040A2089FFF72DFD00E009
:100D2000C9E020EE080A84ED050A608900B207F0E8
:100D30007FFBF2EE040A022320EE200A05F1AE0149
:100D40001A4684ED060A94ED030ABCEEC00A10EEC2
:100D5000100A80B20BF0DAF894ED040A042205F1CF
:100D6000B401BDEEC00A10EE100A00B20DF000F999
:100D700094ED050A022305F1BA011A46BCEEC00A39
:100D800010EE100A80B20BF0C1F894ED060A05F1DE
:100D9000C0010123BDEEC00ABDEC028B032210EEA0
:100DA000100ABDE8F04100B20BF02EB8A2F5407277
:100DB0003E3A00F07082012A7DD10A6B521C0A6310
:100DC00006F02EFC84ED030AE08806F029FC84ED91
:100DD000040A208900E03CE006F022FC84ED050ACC
:100DE000608906F01DFC84ED060A94ED030A0322D7
:100DF00005F1EE01BCEEC00A10EE100A80B20DF053
:100E00007DF994ED040A032205F1F201BCEEC00A5B
:100E100010EE100A80B20DF071F994ED050A03226C
:100E200005F1F601BCEEC00A10EE100A80B20DF01A
:100E300065F994ED060A05F1F9010322BCEEC00A3A
:100E4000BDEC028B10EE100ABDE8F04180B20DF04F
:100E500055B940F2F53C6245A2F2F53300F0F98253
:100E600033DCA2F54072413A00F0A982B32A22D1C4
:100E7000CA6B00B20223521CCA63032205F58F71AC
:100E80000AF0C2FFE0880223032200B205F5937145
:100E90000AF0BAFF20890123032200B205F59771F9
:100EA0000AF0B2FF60890123032200B2BDEC028B7D
:100EB00005F2351105E08AE045E332E31FE30CE378
:100EC00009E1BDE8F0410AF09FBF012B00F0DF828D
:100ED000022B7CD18A6C00B2521C8A64032205F278
:100EE00075110AF091FFE0880223032200B205F297
:100EF0007D110AF089FF208905F28511012300B2D6
:100F0000BDEC028B0322BDE8F0410AF07DBF6270A8
:100F100001230A68521C0A60032205F108010AF045
:100F2000F5FF0123032207E0700B00209C0E002038
:100F3000002300200000C842E08805F10E010AF0FD
:100F4000E5FF20890123032205F114010AF0DEFFE9
:100F5000608905F11A0101230322BDEC028BBDE873
:100F6000F0410AF0D3BF62708A68521C8A6000F0B8
:100F700067FD84ED030AE08800F062FD84ED040A59
:100F8000208907F0E7FD84ED050A6089FFF7E8FB9B
:100F900020EE080A032205F1300184ED060A94EDE3
:100FA000030ABCEEC00A10EE100A80B20DF0A6F8DB
:100FB00094ED040A032205F13401BCEEC00A10EEE0
:100FC000100A80B20DF09AF894ED050A00E008E3EB
:100FD000BCEEC00A032205F1380110EE100A80B2FF
:100FE0000DF08CF894ED060A05F13C010223BCEEED
:100FF000C00ABDEC028B1A4610EE100ABDE8F041A3
:1010000080B20AF083BF627001230A69521C0A6130
:10101000032205F154010AF079FFE088012303223D
:1010200005F15A010AF072FF208905F160010123E0
:1010300000B2BDEC028B0422BDE8F0410AF0E4BE30
:1010400062704869401C4861184601F065FC84EDF7
:10105000050AA088012205F168010DF04FF8E0882B
:10106000012205F16A010DF049F894ED050A032209
:1010700005F16C01BCEEC00A10EE100A80B20DF052
:101080003DF8608905F170010122BDEC028BBDE8DD
:10109000F0410DF033B862708A69521C8A610522F2
:1010A00005F172010DF02AF8E088052205F17801BA
:1010B0000DF024F820890323012205F17E010AF0B6
:1010C00025FF608905F184010522BDEC028BBDE896
:1010D000F0410DF013B86270CA69521CCA6100F089
:1010E00037FD20EE080A84ED030AE08800F0BAFC20
:1010F00084ED040A208900F0B5FC84ED050A94ED26
:10110000030A022305F18A011A46BCEEC00A10EE5A
:10111000100A80B20AF0FAFE94ED040A032205F1E7
:101120009001BCEEC00A10EE100A80B20CF0E6FF8F
:1011300094ED050A05F194010322BCEEC00ABDEC52
:10114000028B10EE100ABDE8F04180B20CF0D6BF61
:101150000A6A521C0A6206F07BFA20EE080A84ED45
:10116000030AE08800B206F085FA84ED040A2089BB
:10117000FFF702FB20EE080A84ED050A6089FFF7FD
:10118000DDFA84ED060A94ED030A022305F19801C5
:101190001A46BCEEC00A10EE100A80B20AF0B6FE83
:1011A00094ED040A042205F19E01BDEEC00A10EE82
:1011B000100A00B20CF0DCFE94ED050A022305F1E2
:1011C000A4011A46BCEEC00A10EE100A80B20AF062
:1011D0009DFE94ED060A05F1AA010322BCEEC00AA9
:1011E000BDEC028B10EE100ABDE8F04180B20CF0AD
:1011F00085BF8A6A521C8A6206F02AFA20EE080A23
:1012000084ED030AE08800B206F034FA84ED040AA3
:10121000208906F01DFA20EE080A84ED050A60898F
:1012200000B206F027FA84ED060A94ED030A0223C1
:1012300005F1C6011A46BCEEC00A10EE100A80B2D3
:101240000AF064FE94ED040A042205F1CC01BDEE1F
:10125000C00A10EE100A00B20CF08AFE94ED050AE6
:10126000022305F1D2011A46BCEEC00A10EE100AA4
:1012700080B20AF04BFE94ED040A05F1D801042275
:10128000BDEEC00ABDEC028B10EE100ABDE8F041C5
:1012900000B20CF06DBECA6A521CCA6206F0C0F9F8
:1012A00084ED030AE08806F0BBF984ED040A208986
:1012B00006F0B6F984ED050A608906F0B1F984ED0F
:1012C000060A94ED030A032205F1DE01BCEEC00A12
:1012D00010EE100A80B20CF011FF94ED040A032204
:1012E00005F1E201BCEEC00A10EE100A80B20CF06B
:1012F00005FF94ED050A032205F1E601BCEEC00AE4
:1013000010EE100A80B20CF0F9FE94ED060A05F119
:10131000E9010322BCEEC00ABDEC028B10EE100AFC
:10132000BDE8F04180B20CF0E9BE4A6B521C4A6342
:1013300006F076F984ED030AE08806F071F984ED91
:10134000040A208906F06CF984ED050A608906F02C
:1013500067F984ED060A94ED030A032205F1FE0104
:10136000BCEEC00A10EE100A80B20CF0C7FE94ED7D
:10137000040A032205F58171BCEEC00A10EE100AC2
:1013800080B20CF0BBFE94ED050A032205F58371D3
:10139000BCEEC00A10EE100A80B20CF0AFFE94ED65
:1013A000060A05F209110322BCEEC00ABDEC028B4D
:1013B00010EE100ABDE8F04180B20CF09FBE8A6BBF
:1013C000521C8A6306F02CF984ED030AE08806F0CB
:1013D00027F984ED040A208906F022F984ED050A34
:1013E000608906F01DF984ED060A94ED030A0322D4
:1013F00005F58771BCEEC00A10EE100A80B20CF041
:101400007DFE94ED040A032205F58971BCEEC00A45
:1014100010EE100A80B20CF071FE94ED050A032262
:1014200005F58B71BCEEC00A10EE100A80B20CF00C
:1014300065FE94ED060A05F219110322BCEEC00AFE
:10144000BDEC028B10EE100ABDE8F04180B20CF04A
:1014500055BE0A6C00B20223521C0A64032205F531
:101460009E710AF0D1FCE0880223032200B205F548
:10147000A2710AF0C9FC208905F5A671012300B20A
:10148000BDEC028B0322BDE8F0410AF0BDBC4A6C02
:1014900000B20223521C4A64032205F257110AF0DB
:1014A000B3FCE0880223032200B205F25F110AF0C8
:1014B000ABFC20890123032200B205F267110AF078
:1014C000A3FC608905F5B771012300B2BDEC028B66
:1014D0000322BDE8F0410AF097BCCA6C521CCA64F2
:1014E000022205F2DD110CF009FEE08805F5F0712D
:1014F0000322BDEC028BBDE8F0410CF0FFBD0A6D8C
:10150000521C0A65022205F5F2710CF0F7FDE08825
:1015100005F2E7110322BDEC028BBDE8F0410CF0AF
:10152000EDBD4A6D521C4A65022205F2EB110CF02A
:10153000E5FDE08805F5F7710322BDEC028BBDE8FF
:10154000F0410CF0DBBD8A6D521C8A65022205F564
:10155000F9710CF0D3FDE08805F2F5110422BDEC21
:10156000028BBDE8F0410CF0C9BDCA6D521CCA65C2
:10157000022205F5FD710CF0C1FDE088032205F2A1
:10158000FD110CF0BBFDA088052205F201210CF035
:10159000B5FDE08805F207210522BDEC028BBDE810
:1015A000F0410CF0ABBD0A6E521C0A66052205F232
:1015B0000D210CF0A3FDE088052205F213210CF0AB
:1015C0009DFDA088052205F219210CF097FDE08809
:1015D00005F21F210522BDEC028BBDE8F0410CF0A5
:1015E0008DBDBDEC028BBDE8F08100000B480068AA
:1015F000002808BF704710B509490EF015F90948D1
:10160000C069002808BF10BD4FF08050064908602F
:10161000BFF34F8FBFF36F8F10BD0000F0000020AD
:101620008C0B0020700B002004ED00E00148807955
:1016300070470000900B00200148007A70470000BE
:10164000900B00200148007870470000900B0020AC
:101650007048302240F2462110B5FEF78EFE6D48EC
:101660003B210A22C1714173C1744176C17780F870
:10167000231080F8271080F82B1080F82F1080F8A6
:10168000331080F8371080F83B1080F8411080F854
:10169000431080F8491080F84D1080F8531080F8FE
:1016A000591080F85F1080F8671080F8691080F892
:1016B0006B1080F86F1080F8711080F8771080F848
:1016C0007D1080F8831080F8891080F88F1080F8E2
:1016D000931080F8971080F89D1080F8A31080F880
:1016E000A91080F8AD1080F8B31080F8B91080F818
:1016F000BF1080F8C51080F8CB1080F8D11080F8AA
:10170000D71080F8DD1080F8E11080F8E51080F83F
:10171000EA1080F8ED1080F8F11080F8F51080F8EC
:10172000FA1080F8FD1080F8011180F8051180F89A
:101730000A1180F80D1180F8111180F8151180F848
:101740001A1180F81D1180F8251180F82D1180F8EC
:10175000341180F83B1180F8431180F84B1180F868
:10176000521180F8561180F85E1180F8661180F8E9
:101770006D1180F8741180F87C1180F8841180F864
:101780008B1180F88F1180F8971180F89F1180F8E5
:10179000A61180F8AE1180F8B61180F8BD1180F85E
:1017A000601180F8C81180F8CE1180F8D41180F84B
:1017B000DC1180F8DF1180F8E31180F8E61180F881
:1017C000EA1180F8ED1180F8F11180F8F41180F839
:1017D000F91180F8FC1180F8001280F8061280F8E8
:1017E0000C1280F8121280F8181280F81E1280F87D
:1017F000241280F8271280F82C1280F8301280F81A
:10180000341280F83A1280F83F1280F8441280F8BF
:10181000452210BD00230020014930208871704707
:10182000900B00200149002048707047700B002089
:101830000149302008727047900B00200149302088
:1018400008707047900B0020014931208871704763
:10185000900B00200149312008727047900B002046
:101860000149312008707047900B002000EE100AEB
:10187000DFED050A9FED051AB8EE400A60EE200A7A
:1018800080EE810A704700006740533A3867043E93
:1018900000EE100ADFED050A9FED051AB8EE400ACA
:1018A00060EE200A80EE810A704700006740533ADC
:1018B0004703083F00EE100ADFED050A9FED051A09
:1018C000B8EE400A60EE200A80EE810A7047000000
:1018D0006740533A02BCA53E00EE100ADFED090A4C
:1018E000DFED091AB8EE400A9FED081A20EE200A33
:1018F000C0EE210A20EE810ABCEEC00A10EE100AEA
:1019000080B270476740533ACDCC0C4000007A4417
:1019100000EE100ADFED090ADFED091AB8EE400A01
:101920009FED081A20EE200AC0EE210A20EE810A5F
:10193000BCEEC00A10EE100A80B270476740533AFE
:10194000CDCC0C4000007A4400EE100A9FED0B2A2B
:10195000DFED0B2AB8EE400ADFED0A1A9FED0A1AF6
:10196000DFED0A0A20EE020A20EE220A30EE610ABA
:1019700020EE010A30EE600A704700006740533ADB
:1019800000007A440000C842CDCCCC3D000020428B
:1019900000EE100ADFED050AB1EE001AB8EE400ABB
:1019A00020EE200A20EE010A704700006740533AFB
:1019B00000EE100ADFED090ADFED091AB8EE400A61
:1019C0009FED081A20EE200AC0EE210A20EE810ABF
:1019D000BCEEC00A10EE100A80B270476740533A5E
:1019E0006666C64000007A44014802F007B900006C
:1019F000C41A0020014802F001B900004C0D00207B
:101A0000014802F0FBB80000AC0D0020014802F0D4
:101A1000F5B80000E4170020014802F0EFB800001C
:101A2000041A0020014802F0E9B8000084170020E1
:101A3000014802F0E3B80000641A0020704700007B
:101A400000EE100A9FED051ADFED050AB8EE400A18
:101A500020EE010A30EE200A70470000EF20B6BEEB
:101A600033F33E4300EE100ADFED030AB8EE400AFE
:101A700020EE200A7047000038679C3F4FF48060DA
:101A800002F0CEBA4FF4807002F0CABA0B4C0022BA
:101A90000221204602F008FC00222046102102F01C
:101AA00003FC00222046082102F0FEFB082120460C
:101AB00002F0F3FB0A2002F097FAF7E7000C02406D
:101AC000134A4DF8044D92F80EC00123BCF1020FE9
:101AD00019D2947B02F10C034FF0000C02F804C001
:101AE000947B02EB84046060907B00F803C0907BE1
:101AF000431C93733A2463462F22303008704C7095
:101B00008A7081F803C018465DF8044B70470000E6
:101B10008C2600200D4902468B7B0120002B08BF3C
:101B200070471278303AD2B201EB8203D3F804C086
:101B3000BCF1000F08BF7047002058600A441073C2
:101B4000887B421E8A730020704700008C2600208C
:101B500000EE100ADFED0B0A9FED0B2AF8EE402A8B
:101B6000B8EE400ADFED091A9FED091A62EEA00AED
:101B700020EE020A70EEE10A30EE011A80EE810AD0
:101B800070470000FBCDE43D4EB7EC3B45C79541A7
:101B900066B144410F484FF4807110B502F078FBF4
:101BA000002818BF10BD0C480068002808BF10BDF1
:101BB0000A490DF039FE0A484068002808BF10BDE8
:101BC0004FF0805007490860BFF34F8FBFF36F8F0E
:101BD00010BD000000000240D000002004000020E2
:101BE0000000002004ED00E07047000070B51B4EBF
:101BF0004FF40041304602F04BFB194C0128194DBF
:101C000008D104F10C02207028680023A2F10C0115
:101C10000DF076FD4FF40051304602F039FB0128FB
:101C200008D1114A0220207000232868A2F1100177
:101C30000DF066FD4FF48041304602F029FB01288B
:101C400018BF70BD0320094A00232070A2F11401BF
:101C50002868BDE870400DF053BD00000010024040
:101C600000000020A400002010000020140000202C
:101C70000F484FF4806110B502F00AFB002818BF2E
:101C800010BD0C480068002808BF10BD0A490DF0BF
:101C9000CBFD0A488068002808BF10BD4FF0805077
:101CA00007490860BFF34F8FBFF36F8F10BD00006F
:101CB00000000240D40000200800002000000020A6
:101CC00004ED00E007490122074805F087F8074CBA
:101CD0004FF0FF31D4F8A0000DF010FF044800F0E1
:101CE00029FDF5E79F0B00208419002054000020F7
:101CF000C0250020000000002DE9F04107240D461A
:101D0000002607468AB000F0EDB82C2804BF701CEE
:101D1000C6B263D00A2E80F0E180DFE806F0052D20
:101D2000606396999DACC2DC05EB04080146002077
:101D300098F8012000F0D8FD8DF80000002098F8F8
:101D4000032098F8021000F0CFFD8DF8010000206C
:101D500098F8052098F8041000F0C6FD8DF80200F0
:101D6000002098F8082098F8071000F0BDFD04F155
:101D700008018DF80300A4E005EB040801460020EB
:101D800098F8012000F0B0FD8DF80400002098F8CC
:101D9000032098F8021000F0A7FD8DF805009FEDD4
:101DA0005A1B98F8050098F80610303800EB8000B0
:101DB00001EB4000303800EE100AB8EEC02B82EE86
:101DC000010B9FED531B04F10900C4B220EE010B7F
:101DD000BCEEC00B10EE100AADF8060080E08DF8E6
:101DE00008007DE005EB040898F8022098F801103F
:101DF00000F07AFDADF80A00002098F8042098F869
:101E0000031000F071FD8DF80C0098F8060098F8AA
:101E1000071030389FED3C1B00EB800001EB4000C9
:101E2000303800EE100A04F10A00C4B2B8EEC02B3C
:101E300082EE010B9FED361B20EE010BBCEEC00BBA
:101E400010EE100AADF80E004AE08DF8100047E0E1
:101E500030388DF8110043E029194A782C2A08BF40
:101E6000303805D00146002000F03EFD611CCCB2A8
:101E70008DF8120034E029199FED231B8878C9786A
:101E8000303800EB800001EB4000303800EE100AE3
:101E9000E01CC4B2B8EEC02B82EE010B8DED060B38
:101EA0001EE029198A782E2A03D0CB782E2B0AD04F
:101EB00016E04A780146002000F016FDE11C8DF87E
:101EC0002000CCB20CE0497800F00EFD211D8DF809
:101ED0002000CCB204E08DF8210001E02A20285532
:101EE000601CC4B2285D2A2818BF532CFFF40DAF24
:101EF0009DE87F1087E87F10DDE90801C7E9080148
:101F00000AB0BDE8F0810000000000000000594068
:101F10000000000000004E402DE9F34F07240F465B
:101F20009FED5D0B9FED5E1B81B04FF0000A9EE0C0
:101F30002C2804BF0AF1010000F0FF0A62D0BAF1B8
:101F4000070F7DD2DFE80AF00430335F62898C002E
:101F5000391900914A780146002000F0C5FC00992B
:101F600060F307060020CA78897800F0BDFC00996C
:101F700060F30F2648798979303800EB800001EB57
:101F80004000303802EE100A04F10900C4B2B8EE85
:101F9000C23B83EE002B22EE012BBCEEC22B12EED5
:101FA000100A60F31F4660E060F3070B5DE039192B
:101FB00000918A78497800F097FC009960F31F4BF4
:101FC00000200A79C97800F08FFC009960F30709B6
:101FD0008A79C879A2F1300101EB810100EB41005F
:101FE000303802EE100A04F10A00C4B2B8EEC23B67
:101FF00083EE002B22EE012BBCEEC22B12EE100A58
:1020000060F31F4931E060F307052EE039190091B4
:102010004A780146002000F067FC009960F30F2524
:102020000020CA78897800F05FFC009960F31745BA
:1020300000204A79097900F057FC60F31F6500E041
:1020400011E0009900200A7AC97900F04DFC04F1F2
:10205000080160F30708CCB207E060F30F2804E042
:1020600060F3174801E02A203855601CC4B2385D7F
:102070002A2818BF532CFFF45BAF01980660C0F804
:1020800004B0C0F80890C560C0F8108003B0BDE887
:10209000F08F000000000000000000000000594028
:1020A0000000000000004E402DE9F04700270E46DA
:1020B000082481464FF02A0A4EE02C2804BF781CE1
:1020C000C7B247D0062F43D2DFE807F00307172235
:1020D0002D37303860F307053CE031194A782C2A57
:1020E00004BF303860F30F2534D00146002000F0E3
:1020F000FBFB611C60F30F251DE031194A78014696
:10210000002000F0F1FB611C60F31745CCB221E028
:1021100031194A780146002000F0E6FB611C60F3AB
:102120001F65CCB216E031198A78497800F0DCFBE3
:10213000A11C60F30F08CCB20CE031194A780146BB
:10214000002000F0D1FB611C60F31748CCB201E025
:1021500006F804A0601CC4B2305D2A2818BF532CB6
:10216000ABD3C9F80050C9F80480BDE8F08700007F
:102170002DE9F04387B00D4680469FED8F1B9FED04
:10218000900B2A270724002600F006B92C2804BF4C
:10219000701CC6B200F0FE80092E80F0FA80DFE8E5
:1021A00006F0052D305F629194F9D90005EB040922
:1021B0000146002099F8012000F096FB8DF8000000
:1021C000002099F8032099F8021000F08DFB8DF89B
:1021D0000100002099F8052099F8041000F084FB14
:1021E0008DF80200002099F8082099F8071000F0F7
:1021F0007BFB04F108018DF80300C8E08DF80400B2
:10220000C8E005EB04090146002099F8012000F020
:102210006BFB8DF80600002099F8032099F8021056
:1022200000F062FB8DF8070099F8050099F8061098
:10223000303800EB800001EB4000303802EE100A2D
:1022400004F10900C4B2B8EEC23B83EE002B22EECB
:10225000012BBCEEC22B12EE100AADF8080099E07B
:102260008DF80A0096E005EB040999F8022099F828
:10227000011000F039FBADF80C00002099F80420A3
:1022800099F8031000F030FB8DF80E0099F8060065
:1022900099F80710303800EB800001EB400030382F
:1022A00002EE100A04F10A00C4B2B8EEC23B83EE9B
:1022B000002B22EE012BBCEEC22B12EE100AADF861
:1022C000100067E08DF8120064E005EB040999F84E
:1022D00001102E2920D099F80220002000F004FBE4
:1022E0008DF8130099F8040099F80510303800EBC8
:1022F000800001EB4000303802EE100A6421A21D7C
:10230000B8EEC23BD4B283EE002BBCEEC22B12EE71
:10231000100A00FB01F01AE030388DF8130099F82C
:10232000020099F80310303800EB800001EB400008
:10233000303802EE100A201DC4B2B8EEC23B83EE64
:10234000002B22EE002BBCEEC22B12EE100A8DF8F1
:1023500014001FE005EB04090146002099F8012054
:1023600000F0C2FA8DF81600002099F8032099F8C1
:10237000021000F0B9FA8DF81700002099F8052036
:1023800099F8041000F0B0FA611D8DF81800CCB275
:1023900000E02F55601CC4B2285D2A2818BF532CBA
:1023A000FFF4F4AE1C2269464046FDF7D4FF07B0A7
:1023B000BDE8F083000000000000000000004E4077
:1023C000000000000000594070B51B4C1B4DE07828
:1023D000242809D160782278411C2A541848012207
:1023E0006170214604F0FAFC20780A2815D1637840
:1023F0000A2200202421EA546070134821701149F8
:1024000000680DF011FA606838B110494FF0805043
:102410000860BFF34F8FBFF36F8FE07824281ABF97
:1024200020780A2870BD4FF001020949BDE87040CC
:10243000034804F0D3BC00009C0B0020C025002002
:1024400084190020A00B0020F400002004ED00E01F
:102450009F0B0020000000002DE9F04384B00D46E2
:1024600007469FED830B07244FF02A080026ECE077
:102470002C2804BF701CC6B278D0092E77D2DFE8B2
:1024800006F0052B2EE231777ADADD0005EB040940
:1024900099F8022099F8011000F026FAADF8000032
:1024A00099F8040099F80510303800EB800001EB32
:1024B0004000303801EE100AB8EEC12B82EE001B4E
:1024C000BCEEC11B11EE100AC0EB001080008DF8AD
:1024D0000200611DCCB2B6E08DF80400B3E0601DCF
:1024E000C4B2B0E005EB040999F801102E2920D000
:1024F00099F80220002000F0F7F98DF8050099F80E
:10250000040099F80510303800EB800001EB400022
:10251000303801EE100A6421A21DB8EEC12BD4B2EE
:1025200082EE001BBCEEC11B11EE100A00FB01F095
:102530001AE030388DF8050099F8020099F8031078
:10254000303800EB800001EB4000303801EE100A1B
:10255000201DC4B2B8EEC12B82EE001B21EE001B81
:10256000BCEEC11B11EE100A8DF806006BE068E0AE
:102570008DF8070067E005EB040999F8011099F858
:1025800002202E2920D02E2A20D1002000F0ACF9E4
:102590008DF8080099F8040099F80510303800EB20
:1025A000800001EB4000303801EE100A6421A21DCA
:1025B000B8EEC12BD4B282EE001BBCEEC11B11EEF3
:1025C000100A00FB01F033E02E2A1DD0D2B200F039
:1025D0008BF98DF8080099F8040099F80510303847
:1025E00000EB800001EB4000303801EE100AA01D26
:1025F000C4B2B8EEC12B82EE001BBCEEC11B11EEC3
:10260000100A8DF809001EE030388DF8080099F89E
:102610000300443801EE100A201DC4B2B8EEC12BED
:1026200082EE001B21EE001BBCEEC11B11EE100A56
:102630008DF8090007E08DF80A0004E08DF80B0022
:1026400001E005F80480601CC4B2285D2A2818BF88
:10265000532CFFF40DAF0098386001987860029811
:10266000B860BDF80C00B88104B0BDE8F08300008C
:1026700000000000000059402DE9F0411EA08EB07E
:1026800026A190E8FC118DE8FC11006A09AC0890C5
:102690000FC984E80F00254864232122694604F00D
:1026A00001FC22480C22224B4FF4164C00214FF41F
:1026B000005403603023C0F804C04FF4805C816094
:1026C000C160C0E904128161C161C0E90813C0E9B9
:1026D0000EC404F0D1F9002818BFFFF7D7F9322053
:1026E00001F082FC114864230E2209A904F0DAFBF0
:1026F0000EB0BDE8F081000024505542582C343112
:102700002C312C303030372C303030332C333834BF
:1027100030302C302A32300D0A000000B562060835
:1027200006006400010001007A12000084190020F4
:10273000004400402DE9F04701798AB0472908BFDD
:10274000012115D04C2908BF022111D0532908BFFF
:1027500003210DD04179562908BF042108D0C17842
:10276000522908BF052103D056290CBF0621FF219D
:10277000584ADFF86481042991706ED006DC012983
:1027800009D0022918D0032921D09BE0052977D050
:10279000062976D096E001466846FFF7ADFA9DE837
:1027A0007F1088E87F10DDE90801C8E908014B487F
:1027B000082101F072FD85E001466846FFF7ACFB99
:1027C0009DE80F1008F1280888E80F107AE0064607
:1027D000C0790724E94600272A2818BF4FF02A0AA3
:1027E0001FD0315D2C2904BF781CC7B212D0002F36
:1027F00008BF61F307050DD0012F04BFA1F1300020
:1028000060F30F2506D0022F16D0032F18BF06F84D
:1028100004A023D0601CC4B2305D2A2818BF532CFA
:10282000DFD3C9F80050C9F804B0DDE90001C8F8E9
:102830006E00C8F8721045E0301982782C2A1CBF4F
:10284000A1F1300060F31745E4D14278002000F098
:102850004BF860F31745611C10E013E030198278E3
:102860002C2A1CBFA1F1300060F31F65D2D1427841
:10287000002000F039F860F31F65611CCCB2C9E795
:102880000BE015E001466846FFF70EFCDDE90001AC
:10289000C8F86600C8F86A1014E001466846FFF7F9
:1028A00067FC1C22694608F14A00FDF754FD09E067
:1028B00001466846FFF7D0FD0E22694608F13C004C
:1028C000FDF749FD0AB0064906480122BDE8F04778
:1028D00004F084BA9C0B002048250020000C024024
:1028E0009F0B0020841900203039303A68B16423EE
:1028F0003038C0B2C9B210FB03F301EB8101D0B292
:1029000003EB4101084480B27047C8B2D1B200EB7A
:10291000800001EB4000704700EE100A9FED051AA1
:10292000DFED050AF8EE401A81EE810A20EE200A5A
:102930007047000000007F430000C842704700005D
:1029400070B482B04FF0000CCDF800C090F83C207D
:10295000012A01BF022002B070BC7047012280F83A
:102960003C200A680724654B0568092A1DD90A3AE4
:10297000EE6802EB420204FA02F226EA0202EA6080
:102980000A689A4206D102680C7AD56845EA04645E
:10299000D4601CE004680A3A8D6802EB4202E668E3
:1029A00005FA02F23243E26011E02E6902EB4202C4
:1029B00004FA02F226EA02022A6102680C788D68A3
:1029C000166904EB440405FA04F4344314614A68BC
:1029D0001F24072A15D20568521E02EB82026E6B75
:1029E00004FA02F226EA02026A6302680D790C8890
:1029F0006D1E566BA4B205EB8505AC4034435463A1
:102A00002CE005680D2A14D2D21F2E6B02EB820235
:102A100004FA02F226EA02022A630C7902680D889F
:102A2000E61FACB206EB8605166BAC40344314636C
:102A300014E00D3AEE6A02EB820204FA02F226EA90
:102A40000202EA6202680C790D880D3CD66AADB2CA
:102A500004EB840405FA04F43443D462284A04687D
:102A6000944204BF0C68122C05D1D2F8044344F4FC
:102A70008004C2F804430468944233D10C689C4239
:102A800018BF112C2ED1D2F8044344F40004C2F82C
:102A900004430968994225D11A491B4A0968B1FBC8
:102AA000F2F101EB81014900009101911AD0B1F1DD
:102AB000004F1DD20029D8BF002105DD11F0010112
:102AC00002D0009A521E0092019A491C521C914257
:102AD000B8BF009B06DA5B1E891C9142A3F101037B
:102AE0000093F8DB80F83CC002B0002070BC704757
:102AF0000099491E0091FCD1F4E70000120000107B
:102B000000200140CC0B002040420F002DE9F04195
:102B1000044600681F4D4FF080561F4FA0F18041C2
:102B2000B1F5903113D1DFF87480D8F8000070B19E
:102B3000204600F03DFBD8F8000029460CF074FE5A
:102B4000286820B13E60BFF34F8FBFF36F8F1449E9
:102B50002068884218BFBDE8F081DFF84880D8F8C7
:102B60000000002808BFBDE8F081204600F020FBEF
:102B70000D49D8F800000CF057FE6868002808BF1F
:102B8000BDE8F0813E60BFF34F8FBFF36F8FBDE8AC
:102B9000F08100001800002004ED00E0C8000020D3
:102BA00000210140CC0000201C000020704770472D
:102BB00070B50446006802684168C2F34002002A0A
:102BC000C1F3401118BF00292DD0216C11F0100F56
:102BD00003D1216C41F400712164816811F0405FE0
:102BE00004BFA169002917D1C16A11F4700F1CBF7D
:102BF000816811F4806F0FD1416821F0200141609C
:102C0000206C20F480702064206C10F4805F03D16D
:102C1000206C40F0010020642046FFF777FF216818
:102C20006FF012000860206801684368C1F38002F9
:102C3000002AC3F3C01118BF002934D0216C11F051
:102C4000100F03D1216C41F400512164816811F40B
:102C5000401F21D1816B11F4401F1CBF816811F40A
:102C6000806F19D1416811F4806F01BF816811F044
:102C7000405FA16900290FD1416821F080014160C6
:102C8000206C20F480502064206C10F4807F03D1ED
:102C9000206C40F0010020642046FFF74FFE2168C1
:102CA0006FF00C00086020680168436811F0010FA4
:102CB000C3F380111EBF0029006810F0010F0AD075
:102CC000206C40F480302064204600F0DDF821685C
:102CD0006FF001000860206801684368C1F340128A
:102CE000002AC3F3806114BF002970BD616C6FF0CE
:102CF000200541F00201616405602046FFF757FF9F
:102D00002068056070BD000070B504004FF000063B
:102D100004BF012070BD206C002528B9204600F0BA
:102D2000B5F8656484F83C50206C10F0100F18BFA3
:102D3000012603D0304684F83C5070BD206C20F44E
:102D4000885040F0020020644C486FF07061D0F869
:102D5000042322F44032C0F80423D0F8042363682B
:102D60001A43C0F804232068426822F4807242604B
:102D700020682269436843EA022242602068426870
:102D800022F0407242602068A26843681A434260A1
:102D90002068826822F4006282602068E2688368AA
:102DA0001A438260A06AC8422068816821F070617D
:102DB0008160206804BF816821F040510CD0A16A75
:102DC0008268114381602068816821F040518160F0
:102DD0002068E16A8268114381602068816821F07F
:102DE000020181602068A169826842EA4101816034
:102DF00094F820000028206804BF416821F4006195
:102E00000FD01F49426842F4006242602068426865
:102E100022F4604242602068636A426801EB4331F9
:102E20001143416020681749C26A22F47002C262ED
:102E30002068A28BC36A01EB02511943C16220686A
:102E4000816821F400718160206894F830108268F4
:102E500042EA412181602068816821F480618160BB
:102E600020686169826842EA812181606564206C22
:102E700020F0020040F0010020645BE700200140E8
:102E800000E0FFFF0000F0FF704700002DE9F04F69
:102E900087B00646002458485649032500944FF44D
:102EA00080580194071502944FF4804903944FF41D
:102EB000807A04943268DFF844B1A2F18043B3F51C
:102EC000903342D04E4B9A421CBF07B0BDE8F08F02
:102ED0000A6842F400720A60096801F40071059101
:102EE000016841F001010160016801F001010591F3
:102EF000016841F0020101600068694600F00200CB
:102F000005906020CDE90005584601F095F80120B4
:102F10006946CDE900053B48029401F08DF83A4D31
:102F20004FF0007039492960C5E90104C5E903473C
:102F3000C5E907A46C622846C5E9058900F04CFF85
:102F400000284AD0FEF7A2FD47E00A6842F48072EA
:102F50000A60096801F480710591016841F004017B
:102F60000160016801F004010591016841F001016F
:102F70000160016801F001010591016841F0020161
:102F800001600068694600F0020005900D20CDE95F
:102F900000051F4801F050F819206946CDE90005E9
:102FA0005846029401F048F802206946CDE9000530
:102FB0001448029401F040F8164D1748C5E9000482
:102FC000AC602846C5E90347C5E907A46C62C5E9BA
:102FD000058900F001FF0028B4D1B56300220B2160
:102FE000AE63122002F064F8122002F051F807B02C
:102FF000BDE8F08F44380240303802400000024003
:103000000021014000040240AC0D00204064024059
:10301000000802404C0D00201064024030B583B01F
:10302000044600251346009590F83C00012802BF95
:10303000022003B030BD012084F83C002068826883
:1030400012F0010F2DD1D0F808C0534A4CF0010CFA
:10305000C0F808C051480068B0FBF2F010EB400027
:10306000009001901DD0B0F1004F70D20028D8BF61
:10307000002005DD10F0010002D0009A521E0092DF
:10308000019A401C521C9042B8BFDDF800C008DA1B
:10309000801CACF1010C9042ACF1010CCDF800C0E9
:1030A000F6DB2068826812F0010F6DD0226C22F0EE
:1030B000010222F4C06242F480722264406810F47B
:1030C000806F05D0206C20F4005040F480502064C4
:1030D000206C10F4805F08BF656403D0606C20F042
:1030E0000600606484F83C506FF02200D4F838C0C9
:1030F0002B4ACCF83C20D4F838C02A4ACCF84020DF
:10310000D4F838C0284ACCF84C20226810602068D7
:10311000426842F0806242602068826842F48072B5
:1031200082602268A06B02F14C0C0A46614600F0F6
:103130000DFF1E49D1F8040310F01F0F206807D0BF
:10314000884204BF826812F0405F06D009E01EE0AA
:10315000816811F0405F17D112E0826842F080422E
:103160008260D1F8040310F0100F01BF2068A0F1B5
:103170008041B1F59131816808BF11F0405F03D102
:10318000816841F08041816003B0002030BD00982B
:10319000401E0090FCD184E740420F00CC0B002081
:1031A000B9042000430520002D0520000020014027
:1031B00010B590F83C1004460020012904BF0220FD
:1031C00010BD012184F83C1021688A6822F00102B8
:1031D0008A6021688A6812F0010F11D1886820F492
:1031E00080708860A06B00F0A4FC21684A6822F01F
:1031F00080624A60216C21F4885141F00101216410
:10320000002184F83C1010BD90F82020012A18BF3E
:10321000022A06D0416A41F4802141624FF0010048
:1032200070470068426942EA010141614FF00000C5
:1032300070470000F0B490F82040D0F800C0DCF8EF
:1032400008C0012C18BF022C07D0416A41F480212C
:103250004162F0BC4FF0010070471CF0E05F55D0B8
:10326000CCF3016CBCF1020F06D9416A41F40001B4
:103270004162F0BC0120704701254FF4C07405FA8B
:103280000CF51D608B68A3B1CD684E6807682B43B1
:1032900004EB0C1543EAC60347F8053005684FF404
:1032A000C27303EB0C130E69EE50097D01290ED198
:1032B00008E00D88CB68066843EA455304EB0C151B
:1032C0007351EBE70168CD5845F48075CD50D2F8C5
:1032D00005504FF4C6761379371F016806EB0C16BC
:1032E00043EA052507EB0C138D51157804EB0C11FF
:1032F000D2F80120066845EA0222F25000684258DE
:1033000042F001024250F0BC00207047416A41F493
:1033100000114162F0BC0120704700004DF8044DDF
:1033200090F820300268012B18BF022B08D0416AA8
:1033300041F4802141625DF8044B4FF00100704779
:103340004148A2F1804CBCF5505C18BF0246D2F84F
:103350000032824243F00103C2F800320CD1D2F8AD
:10336000000220F47C50C2F80002D2F800024B6A3E
:1033700040EA0320C2F8000291F814C00120D2F8FC
:103380001C320CF01F0C00FA0CF08343C2F81C3204
:10339000CB69C3B9D2F80C328343C2F80C32B1F80E
:1033A0000CC04B684C696CF31F4302EBC40CCCF8A7
:1033B0004032B1F808C00B684C696CF31F4302EB54
:1033C000C40CCCF84432CB69012B18D1D2F80C32A2
:1033D0000343C2F80C32B1F800C04B684C696CF37F
:1033E0001F4302EBC40CCCF84032B1F808C0CB68E4
:1033F0004C696CF31F4302EBC40CCCF844328B696C
:10340000002BD2F804320CBF83430343C2F80432CA
:103410000B69002BD2F814320CBF83430343C2F86C
:103420001432096A012904D1D2F81C120843C2F8E7
:103430001C02D2F8000220F00100C2F800025DF880
:10344000044B002070470000006400407047F0B457
:1034500090F820C0BCF1010F18BFBCF1020F07D0DB
:10346000416A41F480214162F0BC4FF00100704795
:10347000D0F800C029B1DCF810C01CF0030F6BD0ED
:1034800004E0DCF80CC01CF0030F65D004684FF4B6
:10349000D87C0CEB011C54F80C4014F0040494602C
:1034A000046854F80C4007BF640D1460E4085460CD
:1034B0004FF4DA740768261D351D57F80CC0002933
:1034C00004EB0114CCF34007D76006EB011C05EBBD
:1034D000011105682D5905F00F05156105682D5975
:1034E000C5F30725956105682C594FEA14445461CA
:1034F000026852F80C201A70026852F80C204FEA49
:1035000012225A70026852F80C204FEA12429A7046
:10351000026852F80C204FEA1262DA7002685258C0
:103520001A71026852584FEA12225A7102685258B0
:103530004FEA12429A71026851584FEA1161D971EB
:1035400000680CBFC168016941F020010CBFC16077
:1035500001610020F0BC7047416A41F400114162F2
:10356000F0BC012070472DE9F05F0546006800249B
:103570004669D0F804908768D0F80CB0D0F810A055
:1035800016F0010FD0F8188025D017F0010F07D0E2
:103590000121816017F0020F7CD0284600F070FAFC
:1035A00017F4807F09D0286817F4007F4FF48071EA
:1035B000816070D0284600F081FA17F4803F0AD06D
:1035C000286817F4003F4FF48031816000F0B98023
:1035D000284600F091FA16F0080F18BF1BF0100FE4
:1035E00004D02968102044F40074C86016F0040F59
:1035F0004FF0080718BF1BF0080F04D02868C760F9
:10360000284600F0BBF916F0020F07D02868C06802
:1036100010F0030F1CBF284600F0B2F916F0400F5F
:1036200018BF1AF0100F04D02968102044F48064E9
:10363000086116F0200F18BF1AF0080F04D0286890
:103640000761284600F0C0F916F0100F07D028686F
:10365000006910F0030F1CBF284600F0B7F916F4FC
:10366000003F18BF19F0100F05D0296810204860DE
:10367000284600F0CFF916F4803F18BF19F0080F64
:1036800004D028684760284600F052FA16F4004F2C
:1036900078D001E035E044E019F0040F6FD016F463
:1036A000807F1CBF18F0010F44F0010416F4007F66
:1036B0001CBF18F0020F44F0020416F4806F1CBF08
:1036C00018F0040F44F0040416F4006F18BF18F04B
:1036D000700F54D008F07000402808BF44F0400438
:1036E00048D03EDC102808BF44F0080442D020280F
:1036F00008BF44F010043DD0302808BF44F0200437
:1037000038E017F0040F18BF4FF400647FF448AF9F
:1037100017F0080F0ABF28464FF4805400F0AEF9A6
:103720003EE717F4806F18BF44F400547FF445AFB0
:1037300017F4006F0ABF284644F4804400F0BCF937
:103740003BE717F4802F18BF44F400447FF443AFE5
:1037500017F4002F0ABF284644F4803400F0CAF959
:1037600039E7502808BF44F0800403D0602808BF20
:1037700044F480742868816921F0700181612968AE
:1037800004204860002C08BFBDE8F09F686A204311
:1037900068622846FFF75AFEBDE8F09F002804BF84
:1037A0000120704770B5044690F82000002804BF3F
:1037B000204600F089F82068016821F002010160CC
:1037C00000F078FD054620680526406810F0020FDD
:1037D0000AD000BF00F06EFD401B0A2817D82068F1
:1037E000406810F0020FF5D12068016841F0010136
:1037F000016000F05FFD05462068406810F0010F91
:1038000012D100BF00F056FD401B0A2807D9606A9C
:1038100040F40030606284F82060012070BD2068B0
:10382000406810F0010FEDD0207E0128206801686B
:103830000CBF41F0800121F080010160607E012811
:10384000206801680CBF41F0400121F04001016097
:10385000A07E0128206801680CBF41F0200121F002
:1038600020010160E07E0128206801680CBF21F082
:10387000100141F010010160207F012820680168DB
:103880000CBF41F0080121F008010160607F0128B0
:10389000206801680CBF41F0040121F004010160BF
:1038A00004F108000FC8084342EA0301D4E9002CE0
:1038B00001430020ACF101030B43D361012160629D
:1038C00084F8201070BD00004DF804ED87B0002191
:1038D000009101910291039104910068A0F180424E
:1038E000B2F5C8421CBF07B05DF804FB2048016870
:1038F00041F000710160006800F0007005901D4803
:10390000016841F00201016000680221092300F012
:10391000020005904FF44070CDE9000103221648E3
:10392000CDE90323694600F087FB0022052113201F
:1039300001F0BEFB132001F0ABFB00220621142096
:1039400001F0B6FB142001F0A3FB00220621152094
:1039500001F0AEFB152001F09BFB00220521162093
:1039600001F0A6FB162001F093FB07B05DF804FB05
:1039700040380240303802400004024070470000E6
:103980000D4B002110B5A3F11C0202F5EA70FFF700
:103990005EFDFDF751FE312804D0FDF747FE3128CA
:1039A00018BF10BD00230748044A05490068BDE858
:1039B00010400BF0A5BE0000500E0020300000208B
:1039C000340E0020BC000020704700000D4B012188
:1039D00010B5A3F11C0202F5D870FFF738FDFDF712
:1039E0002BFE312804D0FDF721FE312818BF10BD71
:1039F00000230748044A05490068BDE810400BF061
:103A00007FBE0000740E002034000020580E0020FD
:103A1000C00000207047000070B5044690F82000F8
:103A2000012804D0606A40F4002060621CE002209B
:103A300084F820002068016821F00101016000F095
:103A400039FC05462068406810F0010F13D000BF14
:103A500000F030FC401B0A2808D9616A052041F4B7
:103A60000031616284F82000012070BD2068406848
:103A700010F0010FECD10020606270BD70470000B3
:103A80000A4810B5084900680BF0CEFE0848C06827
:103A9000002808BF10BD4FF0805006490860BFF3F2
:103AA0004F8FBFF36F8F10BD38000020F80000204B
:103AB0002C00002004ED00E0704700000A4810B51B
:103AC000084900680BF0B0FE08480069002808BFEC
:103AD00010BD4FF0805006490860BFF34F8FBFF311
:103AE0006F8F10BD3C000020F80000202C0000204B
:103AF00004ED00E0704700000A4810B5084900686E
:103B00000BF092FE08484069002808BF10BD4FF036
:103B1000805006490860BFF34F8FBFF36F8F10BD11
:103B200040000020F80000202C00002004ED00E000
:103B300070472DE9F041876D044600F0BBFB054658
:103B400094F835000026022806D080206065012008
:103B500084F83460BDE8F0812068016821F0160126
:103B600001602068416921F080014161206C0028DA
:103B700004BFA06C002804D02068016821F008016F
:103B800001602068016821F001010160206800687F
:103B900010F0010F12D000F08DFB401B052808D952
:103BA00020216165032084F8346084F83500BDE885
:103BB000F0812068006810F0010FECD194F85C10DF
:103BC0003F22012002FA01F1B96084F8346084F8E0
:103BD00035000020BDE8F08190F83510022903D0AF
:103BE0008021416501207047052180F8351000686B
:103BF000016821F001010160002070472DE9F843C0
:103C000004464FF00009734A0821CDF800904FF4A4
:103C10001650A56D94F85C3012682E68B2FBF0F86F
:103C200001FA03F3334211D02068026812F0040F46
:103C30000CD0026822F00402026094F85C0001FAE1
:103C400000F0A860606D40F00100606594F85C00D1
:103C5000012707FA00F0304209D02168496911F0C4
:103C6000800F04D0A860606D40F00200606594F899
:103C70005C1004208840304209D02168096811F0A6
:103C8000020F04D0A860606D40F00400606594F8F5
:103C90005C1010208840304220D02168096811F063
:103CA000080F1BD0A8602068016811F4802F09D08C
:103CB000006810F4002F02D0A16C79B10CE0216CE7
:103CC00051B90BE0016811F4807F03D1016821F044
:103CD00008010160216C09B12046884794F85C1006
:103CE0002020884030424AD02168096811F0100F26
:103CF00045D0A86094F8350005282068016809D0EF
:103D000011F4802F2BD0006810F4002F24D0E16B29
:103D100021B332E021F0160101602068416921F0F1
:103D200080014161206C002804BFA06C002804D0F1
:103D30002068016821F00801016094F85C004FF0F0
:103D40003F0101FA00F0A86084F8349084F83570DF
:103D5000216DD1BBBDE8F883616C71B90FE00168DA
:103D600011F4807F07D1016821F01001016084F80F
:103D7000349084F83570E16B09B120468847606D56
:103D8000002808BFBDE8F883606D10F0010F17D060
:103D90004FF0050084F835002068016821F001012A
:103DA0000160009800F101000090404504D82068AF
:103DB000006810F0010FF4D184F8349084F8357065
:103DC000E16C002908BFBDE8F883204601B0BDE8DA
:103DD000F0430847CC0B00202DE9F047044600F0E3
:103DE00069FA002C054604BF0120BDE8F0870026D3
:103DF000022084F8346084F835002068016821F0DE
:103E0000010101602068006810F0010F11D000BFAF
:103E100000F050FA401B052806D9202161650320D7
:103E200084F83500BDE8F0872068006810F0010FC5
:103E3000EED1D4E9023CD4E90010D4E9047218436D
:103E40004CEA0708D4E90653D4E908C740EA080950
:103E5000086849EA0202DFF8E8802A4342EA0302DE
:103E600000EA080042EA0C02042F42EA000003D1F3
:103E7000D4E90B231A4310430860D4F800C001238F
:103E8000606ADCF81410042821F0070140EA0102FE
:103E900038D1D4E90A100A4318B3A56955B1B5F56C
:103EA000005F14D000291CBF0129022921D0032959
:103EB0001CD027E019B1012905D0022922D110F028
:103EC000807F1FD015E0B0F1C07F1BD111E081B120
:103ED000012907D002290CD0032908BFB0F1C07F07
:103EE00007D00FE010F0807F03D10BE010F0807F4F
:103EF00008D04FF04000606584F835304FF0010085
:103F0000BDE8F087CCF8142020680E49C2B2A2F1B7
:103F100010026FF30900A1FB02210B4A4FEA1111B5
:103F20000329525CE26588BF001D3F21A0659140D6
:103F30008160666584F835300020BDE8F0870000B8
:103F40003F8010E0ABAAAAAA38052100F0B490F88F
:103F500034404FF0000C012C846D02BF0220F0BCF5
:103F6000704790F83570012680F834600025012FE5
:103F70001CBF4FF0020C80F8345002D0F0BC6046F9
:103F80007047022680F83560456505682E6826F47E
:103F900080262E6005686B608368402B036803BF32
:103FA0009A600268D16099601CBF0168CA6090F88D
:103FB0005C103F2202FA01F1A16001680A6842F038
:103FC00016020A6001684A6942F080024A61016C87
:103FD00021B101680A6842F008020A6000680168BD
:103FE00041F001010160C9E770B5044600F062F9D3
:103FF000B4F1FF3F054602D004480078044400F0C5
:1040000059F9401BA042FAD370BD0000C00B00203C
:1040100010B5FDF72DFEBDE81040FDF7BBBD00005B
:1040200004490A68024208BF704710B50860FFF7EC
:10403000EFFF10BD143C01402DE9F84F8F4E0022D8
:1040400001274FF003094FF00F0800BF0B6807FA74
:1040500002FC03EA0C03634540F00A814C68022C21
:1040600018BF122C13D14FEAD204D1F810B04FEA86
:10407000427A00EB8404256A4FEADA6A08FA0AFEFB
:104080000BFA0AFA25EA0E054AEA0505256291F8B7
:1040900004B04FEA4204D0F800A00BF0030B09FA79
:1040A00004F50BFA04FB2AEA050A4BEA0A0AC0F8EF
:1040B00000A0D1F804A0BAF1010F18BFBAF1020FA5
:1040C00005D0BAF1110F18BFBAF1120F19D1D0F8FB
:1040D00008A0D1F80CB02AEA050A0BFA04FB4BEA57
:1040E0000A0AC0F808A0D0F804A091F804B02AEA9F
:1040F0000C0CCBF3001B0BFA02FA4AEA0C0CC0F8CA
:1041000004C0D0F80CC0D1F808A02CEA050C0AFABB
:1041100004F444EA0C0CC0F80CC0D1F804C01CF044
:10412000805F7DD0356822F0030C4FEA827445F43D
:10413000804535604FEA147435680CF1804C0CF5FD
:10414000983C05F48045009508FA04FADCF8085814
:10415000A0F1804BBBF5003B25EA0A0508BF4FF0F4
:10416000000A48D0A0F1804ABAF5013A08BF4FF0E2
:10417000010A40D0A0F1804ABAF5023A08BF4FF0D8
:10418000020A38D0A0F1804ABAF5033A08BF4FF0CE
:10419000030A30D0A0F1804ABAF5043A08BF4FF0C4
:1041A000040A28D0A0F1804ABAF5053A08BF4FF0BA
:1041B000050A20D0A0F1804ABAF5063A08BF4FF0B0
:1041C000060A18D0A0F1804ABAF5073A08BF4FF0A6
:1041D000070A10D0A0F1804ABAF5083A08BF4FF09C
:1041E000080A08D0A0F1804ABAF5093A0CBF4FF08E
:1041F000090A4FF00A0A0AFA04FA214C4AEA0505AC
:10420000CCF808584D68D4F800C015F4803F2CEA6B
:10421000030C18BF4CEA030C1A4DC4F800C000E0B0
:1042200026E04C68D5F800C014F4003F2CEA030CDB
:1042300018BF4CEA030CDFF850A0C5F800C04C686A
:10424000DAF800C014F4801F2CEA030C18BF4CEA03
:10425000030C0E4CCAF800C04D68D4F800C015F429
:10426000001F2CEA030C18BF4CEA030CC4F800C072
:10427000521C102AFFF4EAAEBDE8F88F4438024021
:10428000003C0140043C0140083C01400C3C014022
:104290000069084018BF01207047426931EA0202F4
:1042A00008BF090481617047002A08BF09048161C1
:1042B000704700000148806870470000C00B002074
:1042C000D0F8C00205F020BBD0F8C00205F03ABB20
:1042D000006807F08FB8006807F090B801EB810123
:1042E00000EBC10090F85C00704701EB810100EB2E
:1042F000C100C06C704710B5044690F8B8020128A0
:1043000004BF022010BD012084F8B802206807F025
:1043100081F8002084F8B80210BD2DE9F04784B080
:10432000044694F8B8C2DDE90D600C9FBCF1010FA2
:1043300002BF022004B0BDE8F0874FF0010801EB96
:10434000810C002504EBCC0C84F8B88212F0800FAD
:1043500002F07F098CF83D508CF83830ACF8400002
:104360008CF839108CF83F608CF83A9014BF8CF8B8
:104370003B808CF83B508CF83C700097CDE9016095
:10438000206807F0A9F884F8B85204B0BDE8F087B7
:10439000D0F8C00205F06CBB2DE9F00301EB810CF5
:1043A0004FF0020500EBCC0C069FDDE90786002FDD
:1043B0008CF83B208CF83F3006BF03248CF8424039
:1043C0008CF842504FF0000433B1012B37D0022B50
:1043D00010D0032B17D020E0012F08BF002A1CD1DA
:1043E000002E04BF01228CF8512014D09CF85120DB
:1043F0002AB310E01AB19CF8502002B30BE09CF8ED
:10440000512042B91BE01AB19CF85020BAB102E029
:104410009CF851209AB18CF84250CCE911868CF866
:104420005C40CCF84C408CF839100CF138018CF819
:104430005D40027C0068BDE8F00307F0D5B88CF859
:104440004240EAE72DE9F04F0446006883B0804619
:1044500006F0DCFF01281CBF03B0BDE8F08F206828
:1044600007F0C2FA002804BF03B0BDE8F08F20684F
:1044700007F0BAFA10F4001F03D020684FF40011BF
:104480004161206807F0B0FA10F4801F03D0206863
:104490004FF480114161206807F0A6FA10F0806F98
:1044A00003D020684FF080614161206807F09CFADA
:1044B00010F0020F4FF002051CBF20684561206814
:1044C00007F092FA10F0005F10D0D8F8400420F006
:1044D0002E00C8F840042046FFF7F6FE20680121B0
:1044E00007F0F4F920684FF000514161206807F0AF
:1044F0007BFA10F0807F5CD02668D6F840040190EB
:10450000D6F8400420F02E000090019810F0020F21
:104510000ED0019810F0010F06D0B06920F00051C4
:10452000B1612046FFF7CCFE009840F002000090F9
:10453000019810F0080F32D0009840F00800009069
:10454000019810F0040F1CD0A06902280DD0E0687B
:10455000032804BF4EF66020C6F80404204600F08D
:104560009BFB2046FFF7ACFE19E0019800F4C02049
:10457000B0F5802F206814BF0121022107F0A6F9B1
:10458000ECE7204600F084FBD6F8400420F02E0033
:10459000C6F840042068816941F0005181610198AA
:1045A00010F0200F00981CBF40F020000090C6F8CB
:1045B0004004206807F018FA10F0080F4FF00806C2
:1045C00004D0204600F06FFB20684661206807F0A9
:1045D0000BFA10F0007F00F07782206807F000F8F7
:1045E0008146A0680027002884BF01264FF0040BF5
:1045F00040F2668207F00F0006FA00F010EA090F99
:1046000000F0588208EB4710D0F8000507F0FF0AC9
:1046100010F4004F206800EB4A15D5F8080500F0AB
:10462000040000F0308140B1C5F808B5D5F80C059C
:1046300040F00200C5F80C0541E0D5F8080510F07F
:10464000200F1CBF2020C5F8080538D1D5F8080573
:1046500010F0080F17D0D5F80C250AEB8A030520B7
:1046600004EBC30C102142F00203C5F80C350822FC
:104670008CF85D00C5F80815C5F808255146206876
:1046800006F0C8FE1BE0D5F8080510F4806F16D0C0
:10469000D5F80C0540F00200C5F80C05206851461D
:1046A00006F0B8FE1020C5F808050AEB8A030821B9
:1046B000820104EBC30383F85D10C5F80825D5F823
:1046C000080510F4007F0CD0D5F80C0540F002006E
:1046D000C5F80C052068514606F09CFE4FF40070AA
:1046E000CEE0D5F8080510F0010F46D0206950B192
:1046F000D5F810150AEB8A0204EBC200C1F31201CF
:10470000826C511AC1640AEB8A01324604EBC10083
:104710000090002180F85D608165C5F8086590F81B
:104720003F00002818BF022802D003280ED01AE04C
:10473000D5F80C0540F00200C5F80C05206851467C
:1047400006F068FE1020C5F808050CE0D5F8000555
:1047500040F00050C5F800050098514680F85C20F4
:104760002046FFF715FE0098009990F8500080F061
:10477000010081F8500000F09DB9D5F8080510F04F
:10478000020F2FD0D5F80C050AEB8A0220F00201A7
:10479000C5F80C1504EBC20090F85D10012908BFA4
:1047A00080F85C6000F07C81052900F0A781062973
:1047B00018BF082904D0032900F0AC8100F070B9BB
:1047C000816D491C8165032900F29F8100F0A2B927
:1047D000D5F8001521F0804141F00041C5F80015E1
:1047E00000F05EB9D5F8080510F0800F15D0D5F8A7
:1047F0000C250AEB8A03062104EBC30042F00202F7
:10480000C5F80C25826D521C826580F85D105146FA
:10481000206806F0FFFD802032E0D5F8080510F092
:10482000100F00F047810AEB8A0104EBC10090F8F9
:104830003F10032904D0002918BF02290ED01EE022
:104840004FF000018165D5F80C0540F00200C5F875
:104850000C052068514606F0DDFD10E00021816561
:10486000216961B9032180F85D10D5F80C0540F08D
:104870000200C5F80C052068514606F0CBFD10205B
:10488000C5F8080516E140B1C5F808B5D5F80C051E
:1048900040F00200C5F80C050CE1D5F8080510F051
:1048A000200F1CD00AEB8A024FF02001C5F8081532
:1048B00004EBC20090F83D1001294CD1002180F892
:1048C0003D10022280F85C20D5F80C0540F0020073
:1048D000C5F80C052068514606F09CFDEAE0D5F8C5
:1048E000080510F0400F15D00AEB8A0104EBC10057
:1048F000002180F85DB080F83D608165D5F80C0539
:1049000040F00200C5F80C052068514606F082FD13
:104910004020B5E7D5F8080510F4007F7FF4D4AE49
:10492000D5F8080510F0010F16D00AEB8A02002115
:1049300004EBC20000908165D5F80C0540F0020040
:10494000C5F80C052068514606F064FDC5F80865F9
:10495000009880F85D60ADE0D5F8080510F0080F0C
:1049600014D00820C5F80805D5F80C0540F0020061
:10497000C5F80C052068514606F04CFD0AEB8A028A
:10498000052004EBC20181F85D0093E0D5F808052D
:1049900010F0100F1DD00AEB8A02002104EBC200B8
:1049A000032290F83D308165002B80F85D2002BF26
:1049B00090F83C10002980F83D60D5F80C0540F0D7
:1049C0000200C5F80C052068514606F023FD1020B2
:1049D00056E7D5F8080510F0800F14D0D5F80C056F
:1049E00040F00200C5F80C052068514606F012FDA3
:1049F0000AEB8A03062104EBC300802280F85D10D5
:104A0000C5F8082556E0D5F8080510F4806F17D0D2
:104A1000D5F80C0540F00200C5F80C052068514699
:104A200006F0F8FC1021C5F808150AEB8A03880186
:104A3000082204EBC303C5F8080583F85D2039E0BC
:104A4000D5F8080510F0020F34D0D5F80C050AEBA4
:104A50008A0220F00201C5F80C1504EBC20090F8A0
:104A60005D1001290BD0032914BF0429022115D0A0
:104A7000052943D0062918BF082941D010E090F835
:104A80003F1080F85C60022918BF032908D190F814
:104A9000511081F0010180F8511001E080F85C10A4
:104AA0004FF00201C5F80815514690F85C202046E9
:104AB000FFF76EFCA0687F1CB8423FF69BAD00BFBD
:104AC00021684FF000704861206806F08DFF10F0FB
:104AD000100F04BF03B0BDE8F08F2068816921F09A
:104AE0001001816127683846396A01F00F08C1F367
:104AF0004342022AC1F30A1510D034E00521CDE764
:104B0000816D491C8165032904D90021816580F8E4
:104B10005CB05DE6022180F85C1059E61DB308EB3D
:104B2000880204EBC206716CE9B12A4606F060FF08
:104B3000716C07EB4810104A29447164F16C2944E8
:104B4000F164D0F8101511420DD0D0F8001521F005
:104B5000804141F00041C0F8001596F8500080F007
:104B6000010086F850002068816941F010018161E0
:104B700003B0BDE8F08F00000000F81F002804BF5C
:104B8000012070472DE9F041044690F8B9028AB03F
:104B900028B9002084F8B802204600F02DF8032040
:104BA00084F8B902206806F0B9FB04F11000251D55
:104BB00090E8CF118DE8CF11D4E90C01CDE90801BF
:104BC00094E80F0006F042FB2068012106F088FF00
:104BD0000C3595E8CF118DE8CF11D5E90801CDE965
:104BE000080194E80F0006F0E3FD012084F8B90203
:104BF0000AB00020BDE8F08110B586B00021009118
:104C000001910291039104910068A0F18042B2F5F4
:104C100080221CBF06B010BD1B4C206840F0020073
:104C20002060206802210C2300F0020005904FF460
:104C30004040CDE9000103221448CDE90323694631
:104C4000FFF7FAF9206840F0005020602068002249
:104C5000062100F0005005904A2000F029FA4A2071
:104C600000F016FA002206214B2000F021FA4B201A
:104C700000F00EFA002206214D2000F019FA4D2016
:104C800000F006FA06B010BD3038024000040240C1
:104C9000D0F8C00204F015BFD0F8C00204F015BF70
:104CA000006806F0C5BED0F8C00204F0A3BE10B57F
:104CB000044690F8B802012804BF022010BD01206C
:104CC00084F8B802206806F04AFB2068012106F04B
:104CD0002BFB002084F8B80210BD10B5044690F8F4
:104CE000B802012804BF022010BD012084F8B802D8
:104CF000206806F00DFF002084F8B80210BD4DF8C2
:104D0000044D90F84120202A27D190F84020012A14
:104D100023D0012380F8403024224FF0000C2023C0
:104D200080F841200268146824F0010414600268CD
:104D3000146824F4805414600268146821431160DC
:104D400001680A6842F001020A6080F8413080F888
:104D500040C000205DF8044B70475DF8044B022012
:104D600070474DF8044D90F84120202A25D190F845
:104D70004020012A21D0012380F8403024224FF026
:104D8000200C002480F841200268136823F00103FE
:104D900013600268136823F4706343EA0121116011
:104DA00001680A6842F001020A6080F841C080F898
:104DB000404000205DF8044B70475DF8044B022032
:104DC00070477047704730B403689A69196812F4E5
:104DD000807F18BF11F0800F07D0446C4FF4807CA7
:104DE00044F001044464C3F81CC012F4806F18BF7F
:104DF00011F0800F0BD0D0F844C04FF480634CF01A
:104E0000080CC0F844C0D0F800C0CCF81C3012F434
:104E1000007F18BF11F0800F07D0426C4FF4007173
:104E200042F0020242640268D161416C11F00B0F42
:104E300004BF30BC704730BC02F066B90268436BF7
:104E400091691268002B08BF704718477047002807
:104E500004BF0120704770B5044690F8410000255A
:104E600020B9204684F8405000F04CF8242084F803
:104E700041002068016821F001010160D4E90010BF
:104E800020F0706008612068816821F40041816031
:104E9000E06821680128A0680CBF40F4004040F49D
:104EA00004408860E068022802D1216880024860DE
:104EB00020212068426842F4004242F000724260C1
:104EC0002068C26822F40042C260D4F800C0D4E96D
:104ED0000402A369104340EA0320CCF80C002368C5
:104EE000D4E90702104318602068026842F001020A
:104EF0000260656484F84110256384F84250002004
:104F000070BD70474DF804ED87B000220092019209
:104F10000292039204920068A0F18041B1F5C04171
:104F20001CBF07B05DF804FB1848016841F0080198
:104F300001600068122101224FF0040C00F008000B
:104F4000059003234FF440508DE80F101048694638
:104F5000FFF772F80F48016841F080710160006846
:104F600000220A2100F0807005905F2000F0A0F878
:104F70005F2000F08DF800220A21602000F098F8F0
:104F8000602000F085F807B05DF804FB303802407F
:104F9000000C024040380240704770470248816868
:104FA0000278114481607047C00B0020094810B599
:104FB000016841F400710160016841F48071016091
:104FC000032000F0A5F8002000F006F800F042F8F9
:104FD000002010BD003C02404DF804ED00220146C7
:104FE000192087B000F064F8192000F051F8154836
:104FF000016841F001010160006805A900F00100AD
:105000000690684600F0A8FC00F0DAFC0E4A40006A
:105010000021DFF838C0B0FBF2F20D4840F2E73370
:10502000C0F800C0C0E90331521EC0E9012101F0FF
:1050300022FA00280ABF0648012001F083FA07B0CF
:105040005DF804FB4438024040420F00000001407C
:10505000C02200200C4882B0016841F080510160FC
:10506000006800F0805000900848016841F48041D9
:105070000160006800220F2100F480400090901E23
:1050800002B000F015B80000403802404438024039
:105090000028B8BF7047410900F01F008A000121B5
:1050A00002F1E02201FA00F0C2F8000170470000AE
:1050B000164B30B41B68C3F30223C3F1070CBCF1D9
:1050C000040F88BF4FF0040C1C1D072C34BF0023B5
:1050D000DB1E012404FA0CFC04FA03F5ACF1010414
:1050E0002140A5F1010C99400CEA0202114300286D
:1050F0004FEA0111B8BF00F00F0000F1E020ACBF93
:1051000080F8001480F8141D30BC70470CED00E0EE
:10511000074900F007004FF6FF030A681A4042EA09
:10512000002040F0FD7040F0806008607047000093
:105130000CED00E01C4838B5016841F08051016079
:1051400000681A4D00F080500090286840F48030CC
:105150002860FFF7AFF80446686810F4803F09D173
:10516000FFF7A8F8001BB0F57A7F15D8686810F42F
:10517000803FF5D0286840F400302860FFF79AF8A7
:105180000446686810F4003F0CD100BFFFF792F8A6
:10519000001BB0F57A7F01D9032038BD686810F490
:1051A000003FF3D0002038BD40380240007000407E
:1051B0002DE9F84F04460078DFF824A44FF00007EB
:1051C00010F0010F3E460FD0DAF8000020F4000086
:1051D000CAF80000DAF80000616B0843CAF8000062
:1051E000606B002808BF0127FE4D206810F4002FD7
:1051F0000ED0E06B296821F4401108432860E06B71
:10520000B0F5801F08BF012702D0002808BF012683
:10521000206810F4801F0ED0206C296821F4400112
:1052200008432860206CB0F5800F08BF012702D02A
:10523000002808BF0126206810F0807F18BF0127D2
:1052400010F0200F74D0E848016841F080510160EF
:105250000068DFF8989300F080500090D9F80000C3
:1052600040F48070C9F80000FFF724F88046D9F8B0
:10527000000010F4807F0BD1FFF71CF8A0EB0800B2
:10528000642800F27882D9F8000010F4807FF3D00F
:10529000DFF85C93D9F8000010F4407032D0218E12
:1052A00001F4407181422DD0D9F80000D9F80010E6
:1052B00020F4407041F48031C9F80010D9F8001092
:1052C00021F48031C9F80010C9F80000D9F80000B5
:1052D00010F0010F16D0FEF7EDFF8046D9F8000060
:1052E00010F0020F08BF41F2883B0BD1FEF7E2FF3E
:1052F000A0EB0800584500F23E82D9F8000010F0FB
:10530000020FF3D0206B4FF4407181431CBFDAF8D9
:10531000000020F4F81000F0ED8000BFCAF8000093
:10532000208ED9F80010C0F30B000843C9F8000024
:10533000207810F0100F07D0286820F080702860C7
:105340002868A16B084328602188AA4811F4804F7F
:1053500005D0616E026822F4403211430160218859
:1053600011F4004F05D0A16E026822F440221143CF
:105370000160216811F4803F05D0E16E026822F4DB
:10538000401211430160216811F4003F05D0216FE4
:10539000026822F4400211430160217811F0400FAD
:1053A00005D0616C026822F003021143016021788C
:1053B00011F0800F05D0A16C026822F00C0211439D
:1053C0000160218811F4807F05D0E16C026822F031
:1053D000300211430160218811F4007F05D0216D56
:1053E000026822F0C00211430160218811F4806F2D
:1053F00005D0616D026822F440721143016021887A
:1054000011F4006F05D0A16D026822F440621143CF
:105410000160218811F4805F05D0E16D026822F4FB
:10542000405211430160218811F4005F05D0216EC4
:10543000026822F4404211430160216811F4800F98
:1054400005D0A16F026822F08062114301602168DB
:1054500011F4001F0AD0E16F026822F000621143CC
:105460000160E16FB1F1006F08BF0126216811F002
:10547000080F18BF012611F4802F05D0616F026854
:1054800022F0407211430160216811F4000F06D030
:10549000D4F88010026822F0805211430160216824
:1054A00011F0806F06D0D4F88410026822F0005208
:1054B00011430160206810F0006F06D0D4F8880016
:1054C000296821F0007108432860206810F0805F8F
:1054D00006D0D4F88C00296821F080610843286048
:1054E000DFF81481012F1CBF2068B0F1007F0CD0C1
:1054F000B4E000BF20F44071DAF8000021F0704100
:1055000020F4F81040EA010008E7D8F8000020F085
:105510008060C8F80000FEF7CDFE0746D8F800000E
:1055200010F0006F0AD000BFFEF7C4FEC01B642855
:1055300055D8D8F8000010F0006FF5D121782F4829
:1055400011F0010F12D0616B81B9227A6368016892
:10555000D0F800C09B01C1F3014143EA0143CCF301
:10556000036143EA016141EA02710160216811F4BB
:10557000002F03D0E26BB2F5801F06D011F4801F1C
:105580001CD0216CB1F5800F18D1D4F804C001688B
:10559000227B03684FEA8C1CC1F301414CEA014CA9
:1055A000C3F302714CEA026242EA017101602968A8
:1055B000626A21F01F01521E11432960216811F017
:1055C000807F22D0218A636802684FEA831C0368C7
:1055D0004CEA014CC2F303614CEA016210E0B6E010
:1055E000083802408C3802404038024000700040C9
:1055F000703802409038024000380240843802403F
:10560000C3F3027142EA01710160216811F0007F69
:105610000CD06368228A94F80CC0217A9B0143EA7B
:10562000024242EA0C6242EA01710160D8F80000CD
:1056300040F08060C8F80000FEF73CFE0746D8F84E
:10564000000010F0006F09D1FEF734FEC01B642883
:105650007DD8D8F8000010F0006FF5D0EEB3D8F880
:10566000000020F08050C8F80000FEF723FE064638
:10567000D8F8000010F0005F0AD000BFFEF71AFE55
:10568000801B642877D8D8F8000010F0005FF5D1AF
:1056900021683E4811F4002F01D0E26B22B111F4D1
:1056A000801F1FD0216CE9B9D4F814C00168227E94
:1056B00003684FEA8C1CC1F301414CEA014CC3F36F
:1056C00002714CEA026242EA0171016029686FF0DE
:1056D000FF03A26A21F4F85100E054E003EB022238
:1056E00011432960216811F4001F14D0E16FB1F15A
:1056F000006F10D1238C626901684FEA821C026836
:10570000C1F303614CEA034343EA0163C2F302714C
:1057100043EA01710160217811F0080F16D0616928
:10572000026806684FEA811C237FC2F30362C6F356
:1057300001414CEA014141EA026141EA0371016021
:105740002868E16A20F440300843286000E012E055
:10575000D8F8000040F08050C8F80000FEF7AAFD1D
:105760000446D8F8000010F0005F0CD1FEF7A2FD4F
:10577000001B642802D90320BDE8F88FD8F8000088
:1057800010F0005FF2D00020BDE8F88F88380240AA
:10579000002804BF012070472DE9F047DFF89C8105
:1057A00004460E46D8F8000000F00F00B0420CD2BC
:1057B000D8F8000020F00F003043C8F80000D8F8F7
:1057C000000000F00F00B04265D120685C4D10F081
:1057D000020F14D010F0040F03D0286840F4E050FA
:1057E0002860207810F0080F03D0286840F460404B
:1057F0002860A068296821F0F0010843286020781B
:1058000010F0010F34D060684E49012820D009689B
:10581000022822D011F0020F3DD0296821F00301A7
:1058200008432860FEF746FD29680746606801F0D6
:105830000C01B1EB800F18BF41F2883918D000BFBE
:10584000FEF738FDC01B48450BD90320BDE8F087A3
:10585000096811F4003FE0D11DE011F0007FDCD1B8
:1058600019E06168286800F00C00B0EB810FE7D107
:10587000D8F8000000F00F00B0420FD9D8F80000AF
:1058800020F00F003043C8F80000D8F8000000F006
:105890000F00B04202D00120BDE8F087207810F060
:1058A000040F05D0E068296821F4E051084328601E
:1058B000207810F0080F06D02069296821F4604193
:1058C00041EAC00028602048296811F00C0226D067
:1058D0004110042A08BF084621D0082A1FD11B4CBA
:1058E0002268236802F03F0213F4800F08D020687A
:1058F0000023C0F38810A0FB0101FAF7FBFC07E0CE
:1059000021680023C1F38811A1FB0001FAF7F2FC22
:105910002168C1F30141491C4900B0FBF1F029683D
:105920000B4AC1F30311515CC8400A4908600020CA
:10593000FFF752FB0020BDE8F0870000003C02406A
:1059400008380240003802400024F40004380240C5
:1059500040052100CC0B00200F4A0F234DF8044DC9
:1059600003604FF4E05C0D4B146804F003044460E2
:10597000146804F0F0048460146804F4E054C46013
:1059800012680CEAD2020261186800F00F00086089
:105990005DF8044B7047000008380240003C0240AC
:1059A0000449054809680068044AC1F38221515C32
:1059B000C840704708380240CC0B00205005210039
:1059C0000449054809680068044AC1F34231515C42
:1059D000C840704708380240CC0B00205005210019
:1059E00018491948096811F00C0208BF7047174997
:1059F000042A04BF08467047082A18BF704710B52C
:105A0000134C2268236802F03F0213F4800F08D081
:105A100020680023C0F38810A0FB0101FAF76AFC9C
:105A200007E021680023C1F38811A1FB0001FAF708
:105A300061FC2168C1F30141491C4900B0FBF1F050
:105A400010BD0000083802400024F40000127A0063
:105A5000043802402DE9F84F04004FF0000B00F02D
:105A6000C8812078DFF89093E44D10F0010F5DD0ED
:105A7000D9F8000000F00C0004280BD0D9F8000081
:105A800000F00C0008280ED105F10400006810F4A5
:105A9000800F08D0286810F4003F47D060680028C5
:105AA00000F0A78142E06068B0F5803F04BF28683D
:105AB00040F480300AD010B1B0F5A02F11D0286882
:105AC00020F480302860286820F4802028606068F6
:105AD000D0B1FEF7EFFB0646286810F4003F08D06F
